{
  "contractName": "Crowdsale",
  "abi": [
    {
      "inputs": [
        {
          "internalType": "uint256",
          "name": "rate",
          "type": "uint256"
        },
        {
          "internalType": "address payable",
          "name": "wallet",
          "type": "address"
        },
        {
          "internalType": "contract IERC20",
          "name": "token",
          "type": "address"
        }
      ],
      "stateMutability": "nonpayable",
      "type": "constructor"
    },
    {
      "anonymous": false,
      "inputs": [
        {
          "indexed": true,
          "internalType": "address",
          "name": "purchaser",
          "type": "address"
        },
        {
          "indexed": true,
          "internalType": "address",
          "name": "beneficiary",
          "type": "address"
        },
        {
          "indexed": false,
          "internalType": "uint256",
          "name": "value",
          "type": "uint256"
        },
        {
          "indexed": false,
          "internalType": "uint256",
          "name": "amount",
          "type": "uint256"
        }
      ],
      "name": "TokensPurchased",
      "type": "event"
    },
    {
      "stateMutability": "payable",
      "type": "fallback"
    },
    {
      "inputs": [],
      "name": "_token",
      "outputs": [
        {
          "internalType": "contract IERC20",
          "name": "",
          "type": "address"
        }
      ],
      "stateMutability": "view",
      "type": "function"
    },
    {
      "inputs": [],
      "name": "_wallet",
      "outputs": [
        {
          "internalType": "address payable",
          "name": "",
          "type": "address"
        }
      ],
      "stateMutability": "view",
      "type": "function"
    },
    {
      "inputs": [],
      "name": "token",
      "outputs": [
        {
          "internalType": "contract IERC20",
          "name": "",
          "type": "address"
        }
      ],
      "stateMutability": "view",
      "type": "function"
    },
    {
      "inputs": [],
      "name": "wallet",
      "outputs": [
        {
          "internalType": "address payable",
          "name": "",
          "type": "address"
        }
      ],
      "stateMutability": "view",
      "type": "function"
    },
    {
      "inputs": [],
      "name": "rate",
      "outputs": [
        {
          "internalType": "uint256",
          "name": "",
          "type": "uint256"
        }
      ],
      "stateMutability": "view",
      "type": "function"
    },
    {
      "inputs": [],
      "name": "weiRaised",
      "outputs": [
        {
          "internalType": "uint256",
          "name": "",
          "type": "uint256"
        }
      ],
      "stateMutability": "view",
      "type": "function"
    },
    {
      "inputs": [
        {
          "internalType": "address",
          "name": "beneficiary",
          "type": "address"
        }
      ],
      "name": "buyTokens",
      "outputs": [],
      "stateMutability": "payable",
      "type": "function"
    }
  ],
  "bytecode": "0x60806040523480156200001157600080fd5b506040516200146a3803806200146a833981810160405281019062000037919062000242565b60016000819055506000831162000085576040517f08c379a00000000000000000000000000000000000000000000000000000000081526004016200007c90620003cc565b60405180910390fd5b600073ffffffffffffffffffffffffffffffffffffffff168273ffffffffffffffffffffffffffffffffffffffff161415620000f8576040517f08c379a0000000000000000000000000000000000000000000000000000000008152600401620000ef90620003ee565b60405180910390fd5b600073ffffffffffffffffffffffffffffffffffffffff168173ffffffffffffffffffffffffffffffffffffffff1614156200016b576040517f08c379a00000000000000000000000000000000000000000000000000000000081526004016200016290620003aa565b60405180910390fd5b8260038190555081600260006101000a81548173ffffffffffffffffffffffffffffffffffffffff021916908373ffffffffffffffffffffffffffffffffffffffff16021790555080600160006101000a81548173ffffffffffffffffffffffffffffffffffffffff021916908373ffffffffffffffffffffffffffffffffffffffff160217905550505050620004d5565b6000815190506200020e8162000487565b92915050565b6000815190506200022581620004a1565b92915050565b6000815190506200023c81620004bb565b92915050565b6000806000606084860312156200025857600080fd5b600062000268868287016200022b565b93505060206200027b86828701620001fd565b92505060406200028e8682870162000214565b9150509250925092565b6000620002a760248362000410565b91507f43726f776473616c653a20746f6b656e20697320746865207a65726f2061646460008301527f72657373000000000000000000000000000000000000000000000000000000006020830152604082019050919050565b60006200030f60148362000410565b91507f43726f776473616c653a207261746520697320300000000000000000000000006000830152602082019050919050565b60006200035160258362000410565b91507f43726f776473616c653a2077616c6c657420697320746865207a65726f20616460008301527f64726573730000000000000000000000000000000000000000000000000000006020830152604082019050919050565b60006020820190508181036000830152620003c58162000298565b9050919050565b60006020820190508181036000830152620003e78162000300565b9050919050565b60006020820190508181036000830152620004098162000342565b9050919050565b600082825260208201905092915050565b60006200042e826200045d565b9050919050565b600062000442826200045d565b9050919050565b6000620004568262000421565b9050919050565b600073ffffffffffffffffffffffffffffffffffffffff82169050919050565b6000819050919050565b620004928162000435565b81146200049e57600080fd5b50565b620004ac8162000449565b8114620004b857600080fd5b50565b620004c6816200047d565b8114620004d257600080fd5b50565b610f8580620004e56000396000f3fe608060405260043610610091576000357c010000000000000000000000000000000000000000000000000000000090048063610757e41161006b578063610757e414610125578063ec8ac4d814610150578063ecd0c0c31461016c578063fc0c546a1461019757610092565b80632c4e722e146100a45780634042b66f146100cf578063521eb273146100fa57610092565b5b6100a261009d6101c2565b6101ca565b005b3480156100b057600080fd5b506100b96102f0565b6040516100c69190610d0a565b60405180910390f35b3480156100db57600080fd5b506100e46102fa565b6040516100f19190610d0a565b60405180910390f35b34801561010657600080fd5b5061010f610304565b60405161011c9190610bc9565b60405180910390f35b34801561013157600080fd5b5061013a61032e565b6040516101479190610bc9565b60405180910390f35b61016a600480360381019061016591906108c8565b6101ca565b005b34801561017857600080fd5b50610181610354565b60405161018e9190610c0d565b60405180910390f35b3480156101a357600080fd5b506101ac61037a565b6040516101b99190610c0d565b60405180910390f35b600033905090565b60026000541415610210576040517f08c379a000000000000000000000000000000000000000000000000000000000815260040161020790610cca565b60405180910390fd5b6002600081905550600034905061022782826103a4565b60006102328261045c565b90506102498260045461047a90919063ffffffff16565b6004819055506102598382610490565b8273ffffffffffffffffffffffffffffffffffffffff166102786101c2565b73ffffffffffffffffffffffffffffffffffffffff167f6faf93231a456e552dbc9961f58d9713ee4f2e69d15f1975b050ef0911053a7b84846040516102bf929190610d25565b60405180910390a36102d1838361049e565b6102d96104a2565b6102e3838361050d565b5050600160008190555050565b6000600354905090565b6000600454905090565b6000600260009054906101000a900473ffffffffffffffffffffffffffffffffffffffff16905090565b600260009054906101000a900473ffffffffffffffffffffffffffffffffffffffff1681565b600160009054906101000a900473ffffffffffffffffffffffffffffffffffffffff1681565b6000600160009054906101000a900473ffffffffffffffffffffffffffffffffffffffff16905090565b600073ffffffffffffffffffffffffffffffffffffffff168273ffffffffffffffffffffffffffffffffffffffff161415610414576040517f08c379a000000000000000000000000000000000000000000000000000000000815260040161040b90610c6a565b60405180910390fd5b6000811415610458576040517f08c379a000000000000000000000000000000000000000000000000000000000815260040161044f90610cea565b60405180910390fd5b5050565b60006104736003548361051190919063ffffffff16565b9050919050565b600081836104889190610d80565b905092915050565b61049a8282610527565b5050565b5050565b600260009054906101000a900473ffffffffffffffffffffffffffffffffffffffff1673ffffffffffffffffffffffffffffffffffffffff166108fc349081150290604051600060405180830381858888f1935050505015801561050a573d6000803e3d6000fd5b50565b5050565b6000818361051f9190610dd6565b905092915050565b6105748282600160009054906101000a900473ffffffffffffffffffffffffffffffffffffffff1673ffffffffffffffffffffffffffffffffffffffff166105789092919063ffffffff16565b5050565b6106158363a9059cbb7c01000000000000000000000000000000000000000000000000000000000284846040516024016105b3929190610be4565b604051602081830303815290604052907bffffffffffffffffffffffffffffffffffffffffffffffffffffffff19166020820180517bffffffffffffffffffffffffffffffffffffffffffffffffffffffff838183161783525050505061061a565b505050565b600061067c826040518060400160405280602081526020017f5361666545524332303a206c6f772d6c6576656c2063616c6c206661696c65648152508573ffffffffffffffffffffffffffffffffffffffff166106e19092919063ffffffff16565b90506000815111156106dc578080602001905181019061069c91906108f1565b6106db576040517f08c379a00000000000000000000000000000000000000000000000000000000081526004016106d290610caa565b60405180910390fd5b5b505050565b60606106f084846000856106f9565b90509392505050565b6060823073ffffffffffffffffffffffffffffffffffffffff16311015610755576040517f08c379a000000000000000000000000000000000000000000000000000000000815260040161074c90610c4a565b60405180910390fd5b61075e85610824565b61079d576040517f08c379a000000000000000000000000000000000000000000000000000000000815260040161079490610c8a565b60405180910390fd5b6000808673ffffffffffffffffffffffffffffffffffffffff1685876040516107c69190610bb2565b60006040518083038185875af1925050503d8060008114610803576040519150601f19603f3d011682016040523d82523d6000602084013e610808565b606091505b5091509150610818828286610837565b92505050949350505050565b600080823b905060008111915050919050565b6060831561084757829050610897565b60008351111561085a5782518084602001fd5b816040517f08c379a000000000000000000000000000000000000000000000000000000000815260040161088e9190610c28565b60405180910390fd5b9392505050565b6000813590506108ad81610f21565b92915050565b6000815190506108c281610f38565b92915050565b6000602082840312156108da57600080fd5b60006108e88482850161089e565b91505092915050565b60006020828403121561090357600080fd5b6000610911848285016108b3565b91505092915050565b61092381610e42565b82525050565b61093281610e30565b82525050565b600061094382610d4e565b61094d8185610d64565b935061095d818560208601610eae565b80840191505092915050565b61097281610e8a565b82525050565b600061098382610d59565b61098d8185610d6f565b935061099d818560208601610eae565b6109a681610f10565b840191505092915050565b60006109be602683610d6f565b91507f416464726573733a20696e73756666696369656e742062616c616e636520666f60008301527f722063616c6c00000000000000000000000000000000000000000000000000006020830152604082019050919050565b6000610a24602a83610d6f565b91507f43726f776473616c653a2062656e656669636961727920697320746865207a6560008301527f726f2061646472657373000000000000000000000000000000000000000000006020830152604082019050919050565b6000610a8a601d83610d6f565b91507f416464726573733a2063616c6c20746f206e6f6e2d636f6e74726163740000006000830152602082019050919050565b6000610aca602a83610d6f565b91507f5361666545524332303a204552433230206f7065726174696f6e20646964206e60008301527f6f742073756363656564000000000000000000000000000000000000000000006020830152604082019050919050565b6000610b30601f83610d6f565b91507f5265656e7472616e637947756172643a207265656e7472616e742063616c6c006000830152602082019050919050565b6000610b70601983610d6f565b91507f43726f776473616c653a20776569416d6f756e742069732030000000000000006000830152602082019050919050565b610bac81610e80565b82525050565b6000610bbe8284610938565b915081905092915050565b6000602082019050610bde600083018461091a565b92915050565b6000604082019050610bf96000830185610929565b610c066020830184610ba3565b9392505050565b6000602082019050610c226000830184610969565b92915050565b60006020820190508181036000830152610c428184610978565b905092915050565b60006020820190508181036000830152610c63816109b1565b9050919050565b60006020820190508181036000830152610c8381610a17565b9050919050565b60006020820190508181036000830152610ca381610a7d565b9050919050565b60006020820190508181036000830152610cc381610abd565b9050919050565b60006020820190508181036000830152610ce381610b23565b9050919050565b60006020820190508181036000830152610d0381610b63565b9050919050565b6000602082019050610d1f6000830184610ba3565b92915050565b6000604082019050610d3a6000830185610ba3565b610d476020830184610ba3565b9392505050565b600081519050919050565b600081519050919050565b600081905092915050565b600082825260208201905092915050565b6000610d8b82610e80565b9150610d9683610e80565b9250827fffffffffffffffffffffffffffffffffffffffffffffffffffffffffffffffff03821115610dcb57610dca610ee1565b5b828201905092915050565b6000610de182610e80565b9150610dec83610e80565b9250817fffffffffffffffffffffffffffffffffffffffffffffffffffffffffffffffff0483118215151615610e2557610e24610ee1565b5b828202905092915050565b6000610e3b82610e60565b9050919050565b6000610e4d82610e60565b9050919050565b60008115159050919050565b600073ffffffffffffffffffffffffffffffffffffffff82169050919050565b6000819050919050565b6000610e9582610e9c565b9050919050565b6000610ea782610e60565b9050919050565b60005b83811015610ecc578082015181840152602081019050610eb1565b83811115610edb576000848401525b50505050565b7f4e487b7100000000000000000000000000000000000000000000000000000000600052601160045260246000fd5b6000601f19601f8301169050919050565b610f2a81610e30565b8114610f3557600080fd5b50565b610f4181610e54565b8114610f4c57600080fd5b5056fea26469706673582212207f4ceedb521fac2e8e0406cd293d0e4857be5962273c0274f6f07e9943da300564736f6c63430008000033",
  "immutableReferences": {},
  "source": "pragma solidity ^0.8.0;\n\nimport \"../../../../node_modules/@openzeppelin/contracts/utils/Context.sol\";\nimport \"../../../../node_modules/@openzeppelin/contracts/token/ERC20/IERC20.sol\";\nimport \"../../../../node_modules/@openzeppelin/contracts/utils/math/SafeMath.sol\";\nimport \"../../../../node_modules/@openzeppelin/contracts/token/ERC20/utils/SafeERC20.sol\";\nimport \"../../../../node_modules/@openzeppelin/contracts/security/ReentrancyGuard.sol\";\n\n/**\n *                      FORKED FROM ZEPPEILINE v2\n * @title Crowdsale\n * @dev Crowdsale is a base contract for managing a token crowdsale,\n * allowing investors to purchase tokens with ether. This contract implements\n * such functionality in its most fundamental form and can be extended to provide additional\n * functionality and/or custom behavior.\n * The external interface represents the basic interface for purchasing tokens, and conforms\n * the base architecture for crowdsales. It is *not* intended to be modified / overridden.\n * The internal interface conforms the extensible and modifiable surface of crowdsales. Override\n * the methods to add functionality. Consider using 'super' where appropriate to concatenate\n * behavior.\n */\ncontract Crowdsale is Context, ReentrancyGuard {\n    using SafeMath for uint256;\n    using SafeERC20 for IERC20;\n\n    // The token being sold\n    IERC20 public _token;\n\n    // Address where funds are collected\n    address payable public _wallet;\n\n    // How many token units a buyer gets per wei.\n    // The rate is the conversion between wei and the smallest and indivisible token unit.\n    // So, if you are using a rate of 1 with a ERC20Detailed token with 3 decimals called TOK\n    // 1 wei will give you 1 unit, or 0.001 TOK.\n    uint256 private _rate;\n\n    // Amount of wei raised\n    uint256 private _weiRaised;\n\n    /**\n     * Event for token purchase logging\n     * @param purchaser who paid for the tokens\n     * @param beneficiary who got the tokens\n     * @param value weis paid for purchase\n     * @param amount amount of tokens purchased\n     */\n    event TokensPurchased(address indexed purchaser, address indexed beneficiary, uint256 value, uint256 amount);\n\n    /**\n     * @param rate Number of token units a buyer gets per wei\n     * @dev The rate is the conversion between wei and the smallest and indivisible\n     * token unit. So, if you are using a rate of 1 with a ERC20Detailed token\n     * with 3 decimals called TOK, 1 wei will give you 1 unit, or 0.001 TOK.\n     * @param wallet Address where collected funds will be forwarded to\n     * @param token Address of the token being sold\n     */\n    constructor (uint256 rate, address payable wallet, IERC20 token) public {\n        require(rate > 0, \"Crowdsale: rate is 0\");\n        require(wallet != address(0), \"Crowdsale: wallet is the zero address\");\n        require(address(token) != address(0), \"Crowdsale: token is the zero address\");\n\n        _rate = rate;\n        _wallet = wallet;\n        _token = token;\n    }\n\n    /**\n     * @dev fallback function ***DO NOT OVERRIDE***\n     * Note that other contracts will transfer funds with a base gas stipend\n     * of 2300, which is not enough to call buyTokens. Consider calling\n     * buyTokens directly when purchasing tokens from a contract.\n     */\n    fallback() external payable {\n        buyTokens(_msgSender());\n    }\n\n    /**\n     * @return the token being sold.\n     */\n    function token() public view returns (IERC20) {\n        return _token;\n    }\n\n    /**\n     * @return the address where funds are collected.\n     */\n    function wallet() public view returns (address payable) {\n        return _wallet;\n    }\n\n    /**\n     * @return the number of token units a buyer gets per wei.\n     */\n    function rate() public view returns (uint256) {\n        return _rate;\n    }\n\n    /**\n     * @return the amount of wei raised.\n     */\n    function weiRaised() public view returns (uint256) {\n        return _weiRaised;\n    }\n\n    /**\n     * @dev low level token purchase ***DO NOT OVERRIDE***\n     * This function has a non-reentrancy guard, so it shouldn't be called by\n     * another `nonReentrant` function.\n     * @param beneficiary Recipient of the token purchase\n     */\n    function buyTokens(address beneficiary) public nonReentrant payable {\n        uint256 weiAmount = msg.value;\n        _preValidatePurchase(beneficiary, weiAmount);\n\n        // calculate token amount to be created\n        uint256 tokens = _getTokenAmount(weiAmount);\n\n        // update state\n        _weiRaised = _weiRaised.add(weiAmount);\n\n        _processPurchase(beneficiary, tokens);\n        emit TokensPurchased(_msgSender(), beneficiary, weiAmount, tokens);\n\n        _updatePurchasingState(beneficiary, weiAmount);\n\n        _forwardFunds();\n        _postValidatePurchase(beneficiary, weiAmount);\n    }\n\n    /**\n     * @dev Validation of an incoming purchase. Use require statements to revert state when conditions are not met.\n     * Use `super` in contracts that inherit from Crowdsale to extend their validations.\n     * Example from CappedCrowdsale.sol's _preValidatePurchase method:\n     *     super._preValidatePurchase(beneficiary, weiAmount);\n     *     require(weiRaised().add(weiAmount) <= cap);\n     * @param beneficiary Address performing the token purchase\n     * @param weiAmount Value in wei involved in the purchase\n     */\n    function _preValidatePurchase(address beneficiary, uint256 weiAmount) internal view {\n        require(beneficiary != address(0), \"Crowdsale: beneficiary is the zero address\");\n        require(weiAmount != 0, \"Crowdsale: weiAmount is 0\");\n        this; // silence state mutability warning without generating bytecode - see https://github.com/ethereum/solidity/issues/2691\n    }\n\n    /**\n     * @dev Validation of an executed purchase. Observe state and use revert statements to undo rollback when valid\n     * conditions are not met.\n     * @param beneficiary Address performing the token purchase\n     * @param weiAmount Value in wei involved in the purchase\n     */\n    function _postValidatePurchase(address beneficiary, uint256 weiAmount) internal view {\n        // solhint-disable-previous-line no-empty-blocks\n    }\n\n    /**\n     * @dev Source of tokens. Override this method to modify the way in which the crowdsale ultimately gets and sends\n     * its tokens.\n     * @param beneficiary Address performing the token purchase\n     * @param tokenAmount Number of tokens to be emitted\n     */\n    function _deliverTokens(address beneficiary, uint256 tokenAmount) internal {\n        _token.safeTransfer(beneficiary, tokenAmount);\n    }\n\n    /**\n     * @dev Executed when a purchase has been validated and is ready to be executed. Doesn't necessarily emit/send\n     * tokens.\n     * @param beneficiary Address receiving the tokens\n     * @param tokenAmount Number of tokens to be purchased\n     */\n    function _processPurchase(address beneficiary, uint256 tokenAmount) internal {\n        _deliverTokens(beneficiary, tokenAmount);\n    }\n\n    /**\n     * @dev Override for extensions that require an internal state to check for validity (current user contributions,\n     * etc.)\n     * @param beneficiary Address receiving the tokens\n     * @param weiAmount Value in wei involved in the purchase\n     */\n    function _updatePurchasingState(address beneficiary, uint256 weiAmount) internal {\n        // solhint-disable-previous-line no-empty-blocks\n    }\n\n    /**\n     * @dev Override to extend the way in which ether is converted to tokens.\n     * @param weiAmount Value in wei to be converted into tokens\n     * @return Number of tokens that can be purchased with the specified _weiAmount\n     */\n    function _getTokenAmount(uint256 weiAmount) internal view returns (uint256) {\n        return weiAmount.mul(_rate);\n    }\n\n    /**\n     * @dev Determines how ETH is stored/forwarded on purchases.\n     */\n    function _forwardFunds() internal {\n        _wallet.transfer(msg.value);\n    }\n}\n",
  "sourcePath": "/home/jack/ethProjects/UniversalNFTMarketplace/contracts/721/singleton/crowdsale/Crowdsale.sol",
  "compiler": {
    "name": "solc",
    "version": "0.8.0+commit.c7dfd78e.Emscripten.clang"
  },
  "schemaVersion": "3.4.1",
  "updatedAt": "2021-06-20T19:06:23.781Z",
  "devdoc": {
    "details": "Crowdsale is a base contract for managing a token crowdsale, allowing investors to purchase tokens with ether. This contract implements such functionality in its most fundamental form and can be extended to provide additional functionality and/or custom behavior. The external interface represents the basic interface for purchasing tokens, and conforms the base architecture for crowdsales. It is *not* intended to be modified / overridden. The internal interface conforms the extensible and modifiable surface of crowdsales. Override the methods to add functionality. Consider using 'super' where appropriate to concatenate behavior.",
    "events": {
      "TokensPurchased(address,address,uint256,uint256)": {
        "params": {
          "amount": "amount of tokens purchased",
          "beneficiary": "who got the tokens",
          "purchaser": "who paid for the tokens",
          "value": "weis paid for purchase"
        }
      }
    },
    "kind": "dev",
    "methods": {
      "buyTokens(address)": {
        "details": "low level token purchase ***DO NOT OVERRIDE*** This function has a non-reentrancy guard, so it shouldn't be called by another `nonReentrant` function.",
        "params": {
          "beneficiary": "Recipient of the token purchase"
        }
      },
      "constructor": {
        "details": "The rate is the conversion between wei and the smallest and indivisible token unit. So, if you are using a rate of 1 with a ERC20Detailed token with 3 decimals called TOK, 1 wei will give you 1 unit, or 0.001 TOK.",
        "params": {
          "rate": "Number of token units a buyer gets per wei",
          "token": "Address of the token being sold",
          "wallet": "Address where collected funds will be forwarded to"
        }
      },
      "rate()": {
        "returns": {
          "_0": "the number of token units a buyer gets per wei."
        }
      },
      "token()": {
        "returns": {
          "_0": "the token being sold."
        }
      },
      "wallet()": {
        "returns": {
          "_0": "the address where funds are collected."
        }
      },
      "weiRaised()": {
        "returns": {
          "_0": "the amount of wei raised."
        }
      }
    },
    "title": "Crowdsale",
    "version": 1
  },
  "userdoc": {
    "events": {
      "TokensPurchased(address,address,uint256,uint256)": {
        "notice": "Event for token purchase logging"
      }
    },
    "kind": "user",
    "methods": {},
    "notice": "FORKED FROM ZEPPEILINE v2",
    "version": 1
  }
}