{
  "contractName": "MSNFT",
  "abi": [
    {
      "inputs": [
        {
          "internalType": "string",
          "name": "name_",
          "type": "string"
        },
        {
          "internalType": "string",
          "name": "smbl_",
          "type": "string"
        }
      ],
      "stateMutability": "nonpayable",
      "type": "constructor"
    },
    {
      "anonymous": false,
      "inputs": [
        {
          "indexed": true,
          "internalType": "address",
          "name": "owner",
          "type": "address"
        },
        {
          "indexed": true,
          "internalType": "address",
          "name": "approved",
          "type": "address"
        },
        {
          "indexed": true,
          "internalType": "uint256",
          "name": "tokenId",
          "type": "uint256"
        }
      ],
      "name": "Approval",
      "type": "event"
    },
    {
      "anonymous": false,
      "inputs": [
        {
          "indexed": true,
          "internalType": "address",
          "name": "owner",
          "type": "address"
        },
        {
          "indexed": true,
          "internalType": "address",
          "name": "operator",
          "type": "address"
        },
        {
          "indexed": false,
          "internalType": "bool",
          "name": "approved",
          "type": "bool"
        }
      ],
      "name": "ApprovalForAll",
      "type": "event"
    },
    {
      "anonymous": false,
      "inputs": [
        {
          "indexed": true,
          "internalType": "address",
          "name": "visitor_wallet",
          "type": "address"
        },
        {
          "indexed": true,
          "internalType": "uint256",
          "name": "event_id",
          "type": "uint256"
        },
        {
          "indexed": true,
          "internalType": "uint256",
          "name": "ticket_id",
          "type": "uint256"
        }
      ],
      "name": "ItemBought",
      "type": "event"
    },
    {
      "anonymous": false,
      "inputs": [
        {
          "indexed": false,
          "internalType": "address",
          "name": "visitor_wallet",
          "type": "address"
        },
        {
          "indexed": false,
          "internalType": "uint256",
          "name": "event_id",
          "type": "uint256"
        },
        {
          "indexed": false,
          "internalType": "uint256",
          "name": "ticket_id",
          "type": "uint256"
        }
      ],
      "name": "ItemBoughtHuman",
      "type": "event"
    },
    {
      "anonymous": false,
      "inputs": [
        {
          "indexed": true,
          "internalType": "address",
          "name": "ticket_sale",
          "type": "address"
        },
        {
          "indexed": true,
          "internalType": "uint256",
          "name": "event_id",
          "type": "uint256"
        }
      ],
      "name": "MasterIdReserved",
      "type": "event"
    },
    {
      "anonymous": false,
      "inputs": [
        {
          "indexed": false,
          "internalType": "address",
          "name": "ticket_sale",
          "type": "address"
        },
        {
          "indexed": false,
          "internalType": "uint256",
          "name": "event_id",
          "type": "uint256"
        }
      ],
      "name": "MasterIdReservedHuman",
      "type": "event"
    },
    {
      "anonymous": false,
      "inputs": [
        {
          "indexed": true,
          "internalType": "address",
          "name": "from",
          "type": "address"
        },
        {
          "indexed": true,
          "internalType": "address",
          "name": "to",
          "type": "address"
        },
        {
          "indexed": true,
          "internalType": "uint256",
          "name": "tokenId",
          "type": "uint256"
        }
      ],
      "name": "Transfer",
      "type": "event"
    },
    {
      "inputs": [
        {
          "internalType": "uint256",
          "name": "",
          "type": "uint256"
        }
      ],
      "name": "JIDs",
      "outputs": [
        {
          "internalType": "string",
          "name": "",
          "type": "string"
        }
      ],
      "stateMutability": "view",
      "type": "function"
    },
    {
      "inputs": [
        {
          "internalType": "uint256",
          "name": "",
          "type": "uint256"
        }
      ],
      "name": "MetaInfo",
      "outputs": [
        {
          "internalType": "string",
          "name": "magnet_link",
          "type": "string"
        },
        {
          "internalType": "string",
          "name": "description",
          "type": "string"
        },
        {
          "internalType": "address",
          "name": "author",
          "type": "address"
        },
        {
          "internalType": "enum MSNFT.RarityType",
          "name": "rarity",
          "type": "uint8"
        },
        {
          "internalType": "uint256",
          "name": "i_totalSupply",
          "type": "uint256"
        }
      ],
      "stateMutability": "view",
      "type": "function"
    },
    {
      "inputs": [
        {
          "internalType": "address",
          "name": "to",
          "type": "address"
        },
        {
          "internalType": "uint256",
          "name": "tokenId",
          "type": "uint256"
        }
      ],
      "name": "approve",
      "outputs": [],
      "stateMutability": "nonpayable",
      "type": "function"
    },
    {
      "inputs": [
        {
          "internalType": "uint256",
          "name": "",
          "type": "uint256"
        }
      ],
      "name": "authors",
      "outputs": [
        {
          "internalType": "address",
          "name": "",
          "type": "address"
        }
      ],
      "stateMutability": "view",
      "type": "function"
    },
    {
      "inputs": [
        {
          "internalType": "address",
          "name": "owner",
          "type": "address"
        }
      ],
      "name": "balanceOf",
      "outputs": [
        {
          "internalType": "uint256",
          "name": "",
          "type": "uint256"
        }
      ],
      "stateMutability": "view",
      "type": "function"
    },
    {
      "inputs": [
        {
          "internalType": "uint256",
          "name": "tokenId",
          "type": "uint256"
        }
      ],
      "name": "getApproved",
      "outputs": [
        {
          "internalType": "address",
          "name": "",
          "type": "address"
        }
      ],
      "stateMutability": "view",
      "type": "function"
    },
    {
      "inputs": [
        {
          "internalType": "address",
          "name": "owner",
          "type": "address"
        },
        {
          "internalType": "address",
          "name": "operator",
          "type": "address"
        }
      ],
      "name": "isApprovedForAll",
      "outputs": [
        {
          "internalType": "bool",
          "name": "",
          "type": "bool"
        }
      ],
      "stateMutability": "view",
      "type": "function"
    },
    {
      "inputs": [
        {
          "internalType": "uint256",
          "name": "",
          "type": "uint256"
        },
        {
          "internalType": "uint256",
          "name": "",
          "type": "uint256"
        }
      ],
      "name": "itemIds",
      "outputs": [
        {
          "internalType": "uint256",
          "name": "",
          "type": "uint256"
        }
      ],
      "stateMutability": "view",
      "type": "function"
    },
    {
      "inputs": [
        {
          "internalType": "uint256",
          "name": "",
          "type": "uint256"
        }
      ],
      "name": "mastersales",
      "outputs": [
        {
          "internalType": "address",
          "name": "",
          "type": "address"
        }
      ],
      "stateMutability": "view",
      "type": "function"
    },
    {
      "inputs": [],
      "name": "name",
      "outputs": [
        {
          "internalType": "string",
          "name": "",
          "type": "string"
        }
      ],
      "stateMutability": "view",
      "type": "function"
    },
    {
      "inputs": [
        {
          "internalType": "uint256",
          "name": "tokenId",
          "type": "uint256"
        }
      ],
      "name": "ownerOf",
      "outputs": [
        {
          "internalType": "address",
          "name": "",
          "type": "address"
        }
      ],
      "stateMutability": "view",
      "type": "function"
    },
    {
      "inputs": [
        {
          "internalType": "address",
          "name": "from",
          "type": "address"
        },
        {
          "internalType": "address",
          "name": "to",
          "type": "address"
        },
        {
          "internalType": "uint256",
          "name": "tokenId",
          "type": "uint256"
        }
      ],
      "name": "safeTransferFrom",
      "outputs": [],
      "stateMutability": "nonpayable",
      "type": "function"
    },
    {
      "inputs": [
        {
          "internalType": "address",
          "name": "from",
          "type": "address"
        },
        {
          "internalType": "address",
          "name": "to",
          "type": "address"
        },
        {
          "internalType": "uint256",
          "name": "tokenId",
          "type": "uint256"
        },
        {
          "internalType": "bytes",
          "name": "_data",
          "type": "bytes"
        }
      ],
      "name": "safeTransferFrom",
      "outputs": [],
      "stateMutability": "nonpayable",
      "type": "function"
    },
    {
      "inputs": [
        {
          "internalType": "address",
          "name": "operator",
          "type": "address"
        },
        {
          "internalType": "bool",
          "name": "approved",
          "type": "bool"
        }
      ],
      "name": "setApprovalForAll",
      "outputs": [],
      "stateMutability": "nonpayable",
      "type": "function"
    },
    {
      "inputs": [
        {
          "internalType": "bytes4",
          "name": "interfaceId",
          "type": "bytes4"
        }
      ],
      "name": "supportsInterface",
      "outputs": [
        {
          "internalType": "bool",
          "name": "",
          "type": "bool"
        }
      ],
      "stateMutability": "view",
      "type": "function"
    },
    {
      "inputs": [],
      "name": "symbol",
      "outputs": [
        {
          "internalType": "string",
          "name": "",
          "type": "string"
        }
      ],
      "stateMutability": "view",
      "type": "function"
    },
    {
      "inputs": [
        {
          "internalType": "uint256",
          "name": "index",
          "type": "uint256"
        }
      ],
      "name": "tokenByIndex",
      "outputs": [
        {
          "internalType": "uint256",
          "name": "",
          "type": "uint256"
        }
      ],
      "stateMutability": "view",
      "type": "function"
    },
    {
      "inputs": [
        {
          "internalType": "address",
          "name": "owner",
          "type": "address"
        },
        {
          "internalType": "uint256",
          "name": "index",
          "type": "uint256"
        }
      ],
      "name": "tokenOfOwnerByIndex",
      "outputs": [
        {
          "internalType": "uint256",
          "name": "",
          "type": "uint256"
        }
      ],
      "stateMutability": "view",
      "type": "function"
    },
    {
      "inputs": [
        {
          "internalType": "uint256",
          "name": "tokenId",
          "type": "uint256"
        }
      ],
      "name": "tokenURI",
      "outputs": [
        {
          "internalType": "string",
          "name": "",
          "type": "string"
        }
      ],
      "stateMutability": "view",
      "type": "function"
    },
    {
      "inputs": [],
      "name": "totalSupply",
      "outputs": [
        {
          "internalType": "uint256",
          "name": "",
          "type": "uint256"
        }
      ],
      "stateMutability": "view",
      "type": "function"
    },
    {
      "inputs": [
        {
          "internalType": "address",
          "name": "from",
          "type": "address"
        },
        {
          "internalType": "address",
          "name": "to",
          "type": "address"
        },
        {
          "internalType": "uint256",
          "name": "tokenId",
          "type": "uint256"
        }
      ],
      "name": "transferFrom",
      "outputs": [],
      "stateMutability": "nonpayable",
      "type": "function"
    },
    {
      "inputs": [
        {
          "internalType": "address",
          "name": "from",
          "type": "address"
        },
        {
          "internalType": "address",
          "name": "to",
          "type": "address"
        },
        {
          "internalType": "uint256",
          "name": "tokenId",
          "type": "uint256"
        }
      ],
      "name": "_transferFromTicket",
      "outputs": [],
      "stateMutability": "nonpayable",
      "type": "function"
    },
    {
      "inputs": [
        {
          "internalType": "address",
          "name": "organizer",
          "type": "address"
        },
        {
          "internalType": "uint256",
          "name": "_masterId",
          "type": "uint256"
        },
        {
          "internalType": "address",
          "name": "_sale",
          "type": "address"
        }
      ],
      "name": "PlugCrowdSale",
      "outputs": [],
      "stateMutability": "nonpayable",
      "type": "function"
    },
    {
      "inputs": [
        {
          "internalType": "string",
          "name": "link",
          "type": "string"
        },
        {
          "internalType": "address",
          "name": "_author",
          "type": "address"
        },
        {
          "internalType": "string",
          "name": "_description",
          "type": "string"
        },
        {
          "internalType": "uint256",
          "name": "_supplyType",
          "type": "uint256"
        }
      ],
      "name": "createMasterCopy",
      "outputs": [
        {
          "internalType": "uint256",
          "name": "c_master_id",
          "type": "uint256"
        }
      ],
      "stateMutability": "nonpayable",
      "type": "function"
    },
    {
      "inputs": [
        {
          "internalType": "uint256",
          "name": "_masterId",
          "type": "uint256"
        }
      ],
      "name": "get_rarity",
      "outputs": [
        {
          "internalType": "enum MSNFT.RarityType",
          "name": "",
          "type": "uint8"
        }
      ],
      "stateMutability": "view",
      "type": "function"
    },
    {
      "inputs": [
        {
          "internalType": "uint256",
          "name": "_masterId",
          "type": "uint256"
        }
      ],
      "name": "get_author",
      "outputs": [
        {
          "internalType": "address",
          "name": "_author",
          "type": "address"
        }
      ],
      "stateMutability": "view",
      "type": "function"
    },
    {
      "inputs": [
        {
          "internalType": "address",
          "name": "buyer",
          "type": "address"
        },
        {
          "internalType": "uint256",
          "name": "itemAmount",
          "type": "uint256"
        },
        {
          "internalType": "uint256",
          "name": "master_id",
          "type": "uint256"
        }
      ],
      "name": "buyTicket",
      "outputs": [],
      "stateMutability": "nonpayable",
      "type": "function"
    },
    {
      "inputs": [
        {
          "internalType": "uint256",
          "name": "master_id",
          "type": "uint256"
        }
      ],
      "name": "getItemSale",
      "outputs": [
        {
          "internalType": "address",
          "name": "",
          "type": "address"
        }
      ],
      "stateMutability": "view",
      "type": "function"
    }
  ],
  "bytecode": "0x60806040523480156200001157600080fd5b5060405162004b8238038062004b828339818101604052810190620000379190620001d8565b8181816000908051906020019062000051929190620000b6565b5080600190805190602001906200006a929190620000b6565b50505033600c60006101000a81548173ffffffffffffffffffffffffffffffffffffffff021916908373ffffffffffffffffffffffffffffffffffffffff16021790555050506200037c565b828054620000c490620002e8565b90600052602060002090601f016020900481019282620000e8576000855562000134565b82601f106200010357805160ff191683800117855562000134565b8280016001018555821562000134579182015b828111156200013357825182559160200191906001019062000116565b5b50905062000143919062000147565b5090565b5b808211156200016257600081600090555060010162000148565b5090565b60006200017d62000177846200027f565b6200024b565b9050828152602081018484840111156200019657600080fd5b620001a3848285620002b2565b509392505050565b600082601f830112620001bd57600080fd5b8151620001cf84826020860162000166565b91505092915050565b60008060408385031215620001ec57600080fd5b600083015167ffffffffffffffff8111156200020757600080fd5b6200021585828601620001ab565b925050602083015167ffffffffffffffff8111156200023357600080fd5b6200024185828601620001ab565b9150509250929050565b6000604051905081810181811067ffffffffffffffff821117156200027557620002746200034d565b5b8060405250919050565b600067ffffffffffffffff8211156200029d576200029c6200034d565b5b601f19601f8301169050602081019050919050565b60005b83811015620002d2578082015181840152602081019050620002b5565b83811115620002e2576000848401525b50505050565b600060028204905060018216806200030157607f821691505b602082108114156200031857620003176200031e565b5b50919050565b7f4e487b7100000000000000000000000000000000000000000000000000000000600052602260045260246000fd5b7f4e487b7100000000000000000000000000000000000000000000000000000000600052604160045260246000fd5b6147f6806200038c6000396000f3fe608060405234801561001057600080fd5b50600436106101e1576000357c01000000000000000000000000000000000000000000000000000000009004806394ff3acc11610116578063b88d4fde116100b4578063e3e5c2b91161008e578063e3e5c2b9146105a4578063e985e9c5146105c0578063f1d121c1146105f0578063f520cb4c14610620576101e1565b8063b88d4fde14610528578063be5010b214610544578063c87b56dd14610574576101e1565b8063a22cb465116100f0578063a22cb46514610490578063ab31520a146104ac578063ad140b1d146104c8578063b661497a146104f8576101e1565b806394ff3acc1461042657806395d89b41146104425780639e004ba814610460576101e1565b806323b872dd1161018357806342842e0e1161015d57806342842e0e1461037a5780634f6ccce7146103965780636352211e146103c657806370a08231146103f6576101e1565b806323b872dd146102fe5780632f745c591461031a5780633db804da1461034a576101e1565b8063095ea7b3116101bf578063095ea7b3146102645780630e304d881461028057806318160ddd146102b0578063239e1d72146102ce576101e1565b806301ffc9a7146101e657806306fdde0314610216578063081812fc14610234575b600080fd5b61020060048036038101906101fb9190613516565b610654565b60405161020d9190613fca565b60405180910390f35b61021e6106ce565b60405161022b9190614000565b60405180910390f35b61024e600480360381019061024991906135fb565b610760565b60405161025b9190613f03565b60405180910390f35b61027e6004803603810190610279919061343c565b6107e5565b005b61029a600480360381019061029591906135fb565b6108fd565b6040516102a79190613f03565b60405180910390f35b6102b861093a565b6040516102c59190614323565b60405180910390f35b6102e860048036038101906102e391906135fb565b610947565b6040516102f59190613fe5565b60405180910390f35b61031860048036038101906103139190613336565b610b8f565b005b610334600480360381019061032f919061343c565b610bef565b6040516103419190614323565b60405180910390f35b610364600480360381019061035f91906135fb565b610c94565b6040516103719190613f03565b60405180910390f35b610394600480360381019061038f9190613336565b610cc7565b005b6103b060048036038101906103ab91906135fb565b610ce7565b6040516103bd9190614323565b60405180910390f35b6103e060048036038101906103db91906135fb565b610d7e565b6040516103ed9190613f03565b60405180910390f35b610410600480360381019061040b91906132d1565b610e30565b60405161041d9190614323565b60405180910390f35b610440600480360381019061043b9190613478565b610ee8565b005b61044a61131d565b6040516104579190614000565b60405180910390f35b61047a600480360381019061047591906135fb565b6113af565b6040516104879190613f03565b60405180910390f35b6104aa60048036038101906104a59190613400565b6113f1565b005b6104c660048036038101906104c19190613336565b611572565b005b6104e260048036038101906104dd91906135fb565b611582565b6040516104ef9190614000565b60405180910390f35b610512600480360381019061050d91906135fb565b611622565b60405161051f9190613f03565b60405180910390f35b610542600480360381019061053d9190613385565b611655565b005b61055e60048036038101906105599190613624565b6116b7565b60405161056b9190614323565b60405180910390f35b61058e600480360381019061058991906135fb565b6116e8565b60405161059b9190614000565b60405180910390f35b6105be60048036038101906105b991906134c7565b61178f565b005b6105da60048036038101906105d591906132fa565b611965565b6040516105e79190613fca565b60405180910390f35b61060a60048036038101906106059190613568565b6119f9565b6040516106179190614323565b60405180910390f35b61063a600480360381019061063591906135fb565b611dea565b60405161064b959493929190614022565b60405180910390f35b60007f780e9d63000000000000000000000000000000000000000000000000000000007bffffffffffffffffffffffffffffffffffffffffffffffffffffffff1916827bffffffffffffffffffffffffffffffffffffffffffffffffffffffff191614806106c757506106c682611f5d565b5b9050919050565b6060600080546106dd906145a8565b80601f0160208091040260200160405190810160405280929190818152602001828054610709906145a8565b80156107565780601f1061072b57610100808354040283529160200191610756565b820191906000526020600020905b81548152906001019060200180831161073957829003601f168201915b5050505050905090565b600061076b8261203f565b6107aa576040517f08c379a00000000000000000000000000000000000000000000000000000000081526004016107a1906141e3565b60405180910390fd5b6004600083815260200190815260200160002060009054906101000a900473ffffffffffffffffffffffffffffffffffffffff169050919050565b60006107f082610d7e565b90508073ffffffffffffffffffffffffffffffffffffffff168373ffffffffffffffffffffffffffffffffffffffff161415610861576040517f08c379a000000000000000000000000000000000000000000000000000000000815260040161085890614283565b60405180910390fd5b8073ffffffffffffffffffffffffffffffffffffffff166108806120ab565b73ffffffffffffffffffffffffffffffffffffffff1614806108af57506108ae816108a96120ab565b611965565b5b6108ee576040517f08c379a00000000000000000000000000000000000000000000000000000000081526004016108e590614163565b60405180910390fd5b6108f883836120b3565b505050565b60006011600083815260200190815260200160002060009054906101000a900473ffffffffffffffffffffffffffffffffffffffff169050919050565b6000600880549050905090565b6000610951613078565b601360008481526020019081526020016000206040518060a001604052908160008201805461097f906145a8565b80601f01602080910402602001604051908101604052809291908181526020018280546109ab906145a8565b80156109f85780601f106109cd576101008083540402835291602001916109f8565b820191906000526020600020905b8154815290600101906020018083116109db57829003601f168201915b50505050508152602001600182018054610a11906145a8565b80601f0160208091040260200160405190810160405280929190818152602001828054610a3d906145a8565b8015610a8a5780601f10610a5f57610100808354040283529160200191610a8a565b820191906000526020600020905b815481529060010190602001808311610a6d57829003601f168201915b505050505081526020016002820160009054906101000a900473ffffffffffffffffffffffffffffffffffffffff1673ffffffffffffffffffffffffffffffffffffffff1673ffffffffffffffffffffffffffffffffffffffff1681526020016002820160149054906101000a900460ff166002811115610b34577f4e487b7100000000000000000000000000000000000000000000000000000000600052602160045260246000fd5b6002811115610b6c577f4e487b7100000000000000000000000000000000000000000000000000000000600052602160045260246000fd5b815260200160038201548152505090506000816060015190508092505050919050565b610ba0610b9a6120ab565b8261216c565b610bdf576040517f08c379a0000000000000000000000000000000000000000000000000000000008152600401610bd6906142c3565b60405180910390fd5b610bea83838361224a565b505050565b6000610bfa83610e30565b8210610c3b576040517f08c379a0000000000000000000000000000000000000000000000000000000008152600401610c3290614083565b60405180910390fd5b600660008473ffffffffffffffffffffffffffffffffffffffff1673ffffffffffffffffffffffffffffffffffffffff168152602001908152602001600020600083815260200190815260200160002054905092915050565b60116020528060005260406000206000915054906101000a900473ffffffffffffffffffffffffffffffffffffffff1681565b610ce283838360405180602001604052806000815250611655565b505050565b6000610cf161093a565b8210610d32576040517f08c379a0000000000000000000000000000000000000000000000000000000008152600401610d29906142e3565b60405180910390fd5b60088281548110610d6c577f4e487b7100000000000000000000000000000000000000000000000000000000600052603260045260246000fd5b90600052602060002001549050919050565b6000806002600084815260200190815260200160002060009054906101000a900473ffffffffffffffffffffffffffffffffffffffff169050600073ffffffffffffffffffffffffffffffffffffffff168173ffffffffffffffffffffffffffffffffffffffff161415610e27576040517f08c379a0000000000000000000000000000000000000000000000000000000008152600401610e1e906141a3565b60405180910390fd5b80915050919050565b60008073ffffffffffffffffffffffffffffffffffffffff168273ffffffffffffffffffffffffffffffffffffffff161415610ea1576040517f08c379a0000000000000000000000000000000000000000000000000000000008152600401610e9890614183565b60405180910390fd5b600360008373ffffffffffffffffffffffffffffffffffffffff1673ffffffffffffffffffffffffffffffffffffffff168152602001908152602001600020549050919050565b600c60009054906101000a900473ffffffffffffffffffffffffffffffffffffffff1673ffffffffffffffffffffffffffffffffffffffff163373ffffffffffffffffffffffffffffffffffffffff1614610f78576040517f08c379a0000000000000000000000000000000000000000000000000000000008152600401610f6f90614263565b60405180910390fd5b610f80613078565b601360008481526020019081526020016000206040518060a0016040529081600082018054610fae906145a8565b80601f0160208091040260200160405190810160405280929190818152602001828054610fda906145a8565b80156110275780601f10610ffc57610100808354040283529160200191611027565b820191906000526020600020905b81548152906001019060200180831161100a57829003601f168201915b50505050508152602001600182018054611040906145a8565b80601f016020809104026020016040519081016040528092919081815260200182805461106c906145a8565b80156110b95780601f1061108e576101008083540402835291602001916110b9565b820191906000526020600020905b81548152906001019060200180831161109c57829003601f168201915b505050505081526020016002820160009054906101000a900473ffffffffffffffffffffffffffffffffffffffff1673ffffffffffffffffffffffffffffffffffffffff1673ffffffffffffffffffffffffffffffffffffffff1681526020016002820160149054906101000a900460ff166002811115611163577f4e487b7100000000000000000000000000000000000000000000000000000000600052602160045260246000fd5b600281111561119b577f4e487b7100000000000000000000000000000000000000000000000000000000600052602160045260246000fd5b815260200160038201548152505090506000816040015190508473ffffffffffffffffffffffffffffffffffffffff168173ffffffffffffffffffffffffffffffffffffffff1614611222576040517f08c379a0000000000000000000000000000000000000000000000000000000008152600401611219906140e3565b60405180910390fd5b600073ffffffffffffffffffffffffffffffffffffffff16600d600086815260200190815260200160002060009054906101000a900473ffffffffffffffffffffffffffffffffffffffff1673ffffffffffffffffffffffffffffffffffffffff16146112c4576040517f08c379a00000000000000000000000000000000000000000000000000000000081526004016112bb906142a3565b60405180910390fd5b82600d600086815260200190815260200160002060006101000a81548173ffffffffffffffffffffffffffffffffffffffff021916908373ffffffffffffffffffffffffffffffffffffffff1602179055505050505050565b60606001805461132c906145a8565b80601f0160208091040260200160405190810160405280929190818152602001828054611358906145a8565b80156113a55780601f1061137a576101008083540402835291602001916113a5565b820191906000526020600020905b81548152906001019060200180831161138857829003601f168201915b5050505050905090565b600080600d600084815260200190815260200160002060009054906101000a900473ffffffffffffffffffffffffffffffffffffffff16905080915050919050565b6113f96120ab565b73ffffffffffffffffffffffffffffffffffffffff168273ffffffffffffffffffffffffffffffffffffffff161415611467576040517f08c379a000000000000000000000000000000000000000000000000000000000815260040161145e90614123565b60405180910390fd5b80600560006114746120ab565b73ffffffffffffffffffffffffffffffffffffffff1673ffffffffffffffffffffffffffffffffffffffff16815260200190815260200160002060008473ffffffffffffffffffffffffffffffffffffffff1673ffffffffffffffffffffffffffffffffffffffff16815260200190815260200160002060006101000a81548160ff0219169083151502179055508173ffffffffffffffffffffffffffffffffffffffff166115216120ab565b73ffffffffffffffffffffffffffffffffffffffff167f17307eab39ab6107e8899845ad3d59bd9653f200f220920489ca2b5937696c31836040516115669190613fca565b60405180910390a35050565b61157d838383610cc7565b505050565b601260205280600052604060002060009150905080546115a1906145a8565b80601f01602080910402602001604051908101604052809291908181526020018280546115cd906145a8565b801561161a5780601f106115ef5761010080835404028352916020019161161a565b820191906000526020600020905b8154815290600101906020018083116115fd57829003601f168201915b505050505081565b600d6020528060005260406000206000915054906101000a900473ffffffffffffffffffffffffffffffffffffffff1681565b6116666116606120ab565b8361216c565b6116a5576040517f08c379a000000000000000000000000000000000000000000000000000000000815260040161169c906142c3565b60405180910390fd5b6116b1848484846124a6565b50505050565b600e60205281600052604060002081815481106116d357600080fd5b90600052602060002001600091509150505481565b60606116f38261203f565b611732576040517f08c379a000000000000000000000000000000000000000000000000000000000815260040161172990614243565b60405180910390fd5b600061173c612502565b9050600081511161175c5760405180602001604052806000815250611787565b8061176684612519565b604051602001611777929190613edf565b6040516020818303038152906040525b915050919050565b6000600d600083815260200190815260200160002060009054906101000a900473ffffffffffffffffffffffffffffffffffffffff1690503373ffffffffffffffffffffffffffffffffffffffff168173ffffffffffffffffffffffffffffffffffffffff1614611835576040517f08c379a000000000000000000000000000000000000000000000000000000000815260040161182c90614203565b60405180910390fd5b60005b8381101561195e5761184a600a6126e5565b6000611856600a6126fb565b90506118628682612709565b600e600085815260200190815260200160002080549050600f600083815260200190815260200160002081905550600e600085815260200190815260200160002081908060018154018082558091505060019003906000526020600020016000909190919091505580848773ffffffffffffffffffffffffffffffffffffffff167ffe2094c9ff56716cb07edf0cff82da158f346cb3bb2d89703228ab4eb0c329b660405160405180910390a47f2550da409a7fd6a0b8e2a7af9372f4297635788f07cf08c3d5ed13ab297ad59386858360405161194293929190613f93565b60405180910390a1508080611956906145da565b915050611838565b5050505050565b6000600560008473ffffffffffffffffffffffffffffffffffffffff1673ffffffffffffffffffffffffffffffffffffffff16815260200190815260200160002060008373ffffffffffffffffffffffffffffffffffffffff1673ffffffffffffffffffffffffffffffffffffffff16815260200190815260200160002060009054906101000a900460ff16905092915050565b6000600c60009054906101000a900473ffffffffffffffffffffffffffffffffffffffff1673ffffffffffffffffffffffffffffffffffffffff163373ffffffffffffffffffffffffffffffffffffffff1614611a8b576040517f08c379a0000000000000000000000000000000000000000000000000000000008152600401611a8290614303565b60405180910390fd5b6000611a956128d7565b90506000611aa28461296f565b9050600060016002811115611ae0577f4e487b7100000000000000000000000000000000000000000000000000000000600052602160045260246000fd5b826002811115611b19577f4e487b7100000000000000000000000000000000000000000000000000000000600052602160045260246000fd5b1415611b23578490505b60006002811115611b5d577f4e487b7100000000000000000000000000000000000000000000000000000000600052602160045260246000fd5b826002811115611b96577f4e487b7100000000000000000000000000000000000000000000000000000000600052602160045260246000fd5b1415611ba157600190505b600280811115611bda577f4e487b7100000000000000000000000000000000000000000000000000000000600052602160045260246000fd5b826002811115611c13577f4e487b7100000000000000000000000000000000000000000000000000000000600052602160045260246000fd5b1415611c1e57600090505b6040518060a001604052808981526020018781526020018873ffffffffffffffffffffffffffffffffffffffff168152602001836002811115611c8a577f4e487b7100000000000000000000000000000000000000000000000000000000600052602160045260246000fd5b815260200182815250601360008581526020019081526020016000206000820151816000019080519060200190611cc29291906130f5565b506020820151816001019080519060200190611cdf9291906130f5565b5060408201518160020160006101000a81548173ffffffffffffffffffffffffffffffffffffffff021916908373ffffffffffffffffffffffffffffffffffffffff16021790555060608201518160020160146101000a81548160ff02191690836002811115611d78577f4e487b7100000000000000000000000000000000000000000000000000000000600052602160045260246000fd5b021790555060808201518160030155905050866011600085815260200190815260200160002060006101000a81548173ffffffffffffffffffffffffffffffffffffffff021916908373ffffffffffffffffffffffffffffffffffffffff160217905550829350505050949350505050565b6013602052806000526040600020600091509050806000018054611e0d906145a8565b80601f0160208091040260200160405190810160405280929190818152602001828054611e39906145a8565b8015611e865780601f10611e5b57610100808354040283529160200191611e86565b820191906000526020600020905b815481529060010190602001808311611e6957829003601f168201915b505050505090806001018054611e9b906145a8565b80601f0160208091040260200160405190810160405280929190818152602001828054611ec7906145a8565b8015611f145780601f10611ee957610100808354040283529160200191611f14565b820191906000526020600020905b815481529060010190602001808311611ef757829003601f168201915b5050505050908060020160009054906101000a900473ffffffffffffffffffffffffffffffffffffffff16908060020160149054906101000a900460ff16908060030154905085565b60007f80ac58cd000000000000000000000000000000000000000000000000000000007bffffffffffffffffffffffffffffffffffffffffffffffffffffffff1916827bffffffffffffffffffffffffffffffffffffffffffffffffffffffff1916148061202857507f5b5e139f000000000000000000000000000000000000000000000000000000007bffffffffffffffffffffffffffffffffffffffffffffffffffffffff1916827bffffffffffffffffffffffffffffffffffffffffffffffffffffffff1916145b8061203857506120378261299b565b5b9050919050565b60008073ffffffffffffffffffffffffffffffffffffffff166002600084815260200190815260200160002060009054906101000a900473ffffffffffffffffffffffffffffffffffffffff1673ffffffffffffffffffffffffffffffffffffffff1614159050919050565b600033905090565b816004600083815260200190815260200160002060006101000a81548173ffffffffffffffffffffffffffffffffffffffff021916908373ffffffffffffffffffffffffffffffffffffffff160217905550808273ffffffffffffffffffffffffffffffffffffffff1661212683610d7e565b73ffffffffffffffffffffffffffffffffffffffff167f8c5be1e5ebec7d5bd14f71427d1e84f3dd0314c0f7b2291e5b200ac8c7c3b92560405160405180910390a45050565b60006121778261203f565b6121b6576040517f08c379a00000000000000000000000000000000000000000000000000000000081526004016121ad90614143565b60405180910390fd5b60006121c183610d7e565b90508073ffffffffffffffffffffffffffffffffffffffff168473ffffffffffffffffffffffffffffffffffffffff16148061223057508373ffffffffffffffffffffffffffffffffffffffff1661221884610760565b73ffffffffffffffffffffffffffffffffffffffff16145b8061224157506122408185611965565b5b91505092915050565b8273ffffffffffffffffffffffffffffffffffffffff1661226a82610d7e565b73ffffffffffffffffffffffffffffffffffffffff16146122c0576040517f08c379a00000000000000000000000000000000000000000000000000000000081526004016122b790614223565b60405180910390fd5b600073ffffffffffffffffffffffffffffffffffffffff168273ffffffffffffffffffffffffffffffffffffffff161415612330576040517f08c379a000000000000000000000000000000000000000000000000000000000815260040161232790614103565b60405180910390fd5b61233b838383612a05565b6123466000826120b3565b6001600360008573ffffffffffffffffffffffffffffffffffffffff1673ffffffffffffffffffffffffffffffffffffffff16815260200190815260200160002060008282546123969190614499565b925050819055506001600360008473ffffffffffffffffffffffffffffffffffffffff1673ffffffffffffffffffffffffffffffffffffffff16815260200190815260200160002060008282546123ed9190614412565b92505081905550816002600083815260200190815260200160002060006101000a81548173ffffffffffffffffffffffffffffffffffffffff021916908373ffffffffffffffffffffffffffffffffffffffff160217905550808273ffffffffffffffffffffffffffffffffffffffff168473ffffffffffffffffffffffffffffffffffffffff167fddf252ad1be2c89b69c2b068fc378daa952ba7f163c4a11628f55a4df523b3ef60405160405180910390a4505050565b6124b184848461224a565b6124bd84848484612b19565b6124fc576040517f08c379a00000000000000000000000000000000000000000000000000000000081526004016124f3906140a3565b60405180910390fd5b50505050565b606060405180602001604052806000815250905090565b60606000821415612561576040518060400160405280600181526020017f300000000000000000000000000000000000000000000000000000000000000081525090506126e0565b600082905060005b6000821461259357808061257c906145da565b915050600a8261258c9190614468565b9150612569565b60008167ffffffffffffffff8111156125d5577f4e487b7100000000000000000000000000000000000000000000000000000000600052604160045260246000fd5b6040519080825280601f01601f1916602001820160405280156126075781602001600182028036833780820191505090505b5090505b600085146126d9576001826126209190614499565b9150600a8561262f9190614623565b603061263b9190614412565b7f010000000000000000000000000000000000000000000000000000000000000002818381518110612696577f4e487b7100000000000000000000000000000000000000000000000000000000600052603260045260246000fd5b60200101907effffffffffffffffffffffffffffffffffffffffffffffffffffffffffffff1916908160001a905350600a856126d29190614468565b945061260b565b8093505050505b919050565b6001816000016000828254019250508190555050565b600081600001549050919050565b600073ffffffffffffffffffffffffffffffffffffffff168273ffffffffffffffffffffffffffffffffffffffff161415612779576040517f08c379a0000000000000000000000000000000000000000000000000000000008152600401612770906141c3565b60405180910390fd5b6127828161203f565b156127c2576040517f08c379a00000000000000000000000000000000000000000000000000000000081526004016127b9906140c3565b60405180910390fd5b6127ce60008383612a05565b6001600360008473ffffffffffffffffffffffffffffffffffffffff1673ffffffffffffffffffffffffffffffffffffffff168152602001908152602001600020600082825461281e9190614412565b92505081905550816002600083815260200190815260200160002060006101000a81548173ffffffffffffffffffffffffffffffffffffffff021916908373ffffffffffffffffffffffffffffffffffffffff160217905550808273ffffffffffffffffffffffffffffffffffffffff16600073ffffffffffffffffffffffffffffffffffffffff167fddf252ad1be2c89b69c2b068fc378daa952ba7f163c4a11628f55a4df523b3ef60405160405180910390a45050565b60006128e3600b6126e5565b6128ed600b6126fb565b9050803373ffffffffffffffffffffffffffffffffffffffff167f42ff04921a81aac6b1b91bb0c423fb8405d7fce459953ab5fc98ed27744691be60405160405180910390a37f8e1c0dfd342869718621c5de225aa832476d36b5cab6accbcf4c07aa496eaf1c3382604051612964929190613f6a565b60405180910390a190565b6000600182141561297f57600090505b60008214156129915760029050612996565b600190505b919050565b60007f01ffc9a7000000000000000000000000000000000000000000000000000000007bffffffffffffffffffffffffffffffffffffffffffffffffffffffff1916827bffffffffffffffffffffffffffffffffffffffffffffffffffffffff1916149050919050565b612a10838383612ce8565b600073ffffffffffffffffffffffffffffffffffffffff168373ffffffffffffffffffffffffffffffffffffffff161415612a5357612a4e81612ced565b612a92565b8173ffffffffffffffffffffffffffffffffffffffff168373ffffffffffffffffffffffffffffffffffffffff1614612a9157612a908382612d36565b5b5b600073ffffffffffffffffffffffffffffffffffffffff168273ffffffffffffffffffffffffffffffffffffffff161415612ad557612ad081612ea3565b612b14565b8273ffffffffffffffffffffffffffffffffffffffff168273ffffffffffffffffffffffffffffffffffffffff1614612b1357612b128282612fe6565b5b5b505050565b6000612b3a8473ffffffffffffffffffffffffffffffffffffffff16613065565b15612cdb578373ffffffffffffffffffffffffffffffffffffffff1663150b7a02612b636120ab565b8786866040518563ffffffff167c0100000000000000000000000000000000000000000000000000000000028152600401612ba19493929190613f1e565b602060405180830381600087803b158015612bbb57600080fd5b505af1925050508015612bec57506040513d601f19601f82011682018060405250810190612be9919061353f565b60015b612c6f573d8060008114612c1c576040519150601f19603f3d011682016040523d82523d6000602084013e612c21565b606091505b50600081511415612c67576040517f08c379a0000000000000000000000000000000000000000000000000000000008152600401612c5e906140a3565b60405180910390fd5b805181602001fd5b63150b7a027c0100000000000000000000000000000000000000000000000000000000027bffffffffffffffffffffffffffffffffffffffffffffffffffffffff1916817bffffffffffffffffffffffffffffffffffffffffffffffffffffffff191614915050612ce0565b600190505b949350505050565b505050565b6008805490506009600083815260200190815260200160002081905550600881908060018154018082558091505060019003906000526020600020016000909190919091505550565b60006001612d4384610e30565b612d4d9190614499565b9050600060076000848152602001908152602001600020549050818114612e32576000600660008673ffffffffffffffffffffffffffffffffffffffff1673ffffffffffffffffffffffffffffffffffffffff168152602001908152602001600020600084815260200190815260200160002054905080600660008773ffffffffffffffffffffffffffffffffffffffff1673ffffffffffffffffffffffffffffffffffffffff168152602001908152602001600020600084815260200190815260200160002081905550816007600083815260200190815260200160002081905550505b6007600084815260200190815260200160002060009055600660008573ffffffffffffffffffffffffffffffffffffffff1673ffffffffffffffffffffffffffffffffffffffff16815260200190815260200160002060008381526020019081526020016000206000905550505050565b60006001600880549050612eb79190614499565b9050600060096000848152602001908152602001600020549050600060088381548110612f0d577f4e487b7100000000000000000000000000000000000000000000000000000000600052603260045260246000fd5b906000526020600020015490508060088381548110612f55577f4e487b7100000000000000000000000000000000000000000000000000000000600052603260045260246000fd5b906000526020600020018190555081600960008381526020019081526020016000208190555060096000858152602001908152602001600020600090556008805480612fca577f4e487b7100000000000000000000000000000000000000000000000000000000600052603160045260246000fd5b6001900381819060005260206000200160009055905550505050565b6000612ff183610e30565b905081600660008573ffffffffffffffffffffffffffffffffffffffff1673ffffffffffffffffffffffffffffffffffffffff168152602001908152602001600020600083815260200190815260200160002081905550806007600084815260200190815260200160002081905550505050565b600080823b905060008111915050919050565b6040518060a001604052806060815260200160608152602001600073ffffffffffffffffffffffffffffffffffffffff168152602001600060028111156130e8577f4e487b7100000000000000000000000000000000000000000000000000000000600052602160045260246000fd5b8152602001600081525090565b828054613101906145a8565b90600052602060002090601f016020900481019282613123576000855561316a565b82601f1061313c57805160ff191683800117855561316a565b8280016001018555821561316a579182015b8281111561316957825182559160200191906001019061314e565b5b509050613177919061317b565b5090565b5b8082111561319457600081600090555060010161317c565b5090565b60006131ab6131a68461436f565b61433e565b9050828152602081018484840111156131c357600080fd5b6131ce848285614566565b509392505050565b60006131e96131e48461439f565b61433e565b90508281526020810184848401111561320157600080fd5b61320c848285614566565b509392505050565b60008135905061322381614764565b92915050565b6000813590506132388161477b565b92915050565b60008135905061324d81614792565b92915050565b60008151905061326281614792565b92915050565b600082601f83011261327957600080fd5b8135613289848260208601613198565b91505092915050565b600082601f8301126132a357600080fd5b81356132b38482602086016131d6565b91505092915050565b6000813590506132cb816147a9565b92915050565b6000602082840312156132e357600080fd5b60006132f184828501613214565b91505092915050565b6000806040838503121561330d57600080fd5b600061331b85828601613214565b925050602061332c85828601613214565b9150509250929050565b60008060006060848603121561334b57600080fd5b600061335986828701613214565b935050602061336a86828701613214565b925050604061337b868287016132bc565b9150509250925092565b6000806000806080858703121561339b57600080fd5b60006133a987828801613214565b94505060206133ba87828801613214565b93505060406133cb878288016132bc565b925050606085013567ffffffffffffffff8111156133e857600080fd5b6133f487828801613268565b91505092959194509250565b6000806040838503121561341357600080fd5b600061342185828601613214565b925050602061343285828601613229565b9150509250929050565b6000806040838503121561344f57600080fd5b600061345d85828601613214565b925050602061346e858286016132bc565b9150509250929050565b60008060006060848603121561348d57600080fd5b600061349b86828701613214565b93505060206134ac868287016132bc565b92505060406134bd86828701613214565b9150509250925092565b6000806000606084860312156134dc57600080fd5b60006134ea86828701613214565b93505060206134fb868287016132bc565b925050604061350c868287016132bc565b9150509250925092565b60006020828403121561352857600080fd5b60006135368482850161323e565b91505092915050565b60006020828403121561355157600080fd5b600061355f84828501613253565b91505092915050565b6000806000806080858703121561357e57600080fd5b600085013567ffffffffffffffff81111561359857600080fd5b6135a487828801613292565b94505060206135b587828801613214565b935050604085013567ffffffffffffffff8111156135d257600080fd5b6135de87828801613292565b92505060606135ef878288016132bc565b91505092959194509250565b60006020828403121561360d57600080fd5b600061361b848285016132bc565b91505092915050565b6000806040838503121561363757600080fd5b6000613645858286016132bc565b9250506020613656858286016132bc565b9150509250929050565b613669816144cd565b82525050565b613678816144df565b82525050565b6000613689826143cf565b61369381856143e5565b93506136a3818560208601614575565b6136ac8161473f565b840191505092915050565b6136c081614554565b82525050565b60006136d1826143da565b6136db81856143f6565b93506136eb818560208601614575565b6136f48161473f565b840191505092915050565b600061370a826143da565b6137148185614407565b9350613724818560208601614575565b80840191505092915050565b600061373d602b836143f6565b91507f455243373231456e756d657261626c653a206f776e657220696e646578206f7560008301527f74206f6620626f756e64730000000000000000000000000000000000000000006020830152604082019050919050565b60006137a36032836143f6565b91507f4552433732313a207472616e7366657220746f206e6f6e20455243373231526560008301527f63656976657220696d706c656d656e74657200000000000000000000000000006020830152604082019050919050565b6000613809601c836143f6565b91507f4552433732313a20746f6b656e20616c7265616479206d696e746564000000006000830152602082019050919050565b6000613849601f836143f6565b91507f796f7520646f6e2774206f776e20746f2074686973206d6173746572206964006000830152602082019050919050565b60006138896024836143f6565b91507f4552433732313a207472616e7366657220746f20746865207a65726f2061646460008301527f72657373000000000000000000000000000000000000000000000000000000006020830152604082019050919050565b60006138ef6019836143f6565b91507f4552433732313a20617070726f766520746f2063616c6c6572000000000000006000830152602082019050919050565b600061392f602c836143f6565b91507f4552433732313a206f70657261746f7220717565727920666f72206e6f6e657860008301527f697374656e7420746f6b656e00000000000000000000000000000000000000006020830152604082019050919050565b60006139956038836143f6565b91507f4552433732313a20617070726f76652063616c6c6572206973206e6f74206f7760008301527f6e6572206e6f7220617070726f76656420666f7220616c6c00000000000000006020830152604082019050919050565b60006139fb602a836143f6565b91507f4552433732313a2062616c616e636520717565727920666f7220746865207a6560008301527f726f2061646472657373000000000000000000000000000000000000000000006020830152604082019050919050565b6000613a616029836143f6565b91507f4552433732313a206f776e657220717565727920666f72206e6f6e657869737460008301527f656e7420746f6b656e00000000000000000000000000000000000000000000006020830152604082019050919050565b6000613ac76020836143f6565b91507f4552433732313a206d696e7420746f20746865207a65726f20616464726573736000830152602082019050919050565b6000613b07602c836143f6565b91507f4552433732313a20617070726f76656420717565727920666f72206e6f6e657860008301527f697374656e7420746f6b656e00000000000000000000000000000000000000006020830152604082019050919050565b6000613b6d6030836143f6565b91507f796f752073686f756c642063616c6c206275795469636b65742066726f6d206960008301527f74656d73616c6520636f6e7472616374000000000000000000000000000000006020830152604082019050919050565b6000613bd36029836143f6565b91507f4552433732313a207472616e73666572206f6620746f6b656e2074686174206960008301527f73206e6f74206f776e00000000000000000000000000000000000000000000006020830152604082019050919050565b6000613c39602f836143f6565b91507f4552433732314d657461646174613a2055524920717565727920666f72206e6f60008301527f6e6578697374656e7420746f6b656e00000000000000000000000000000000006020830152604082019050919050565b6000613c9f601f836143f6565b91507f6f6e6c7920666163746f72792063616e20706c75672063726f776473616c65006000830152602082019050919050565b6000613cdf6021836143f6565b91507f4552433732313a20617070726f76616c20746f2063757272656e74206f776e6560008301527f72000000000000000000000000000000000000000000000000000000000000006020830152604082019050919050565b6000613d456025836143f6565b91507f4d534e46543a20796f7520616c7265616479206861766520706c75676765642060008301527f73616c65200000000000000000000000000000000000000000000000000000006020830152604082019050919050565b6000613dab6031836143f6565b91507f4552433732313a207472616e736665722063616c6c6572206973206e6f74206f60008301527f776e6572206e6f7220617070726f7665640000000000000000000000000000006020830152604082019050919050565b6000613e11602c836143f6565b91507f455243373231456e756d657261626c653a20676c6f62616c20696e646578206f60008301527f7574206f6620626f756e647300000000000000000000000000000000000000006020830152604082019050919050565b6000613e776022836143f6565b91507f6f6e6c7920666163746f72792063616e20637265617465206d6173746572636f60008301527f70790000000000000000000000000000000000000000000000000000000000006020830152604082019050919050565b613ed98161454a565b82525050565b6000613eeb82856136ff565b9150613ef782846136ff565b91508190509392505050565b6000602082019050613f186000830184613660565b92915050565b6000608082019050613f336000830187613660565b613f406020830186613660565b613f4d6040830185613ed0565b8181036060830152613f5f818461367e565b905095945050505050565b6000604082019050613f7f6000830185613660565b613f8c6020830184613ed0565b9392505050565b6000606082019050613fa86000830186613660565b613fb56020830185613ed0565b613fc26040830184613ed0565b949350505050565b6000602082019050613fdf600083018461366f565b92915050565b6000602082019050613ffa60008301846136b7565b92915050565b6000602082019050818103600083015261401a81846136c6565b905092915050565b600060a082019050818103600083015261403c81886136c6565b9050818103602083015261405081876136c6565b905061405f6040830186613660565b61406c60608301856136b7565b6140796080830184613ed0565b9695505050505050565b6000602082019050818103600083015261409c81613730565b9050919050565b600060208201905081810360008301526140bc81613796565b9050919050565b600060208201905081810360008301526140dc816137fc565b9050919050565b600060208201905081810360008301526140fc8161383c565b9050919050565b6000602082019050818103600083015261411c8161387c565b9050919050565b6000602082019050818103600083015261413c816138e2565b9050919050565b6000602082019050818103600083015261415c81613922565b9050919050565b6000602082019050818103600083015261417c81613988565b9050919050565b6000602082019050818103600083015261419c816139ee565b9050919050565b600060208201905081810360008301526141bc81613a54565b9050919050565b600060208201905081810360008301526141dc81613aba565b9050919050565b600060208201905081810360008301526141fc81613afa565b9050919050565b6000602082019050818103600083015261421c81613b60565b9050919050565b6000602082019050818103600083015261423c81613bc6565b9050919050565b6000602082019050818103600083015261425c81613c2c565b9050919050565b6000602082019050818103600083015261427c81613c92565b9050919050565b6000602082019050818103600083015261429c81613cd2565b9050919050565b600060208201905081810360008301526142bc81613d38565b9050919050565b600060208201905081810360008301526142dc81613d9e565b9050919050565b600060208201905081810360008301526142fc81613e04565b9050919050565b6000602082019050818103600083015261431c81613e6a565b9050919050565b60006020820190506143386000830184613ed0565b92915050565b6000604051905081810181811067ffffffffffffffff8211171561436557614364614710565b5b8060405250919050565b600067ffffffffffffffff82111561438a57614389614710565b5b601f19601f8301169050602081019050919050565b600067ffffffffffffffff8211156143ba576143b9614710565b5b601f19601f8301169050602081019050919050565b600081519050919050565b600081519050919050565b600082825260208201905092915050565b600082825260208201905092915050565b600081905092915050565b600061441d8261454a565b91506144288361454a565b9250827fffffffffffffffffffffffffffffffffffffffffffffffffffffffffffffffff0382111561445d5761445c614654565b5b828201905092915050565b60006144738261454a565b915061447e8361454a565b92508261448e5761448d614683565b5b828204905092915050565b60006144a48261454a565b91506144af8361454a565b9250828210156144c2576144c1614654565b5b828203905092915050565b60006144d88261452a565b9050919050565b60008115159050919050565b60007fffffffff0000000000000000000000000000000000000000000000000000000082169050919050565b600081905061452582614750565b919050565b600073ffffffffffffffffffffffffffffffffffffffff82169050919050565b6000819050919050565b600061455f82614517565b9050919050565b82818337600083830152505050565b60005b83811015614593578082015181840152602081019050614578565b838111156145a2576000848401525b50505050565b600060028204905060018216806145c057607f821691505b602082108114156145d4576145d36146e1565b5b50919050565b60006145e58261454a565b91507fffffffffffffffffffffffffffffffffffffffffffffffffffffffffffffffff82141561461857614617614654565b5b600182019050919050565b600061462e8261454a565b91506146398361454a565b92508261464957614648614683565b5b828206905092915050565b7f4e487b7100000000000000000000000000000000000000000000000000000000600052601160045260246000fd5b7f4e487b7100000000000000000000000000000000000000000000000000000000600052601260045260246000fd5b7f4e487b7100000000000000000000000000000000000000000000000000000000600052602160045260246000fd5b7f4e487b7100000000000000000000000000000000000000000000000000000000600052602260045260246000fd5b7f4e487b7100000000000000000000000000000000000000000000000000000000600052604160045260246000fd5b6000601f19601f8301169050919050565b60038110614761576147606146b2565b5b50565b61476d816144cd565b811461477857600080fd5b50565b614784816144df565b811461478f57600080fd5b50565b61479b816144eb565b81146147a657600080fd5b50565b6147b28161454a565b81146147bd57600080fd5b5056fea2646970667358221220f892b682e5ee702683b3f84e4378574c6e91b0c3c4535447c637728463828dac64736f6c63430008000033",
  "immutableReferences": {},
  "source": "pragma solidity ^0.8.0;\n//\"SPDX-License-Identifier: UNLICENSED\"\n\nimport \"../../../node_modules/@openzeppelin/contracts/token/ERC721/extensions/ERC721Enumerable.sol\";\nimport \"../../../node_modules/@openzeppelin/contracts/token/ERC721/ERC721.sol\";\n//import \"../../../node_modules/@openzeppelin/contracts/token/ERC721/presets/ERC721PresetMinterPauserAutoId.sol\";\nimport \"../../../node_modules/@openzeppelin/contracts/utils/Counters.sol\";\nimport \"../../../node_modules/@openzeppelin/contracts/utils/math/SafeMath.sol\";\n\n\n\n\n\n\n\n// Ticket is ERC721 (NFT) token with  availability to reedem tickets\n\n/**\n\n    ERC-721 is non-fungible token.  So, each tokenID is a unique ticket\n\n    Usefull tips:\n    // Mapping from owner to list of owned token IDs\n    mapping(address => uint256[]) private _ownedTokens;\n\n    // Mapping from token ID to index of the owner tokens list\n    mapping(uint256 => uint256) private _ownedTokensIndex;\n\n    // Array with all token ids, used for enumeration\n    uint256[] private _allTokens;\n\n    // Mapping from token id to position in the allTokens array\n    mapping(uint256 => uint256) private _allTokensIndex;\n\n    Gets the list of token IDs of the requested owner.\n     function _tokensOfOwner(address owner) internal view returns (uint256[] storage) {\n        return _ownedTokens[owner];\n    }\n\n\n\n **/\n\ncontract MSNFT is ERC721Enumerable {\n   using SafeMath for uint256;\n   using Counters for Counters.Counter;\n\n\n\n    // Master -- Mastercopy, abstraction\n    // Item -- originate from mastercopy (nft-token)\n\n\n\n    //events\n    event ItemBought(address indexed visitor_wallet,uint256 indexed event_id, uint256 indexed ticket_id);\n    event ItemBoughtHuman(address visitor_wallet,uint256 event_id, uint256 ticket_id);\n //   event TicketFulfilled(address indexed visitor_wallet,uint256 indexed event_id, uint256 indexed ticket_id);   // FIXME: add date to event?\n   // event TicketFulfilledHuman(address visitor_wallet,uint256 event_id, uint256 ticket_id);\n    event MasterIdReserved(address indexed ticket_sale, uint256 indexed event_id);\n    event MasterIdReservedHuman(address ticket_sale, uint256 event_id);\n\n    // Global counters for ticket_id and event_id\n    Counters.Counter _item_id_count;\n    Counters.Counter _master_id_count;\n\n\n    // Motherland\n    address factory_address;\n\n\n\n    // Ticket lifecycle TODO: Deprecated, delete this\n    enum TicketState {Non_Existed, Paid, Fulfilled, Cancelled}\n\n    // Rarity type\n    // Unique -- the one\n    // Rare -- limited\n    // Common -- unlimited\n    enum RarityType {Unique, Rare, Common}\n\n    // map from mastercopy_id  to itemsale address\n    // TIP: ticket type = array.length\n    mapping(uint256 => address) public mastersales;\n    // map from master_id to item ids\n    mapping (uint256 => uint256[]) public itemIds;\n    // map fron token ID to its index in itemIds\n    mapping (uint256 => uint256) itemIndex;\n    // map from item id to item info\n    //mapping (uint256 => ItemInfo) public itemInfoStorage;  // TODO: -- we can remove it as item is a simulacr and all info we need we already have in MetaInfo\n    \n    // map from sale address to organizer -- TODO: this can be double info from factory\n    mapping(address => address) retailers;\n    \n    // map from masterId to author address\n    mapping(uint256 => address) public authors;\n\n\n    // map from event id to event JID  TODO: Depracated, remove this\n    mapping(uint256 => string) public JIDs;\n\n\n    // map from MasterCopyId to Meta info\n    mapping(uint256 => ItemInfo) public MetaInfo;\n\n\n    /**\n   * Ticket information\n   */\n\n    struct ItemInfo {\n    \n\n    // TODO: is this really nececcary to write it as string?\n    // this is link to torrent \n    string magnet_link;\n\n    // TODO: remove it as non-necessary\n    string description;\n\n    address author;\n  //  TicketState state;\n    RarityType rarity;\n  //  uint circulated_supply;\n    uint i_totalSupply;\n  //  string event_JID;\n  //  address sale_address;\n  }\n\n\n\n    \n    constructor(string memory name_, string memory smbl_) ERC721(name_,smbl_) ERC721Enumerable() {\n      //  _addMinter(address(this));\n      // TODO: only factory can deploy this contract?\n        factory_address = msg.sender;\n    }\n\n    /*\n    // FIXME: approve for ticketsale, not factory\n    function setApprovalForEvent(address _owner, address ticketsale) internal{\n        bool approved;\n        super._operatorApprovals[_owner][ticketsale] = approved;\n        emit ApprovalForAll(_owner, ticketsale, approved);\n    }\n    */\n\n    // TODO - WTF is this? Hack?\n    function _transferFromTicket(address from, address to, uint256 tokenId) public {\n        super.safeTransferFrom(from, to, tokenId);\n    }\n\n    /* TODO: Deprecated, delete this\n    // TODO - check for event_id already existed\n    function reserveMasterIdForSale(address orginizer, string memory jid) public returns(uint256 master_id){\n       \n        master_id = _reserveMasterId();\n\n      //  eventsales[event_id] = msg.sender;\n        mastersales[master_id].push(msg.sender);\n        retailers[msg.sender] = orginizer;\n        JIDs[master_id] = jid;\n        // Roles for minting has been removed in zeppeline 0.8.0 erc721\n        //_addMinter(msg.sender);\n\n        // Rarity set\n\n\n\n        \n        return master_id;\n    }\n */\n\n    // TODO: *WARNING* -- this function should attach other nft's contract's tokens to crowdsale\n    // Also this function 'plug' itemsale contract from factory to mastersales map\n    function PlugCrowdSale(address organizer, uint256 _masterId, address _sale) public {\n        // only factory knows about crowdsale contracts and only she should have access to this\n        require(msg.sender == factory_address, \"only factory can plug crowdsale\");\n        // only author of asset can plug crowdsale\n        ItemInfo memory meta;\n        meta = MetaInfo[_masterId];\n        address author = meta.author;\n        require(author == organizer, \"you don't own to this master id\");\n        require(mastersales[_masterId] == address(0), \"MSNFT: you already have plugged sale \");\n        mastersales[_masterId] = _sale;\n\n    }\n\n    function _reserveMasterId() internal returns(uint256 _master_id) {\n        _master_id_count.increment();\n        _master_id = _master_id_count.current();\n\n        emit MasterIdReserved(msg.sender,_master_id);\n        emit MasterIdReservedHuman(msg.sender,_master_id);\n\n        return _master_id;\n    }\n\n    function createMasterCopy(string memory link, address _author ,string memory _description, uint256 _supplyType) public returns(uint256 c_master_id){\n\n\n        // TODO: Add security check, should be only factory(?)\n        require(msg.sender == factory_address, \"only factory can create mastercopy\");\n\n        uint256 mid = _reserveMasterId();\n        RarityType _rarity = set_rarity(_supplyType);\n        uint m_totalSupply;\n        if (_rarity == RarityType.Rare){\n            m_totalSupply = _supplyType;\n        } if (_rarity == RarityType.Unique) {\n            m_totalSupply = 1;\n        } if (_rarity == RarityType.Common) {\n            m_totalSupply = 0;\n        }\n        MetaInfo[mid] = ItemInfo(link, _description,_author,_rarity, m_totalSupply);\n        authors[mid] = _author;\n        \n        // TODO -- emit event about master copy creation?\n\n\n        // return mastercopy id\n        return mid;\n    }\n\n     function set_rarity(uint256 _supplyType) private pure returns(RarityType _rarity) {\n       \n        // only one token exist\n        if (_supplyType == 1) {\n            _rarity = RarityType.Unique;\n        }\n        // Unlimited sale\n        if (_supplyType == 0) {\n            _rarity = RarityType.Common;\n        } else {\n            // Limited sale\n            _rarity = RarityType.Rare;\n        }\n        return _rarity;\n\n\n    }\n\n\n    function get_rarity(uint256 _masterId) public view returns (RarityType) {\n        \n        ItemInfo memory meta;\n        meta = MetaInfo[_masterId];\n        RarityType _rarity_type = meta.rarity;\n        return _rarity_type;\n    }\n\n    function get_author(uint256 _masterId) public view returns (address _author) {\n        _author = authors[_masterId];\n        return _author;\n    }\n\n\n/*\n    // plug additional sale for selling different types of ticket by one event\n    function plugSale(uint256 event_id, address orginizer) public returns(uint) {\n        address[] memory _sales = eventsales[event_id];\n        address _sale = _sales[0];\n        require(retailers[_sale] == orginizer, \"only orginizer can plug item\");\n        eventsales[event_id].push(msg.sender);\n        uint type_count = getTicketTypeCount(event_id);\n        return type_count;\n    }\n    */\n\n    //TODO - return ticketIDs(?)\n    function buyTicket(address buyer, uint256 itemAmount, uint256 master_id) public{\n       // address[] memory _sales = mastersales[master_id];\n       // address _sale = _sales[_ticket_type - 1]; // array start from 0\n       address _sale = mastersales[master_id];\n        require(_sale == msg.sender, \"you should call buyTicket from itemsale contract\");\n\n/*      TODO : Add check for high-level mint function\n    // Check rarity vs itemAmount\n        ItemInfo memory meta;\n        meta = MetaInfo[master_id];\n        if (meta.rarity == RarityType.Unique) {\n            require(itemAmount == 1, \"MSNFT: try to buy more than one of Unique Items\");\n        }\n        if (meta.rarity == RarityType.Rare) {\n\n        }\n*/\n\n\n        for (uint256 i = 0; i < itemAmount; i++ ){\n            _item_id_count.increment();\n            uint256 item_id = _item_id_count.current();\n\n            // TODO: WARNING -- ADD CHECK FOR RARITY, ADD HIGHLEVEL MINT FUNCTION WIH IMPACT AT CIRCULATING SUPPLY\n            _mint(buyer,item_id);\n         //   itemInfoStorage[item_id] = ItemInfo(TicketState.Paid,RarityType.State,_ticket_type, jid,_sale);\n            itemIndex[item_id] = itemIds[master_id].length;\n            itemIds[master_id].push(item_id);\n            // approve for ticketsale (msg.sender = ticketsale)\n          //  approve(msg.sender, ticket_id);\n         //   setApprovalForEvent(buyer,msg.sender);\n            emit ItemBought(buyer,master_id,item_id);\n            emit ItemBoughtHuman(buyer,master_id,item_id);\n        }\n\n    }\n\n    // This function is burning tokens.\n    // @deprecated\n    /*\n    function redeemTicket(address owner,uint256 tokenId, uint256 event_id) public{\n        require(eventsales[event_id] == msg.sender, \"caller doesn't match with event_id\");\n        super._burn(owner,tokenId);\n\n       // To prevent a gap in the tokens array, we store the last token in the index of the token to delete, and\n       // then delete the last slot (swap and pop).\n\n\n        uint256 ticket_index = ticketIndex[tokenId];\n        uint256 lastTicketIndex = ticketIds[event_id].length.sub(1);\n\n      //  uint256[] storage ticketIdArray = ticketIds[event_id];\n      //  uint256 lastTicketId = ticketIdArray[lastTicketIndex];\n\n        uint256 lastTicketId = ticketIds[event_id][lastTicketIndex];\n\n\n        ticketIds[event_id][ticket_index] = lastTicketId; // Move the last token to the slot of the to-delete token\n        ticketIndex[lastTicketId] = ticket_index;         // Update the moved token's index\n\n        ticketIds[event_id].length--;  // remove last element in array\n        ticketIndex[tokenId] = 0;\n\n\n    }\n    */\n\n\n/*          Deprecated as there are no Tickets anymore.\n            Can be revived if there are a need for 'expiration' mode\n\n     function redeemTicket(address visitor, uint256 tokenId, uint256 event_id) public{\n        address[] memory _sales = eventsales[event_id];\n        TicketInfo memory info = ticketInfoStorage[tokenId];\n        address _sale = _sales[info.ticket_type - 1];\n        require(_sale == msg.sender, \"you should call scan from ticketsale contract\");\n        require(ticketInfoStorage[tokenId].state == TicketState.Paid, \"Ticket state must be Paid\");\n        info.state = TicketState.Fulfilled;\n        ticketInfoStorage[tokenId] = info;\n        emit TicketFulfilled(visitor,event_id,tokenId);\n        emit TicketFulfilledHuman(visitor, event_id,tokenId);\n    }\n\n    function refundTicket(address visitor,uint256 tokenId, uint256 event_id) public returns(bool) {\n        address[] memory _sales = eventsales[event_id];\n        TicketInfo memory info = ticketInfoStorage[tokenId];\n        address _sale = _sales[info.ticket_type - 1];\n        require(_sale == msg.sender, \"you should call refund from ticketsale contract\");\n        // check status\n        TicketState status = getTicketStatus(tokenId);\n        require(status == TicketState.Paid, \"ticket status is not valid\");\n        _transferFromTicket(visitor, msg.sender, tokenId);\n        info.state = TicketState.Cancelled;\n        ticketInfoStorage[tokenId] = info;\n        return true;\n    }\n    */\n\n/*\n    function getTicketTypeCount(uint256 event_id) public view returns(uint) {\n        address[] memory _sales = eventsales[event_id];\n        uint ticket_type = _sales.length;\n        return ticket_type;\n    }\n*/\n\n//                  FIXME: fix get items of owner\n/*\n  //  Gets the list of token IDs of the requested owner.\n     function _tokensOfOwner(address owner) internal view returns (uint256[] storage) {\n        return super._ownedTokens[owner];\n    }\n\n\n\n    function getTicketByOwner(address _owner) public view returns(uint256[] memory) {\n        uint256[] storage tickets = _tokensOfOwner(_owner);\n        return tickets;\n    }\n*/\n\n\n    function getItemSale(uint256 master_id) public view returns(address) {\n        address sale = mastersales[master_id];\n        return sale;\n    }\n\n/*\n    function getJidbyEventID(uint256 master_id) public view returns (string memory jid) {\n        jid = JIDs[master_id];\n        return jid;\n    }\n*/\n\n\n/*      TODO : Deprecated, remove it.\n    function getJidByTicketId(uint item_id) public view returns (string memory jid) {\n        ItemInfo memory info = itemInfoStorage[item_id];\n        jid = info.event_JID;\n        return jid;\n    }\n    \n    function getTicketStatus(uint item_id) public view returns (TicketState status) {\n        ItemInfo memory info = itemInfoStorage[item_id];\n        status = info.state;\n        return status;\n    }\n    */\n}",
  "sourcePath": "/home/jack/ethProjects/UniversalNFTMarketplace/contracts/721/singleton/MSNFT.sol",
  "compiler": {
    "name": "solc",
    "version": "0.8.0+commit.c7dfd78e.Emscripten.clang"
  },
  "schemaVersion": "3.2.5",
  "updatedAt": "2021-08-02T09:30:54.173Z",
  "devdoc": {
    "kind": "dev",
    "methods": {
      "approve(address,uint256)": {
        "details": "See {IERC721-approve}."
      },
      "balanceOf(address)": {
        "details": "See {IERC721-balanceOf}."
      },
      "getApproved(uint256)": {
        "details": "See {IERC721-getApproved}."
      },
      "isApprovedForAll(address,address)": {
        "details": "See {IERC721-isApprovedForAll}."
      },
      "name()": {
        "details": "See {IERC721Metadata-name}."
      },
      "ownerOf(uint256)": {
        "details": "See {IERC721-ownerOf}."
      },
      "safeTransferFrom(address,address,uint256)": {
        "details": "See {IERC721-safeTransferFrom}."
      },
      "safeTransferFrom(address,address,uint256,bytes)": {
        "details": "See {IERC721-safeTransferFrom}."
      },
      "setApprovalForAll(address,bool)": {
        "details": "See {IERC721-setApprovalForAll}."
      },
      "supportsInterface(bytes4)": {
        "details": "See {IERC165-supportsInterface}."
      },
      "symbol()": {
        "details": "See {IERC721Metadata-symbol}."
      },
      "tokenByIndex(uint256)": {
        "details": "See {IERC721Enumerable-tokenByIndex}."
      },
      "tokenOfOwnerByIndex(address,uint256)": {
        "details": "See {IERC721Enumerable-tokenOfOwnerByIndex}."
      },
      "tokenURI(uint256)": {
        "details": "See {IERC721Metadata-tokenURI}."
      },
      "totalSupply()": {
        "details": "See {IERC721Enumerable-totalSupply}."
      },
      "transferFrom(address,address,uint256)": {
        "details": "See {IERC721-transferFrom}."
      }
    },
    "version": 1
  },
  "userdoc": {
    "kind": "user",
    "methods": {},
    "notice": "ERC-721 is non-fungible token.  So, each tokenID is a unique ticket Usefull tips: // Mapping from owner to list of owned token IDs mapping(address => uint256[]) private _ownedTokens; // Mapping from token ID to index of the owner tokens list mapping(uint256 => uint256) private _ownedTokensIndex; // Array with all token ids, used for enumeration uint256[] private _allTokens; // Mapping from token id to position in the allTokens array mapping(uint256 => uint256) private _allTokensIndex; Gets the list of token IDs of the requested owner. function _tokensOfOwner(address owner) internal view returns (uint256[] storage) { return _ownedTokens[owner]; }*",
    "version": 1
  }
}