{
  "contractName": "MSNFT",
  "abi": [
    {
      "inputs": [
        {
          "internalType": "string",
          "name": "name_",
          "type": "string"
        },
        {
          "internalType": "string",
          "name": "smbl_",
          "type": "string"
        }
      ],
      "stateMutability": "nonpayable",
      "type": "constructor"
    },
    {
      "anonymous": false,
      "inputs": [
        {
          "indexed": true,
          "internalType": "address",
          "name": "owner",
          "type": "address"
        },
        {
          "indexed": true,
          "internalType": "address",
          "name": "approved",
          "type": "address"
        },
        {
          "indexed": true,
          "internalType": "uint256",
          "name": "tokenId",
          "type": "uint256"
        }
      ],
      "name": "Approval",
      "type": "event"
    },
    {
      "anonymous": false,
      "inputs": [
        {
          "indexed": true,
          "internalType": "address",
          "name": "owner",
          "type": "address"
        },
        {
          "indexed": true,
          "internalType": "address",
          "name": "operator",
          "type": "address"
        },
        {
          "indexed": false,
          "internalType": "bool",
          "name": "approved",
          "type": "bool"
        }
      ],
      "name": "ApprovalForAll",
      "type": "event"
    },
    {
      "anonymous": false,
      "inputs": [
        {
          "indexed": true,
          "internalType": "address",
          "name": "visitor_wallet",
          "type": "address"
        },
        {
          "indexed": true,
          "internalType": "uint256",
          "name": "event_id",
          "type": "uint256"
        },
        {
          "indexed": true,
          "internalType": "uint256",
          "name": "ticket_id",
          "type": "uint256"
        }
      ],
      "name": "ItemBought",
      "type": "event"
    },
    {
      "anonymous": false,
      "inputs": [
        {
          "indexed": false,
          "internalType": "address",
          "name": "visitor_wallet",
          "type": "address"
        },
        {
          "indexed": false,
          "internalType": "uint256",
          "name": "event_id",
          "type": "uint256"
        },
        {
          "indexed": false,
          "internalType": "uint256",
          "name": "ticket_id",
          "type": "uint256"
        }
      ],
      "name": "ItemBoughtHuman",
      "type": "event"
    },
    {
      "anonymous": false,
      "inputs": [
        {
          "indexed": true,
          "internalType": "address",
          "name": "ticket_sale",
          "type": "address"
        },
        {
          "indexed": true,
          "internalType": "uint256",
          "name": "event_id",
          "type": "uint256"
        }
      ],
      "name": "MasterIdReserved",
      "type": "event"
    },
    {
      "anonymous": false,
      "inputs": [
        {
          "indexed": false,
          "internalType": "address",
          "name": "ticket_sale",
          "type": "address"
        },
        {
          "indexed": false,
          "internalType": "uint256",
          "name": "event_id",
          "type": "uint256"
        }
      ],
      "name": "MasterIdReservedHuman",
      "type": "event"
    },
    {
      "anonymous": false,
      "inputs": [
        {
          "indexed": true,
          "internalType": "address",
          "name": "from",
          "type": "address"
        },
        {
          "indexed": true,
          "internalType": "address",
          "name": "to",
          "type": "address"
        },
        {
          "indexed": true,
          "internalType": "uint256",
          "name": "tokenId",
          "type": "uint256"
        }
      ],
      "name": "Transfer",
      "type": "event"
    },
    {
      "inputs": [
        {
          "internalType": "uint256",
          "name": "",
          "type": "uint256"
        }
      ],
      "name": "JIDs",
      "outputs": [
        {
          "internalType": "string",
          "name": "",
          "type": "string"
        }
      ],
      "stateMutability": "view",
      "type": "function"
    },
    {
      "inputs": [
        {
          "internalType": "uint256",
          "name": "",
          "type": "uint256"
        }
      ],
      "name": "MetaInfo",
      "outputs": [
        {
          "internalType": "string",
          "name": "magnet_link",
          "type": "string"
        },
        {
          "internalType": "string",
          "name": "description",
          "type": "string"
        },
        {
          "internalType": "address",
          "name": "author",
          "type": "address"
        },
        {
          "internalType": "enum MSNFT.RarityType",
          "name": "rarity",
          "type": "uint8"
        },
        {
          "internalType": "uint256",
          "name": "circulated_supply",
          "type": "uint256"
        }
      ],
      "stateMutability": "view",
      "type": "function"
    },
    {
      "inputs": [
        {
          "internalType": "address",
          "name": "to",
          "type": "address"
        },
        {
          "internalType": "uint256",
          "name": "tokenId",
          "type": "uint256"
        }
      ],
      "name": "approve",
      "outputs": [],
      "stateMutability": "nonpayable",
      "type": "function"
    },
    {
      "inputs": [
        {
          "internalType": "uint256",
          "name": "",
          "type": "uint256"
        }
      ],
      "name": "authors",
      "outputs": [
        {
          "internalType": "address",
          "name": "",
          "type": "address"
        }
      ],
      "stateMutability": "view",
      "type": "function"
    },
    {
      "inputs": [
        {
          "internalType": "address",
          "name": "owner",
          "type": "address"
        }
      ],
      "name": "balanceOf",
      "outputs": [
        {
          "internalType": "uint256",
          "name": "",
          "type": "uint256"
        }
      ],
      "stateMutability": "view",
      "type": "function"
    },
    {
      "inputs": [
        {
          "internalType": "uint256",
          "name": "tokenId",
          "type": "uint256"
        }
      ],
      "name": "getApproved",
      "outputs": [
        {
          "internalType": "address",
          "name": "",
          "type": "address"
        }
      ],
      "stateMutability": "view",
      "type": "function"
    },
    {
      "inputs": [
        {
          "internalType": "address",
          "name": "owner",
          "type": "address"
        },
        {
          "internalType": "address",
          "name": "operator",
          "type": "address"
        }
      ],
      "name": "isApprovedForAll",
      "outputs": [
        {
          "internalType": "bool",
          "name": "",
          "type": "bool"
        }
      ],
      "stateMutability": "view",
      "type": "function"
    },
    {
      "inputs": [
        {
          "internalType": "uint256",
          "name": "",
          "type": "uint256"
        },
        {
          "internalType": "uint256",
          "name": "",
          "type": "uint256"
        }
      ],
      "name": "itemIds",
      "outputs": [
        {
          "internalType": "uint256",
          "name": "",
          "type": "uint256"
        }
      ],
      "stateMutability": "view",
      "type": "function"
    },
    {
      "inputs": [
        {
          "internalType": "uint256",
          "name": "",
          "type": "uint256"
        }
      ],
      "name": "mastersales",
      "outputs": [
        {
          "internalType": "address",
          "name": "",
          "type": "address"
        }
      ],
      "stateMutability": "view",
      "type": "function"
    },
    {
      "inputs": [],
      "name": "name",
      "outputs": [
        {
          "internalType": "string",
          "name": "",
          "type": "string"
        }
      ],
      "stateMutability": "view",
      "type": "function"
    },
    {
      "inputs": [
        {
          "internalType": "uint256",
          "name": "tokenId",
          "type": "uint256"
        }
      ],
      "name": "ownerOf",
      "outputs": [
        {
          "internalType": "address",
          "name": "",
          "type": "address"
        }
      ],
      "stateMutability": "view",
      "type": "function"
    },
    {
      "inputs": [
        {
          "internalType": "address",
          "name": "from",
          "type": "address"
        },
        {
          "internalType": "address",
          "name": "to",
          "type": "address"
        },
        {
          "internalType": "uint256",
          "name": "tokenId",
          "type": "uint256"
        }
      ],
      "name": "safeTransferFrom",
      "outputs": [],
      "stateMutability": "nonpayable",
      "type": "function"
    },
    {
      "inputs": [
        {
          "internalType": "address",
          "name": "from",
          "type": "address"
        },
        {
          "internalType": "address",
          "name": "to",
          "type": "address"
        },
        {
          "internalType": "uint256",
          "name": "tokenId",
          "type": "uint256"
        },
        {
          "internalType": "bytes",
          "name": "_data",
          "type": "bytes"
        }
      ],
      "name": "safeTransferFrom",
      "outputs": [],
      "stateMutability": "nonpayable",
      "type": "function"
    },
    {
      "inputs": [
        {
          "internalType": "address",
          "name": "operator",
          "type": "address"
        },
        {
          "internalType": "bool",
          "name": "approved",
          "type": "bool"
        }
      ],
      "name": "setApprovalForAll",
      "outputs": [],
      "stateMutability": "nonpayable",
      "type": "function"
    },
    {
      "inputs": [
        {
          "internalType": "bytes4",
          "name": "interfaceId",
          "type": "bytes4"
        }
      ],
      "name": "supportsInterface",
      "outputs": [
        {
          "internalType": "bool",
          "name": "",
          "type": "bool"
        }
      ],
      "stateMutability": "view",
      "type": "function"
    },
    {
      "inputs": [],
      "name": "symbol",
      "outputs": [
        {
          "internalType": "string",
          "name": "",
          "type": "string"
        }
      ],
      "stateMutability": "view",
      "type": "function"
    },
    {
      "inputs": [
        {
          "internalType": "uint256",
          "name": "index",
          "type": "uint256"
        }
      ],
      "name": "tokenByIndex",
      "outputs": [
        {
          "internalType": "uint256",
          "name": "",
          "type": "uint256"
        }
      ],
      "stateMutability": "view",
      "type": "function"
    },
    {
      "inputs": [
        {
          "internalType": "address",
          "name": "owner",
          "type": "address"
        },
        {
          "internalType": "uint256",
          "name": "index",
          "type": "uint256"
        }
      ],
      "name": "tokenOfOwnerByIndex",
      "outputs": [
        {
          "internalType": "uint256",
          "name": "",
          "type": "uint256"
        }
      ],
      "stateMutability": "view",
      "type": "function"
    },
    {
      "inputs": [
        {
          "internalType": "uint256",
          "name": "tokenId",
          "type": "uint256"
        }
      ],
      "name": "tokenURI",
      "outputs": [
        {
          "internalType": "string",
          "name": "",
          "type": "string"
        }
      ],
      "stateMutability": "view",
      "type": "function"
    },
    {
      "inputs": [],
      "name": "totalSupply",
      "outputs": [
        {
          "internalType": "uint256",
          "name": "",
          "type": "uint256"
        }
      ],
      "stateMutability": "view",
      "type": "function"
    },
    {
      "inputs": [
        {
          "internalType": "address",
          "name": "from",
          "type": "address"
        },
        {
          "internalType": "address",
          "name": "to",
          "type": "address"
        },
        {
          "internalType": "uint256",
          "name": "tokenId",
          "type": "uint256"
        }
      ],
      "name": "transferFrom",
      "outputs": [],
      "stateMutability": "nonpayable",
      "type": "function"
    },
    {
      "inputs": [
        {
          "internalType": "address",
          "name": "from",
          "type": "address"
        },
        {
          "internalType": "address",
          "name": "to",
          "type": "address"
        },
        {
          "internalType": "uint256",
          "name": "tokenId",
          "type": "uint256"
        }
      ],
      "name": "_transferFromTicket",
      "outputs": [],
      "stateMutability": "nonpayable",
      "type": "function"
    },
    {
      "inputs": [
        {
          "internalType": "address",
          "name": "organizer",
          "type": "address"
        },
        {
          "internalType": "uint256",
          "name": "_masterId",
          "type": "uint256"
        },
        {
          "internalType": "address",
          "name": "_sale",
          "type": "address"
        }
      ],
      "name": "PlugCrowdSale",
      "outputs": [],
      "stateMutability": "nonpayable",
      "type": "function"
    },
    {
      "inputs": [
        {
          "internalType": "string",
          "name": "link",
          "type": "string"
        },
        {
          "internalType": "address",
          "name": "_author",
          "type": "address"
        },
        {
          "internalType": "string",
          "name": "_description",
          "type": "string"
        },
        {
          "internalType": "uint256",
          "name": "_supplyType",
          "type": "uint256"
        }
      ],
      "name": "createMasterCopy",
      "outputs": [
        {
          "internalType": "uint256",
          "name": "c_master_id",
          "type": "uint256"
        }
      ],
      "stateMutability": "nonpayable",
      "type": "function"
    },
    {
      "inputs": [
        {
          "internalType": "uint256",
          "name": "_masterId",
          "type": "uint256"
        }
      ],
      "name": "get_rarity",
      "outputs": [
        {
          "internalType": "enum MSNFT.RarityType",
          "name": "",
          "type": "uint8"
        }
      ],
      "stateMutability": "view",
      "type": "function"
    },
    {
      "inputs": [
        {
          "internalType": "uint256",
          "name": "_masterId",
          "type": "uint256"
        }
      ],
      "name": "get_author",
      "outputs": [
        {
          "internalType": "address",
          "name": "_author",
          "type": "address"
        }
      ],
      "stateMutability": "view",
      "type": "function"
    },
    {
      "inputs": [
        {
          "internalType": "address",
          "name": "buyer",
          "type": "address"
        },
        {
          "internalType": "uint256",
          "name": "itemAmount",
          "type": "uint256"
        },
        {
          "internalType": "uint256",
          "name": "master_id",
          "type": "uint256"
        }
      ],
      "name": "buyTicket",
      "outputs": [],
      "stateMutability": "nonpayable",
      "type": "function"
    },
    {
      "inputs": [
        {
          "internalType": "uint256",
          "name": "master_id",
          "type": "uint256"
        }
      ],
      "name": "getItemSale",
      "outputs": [
        {
          "internalType": "address",
          "name": "",
          "type": "address"
        }
      ],
      "stateMutability": "view",
      "type": "function"
    }
  ],
  "bytecode": "0x60806040523480156200001157600080fd5b50604051620048e0380380620048e08339818101604052810190620000379190620001d8565b8181816000908051906020019062000051929190620000b6565b5080600190805190602001906200006a929190620000b6565b50505033600c60006101000a81548173ffffffffffffffffffffffffffffffffffffffff021916908373ffffffffffffffffffffffffffffffffffffffff16021790555050506200037c565b828054620000c490620002e8565b90600052602060002090601f016020900481019282620000e8576000855562000134565b82601f106200010357805160ff191683800117855562000134565b8280016001018555821562000134579182015b828111156200013357825182559160200191906001019062000116565b5b50905062000143919062000147565b5090565b5b808211156200016257600081600090555060010162000148565b5090565b60006200017d62000177846200027f565b6200024b565b9050828152602081018484840111156200019657600080fd5b620001a3848285620002b2565b509392505050565b600082601f830112620001bd57600080fd5b8151620001cf84826020860162000166565b91505092915050565b60008060408385031215620001ec57600080fd5b600083015167ffffffffffffffff8111156200020757600080fd5b6200021585828601620001ab565b925050602083015167ffffffffffffffff8111156200023357600080fd5b6200024185828601620001ab565b9150509250929050565b6000604051905081810181811067ffffffffffffffff821117156200027557620002746200034d565b5b8060405250919050565b600067ffffffffffffffff8211156200029d576200029c6200034d565b5b601f19601f8301169050602081019050919050565b60005b83811015620002d2578082015181840152602081019050620002b5565b83811115620002e2576000848401525b50505050565b600060028204905060018216806200030157607f821691505b602082108114156200031857620003176200031e565b5b50919050565b7f4e487b7100000000000000000000000000000000000000000000000000000000600052602260045260246000fd5b7f4e487b7100000000000000000000000000000000000000000000000000000000600052604160045260246000fd5b614554806200038c6000396000f3fe608060405234801561001057600080fd5b50600436106101e1576000357c01000000000000000000000000000000000000000000000000000000009004806394ff3acc11610116578063b88d4fde116100b4578063e3e5c2b91161008e578063e3e5c2b9146105a4578063e985e9c5146105c0578063f1d121c1146105f0578063f520cb4c14610620576101e1565b8063b88d4fde14610528578063be5010b214610544578063c87b56dd14610574576101e1565b8063a22cb465116100f0578063a22cb46514610490578063ab31520a146104ac578063ad140b1d146104c8578063b661497a146104f8576101e1565b806394ff3acc1461042657806395d89b41146104425780639e004ba814610460576101e1565b806323b872dd1161018357806342842e0e1161015d57806342842e0e1461037a5780634f6ccce7146103965780636352211e146103c657806370a08231146103f6576101e1565b806323b872dd146102fe5780632f745c591461031a5780633db804da1461034a576101e1565b8063095ea7b3116101bf578063095ea7b3146102645780630e304d881461028057806318160ddd146102b0578063239e1d72146102ce576101e1565b806301ffc9a7146101e657806306fdde0314610216578063081812fc14610234575b600080fd5b61020060048036038101906101fb91906132fa565b610654565b60405161020d9190613d48565b60405180910390f35b61021e6106ce565b60405161022b9190613d7e565b60405180910390f35b61024e600480360381019061024991906133df565b610760565b60405161025b9190613c81565b60405180910390f35b61027e60048036038101906102799190613220565b6107e5565b005b61029a600480360381019061029591906133df565b6108fd565b6040516102a79190613c81565b60405180910390f35b6102b861093a565b6040516102c59190614081565b60405180910390f35b6102e860048036038101906102e391906133df565b610947565b6040516102f59190613d63565b60405180910390f35b6103186004803603810190610313919061311a565b610b8f565b005b610334600480360381019061032f9190613220565b610bef565b6040516103419190614081565b60405180910390f35b610364600480360381019061035f91906133df565b610c94565b6040516103719190613c81565b60405180910390f35b610394600480360381019061038f919061311a565b610cc7565b005b6103b060048036038101906103ab91906133df565b610ce7565b6040516103bd9190614081565b60405180910390f35b6103e060048036038101906103db91906133df565b610d7e565b6040516103ed9190613c81565b60405180910390f35b610410600480360381019061040b91906130b5565b610e30565b60405161041d9190614081565b60405180910390f35b610440600480360381019061043b919061325c565b610ee8565b005b61044a61127b565b6040516104579190613d7e565b60405180910390f35b61047a600480360381019061047591906133df565b61130d565b6040516104879190613c81565b60405180910390f35b6104aa60048036038101906104a591906131e4565b61134f565b005b6104c660048036038101906104c1919061311a565b6114d0565b005b6104e260048036038101906104dd91906133df565b6114e0565b6040516104ef9190613d7e565b60405180910390f35b610512600480360381019061050d91906133df565b611580565b60405161051f9190613c81565b60405180910390f35b610542600480360381019061053d9190613169565b6115b3565b005b61055e60048036038101906105599190613408565b611615565b60405161056b9190614081565b60405180910390f35b61058e600480360381019061058991906133df565b611646565b60405161059b9190613d7e565b60405180910390f35b6105be60048036038101906105b991906132ab565b6116ed565b005b6105da60048036038101906105d591906130de565b6118c3565b6040516105e79190613d48565b60405180910390f35b61060a6004803603810190610605919061334c565b611957565b6040516106179190614081565b60405180910390f35b61063a600480360381019061063591906133df565b611bce565b60405161064b959493929190613da0565b60405180910390f35b60007f780e9d63000000000000000000000000000000000000000000000000000000007bffffffffffffffffffffffffffffffffffffffffffffffffffffffff1916827bffffffffffffffffffffffffffffffffffffffffffffffffffffffff191614806106c757506106c682611d41565b5b9050919050565b6060600080546106dd90614306565b80601f016020809104026020016040519081016040528092919081815260200182805461070990614306565b80156107565780601f1061072b57610100808354040283529160200191610756565b820191906000526020600020905b81548152906001019060200180831161073957829003601f168201915b5050505050905090565b600061076b82611e23565b6107aa576040517f08c379a00000000000000000000000000000000000000000000000000000000081526004016107a190613f61565b60405180910390fd5b6004600083815260200190815260200160002060009054906101000a900473ffffffffffffffffffffffffffffffffffffffff169050919050565b60006107f082610d7e565b90508073ffffffffffffffffffffffffffffffffffffffff168373ffffffffffffffffffffffffffffffffffffffff161415610861576040517f08c379a000000000000000000000000000000000000000000000000000000000815260040161085890614001565b60405180910390fd5b8073ffffffffffffffffffffffffffffffffffffffff16610880611e8f565b73ffffffffffffffffffffffffffffffffffffffff1614806108af57506108ae816108a9611e8f565b6118c3565b5b6108ee576040517f08c379a00000000000000000000000000000000000000000000000000000000081526004016108e590613ee1565b60405180910390fd5b6108f88383611e97565b505050565b60006011600083815260200190815260200160002060009054906101000a900473ffffffffffffffffffffffffffffffffffffffff169050919050565b6000600880549050905090565b6000610951612e5c565b601360008481526020019081526020016000206040518060a001604052908160008201805461097f90614306565b80601f01602080910402602001604051908101604052809291908181526020018280546109ab90614306565b80156109f85780601f106109cd576101008083540402835291602001916109f8565b820191906000526020600020905b8154815290600101906020018083116109db57829003601f168201915b50505050508152602001600182018054610a1190614306565b80601f0160208091040260200160405190810160405280929190818152602001828054610a3d90614306565b8015610a8a5780601f10610a5f57610100808354040283529160200191610a8a565b820191906000526020600020905b815481529060010190602001808311610a6d57829003601f168201915b505050505081526020016002820160009054906101000a900473ffffffffffffffffffffffffffffffffffffffff1673ffffffffffffffffffffffffffffffffffffffff1673ffffffffffffffffffffffffffffffffffffffff1681526020016002820160149054906101000a900460ff166002811115610b34577f4e487b7100000000000000000000000000000000000000000000000000000000600052602160045260246000fd5b6002811115610b6c577f4e487b7100000000000000000000000000000000000000000000000000000000600052602160045260246000fd5b815260200160038201548152505090506000816060015190508092505050919050565b610ba0610b9a611e8f565b82611f50565b610bdf576040517f08c379a0000000000000000000000000000000000000000000000000000000008152600401610bd690614021565b60405180910390fd5b610bea83838361202e565b505050565b6000610bfa83610e30565b8210610c3b576040517f08c379a0000000000000000000000000000000000000000000000000000000008152600401610c3290613e01565b60405180910390fd5b600660008473ffffffffffffffffffffffffffffffffffffffff1673ffffffffffffffffffffffffffffffffffffffff168152602001908152602001600020600083815260200190815260200160002054905092915050565b60116020528060005260406000206000915054906101000a900473ffffffffffffffffffffffffffffffffffffffff1681565b610ce2838383604051806020016040528060008152506115b3565b505050565b6000610cf161093a565b8210610d32576040517f08c379a0000000000000000000000000000000000000000000000000000000008152600401610d2990614041565b60405180910390fd5b60088281548110610d6c577f4e487b7100000000000000000000000000000000000000000000000000000000600052603260045260246000fd5b90600052602060002001549050919050565b6000806002600084815260200190815260200160002060009054906101000a900473ffffffffffffffffffffffffffffffffffffffff169050600073ffffffffffffffffffffffffffffffffffffffff168173ffffffffffffffffffffffffffffffffffffffff161415610e27576040517f08c379a0000000000000000000000000000000000000000000000000000000008152600401610e1e90613f21565b60405180910390fd5b80915050919050565b60008073ffffffffffffffffffffffffffffffffffffffff168273ffffffffffffffffffffffffffffffffffffffff161415610ea1576040517f08c379a0000000000000000000000000000000000000000000000000000000008152600401610e9890613f01565b60405180910390fd5b600360008373ffffffffffffffffffffffffffffffffffffffff1673ffffffffffffffffffffffffffffffffffffffff168152602001908152602001600020549050919050565b600c60009054906101000a900473ffffffffffffffffffffffffffffffffffffffff1673ffffffffffffffffffffffffffffffffffffffff163373ffffffffffffffffffffffffffffffffffffffff1614610f78576040517f08c379a0000000000000000000000000000000000000000000000000000000008152600401610f6f90613fe1565b60405180910390fd5b610f80612e5c565b601360008481526020019081526020016000206040518060a0016040529081600082018054610fae90614306565b80601f0160208091040260200160405190810160405280929190818152602001828054610fda90614306565b80156110275780601f10610ffc57610100808354040283529160200191611027565b820191906000526020600020905b81548152906001019060200180831161100a57829003601f168201915b5050505050815260200160018201805461104090614306565b80601f016020809104026020016040519081016040528092919081815260200182805461106c90614306565b80156110b95780601f1061108e576101008083540402835291602001916110b9565b820191906000526020600020905b81548152906001019060200180831161109c57829003601f168201915b505050505081526020016002820160009054906101000a900473ffffffffffffffffffffffffffffffffffffffff1673ffffffffffffffffffffffffffffffffffffffff1673ffffffffffffffffffffffffffffffffffffffff1681526020016002820160149054906101000a900460ff166002811115611163577f4e487b7100000000000000000000000000000000000000000000000000000000600052602160045260246000fd5b600281111561119b577f4e487b7100000000000000000000000000000000000000000000000000000000600052602160045260246000fd5b815260200160038201548152505090506000816040015190508473ffffffffffffffffffffffffffffffffffffffff168173ffffffffffffffffffffffffffffffffffffffff1614611222576040517f08c379a000000000000000000000000000000000000000000000000000000000815260040161121990613e61565b60405180910390fd5b82600d600086815260200190815260200160002060006101000a81548173ffffffffffffffffffffffffffffffffffffffff021916908373ffffffffffffffffffffffffffffffffffffffff1602179055505050505050565b60606001805461128a90614306565b80601f01602080910402602001604051908101604052809291908181526020018280546112b690614306565b80156113035780601f106112d857610100808354040283529160200191611303565b820191906000526020600020905b8154815290600101906020018083116112e657829003601f168201915b5050505050905090565b600080600d600084815260200190815260200160002060009054906101000a900473ffffffffffffffffffffffffffffffffffffffff16905080915050919050565b611357611e8f565b73ffffffffffffffffffffffffffffffffffffffff168273ffffffffffffffffffffffffffffffffffffffff1614156113c5576040517f08c379a00000000000000000000000000000000000000000000000000000000081526004016113bc90613ea1565b60405180910390fd5b80600560006113d2611e8f565b73ffffffffffffffffffffffffffffffffffffffff1673ffffffffffffffffffffffffffffffffffffffff16815260200190815260200160002060008473ffffffffffffffffffffffffffffffffffffffff1673ffffffffffffffffffffffffffffffffffffffff16815260200190815260200160002060006101000a81548160ff0219169083151502179055508173ffffffffffffffffffffffffffffffffffffffff1661147f611e8f565b73ffffffffffffffffffffffffffffffffffffffff167f17307eab39ab6107e8899845ad3d59bd9653f200f220920489ca2b5937696c31836040516114c49190613d48565b60405180910390a35050565b6114db838383610cc7565b505050565b601260205280600052604060002060009150905080546114ff90614306565b80601f016020809104026020016040519081016040528092919081815260200182805461152b90614306565b80156115785780601f1061154d57610100808354040283529160200191611578565b820191906000526020600020905b81548152906001019060200180831161155b57829003601f168201915b505050505081565b600d6020528060005260406000206000915054906101000a900473ffffffffffffffffffffffffffffffffffffffff1681565b6115c46115be611e8f565b83611f50565b611603576040517f08c379a00000000000000000000000000000000000000000000000000000000081526004016115fa90614021565b60405180910390fd5b61160f8484848461228a565b50505050565b600e602052816000526040600020818154811061163157600080fd5b90600052602060002001600091509150505481565b606061165182611e23565b611690576040517f08c379a000000000000000000000000000000000000000000000000000000000815260040161168790613fc1565b60405180910390fd5b600061169a6122e6565b905060008151116116ba57604051806020016040528060008152506116e5565b806116c4846122fd565b6040516020016116d5929190613c5d565b6040516020818303038152906040525b915050919050565b6000600d600083815260200190815260200160002060009054906101000a900473ffffffffffffffffffffffffffffffffffffffff1690503373ffffffffffffffffffffffffffffffffffffffff168173ffffffffffffffffffffffffffffffffffffffff1614611793576040517f08c379a000000000000000000000000000000000000000000000000000000000815260040161178a90613f81565b60405180910390fd5b60005b838110156118bc576117a8600a6124c9565b60006117b4600a6124df565b90506117c086826124ed565b600e600085815260200190815260200160002080549050600f600083815260200190815260200160002081905550600e600085815260200190815260200160002081908060018154018082558091505060019003906000526020600020016000909190919091505580848773ffffffffffffffffffffffffffffffffffffffff167ffe2094c9ff56716cb07edf0cff82da158f346cb3bb2d89703228ab4eb0c329b660405160405180910390a47f2550da409a7fd6a0b8e2a7af9372f4297635788f07cf08c3d5ed13ab297ad5938685836040516118a093929190613d11565b60405180910390a15080806118b490614338565b915050611796565b5050505050565b6000600560008473ffffffffffffffffffffffffffffffffffffffff1673ffffffffffffffffffffffffffffffffffffffff16815260200190815260200160002060008373ffffffffffffffffffffffffffffffffffffffff1673ffffffffffffffffffffffffffffffffffffffff16815260200190815260200160002060009054906101000a900460ff16905092915050565b6000600c60009054906101000a900473ffffffffffffffffffffffffffffffffffffffff1673ffffffffffffffffffffffffffffffffffffffff163373ffffffffffffffffffffffffffffffffffffffff16146119e9576040517f08c379a00000000000000000000000000000000000000000000000000000000081526004016119e090614061565b60405180910390fd5b60006119f36126bb565b90506000611a0084612753565b90506040518060a001604052808881526020018681526020018773ffffffffffffffffffffffffffffffffffffffff168152602001826002811115611a6e577f4e487b7100000000000000000000000000000000000000000000000000000000600052602160045260246000fd5b81526020016000815250601360008481526020019081526020016000206000820151816000019080519060200190611aa7929190612ed9565b506020820151816001019080519060200190611ac4929190612ed9565b5060408201518160020160006101000a81548173ffffffffffffffffffffffffffffffffffffffff021916908373ffffffffffffffffffffffffffffffffffffffff16021790555060608201518160020160146101000a81548160ff02191690836002811115611b5d577f4e487b7100000000000000000000000000000000000000000000000000000000600052602160045260246000fd5b021790555060808201518160030155905050856011600084815260200190815260200160002060006101000a81548173ffffffffffffffffffffffffffffffffffffffff021916908373ffffffffffffffffffffffffffffffffffffffff1602179055508192505050949350505050565b6013602052806000526040600020600091509050806000018054611bf190614306565b80601f0160208091040260200160405190810160405280929190818152602001828054611c1d90614306565b8015611c6a5780601f10611c3f57610100808354040283529160200191611c6a565b820191906000526020600020905b815481529060010190602001808311611c4d57829003601f168201915b505050505090806001018054611c7f90614306565b80601f0160208091040260200160405190810160405280929190818152602001828054611cab90614306565b8015611cf85780601f10611ccd57610100808354040283529160200191611cf8565b820191906000526020600020905b815481529060010190602001808311611cdb57829003601f168201915b5050505050908060020160009054906101000a900473ffffffffffffffffffffffffffffffffffffffff16908060020160149054906101000a900460ff16908060030154905085565b60007f80ac58cd000000000000000000000000000000000000000000000000000000007bffffffffffffffffffffffffffffffffffffffffffffffffffffffff1916827bffffffffffffffffffffffffffffffffffffffffffffffffffffffff19161480611e0c57507f5b5e139f000000000000000000000000000000000000000000000000000000007bffffffffffffffffffffffffffffffffffffffffffffffffffffffff1916827bffffffffffffffffffffffffffffffffffffffffffffffffffffffff1916145b80611e1c5750611e1b8261277f565b5b9050919050565b60008073ffffffffffffffffffffffffffffffffffffffff166002600084815260200190815260200160002060009054906101000a900473ffffffffffffffffffffffffffffffffffffffff1673ffffffffffffffffffffffffffffffffffffffff1614159050919050565b600033905090565b816004600083815260200190815260200160002060006101000a81548173ffffffffffffffffffffffffffffffffffffffff021916908373ffffffffffffffffffffffffffffffffffffffff160217905550808273ffffffffffffffffffffffffffffffffffffffff16611f0a83610d7e565b73ffffffffffffffffffffffffffffffffffffffff167f8c5be1e5ebec7d5bd14f71427d1e84f3dd0314c0f7b2291e5b200ac8c7c3b92560405160405180910390a45050565b6000611f5b82611e23565b611f9a576040517f08c379a0000000000000000000000000000000000000000000000000000000008152600401611f9190613ec1565b60405180910390fd5b6000611fa583610d7e565b90508073ffffffffffffffffffffffffffffffffffffffff168473ffffffffffffffffffffffffffffffffffffffff16148061201457508373ffffffffffffffffffffffffffffffffffffffff16611ffc84610760565b73ffffffffffffffffffffffffffffffffffffffff16145b80612025575061202481856118c3565b5b91505092915050565b8273ffffffffffffffffffffffffffffffffffffffff1661204e82610d7e565b73ffffffffffffffffffffffffffffffffffffffff16146120a4576040517f08c379a000000000000000000000000000000000000000000000000000000000815260040161209b90613fa1565b60405180910390fd5b600073ffffffffffffffffffffffffffffffffffffffff168273ffffffffffffffffffffffffffffffffffffffff161415612114576040517f08c379a000000000000000000000000000000000000000000000000000000000815260040161210b90613e81565b60405180910390fd5b61211f8383836127e9565b61212a600082611e97565b6001600360008573ffffffffffffffffffffffffffffffffffffffff1673ffffffffffffffffffffffffffffffffffffffff168152602001908152602001600020600082825461217a91906141f7565b925050819055506001600360008473ffffffffffffffffffffffffffffffffffffffff1673ffffffffffffffffffffffffffffffffffffffff16815260200190815260200160002060008282546121d19190614170565b92505081905550816002600083815260200190815260200160002060006101000a81548173ffffffffffffffffffffffffffffffffffffffff021916908373ffffffffffffffffffffffffffffffffffffffff160217905550808273ffffffffffffffffffffffffffffffffffffffff168473ffffffffffffffffffffffffffffffffffffffff167fddf252ad1be2c89b69c2b068fc378daa952ba7f163c4a11628f55a4df523b3ef60405160405180910390a4505050565b61229584848461202e565b6122a1848484846128fd565b6122e0576040517f08c379a00000000000000000000000000000000000000000000000000000000081526004016122d790613e21565b60405180910390fd5b50505050565b606060405180602001604052806000815250905090565b60606000821415612345576040518060400160405280600181526020017f300000000000000000000000000000000000000000000000000000000000000081525090506124c4565b600082905060005b6000821461237757808061236090614338565b915050600a8261237091906141c6565b915061234d565b60008167ffffffffffffffff8111156123b9577f4e487b7100000000000000000000000000000000000000000000000000000000600052604160045260246000fd5b6040519080825280601f01601f1916602001820160405280156123eb5781602001600182028036833780820191505090505b5090505b600085146124bd5760018261240491906141f7565b9150600a856124139190614381565b603061241f9190614170565b7f01000000000000000000000000000000000000000000000000000000000000000281838151811061247a577f4e487b7100000000000000000000000000000000000000000000000000000000600052603260045260246000fd5b60200101907effffffffffffffffffffffffffffffffffffffffffffffffffffffffffffff1916908160001a905350600a856124b691906141c6565b94506123ef565b8093505050505b919050565b6001816000016000828254019250508190555050565b600081600001549050919050565b600073ffffffffffffffffffffffffffffffffffffffff168273ffffffffffffffffffffffffffffffffffffffff16141561255d576040517f08c379a000000000000000000000000000000000000000000000000000000000815260040161255490613f41565b60405180910390fd5b61256681611e23565b156125a6576040517f08c379a000000000000000000000000000000000000000000000000000000000815260040161259d90613e41565b60405180910390fd5b6125b2600083836127e9565b6001600360008473ffffffffffffffffffffffffffffffffffffffff1673ffffffffffffffffffffffffffffffffffffffff16815260200190815260200160002060008282546126029190614170565b92505081905550816002600083815260200190815260200160002060006101000a81548173ffffffffffffffffffffffffffffffffffffffff021916908373ffffffffffffffffffffffffffffffffffffffff160217905550808273ffffffffffffffffffffffffffffffffffffffff16600073ffffffffffffffffffffffffffffffffffffffff167fddf252ad1be2c89b69c2b068fc378daa952ba7f163c4a11628f55a4df523b3ef60405160405180910390a45050565b60006126c7600b6124c9565b6126d1600b6124df565b9050803373ffffffffffffffffffffffffffffffffffffffff167f42ff04921a81aac6b1b91bb0c423fb8405d7fce459953ab5fc98ed27744691be60405160405180910390a37f8e1c0dfd342869718621c5de225aa832476d36b5cab6accbcf4c07aa496eaf1c3382604051612748929190613ce8565b60405180910390a190565b6000600182141561276357600090505b6000821415612775576002905061277a565b600190505b919050565b60007f01ffc9a7000000000000000000000000000000000000000000000000000000007bffffffffffffffffffffffffffffffffffffffffffffffffffffffff1916827bffffffffffffffffffffffffffffffffffffffffffffffffffffffff1916149050919050565b6127f4838383612acc565b600073ffffffffffffffffffffffffffffffffffffffff168373ffffffffffffffffffffffffffffffffffffffff1614156128375761283281612ad1565b612876565b8173ffffffffffffffffffffffffffffffffffffffff168373ffffffffffffffffffffffffffffffffffffffff1614612875576128748382612b1a565b5b5b600073ffffffffffffffffffffffffffffffffffffffff168273ffffffffffffffffffffffffffffffffffffffff1614156128b9576128b481612c87565b6128f8565b8273ffffffffffffffffffffffffffffffffffffffff168273ffffffffffffffffffffffffffffffffffffffff16146128f7576128f68282612dca565b5b5b505050565b600061291e8473ffffffffffffffffffffffffffffffffffffffff16612e49565b15612abf578373ffffffffffffffffffffffffffffffffffffffff1663150b7a02612947611e8f565b8786866040518563ffffffff167c01000000000000000000000000000000000000000000000000000000000281526004016129859493929190613c9c565b602060405180830381600087803b15801561299f57600080fd5b505af19250505080156129d057506040513d601f19601f820116820180604052508101906129cd9190613323565b60015b612a53573d8060008114612a00576040519150601f19603f3d011682016040523d82523d6000602084013e612a05565b606091505b50600081511415612a4b576040517f08c379a0000000000000000000000000000000000000000000000000000000008152600401612a4290613e21565b60405180910390fd5b805181602001fd5b63150b7a027c0100000000000000000000000000000000000000000000000000000000027bffffffffffffffffffffffffffffffffffffffffffffffffffffffff1916817bffffffffffffffffffffffffffffffffffffffffffffffffffffffff191614915050612ac4565b600190505b949350505050565b505050565b6008805490506009600083815260200190815260200160002081905550600881908060018154018082558091505060019003906000526020600020016000909190919091505550565b60006001612b2784610e30565b612b3191906141f7565b9050600060076000848152602001908152602001600020549050818114612c16576000600660008673ffffffffffffffffffffffffffffffffffffffff1673ffffffffffffffffffffffffffffffffffffffff168152602001908152602001600020600084815260200190815260200160002054905080600660008773ffffffffffffffffffffffffffffffffffffffff1673ffffffffffffffffffffffffffffffffffffffff168152602001908152602001600020600084815260200190815260200160002081905550816007600083815260200190815260200160002081905550505b6007600084815260200190815260200160002060009055600660008573ffffffffffffffffffffffffffffffffffffffff1673ffffffffffffffffffffffffffffffffffffffff16815260200190815260200160002060008381526020019081526020016000206000905550505050565b60006001600880549050612c9b91906141f7565b9050600060096000848152602001908152602001600020549050600060088381548110612cf1577f4e487b7100000000000000000000000000000000000000000000000000000000600052603260045260246000fd5b906000526020600020015490508060088381548110612d39577f4e487b7100000000000000000000000000000000000000000000000000000000600052603260045260246000fd5b906000526020600020018190555081600960008381526020019081526020016000208190555060096000858152602001908152602001600020600090556008805480612dae577f4e487b7100000000000000000000000000000000000000000000000000000000600052603160045260246000fd5b6001900381819060005260206000200160009055905550505050565b6000612dd583610e30565b905081600660008573ffffffffffffffffffffffffffffffffffffffff1673ffffffffffffffffffffffffffffffffffffffff168152602001908152602001600020600083815260200190815260200160002081905550806007600084815260200190815260200160002081905550505050565b600080823b905060008111915050919050565b6040518060a001604052806060815260200160608152602001600073ffffffffffffffffffffffffffffffffffffffff16815260200160006002811115612ecc577f4e487b7100000000000000000000000000000000000000000000000000000000600052602160045260246000fd5b8152602001600081525090565b828054612ee590614306565b90600052602060002090601f016020900481019282612f075760008555612f4e565b82601f10612f2057805160ff1916838001178555612f4e565b82800160010185558215612f4e579182015b82811115612f4d578251825591602001919060010190612f32565b5b509050612f5b9190612f5f565b5090565b5b80821115612f78576000816000905550600101612f60565b5090565b6000612f8f612f8a846140cd565b61409c565b905082815260208101848484011115612fa757600080fd5b612fb28482856142c4565b509392505050565b6000612fcd612fc8846140fd565b61409c565b905082815260208101848484011115612fe557600080fd5b612ff08482856142c4565b509392505050565b600081359050613007816144c2565b92915050565b60008135905061301c816144d9565b92915050565b600081359050613031816144f0565b92915050565b600081519050613046816144f0565b92915050565b600082601f83011261305d57600080fd5b813561306d848260208601612f7c565b91505092915050565b600082601f83011261308757600080fd5b8135613097848260208601612fba565b91505092915050565b6000813590506130af81614507565b92915050565b6000602082840312156130c757600080fd5b60006130d584828501612ff8565b91505092915050565b600080604083850312156130f157600080fd5b60006130ff85828601612ff8565b925050602061311085828601612ff8565b9150509250929050565b60008060006060848603121561312f57600080fd5b600061313d86828701612ff8565b935050602061314e86828701612ff8565b925050604061315f868287016130a0565b9150509250925092565b6000806000806080858703121561317f57600080fd5b600061318d87828801612ff8565b945050602061319e87828801612ff8565b93505060406131af878288016130a0565b925050606085013567ffffffffffffffff8111156131cc57600080fd5b6131d88782880161304c565b91505092959194509250565b600080604083850312156131f757600080fd5b600061320585828601612ff8565b92505060206132168582860161300d565b9150509250929050565b6000806040838503121561323357600080fd5b600061324185828601612ff8565b9250506020613252858286016130a0565b9150509250929050565b60008060006060848603121561327157600080fd5b600061327f86828701612ff8565b9350506020613290868287016130a0565b92505060406132a186828701612ff8565b9150509250925092565b6000806000606084860312156132c057600080fd5b60006132ce86828701612ff8565b93505060206132df868287016130a0565b92505060406132f0868287016130a0565b9150509250925092565b60006020828403121561330c57600080fd5b600061331a84828501613022565b91505092915050565b60006020828403121561333557600080fd5b600061334384828501613037565b91505092915050565b6000806000806080858703121561336257600080fd5b600085013567ffffffffffffffff81111561337c57600080fd5b61338887828801613076565b945050602061339987828801612ff8565b935050604085013567ffffffffffffffff8111156133b657600080fd5b6133c287828801613076565b92505060606133d3878288016130a0565b91505092959194509250565b6000602082840312156133f157600080fd5b60006133ff848285016130a0565b91505092915050565b6000806040838503121561341b57600080fd5b6000613429858286016130a0565b925050602061343a858286016130a0565b9150509250929050565b61344d8161422b565b82525050565b61345c8161423d565b82525050565b600061346d8261412d565b6134778185614143565b93506134878185602086016142d3565b6134908161449d565b840191505092915050565b6134a4816142b2565b82525050565b60006134b582614138565b6134bf8185614154565b93506134cf8185602086016142d3565b6134d88161449d565b840191505092915050565b60006134ee82614138565b6134f88185614165565b93506135088185602086016142d3565b80840191505092915050565b6000613521602b83614154565b91507f455243373231456e756d657261626c653a206f776e657220696e646578206f7560008301527f74206f6620626f756e64730000000000000000000000000000000000000000006020830152604082019050919050565b6000613587603283614154565b91507f4552433732313a207472616e7366657220746f206e6f6e20455243373231526560008301527f63656976657220696d706c656d656e74657200000000000000000000000000006020830152604082019050919050565b60006135ed601c83614154565b91507f4552433732313a20746f6b656e20616c7265616479206d696e746564000000006000830152602082019050919050565b600061362d601f83614154565b91507f796f7520646f6e2774206f776e20746f2074686973206d6173746572206964006000830152602082019050919050565b600061366d602483614154565b91507f4552433732313a207472616e7366657220746f20746865207a65726f2061646460008301527f72657373000000000000000000000000000000000000000000000000000000006020830152604082019050919050565b60006136d3601983614154565b91507f4552433732313a20617070726f766520746f2063616c6c6572000000000000006000830152602082019050919050565b6000613713602c83614154565b91507f4552433732313a206f70657261746f7220717565727920666f72206e6f6e657860008301527f697374656e7420746f6b656e00000000000000000000000000000000000000006020830152604082019050919050565b6000613779603883614154565b91507f4552433732313a20617070726f76652063616c6c6572206973206e6f74206f7760008301527f6e6572206e6f7220617070726f76656420666f7220616c6c00000000000000006020830152604082019050919050565b60006137df602a83614154565b91507f4552433732313a2062616c616e636520717565727920666f7220746865207a6560008301527f726f2061646472657373000000000000000000000000000000000000000000006020830152604082019050919050565b6000613845602983614154565b91507f4552433732313a206f776e657220717565727920666f72206e6f6e657869737460008301527f656e7420746f6b656e00000000000000000000000000000000000000000000006020830152604082019050919050565b60006138ab602083614154565b91507f4552433732313a206d696e7420746f20746865207a65726f20616464726573736000830152602082019050919050565b60006138eb602c83614154565b91507f4552433732313a20617070726f76656420717565727920666f72206e6f6e657860008301527f697374656e7420746f6b656e00000000000000000000000000000000000000006020830152604082019050919050565b6000613951603083614154565b91507f796f752073686f756c642063616c6c206275795469636b65742066726f6d206960008301527f74656d73616c6520636f6e7472616374000000000000000000000000000000006020830152604082019050919050565b60006139b7602983614154565b91507f4552433732313a207472616e73666572206f6620746f6b656e2074686174206960008301527f73206e6f74206f776e00000000000000000000000000000000000000000000006020830152604082019050919050565b6000613a1d602f83614154565b91507f4552433732314d657461646174613a2055524920717565727920666f72206e6f60008301527f6e6578697374656e7420746f6b656e00000000000000000000000000000000006020830152604082019050919050565b6000613a83601f83614154565b91507f6f6e6c7920666163746f72792063616e20706c75672063726f776473616c65006000830152602082019050919050565b6000613ac3602183614154565b91507f4552433732313a20617070726f76616c20746f2063757272656e74206f776e6560008301527f72000000000000000000000000000000000000000000000000000000000000006020830152604082019050919050565b6000613b29603183614154565b91507f4552433732313a207472616e736665722063616c6c6572206973206e6f74206f60008301527f776e6572206e6f7220617070726f7665640000000000000000000000000000006020830152604082019050919050565b6000613b8f602c83614154565b91507f455243373231456e756d657261626c653a20676c6f62616c20696e646578206f60008301527f7574206f6620626f756e647300000000000000000000000000000000000000006020830152604082019050919050565b6000613bf5602283614154565b91507f6f6e6c7920666163746f72792063616e20637265617465206d6173746572636f60008301527f70790000000000000000000000000000000000000000000000000000000000006020830152604082019050919050565b613c57816142a8565b82525050565b6000613c6982856134e3565b9150613c7582846134e3565b91508190509392505050565b6000602082019050613c966000830184613444565b92915050565b6000608082019050613cb16000830187613444565b613cbe6020830186613444565b613ccb6040830185613c4e565b8181036060830152613cdd8184613462565b905095945050505050565b6000604082019050613cfd6000830185613444565b613d0a6020830184613c4e565b9392505050565b6000606082019050613d266000830186613444565b613d336020830185613c4e565b613d406040830184613c4e565b949350505050565b6000602082019050613d5d6000830184613453565b92915050565b6000602082019050613d78600083018461349b565b92915050565b60006020820190508181036000830152613d9881846134aa565b905092915050565b600060a0820190508181036000830152613dba81886134aa565b90508181036020830152613dce81876134aa565b9050613ddd6040830186613444565b613dea606083018561349b565b613df76080830184613c4e565b9695505050505050565b60006020820190508181036000830152613e1a81613514565b9050919050565b60006020820190508181036000830152613e3a8161357a565b9050919050565b60006020820190508181036000830152613e5a816135e0565b9050919050565b60006020820190508181036000830152613e7a81613620565b9050919050565b60006020820190508181036000830152613e9a81613660565b9050919050565b60006020820190508181036000830152613eba816136c6565b9050919050565b60006020820190508181036000830152613eda81613706565b9050919050565b60006020820190508181036000830152613efa8161376c565b9050919050565b60006020820190508181036000830152613f1a816137d2565b9050919050565b60006020820190508181036000830152613f3a81613838565b9050919050565b60006020820190508181036000830152613f5a8161389e565b9050919050565b60006020820190508181036000830152613f7a816138de565b9050919050565b60006020820190508181036000830152613f9a81613944565b9050919050565b60006020820190508181036000830152613fba816139aa565b9050919050565b60006020820190508181036000830152613fda81613a10565b9050919050565b60006020820190508181036000830152613ffa81613a76565b9050919050565b6000602082019050818103600083015261401a81613ab6565b9050919050565b6000602082019050818103600083015261403a81613b1c565b9050919050565b6000602082019050818103600083015261405a81613b82565b9050919050565b6000602082019050818103600083015261407a81613be8565b9050919050565b60006020820190506140966000830184613c4e565b92915050565b6000604051905081810181811067ffffffffffffffff821117156140c3576140c261446e565b5b8060405250919050565b600067ffffffffffffffff8211156140e8576140e761446e565b5b601f19601f8301169050602081019050919050565b600067ffffffffffffffff8211156141185761411761446e565b5b601f19601f8301169050602081019050919050565b600081519050919050565b600081519050919050565b600082825260208201905092915050565b600082825260208201905092915050565b600081905092915050565b600061417b826142a8565b9150614186836142a8565b9250827fffffffffffffffffffffffffffffffffffffffffffffffffffffffffffffffff038211156141bb576141ba6143b2565b5b828201905092915050565b60006141d1826142a8565b91506141dc836142a8565b9250826141ec576141eb6143e1565b5b828204905092915050565b6000614202826142a8565b915061420d836142a8565b9250828210156142205761421f6143b2565b5b828203905092915050565b600061423682614288565b9050919050565b60008115159050919050565b60007fffffffff0000000000000000000000000000000000000000000000000000000082169050919050565b6000819050614283826144ae565b919050565b600073ffffffffffffffffffffffffffffffffffffffff82169050919050565b6000819050919050565b60006142bd82614275565b9050919050565b82818337600083830152505050565b60005b838110156142f15780820151818401526020810190506142d6565b83811115614300576000848401525b50505050565b6000600282049050600182168061431e57607f821691505b602082108114156143325761433161443f565b5b50919050565b6000614343826142a8565b91507fffffffffffffffffffffffffffffffffffffffffffffffffffffffffffffffff821415614376576143756143b2565b5b600182019050919050565b600061438c826142a8565b9150614397836142a8565b9250826143a7576143a66143e1565b5b828206905092915050565b7f4e487b7100000000000000000000000000000000000000000000000000000000600052601160045260246000fd5b7f4e487b7100000000000000000000000000000000000000000000000000000000600052601260045260246000fd5b7f4e487b7100000000000000000000000000000000000000000000000000000000600052602160045260246000fd5b7f4e487b7100000000000000000000000000000000000000000000000000000000600052602260045260246000fd5b7f4e487b7100000000000000000000000000000000000000000000000000000000600052604160045260246000fd5b6000601f19601f8301169050919050565b600381106144bf576144be614410565b5b50565b6144cb8161422b565b81146144d657600080fd5b50565b6144e28161423d565b81146144ed57600080fd5b50565b6144f981614249565b811461450457600080fd5b50565b614510816142a8565b811461451b57600080fd5b5056fea2646970667358221220b1556aa802796286f87bf97af462369e31419cb67b8afefe10c8c1b2dd0cd25064736f6c63430008000033",
  "immutableReferences": {},
  "source": "pragma solidity ^0.8.0;\n//\"SPDX-License-Identifier: UNLICENSED\"\n\nimport \"../../../node_modules/@openzeppelin/contracts/token/ERC721/extensions/ERC721Enumerable.sol\";\nimport \"../../../node_modules/@openzeppelin/contracts/token/ERC721/ERC721.sol\";\n//import \"../../../node_modules/@openzeppelin/contracts/token/ERC721/presets/ERC721PresetMinterPauserAutoId.sol\";\nimport \"../../../node_modules/@openzeppelin/contracts/utils/Counters.sol\";\nimport \"../../../node_modules/@openzeppelin/contracts/utils/math/SafeMath.sol\";\n\n\n\n\n\n\n\n// Ticket is ERC721 (NFT) token with  availability to reedem tickets\n\n/**\n\n    ERC-721 is non-fungible token.  So, each tokenID is a unique ticket\n\n    Usefull tips:\n    // Mapping from owner to list of owned token IDs\n    mapping(address => uint256[]) private _ownedTokens;\n\n    // Mapping from token ID to index of the owner tokens list\n    mapping(uint256 => uint256) private _ownedTokensIndex;\n\n    // Array with all token ids, used for enumeration\n    uint256[] private _allTokens;\n\n    // Mapping from token id to position in the allTokens array\n    mapping(uint256 => uint256) private _allTokensIndex;\n\n    Gets the list of token IDs of the requested owner.\n     function _tokensOfOwner(address owner) internal view returns (uint256[] storage) {\n        return _ownedTokens[owner];\n    }\n\n\n\n **/\n\ncontract MSNFT is ERC721Enumerable {\n   using SafeMath for uint256;\n   using Counters for Counters.Counter;\n\n\n\n    // Master -- Mastercopy, abstraction\n    // Item -- originate from mastercopy (nft-token)\n\n\n\n    //events\n    event ItemBought(address indexed visitor_wallet,uint256 indexed event_id, uint256 indexed ticket_id);\n    event ItemBoughtHuman(address visitor_wallet,uint256 event_id, uint256 ticket_id);\n //   event TicketFulfilled(address indexed visitor_wallet,uint256 indexed event_id, uint256 indexed ticket_id);   // FIXME: add date to event?\n   // event TicketFulfilledHuman(address visitor_wallet,uint256 event_id, uint256 ticket_id);\n    event MasterIdReserved(address indexed ticket_sale, uint256 indexed event_id);\n    event MasterIdReservedHuman(address ticket_sale, uint256 event_id);\n\n    // Global counters for ticket_id and event_id\n    Counters.Counter _item_id_count;\n    Counters.Counter _master_id_count;\n\n\n    // Motherland\n    address factory_address;\n\n\n\n    // Ticket lifecycle TODO: Deprecated, delete this\n    enum TicketState {Non_Existed, Paid, Fulfilled, Cancelled}\n\n    // Rarity type\n    // Unique -- the one\n    // Rare -- limited\n    // Common -- unlimited\n    enum RarityType {Unique, Rare, Common}\n\n    // map from mastercopy_id  to itemsale address\n    // TIP: ticket type = array.length\n    mapping(uint256 => address) public mastersales;\n    // map from master_id to item ids\n    mapping (uint256 => uint256[]) public itemIds;\n    // map fron token ID to its index in itemIds\n    mapping (uint256 => uint256) itemIndex;\n    // map from item id to item info\n    //mapping (uint256 => ItemInfo) public itemInfoStorage;  // TODO: -- we can remove it as item is a simulacr and all info we need we already have in MetaInfo\n    \n    // map from sale address to organizer -- TODO: this can be double info from factory\n    mapping(address => address) retailers;\n    \n    // map from masterId to author address\n    mapping(uint256 => address) public authors;\n\n\n    // map from event id to event JID  TODO: Depracated, remove this\n    mapping(uint256 => string) public JIDs;\n\n\n    // map from MasterCopyId to Meta info\n    mapping(uint256 => ItemInfo) public MetaInfo;\n\n\n    /**\n   * Ticket information\n   */\n\n    struct ItemInfo {\n    \n\n    // TODO: is this really nececcary to write it as string?\n    // this is link to torrent \n    string magnet_link;\n\n    // TODO: remove it as non-necessary\n    string description;\n\n    address author;\n  //  TicketState state;\n    RarityType rarity;\n    uint circulated_supply;\n  //  string event_JID;\n  //  address sale_address;\n  }\n\n\n\n    \n    constructor(string memory name_, string memory smbl_) ERC721(name_,smbl_) ERC721Enumerable() {\n      //  _addMinter(address(this));\n      // TODO: only factory can deploy this contract?\n        factory_address = msg.sender;\n    }\n\n    /*\n    // FIXME: approve for ticketsale, not factory\n    function setApprovalForEvent(address _owner, address ticketsale) internal{\n        bool approved;\n        super._operatorApprovals[_owner][ticketsale] = approved;\n        emit ApprovalForAll(_owner, ticketsale, approved);\n    }\n    */\n\n    // TODO - WTF is this? Hack?\n    function _transferFromTicket(address from, address to, uint256 tokenId) public {\n        super.safeTransferFrom(from, to, tokenId);\n    }\n\n    /* TODO: Deprecated, delete this\n    // TODO - check for event_id already existed\n    function reserveMasterIdForSale(address orginizer, string memory jid) public returns(uint256 master_id){\n       \n        master_id = _reserveMasterId();\n\n      //  eventsales[event_id] = msg.sender;\n        mastersales[master_id].push(msg.sender);\n        retailers[msg.sender] = orginizer;\n        JIDs[master_id] = jid;\n        // Roles for minting has been removed in zeppeline 0.8.0 erc721\n        //_addMinter(msg.sender);\n\n        // Rarity set\n\n\n\n        \n        return master_id;\n    }\n */\n\n    // TODO: checkout -- this function should attach other nft's contract's tokens to crowdsale\n    function PlugCrowdSale(address organizer, uint256 _masterId, address _sale) public {\n        // only factory knows about crowdsale contracts and only she should have access to this\n        require(msg.sender == factory_address, \"only factory can plug crowdsale\");\n        // only author of asset can plug crowdsale\n        ItemInfo memory meta;\n        meta = MetaInfo[_masterId];\n        address author = meta.author;\n        require(author == organizer, \"you don't own to this master id\");\n        mastersales[_masterId] = _sale;\n\n    }\n\n    function _reserveMasterId() internal returns(uint256 _master_id) {\n        _master_id_count.increment();\n        _master_id = _master_id_count.current();\n\n        emit MasterIdReserved(msg.sender,_master_id);\n        emit MasterIdReservedHuman(msg.sender,_master_id);\n\n        return _master_id;\n    }\n\n    function createMasterCopy(string memory link, address _author ,string memory _description, uint256 _supplyType) public returns(uint256 c_master_id){\n\n\n        // TODO: Add security check, should be only factory(?)\n        require(msg.sender == factory_address, \"only factory can create mastercopy\");\n\n        uint256 mid = _reserveMasterId();\n        RarityType _rarity = set_rarity(_supplyType);\n        MetaInfo[mid] = ItemInfo(link, _description,_author,_rarity,0);\n        authors[mid] = _author;\n        \n        // TODO -- emit event about master copy creation?\n\n\n        // return mastercopy id\n        return mid;\n    }\n\n     function set_rarity(uint256 _supplyType) private pure returns(RarityType _rarity) {\n       \n        // only one token exist\n        if (_supplyType == 1) {\n            _rarity = RarityType.Unique;\n        }\n        // Unlimited sale\n        if (_supplyType == 0) {\n            _rarity = RarityType.Common;\n        } else {\n            // Limited sale\n            _rarity = RarityType.Rare;\n        }\n        return _rarity;\n\n\n    }\n\n\n    function get_rarity(uint256 _masterId) public view returns (RarityType) {\n        \n        ItemInfo memory meta;\n        meta = MetaInfo[_masterId];\n        RarityType _rarity_type = meta.rarity;\n        return _rarity_type;\n    }\n\n    function get_author(uint256 _masterId) public view returns (address _author) {\n        _author = authors[_masterId];\n        return _author;\n    }\n\n\n/*\n    // plug additional sale for selling different types of ticket by one event\n    function plugSale(uint256 event_id, address orginizer) public returns(uint) {\n        address[] memory _sales = eventsales[event_id];\n        address _sale = _sales[0];\n        require(retailers[_sale] == orginizer, \"only orginizer can plug item\");\n        eventsales[event_id].push(msg.sender);\n        uint type_count = getTicketTypeCount(event_id);\n        return type_count;\n    }\n    */\n\n    //TODO - return ticketIDs(?)\n    function buyTicket(address buyer, uint256 itemAmount, uint256 master_id) public{\n       // address[] memory _sales = mastersales[master_id];\n       // address _sale = _sales[_ticket_type - 1]; // array start from 0\n       address _sale = mastersales[master_id];\n        require(_sale == msg.sender, \"you should call buyTicket from itemsale contract\");\n        for (uint256 i = 0; i < itemAmount; i++ ){\n            _item_id_count.increment();\n            uint256 item_id = _item_id_count.current();\n\n            // TODO: WARNING -- ADD CHECK FOR RARITY, ADD HIGHLEVEL MINT FUNCTION WIH IMPACT AT CIRCULATING SUPPLY\n            _mint(buyer,item_id);\n         //   itemInfoStorage[item_id] = ItemInfo(TicketState.Paid,RarityType.State,_ticket_type, jid,_sale);\n            itemIndex[item_id] = itemIds[master_id].length;\n            itemIds[master_id].push(item_id);\n            // approve for ticketsale (msg.sender = ticketsale)\n          //  approve(msg.sender, ticket_id);\n         //   setApprovalForEvent(buyer,msg.sender);\n            emit ItemBought(buyer,master_id,item_id);\n            emit ItemBoughtHuman(buyer,master_id,item_id);\n        }\n\n    }\n\n    // This function is burning tokens.\n    // @deprecated\n    /*\n    function redeemTicket(address owner,uint256 tokenId, uint256 event_id) public{\n        require(eventsales[event_id] == msg.sender, \"caller doesn't match with event_id\");\n        super._burn(owner,tokenId);\n\n       // To prevent a gap in the tokens array, we store the last token in the index of the token to delete, and\n       // then delete the last slot (swap and pop).\n\n\n        uint256 ticket_index = ticketIndex[tokenId];\n        uint256 lastTicketIndex = ticketIds[event_id].length.sub(1);\n\n      //  uint256[] storage ticketIdArray = ticketIds[event_id];\n      //  uint256 lastTicketId = ticketIdArray[lastTicketIndex];\n\n        uint256 lastTicketId = ticketIds[event_id][lastTicketIndex];\n\n\n        ticketIds[event_id][ticket_index] = lastTicketId; // Move the last token to the slot of the to-delete token\n        ticketIndex[lastTicketId] = ticket_index;         // Update the moved token's index\n\n        ticketIds[event_id].length--;  // remove last element in array\n        ticketIndex[tokenId] = 0;\n\n\n    }\n    */\n\n\n/*          Deprecated as there are no Tickets anymore.\n            Can be revived if there are a need for 'expiration' mode\n\n     function redeemTicket(address visitor, uint256 tokenId, uint256 event_id) public{\n        address[] memory _sales = eventsales[event_id];\n        TicketInfo memory info = ticketInfoStorage[tokenId];\n        address _sale = _sales[info.ticket_type - 1];\n        require(_sale == msg.sender, \"you should call scan from ticketsale contract\");\n        require(ticketInfoStorage[tokenId].state == TicketState.Paid, \"Ticket state must be Paid\");\n        info.state = TicketState.Fulfilled;\n        ticketInfoStorage[tokenId] = info;\n        emit TicketFulfilled(visitor,event_id,tokenId);\n        emit TicketFulfilledHuman(visitor, event_id,tokenId);\n    }\n\n    function refundTicket(address visitor,uint256 tokenId, uint256 event_id) public returns(bool) {\n        address[] memory _sales = eventsales[event_id];\n        TicketInfo memory info = ticketInfoStorage[tokenId];\n        address _sale = _sales[info.ticket_type - 1];\n        require(_sale == msg.sender, \"you should call refund from ticketsale contract\");\n        // check status\n        TicketState status = getTicketStatus(tokenId);\n        require(status == TicketState.Paid, \"ticket status is not valid\");\n        _transferFromTicket(visitor, msg.sender, tokenId);\n        info.state = TicketState.Cancelled;\n        ticketInfoStorage[tokenId] = info;\n        return true;\n    }\n    */\n\n/*\n    function getTicketTypeCount(uint256 event_id) public view returns(uint) {\n        address[] memory _sales = eventsales[event_id];\n        uint ticket_type = _sales.length;\n        return ticket_type;\n    }\n*/\n\n//                  FIXME: fix get items of owner\n/*\n  //  Gets the list of token IDs of the requested owner.\n     function _tokensOfOwner(address owner) internal view returns (uint256[] storage) {\n        return super._ownedTokens[owner];\n    }\n\n\n\n    function getTicketByOwner(address _owner) public view returns(uint256[] memory) {\n        uint256[] storage tickets = _tokensOfOwner(_owner);\n        return tickets;\n    }\n*/\n\n\n    function getItemSale(uint256 master_id) public view returns(address) {\n        address sale = mastersales[master_id];\n        return sale;\n    }\n\n/*\n    function getJidbyEventID(uint256 master_id) public view returns (string memory jid) {\n        jid = JIDs[master_id];\n        return jid;\n    }\n*/\n\n\n/*      TODO : Deprecated, remove it.\n    function getJidByTicketId(uint item_id) public view returns (string memory jid) {\n        ItemInfo memory info = itemInfoStorage[item_id];\n        jid = info.event_JID;\n        return jid;\n    }\n    \n    function getTicketStatus(uint item_id) public view returns (TicketState status) {\n        ItemInfo memory info = itemInfoStorage[item_id];\n        status = info.state;\n        return status;\n    }\n    */\n}",
  "sourcePath": "/home/jack/ethProjects/UniversalNFTMarketplace/contracts/721/singleton/MSNFT.sol",
  "compiler": {
    "name": "solc",
    "version": "0.8.0+commit.c7dfd78e.Emscripten.clang"
  },
  "schemaVersion": "3.4.1",
  "updatedAt": "2021-08-02T08:11:59.282Z",
  "devdoc": {
    "kind": "dev",
    "methods": {
      "approve(address,uint256)": {
        "details": "See {IERC721-approve}."
      },
      "balanceOf(address)": {
        "details": "See {IERC721-balanceOf}."
      },
      "getApproved(uint256)": {
        "details": "See {IERC721-getApproved}."
      },
      "isApprovedForAll(address,address)": {
        "details": "See {IERC721-isApprovedForAll}."
      },
      "name()": {
        "details": "See {IERC721Metadata-name}."
      },
      "ownerOf(uint256)": {
        "details": "See {IERC721-ownerOf}."
      },
      "safeTransferFrom(address,address,uint256)": {
        "details": "See {IERC721-safeTransferFrom}."
      },
      "safeTransferFrom(address,address,uint256,bytes)": {
        "details": "See {IERC721-safeTransferFrom}."
      },
      "setApprovalForAll(address,bool)": {
        "details": "See {IERC721-setApprovalForAll}."
      },
      "supportsInterface(bytes4)": {
        "details": "See {IERC165-supportsInterface}."
      },
      "symbol()": {
        "details": "See {IERC721Metadata-symbol}."
      },
      "tokenByIndex(uint256)": {
        "details": "See {IERC721Enumerable-tokenByIndex}."
      },
      "tokenOfOwnerByIndex(address,uint256)": {
        "details": "See {IERC721Enumerable-tokenOfOwnerByIndex}."
      },
      "tokenURI(uint256)": {
        "details": "See {IERC721Metadata-tokenURI}."
      },
      "totalSupply()": {
        "details": "See {IERC721Enumerable-totalSupply}."
      },
      "transferFrom(address,address,uint256)": {
        "details": "See {IERC721-transferFrom}."
      }
    },
    "version": 1
  },
  "userdoc": {
    "kind": "user",
    "methods": {},
    "notice": "ERC-721 is non-fungible token.  So, each tokenID is a unique ticket Usefull tips: // Mapping from owner to list of owned token IDs mapping(address => uint256[]) private _ownedTokens; // Mapping from token ID to index of the owner tokens list mapping(uint256 => uint256) private _ownedTokensIndex; // Array with all token ids, used for enumeration uint256[] private _allTokens; // Mapping from token id to position in the allTokens array mapping(uint256 => uint256) private _allTokensIndex; Gets the list of token IDs of the requested owner. function _tokensOfOwner(address owner) internal view returns (uint256[] storage) { return _ownedTokens[owner]; }*",
    "version": 1
  }
}