{
  "contractName": "MSNFT",
  "abi": [
    {
      "inputs": [
        {
          "internalType": "string",
          "name": "name_",
          "type": "string"
        },
        {
          "internalType": "string",
          "name": "smbl_",
          "type": "string"
        }
      ],
      "stateMutability": "nonpayable",
      "type": "constructor"
    },
    {
      "anonymous": false,
      "inputs": [
        {
          "indexed": true,
          "internalType": "address",
          "name": "owner",
          "type": "address"
        },
        {
          "indexed": true,
          "internalType": "address",
          "name": "approved",
          "type": "address"
        },
        {
          "indexed": true,
          "internalType": "uint256",
          "name": "tokenId",
          "type": "uint256"
        }
      ],
      "name": "Approval",
      "type": "event"
    },
    {
      "anonymous": false,
      "inputs": [
        {
          "indexed": true,
          "internalType": "address",
          "name": "owner",
          "type": "address"
        },
        {
          "indexed": true,
          "internalType": "address",
          "name": "operator",
          "type": "address"
        },
        {
          "indexed": false,
          "internalType": "bool",
          "name": "approved",
          "type": "bool"
        }
      ],
      "name": "ApprovalForAll",
      "type": "event"
    },
    {
      "anonymous": false,
      "inputs": [
        {
          "indexed": true,
          "internalType": "address",
          "name": "ticket_sale",
          "type": "address"
        },
        {
          "indexed": true,
          "internalType": "uint256",
          "name": "event_id",
          "type": "uint256"
        }
      ],
      "name": "EventIdReserved",
      "type": "event"
    },
    {
      "anonymous": false,
      "inputs": [
        {
          "indexed": false,
          "internalType": "address",
          "name": "ticket_sale",
          "type": "address"
        },
        {
          "indexed": false,
          "internalType": "uint256",
          "name": "event_id",
          "type": "uint256"
        }
      ],
      "name": "EventIdReservedHuman",
      "type": "event"
    },
    {
      "anonymous": false,
      "inputs": [
        {
          "indexed": true,
          "internalType": "address",
          "name": "visitor_wallet",
          "type": "address"
        },
        {
          "indexed": true,
          "internalType": "uint256",
          "name": "event_id",
          "type": "uint256"
        },
        {
          "indexed": true,
          "internalType": "uint256",
          "name": "ticket_id",
          "type": "uint256"
        }
      ],
      "name": "TicketBought",
      "type": "event"
    },
    {
      "anonymous": false,
      "inputs": [
        {
          "indexed": false,
          "internalType": "address",
          "name": "visitor_wallet",
          "type": "address"
        },
        {
          "indexed": false,
          "internalType": "uint256",
          "name": "event_id",
          "type": "uint256"
        },
        {
          "indexed": false,
          "internalType": "uint256",
          "name": "ticket_id",
          "type": "uint256"
        }
      ],
      "name": "TicketBoughtHuman",
      "type": "event"
    },
    {
      "anonymous": false,
      "inputs": [
        {
          "indexed": true,
          "internalType": "address",
          "name": "visitor_wallet",
          "type": "address"
        },
        {
          "indexed": true,
          "internalType": "uint256",
          "name": "event_id",
          "type": "uint256"
        },
        {
          "indexed": true,
          "internalType": "uint256",
          "name": "ticket_id",
          "type": "uint256"
        }
      ],
      "name": "TicketFulfilled",
      "type": "event"
    },
    {
      "anonymous": false,
      "inputs": [
        {
          "indexed": false,
          "internalType": "address",
          "name": "visitor_wallet",
          "type": "address"
        },
        {
          "indexed": false,
          "internalType": "uint256",
          "name": "event_id",
          "type": "uint256"
        },
        {
          "indexed": false,
          "internalType": "uint256",
          "name": "ticket_id",
          "type": "uint256"
        }
      ],
      "name": "TicketFulfilledHuman",
      "type": "event"
    },
    {
      "anonymous": false,
      "inputs": [
        {
          "indexed": true,
          "internalType": "address",
          "name": "from",
          "type": "address"
        },
        {
          "indexed": true,
          "internalType": "address",
          "name": "to",
          "type": "address"
        },
        {
          "indexed": true,
          "internalType": "uint256",
          "name": "tokenId",
          "type": "uint256"
        }
      ],
      "name": "Transfer",
      "type": "event"
    },
    {
      "inputs": [
        {
          "internalType": "uint256",
          "name": "",
          "type": "uint256"
        }
      ],
      "name": "JIDs",
      "outputs": [
        {
          "internalType": "string",
          "name": "",
          "type": "string"
        }
      ],
      "stateMutability": "view",
      "type": "function"
    },
    {
      "inputs": [
        {
          "internalType": "address",
          "name": "to",
          "type": "address"
        },
        {
          "internalType": "uint256",
          "name": "tokenId",
          "type": "uint256"
        }
      ],
      "name": "approve",
      "outputs": [],
      "stateMutability": "nonpayable",
      "type": "function"
    },
    {
      "inputs": [
        {
          "internalType": "address",
          "name": "owner",
          "type": "address"
        }
      ],
      "name": "balanceOf",
      "outputs": [
        {
          "internalType": "uint256",
          "name": "",
          "type": "uint256"
        }
      ],
      "stateMutability": "view",
      "type": "function"
    },
    {
      "inputs": [
        {
          "internalType": "uint256",
          "name": "",
          "type": "uint256"
        },
        {
          "internalType": "uint256",
          "name": "",
          "type": "uint256"
        }
      ],
      "name": "eventsales",
      "outputs": [
        {
          "internalType": "address",
          "name": "",
          "type": "address"
        }
      ],
      "stateMutability": "view",
      "type": "function"
    },
    {
      "inputs": [
        {
          "internalType": "uint256",
          "name": "tokenId",
          "type": "uint256"
        }
      ],
      "name": "getApproved",
      "outputs": [
        {
          "internalType": "address",
          "name": "",
          "type": "address"
        }
      ],
      "stateMutability": "view",
      "type": "function"
    },
    {
      "inputs": [
        {
          "internalType": "address",
          "name": "owner",
          "type": "address"
        },
        {
          "internalType": "address",
          "name": "operator",
          "type": "address"
        }
      ],
      "name": "isApprovedForAll",
      "outputs": [
        {
          "internalType": "bool",
          "name": "",
          "type": "bool"
        }
      ],
      "stateMutability": "view",
      "type": "function"
    },
    {
      "inputs": [],
      "name": "name",
      "outputs": [
        {
          "internalType": "string",
          "name": "",
          "type": "string"
        }
      ],
      "stateMutability": "view",
      "type": "function"
    },
    {
      "inputs": [
        {
          "internalType": "uint256",
          "name": "tokenId",
          "type": "uint256"
        }
      ],
      "name": "ownerOf",
      "outputs": [
        {
          "internalType": "address",
          "name": "",
          "type": "address"
        }
      ],
      "stateMutability": "view",
      "type": "function"
    },
    {
      "inputs": [
        {
          "internalType": "address",
          "name": "from",
          "type": "address"
        },
        {
          "internalType": "address",
          "name": "to",
          "type": "address"
        },
        {
          "internalType": "uint256",
          "name": "tokenId",
          "type": "uint256"
        }
      ],
      "name": "safeTransferFrom",
      "outputs": [],
      "stateMutability": "nonpayable",
      "type": "function"
    },
    {
      "inputs": [
        {
          "internalType": "address",
          "name": "from",
          "type": "address"
        },
        {
          "internalType": "address",
          "name": "to",
          "type": "address"
        },
        {
          "internalType": "uint256",
          "name": "tokenId",
          "type": "uint256"
        },
        {
          "internalType": "bytes",
          "name": "_data",
          "type": "bytes"
        }
      ],
      "name": "safeTransferFrom",
      "outputs": [],
      "stateMutability": "nonpayable",
      "type": "function"
    },
    {
      "inputs": [
        {
          "internalType": "address",
          "name": "operator",
          "type": "address"
        },
        {
          "internalType": "bool",
          "name": "approved",
          "type": "bool"
        }
      ],
      "name": "setApprovalForAll",
      "outputs": [],
      "stateMutability": "nonpayable",
      "type": "function"
    },
    {
      "inputs": [
        {
          "internalType": "bytes4",
          "name": "interfaceId",
          "type": "bytes4"
        }
      ],
      "name": "supportsInterface",
      "outputs": [
        {
          "internalType": "bool",
          "name": "",
          "type": "bool"
        }
      ],
      "stateMutability": "view",
      "type": "function"
    },
    {
      "inputs": [],
      "name": "symbol",
      "outputs": [
        {
          "internalType": "string",
          "name": "",
          "type": "string"
        }
      ],
      "stateMutability": "view",
      "type": "function"
    },
    {
      "inputs": [
        {
          "internalType": "uint256",
          "name": "",
          "type": "uint256"
        },
        {
          "internalType": "uint256",
          "name": "",
          "type": "uint256"
        }
      ],
      "name": "ticketIds",
      "outputs": [
        {
          "internalType": "uint256",
          "name": "",
          "type": "uint256"
        }
      ],
      "stateMutability": "view",
      "type": "function"
    },
    {
      "inputs": [
        {
          "internalType": "uint256",
          "name": "",
          "type": "uint256"
        }
      ],
      "name": "ticketInfoStorage",
      "outputs": [
        {
          "internalType": "enum MSNFT.TicketState",
          "name": "state",
          "type": "uint8"
        },
        {
          "internalType": "uint256",
          "name": "ticket_type",
          "type": "uint256"
        },
        {
          "internalType": "string",
          "name": "event_JID",
          "type": "string"
        },
        {
          "internalType": "address",
          "name": "sale_address",
          "type": "address"
        }
      ],
      "stateMutability": "view",
      "type": "function"
    },
    {
      "inputs": [
        {
          "internalType": "uint256",
          "name": "index",
          "type": "uint256"
        }
      ],
      "name": "tokenByIndex",
      "outputs": [
        {
          "internalType": "uint256",
          "name": "",
          "type": "uint256"
        }
      ],
      "stateMutability": "view",
      "type": "function"
    },
    {
      "inputs": [
        {
          "internalType": "address",
          "name": "owner",
          "type": "address"
        },
        {
          "internalType": "uint256",
          "name": "index",
          "type": "uint256"
        }
      ],
      "name": "tokenOfOwnerByIndex",
      "outputs": [
        {
          "internalType": "uint256",
          "name": "",
          "type": "uint256"
        }
      ],
      "stateMutability": "view",
      "type": "function"
    },
    {
      "inputs": [
        {
          "internalType": "uint256",
          "name": "tokenId",
          "type": "uint256"
        }
      ],
      "name": "tokenURI",
      "outputs": [
        {
          "internalType": "string",
          "name": "",
          "type": "string"
        }
      ],
      "stateMutability": "view",
      "type": "function"
    },
    {
      "inputs": [],
      "name": "totalSupply",
      "outputs": [
        {
          "internalType": "uint256",
          "name": "",
          "type": "uint256"
        }
      ],
      "stateMutability": "view",
      "type": "function"
    },
    {
      "inputs": [
        {
          "internalType": "address",
          "name": "from",
          "type": "address"
        },
        {
          "internalType": "address",
          "name": "to",
          "type": "address"
        },
        {
          "internalType": "uint256",
          "name": "tokenId",
          "type": "uint256"
        }
      ],
      "name": "transferFrom",
      "outputs": [],
      "stateMutability": "nonpayable",
      "type": "function"
    },
    {
      "inputs": [
        {
          "internalType": "address",
          "name": "from",
          "type": "address"
        },
        {
          "internalType": "address",
          "name": "to",
          "type": "address"
        },
        {
          "internalType": "uint256",
          "name": "tokenId",
          "type": "uint256"
        }
      ],
      "name": "_transferFromTicket",
      "outputs": [],
      "stateMutability": "nonpayable",
      "type": "function"
    },
    {
      "inputs": [
        {
          "internalType": "address",
          "name": "orginizer",
          "type": "address"
        },
        {
          "internalType": "string",
          "name": "jid",
          "type": "string"
        }
      ],
      "name": "reserveEventId",
      "outputs": [
        {
          "internalType": "uint256",
          "name": "event_id",
          "type": "uint256"
        }
      ],
      "stateMutability": "nonpayable",
      "type": "function"
    },
    {
      "inputs": [
        {
          "internalType": "uint256",
          "name": "event_id",
          "type": "uint256"
        },
        {
          "internalType": "address",
          "name": "orginizer",
          "type": "address"
        }
      ],
      "name": "plugSale",
      "outputs": [
        {
          "internalType": "uint256",
          "name": "",
          "type": "uint256"
        }
      ],
      "stateMutability": "nonpayable",
      "type": "function"
    },
    {
      "inputs": [
        {
          "internalType": "address",
          "name": "buyer",
          "type": "address"
        },
        {
          "internalType": "uint256",
          "name": "ticketAmount",
          "type": "uint256"
        },
        {
          "internalType": "uint256",
          "name": "event_id",
          "type": "uint256"
        },
        {
          "internalType": "uint256",
          "name": "_ticket_type",
          "type": "uint256"
        }
      ],
      "name": "buyTicket",
      "outputs": [],
      "stateMutability": "nonpayable",
      "type": "function"
    },
    {
      "inputs": [
        {
          "internalType": "address",
          "name": "visitor",
          "type": "address"
        },
        {
          "internalType": "uint256",
          "name": "tokenId",
          "type": "uint256"
        },
        {
          "internalType": "uint256",
          "name": "event_id",
          "type": "uint256"
        }
      ],
      "name": "redeemTicket",
      "outputs": [],
      "stateMutability": "nonpayable",
      "type": "function"
    },
    {
      "inputs": [
        {
          "internalType": "address",
          "name": "visitor",
          "type": "address"
        },
        {
          "internalType": "uint256",
          "name": "tokenId",
          "type": "uint256"
        },
        {
          "internalType": "uint256",
          "name": "event_id",
          "type": "uint256"
        }
      ],
      "name": "refundTicket",
      "outputs": [
        {
          "internalType": "bool",
          "name": "",
          "type": "bool"
        }
      ],
      "stateMutability": "nonpayable",
      "type": "function"
    },
    {
      "inputs": [
        {
          "internalType": "uint256",
          "name": "event_id",
          "type": "uint256"
        }
      ],
      "name": "getTicketTypeCount",
      "outputs": [
        {
          "internalType": "uint256",
          "name": "",
          "type": "uint256"
        }
      ],
      "stateMutability": "view",
      "type": "function"
    },
    {
      "inputs": [
        {
          "internalType": "uint256",
          "name": "event_id",
          "type": "uint256"
        }
      ],
      "name": "getTicketSales",
      "outputs": [
        {
          "internalType": "address[]",
          "name": "",
          "type": "address[]"
        }
      ],
      "stateMutability": "view",
      "type": "function"
    },
    {
      "inputs": [
        {
          "internalType": "uint256",
          "name": "event_id",
          "type": "uint256"
        }
      ],
      "name": "getJidbyEventID",
      "outputs": [
        {
          "internalType": "string",
          "name": "jid",
          "type": "string"
        }
      ],
      "stateMutability": "view",
      "type": "function"
    },
    {
      "inputs": [
        {
          "internalType": "uint256",
          "name": "ticket_id",
          "type": "uint256"
        }
      ],
      "name": "getJidByTicketId",
      "outputs": [
        {
          "internalType": "string",
          "name": "jid",
          "type": "string"
        }
      ],
      "stateMutability": "view",
      "type": "function"
    },
    {
      "inputs": [
        {
          "internalType": "uint256",
          "name": "ticket_id",
          "type": "uint256"
        }
      ],
      "name": "getTicketStatus",
      "outputs": [
        {
          "internalType": "enum MSNFT.TicketState",
          "name": "status",
          "type": "uint8"
        }
      ],
      "stateMutability": "view",
      "type": "function"
    }
  ],
  "bytecode": "0x60806040523480156200001157600080fd5b506040516200568338038062005683833981810160405281019062000037919062000197565b818181600090805190602001906200005192919062000075565b5080600190805190602001906200006a92919062000075565b50505050506200033b565b8280546200008390620002a7565b90600052602060002090601f016020900481019282620000a75760008555620000f3565b82601f10620000c257805160ff1916838001178555620000f3565b82800160010185558215620000f3579182015b82811115620000f2578251825591602001919060010190620000d5565b5b50905062000102919062000106565b5090565b5b808211156200012157600081600090555060010162000107565b5090565b60006200013c62000136846200023e565b6200020a565b9050828152602081018484840111156200015557600080fd5b6200016284828562000271565b509392505050565b600082601f8301126200017c57600080fd5b81516200018e84826020860162000125565b91505092915050565b60008060408385031215620001ab57600080fd5b600083015167ffffffffffffffff811115620001c657600080fd5b620001d4858286016200016a565b925050602083015167ffffffffffffffff811115620001f257600080fd5b62000200858286016200016a565b9150509250929050565b6000604051905081810181811067ffffffffffffffff821117156200023457620002336200030c565b5b8060405250919050565b600067ffffffffffffffff8211156200025c576200025b6200030c565b5b601f19601f8301169050602081019050919050565b60005b838110156200029157808201518184015260208101905062000274565b83811115620002a1576000848401525b50505050565b60006002820490506001821680620002c057607f821691505b60208210811415620002d757620002d6620002dd565b5b50919050565b7f4e487b7100000000000000000000000000000000000000000000000000000000600052602260045260246000fd5b7f4e487b7100000000000000000000000000000000000000000000000000000000600052604160045260246000fd5b615338806200034b6000396000f3fe608060405234801561001057600080fd5b5060043610610202576000357c01000000000000000000000000000000000000000000000000000000009004806378df3a521161012c578063ab31520a116100bf578063cd3a15f81161008e578063cd3a15f814610658578063e985e9c514610674578063ec95d2d0146106a4578063fb87774c146106d457610202565b8063ab31520a146105c0578063ad140b1d146105dc578063b88d4fde1461060c578063c87b56dd1461062857610202565b80639b1d8baf116100fb5780639b1d8baf14610528578063a201b23814610558578063a22cb46514610588578063a27c282e146105a457610202565b806378df3a521461047a57806385c393f8146104aa5780639566dd84146104da57806395d89b411461050a57610202565b806323b872dd116101a45780634f6ccce7116101735780634f6ccce7146103ba5780636352211e146103ea578063645c0fb01461041a57806370a082311461044a57610202565b806323b872dd146103225780632f745c591461033e57806342842e0e1461036e57806344bb8aff1461038a57610202565b8063095ea7b3116101e0578063095ea7b31461028557806318160ddd146102a15780631d663f10146102bf5780631eb8098e146102f257610202565b806301ffc9a71461020757806306fdde0314610237578063081812fc14610255575b600080fd5b610221600480360381019061021c9190613f84565b610704565b60405161022e9190614ac8565b60405180910390f35b61023f61077e565b60405161024c9190614b4a565b60405180910390f35b61026f600480360381019061026a9190613fd6565b610810565b60405161027c91906149df565b60405180910390f35b61029f600480360381019061029a9190613e96565b610895565b005b6102a96109ad565b6040516102b69190614e2c565b60405180910390f35b6102d960048036038101906102d49190613fd6565b6109ba565b6040516102e99493929190614afe565b60405180910390f35b61030c60048036038101906103079190613fd6565b610a9f565b6040516103199190614b4a565b60405180910390f35b61033c60048036038101906103379190613d3c565b610c49565b005b61035860048036038101906103539190613e96565b610ca9565b6040516103659190614e2c565b60405180910390f35b61038860048036038101906103839190613d3c565b610d4e565b005b6103a4600480360381019061039f9190613fd6565b610d6e565b6040516103b19190614aa6565b60405180910390f35b6103d460048036038101906103cf9190613fd6565b610e15565b6040516103e19190614e2c565b60405180910390f35b61040460048036038101906103ff9190613fd6565b610eac565b60405161041191906149df565b60405180910390f35b610434600480360381019061042f9190613fff565b610f5e565b6040516104419190614e2c565b60405180910390f35b610464600480360381019061045f9190613cd7565b61119b565b6040516104719190614e2c565b60405180910390f35b610494600480360381019061048f919061403b565b611253565b6040516104a19190614e2c565b60405180910390f35b6104c460048036038101906104bf9190613fd6565b611284565b6040516104d19190614b4a565b60405180910390f35b6104f460048036038101906104ef9190613ed2565b611329565b6040516105019190614ac8565b60405180910390f35b610512611856565b60405161051f9190614b4a565b60405180910390f35b610542600480360381019061053d919061403b565b6118e8565b60405161054f91906149df565b60405180910390f35b610572600480360381019061056d9190613e42565b611936565b60405161057f9190614e2c565b60405180910390f35b6105a2600480360381019061059d9190613e06565b611aeb565b005b6105be60048036038101906105b99190613ed2565b611c6c565b005b6105da60048036038101906105d59190613d3c565b61221c565b005b6105f660048036038101906105f19190613fd6565b61222c565b6040516106039190614b4a565b60405180910390f35b61062660048036038101906106219190613d8b565b6122cc565b005b610642600480360381019061063d9190613fd6565b61232e565b60405161064f9190614b4a565b60405180910390f35b610672600480360381019061066d9190613f21565b6123d5565b005b61068e60048036038101906106899190613d00565b6127ba565b60405161069b9190614ac8565b60405180910390f35b6106be60048036038101906106b99190613fd6565b61284e565b6040516106cb9190614e2c565b60405180910390f35b6106ee60048036038101906106e99190613fd6565b6128fb565b6040516106fb9190614ae3565b60405180910390f35b60007f780e9d63000000000000000000000000000000000000000000000000000000007bffffffffffffffffffffffffffffffffffffffffffffffffffffffff1916827bffffffffffffffffffffffffffffffffffffffffffffffffffffffff19161480610777575061077682612aa4565b5b9050919050565b60606000805461078d906150ea565b80601f01602080910402602001604051908101604052809291908181526020018280546107b9906150ea565b80156108065780601f106107db57610100808354040283529160200191610806565b820191906000526020600020905b8154815290600101906020018083116107e957829003601f168201915b5050505050905090565b600061081b82612b86565b61085a576040517f08c379a000000000000000000000000000000000000000000000000000000000815260040161085190614d6c565b60405180910390fd5b6004600083815260200190815260200160002060009054906101000a900473ffffffffffffffffffffffffffffffffffffffff169050919050565b60006108a082610eac565b90508073ffffffffffffffffffffffffffffffffffffffff168373ffffffffffffffffffffffffffffffffffffffff161415610911576040517f08c379a000000000000000000000000000000000000000000000000000000000815260040161090890614dcc565b60405180910390fd5b8073ffffffffffffffffffffffffffffffffffffffff16610930612bf2565b73ffffffffffffffffffffffffffffffffffffffff16148061095f575061095e81610959612bf2565b6127ba565b5b61099e576040517f08c379a000000000000000000000000000000000000000000000000000000000815260040161099590614ccc565b60405180910390fd5b6109a88383612bfa565b505050565b6000600880549050905090565b600f6020528060005260406000206000915090508060000160009054906101000a900460ff16908060010154908060020180546109f6906150ea565b80601f0160208091040260200160405190810160405280929190818152602001828054610a22906150ea565b8015610a6f5780601f10610a4457610100808354040283529160200191610a6f565b820191906000526020600020905b815481529060010190602001808311610a5257829003601f168201915b5050505050908060030160009054906101000a900473ffffffffffffffffffffffffffffffffffffffff16905084565b60606000600f60008481526020019081526020016000206040518060800160405290816000820160009054906101000a900460ff166003811115610b0c577f4e487b7100000000000000000000000000000000000000000000000000000000600052602160045260246000fd5b6003811115610b44577f4e487b7100000000000000000000000000000000000000000000000000000000600052602160045260246000fd5b815260200160018201548152602001600282018054610b62906150ea565b80601f0160208091040260200160405190810160405280929190818152602001828054610b8e906150ea565b8015610bdb5780601f10610bb057610100808354040283529160200191610bdb565b820191906000526020600020905b815481529060010190602001808311610bbe57829003601f168201915b505050505081526020016003820160009054906101000a900473ffffffffffffffffffffffffffffffffffffffff1673ffffffffffffffffffffffffffffffffffffffff1673ffffffffffffffffffffffffffffffffffffffff168152505090508060400151915050919050565b610c5a610c54612bf2565b82612cb3565b610c99576040517f08c379a0000000000000000000000000000000000000000000000000000000008152600401610c9090614dec565b60405180910390fd5b610ca4838383612d91565b505050565b6000610cb48361119b565b8210610cf5576040517f08c379a0000000000000000000000000000000000000000000000000000000008152600401610cec90614bac565b60405180910390fd5b600660008473ffffffffffffffffffffffffffffffffffffffff1673ffffffffffffffffffffffffffffffffffffffff168152602001908152602001600020600083815260200190815260200160002054905092915050565b610d69838383604051806020016040528060008152506122cc565b505050565b60606000600c6000848152602001908152602001600020805480602002602001604051908101604052809291908181526020018280548015610e0557602002820191906000526020600020905b8160009054906101000a900473ffffffffffffffffffffffffffffffffffffffff1673ffffffffffffffffffffffffffffffffffffffff1681526020019060010190808311610dbb575b5050505050905080915050919050565b6000610e1f6109ad565b8210610e60576040517f08c379a0000000000000000000000000000000000000000000000000000000008152600401610e5790614e0c565b60405180910390fd5b60088281548110610e9a577f4e487b7100000000000000000000000000000000000000000000000000000000600052603260045260246000fd5b90600052602060002001549050919050565b6000806002600084815260200190815260200160002060009054906101000a900473ffffffffffffffffffffffffffffffffffffffff169050600073ffffffffffffffffffffffffffffffffffffffff168173ffffffffffffffffffffffffffffffffffffffff161415610f55576040517f08c379a0000000000000000000000000000000000000000000000000000000008152600401610f4c90614d0c565b60405180910390fd5b80915050919050565b600080600c6000858152602001908152602001600020805480602002602001604051908101604052809291908181526020018280548015610ff457602002820191906000526020600020905b8160009054906101000a900473ffffffffffffffffffffffffffffffffffffffff1673ffffffffffffffffffffffffffffffffffffffff1681526020019060010190808311610faa575b50505050509050600081600081518110611037577f4e487b7100000000000000000000000000000000000000000000000000000000600052603260045260246000fd5b602002602001015190508373ffffffffffffffffffffffffffffffffffffffff16601060008373ffffffffffffffffffffffffffffffffffffffff1673ffffffffffffffffffffffffffffffffffffffff16815260200190815260200160002060009054906101000a900473ffffffffffffffffffffffffffffffffffffffff1673ffffffffffffffffffffffffffffffffffffffff161461110e576040517f08c379a000000000000000000000000000000000000000000000000000000000815260040161110590614c0c565b60405180910390fd5b600c6000868152602001908152602001600020339080600181540180825580915050600190039060005260206000200160009091909190916101000a81548173ffffffffffffffffffffffffffffffffffffffff021916908373ffffffffffffffffffffffffffffffffffffffff160217905550600061118d8661284e565b905080935050505092915050565b60008073ffffffffffffffffffffffffffffffffffffffff168273ffffffffffffffffffffffffffffffffffffffff16141561120c576040517f08c379a000000000000000000000000000000000000000000000000000000000815260040161120390614cec565b60405180910390fd5b600360008373ffffffffffffffffffffffffffffffffffffffff1673ffffffffffffffffffffffffffffffffffffffff168152602001908152602001600020549050919050565b600d602052816000526040600020818154811061126f57600080fd5b90600052602060002001600091509150505481565b60606011600083815260200190815260200160002080546112a4906150ea565b80601f01602080910402602001604051908101604052809291908181526020018280546112d0906150ea565b801561131d5780601f106112f25761010080835404028352916020019161131d565b820191906000526020600020905b81548152906001019060200180831161130057829003601f168201915b50505050509050919050565b600080600c60008481526020019081526020016000208054806020026020016040519081016040528092919081815260200182805480156113bf57602002820191906000526020600020905b8160009054906101000a900473ffffffffffffffffffffffffffffffffffffffff1673ffffffffffffffffffffffffffffffffffffffff1681526020019060010190808311611375575b505050505090506000600f60008681526020019081526020016000206040518060800160405290816000820160009054906101000a900460ff166003811115611431577f4e487b7100000000000000000000000000000000000000000000000000000000600052602160045260246000fd5b6003811115611469577f4e487b7100000000000000000000000000000000000000000000000000000000600052602160045260246000fd5b815260200160018201548152602001600282018054611487906150ea565b80601f01602080910402602001604051908101604052809291908181526020018280546114b3906150ea565b80156115005780601f106114d557610100808354040283529160200191611500565b820191906000526020600020905b8154815290600101906020018083116114e357829003601f168201915b505050505081526020016003820160009054906101000a900473ffffffffffffffffffffffffffffffffffffffff1673ffffffffffffffffffffffffffffffffffffffff1673ffffffffffffffffffffffffffffffffffffffff16815250509050600082600183602001516115759190614fdb565b815181106115ac577f4e487b7100000000000000000000000000000000000000000000000000000000600052603260045260246000fd5b602002602001015190503373ffffffffffffffffffffffffffffffffffffffff168173ffffffffffffffffffffffffffffffffffffffff1614611624576040517f08c379a000000000000000000000000000000000000000000000000000000000815260040161161b90614c2c565b60405180910390fd5b600061162f876128fb565b90506001600381111561166b577f4e487b7100000000000000000000000000000000000000000000000000000000600052602160045260246000fd5b8160038111156116a4577f4e487b7100000000000000000000000000000000000000000000000000000000600052602160045260246000fd5b146116e4576040517f08c379a00000000000000000000000000000000000000000000000000000000081526004016116db90614b6c565b60405180910390fd5b6116ef88338961221c565b60038360000190600381111561172e577f4e487b7100000000000000000000000000000000000000000000000000000000600052602160045260246000fd5b90816003811115611768577f4e487b7100000000000000000000000000000000000000000000000000000000600052602160045260246000fd5b8152505082600f600089815260200190815260200160002060008201518160000160006101000a81548160ff021916908360038111156117d1577f4e487b7100000000000000000000000000000000000000000000000000000000600052602160045260246000fd5b02179055506020820151816001015560408201518160020190805190602001906117fc929190613afb565b5060608201518160030160006101000a81548173ffffffffffffffffffffffffffffffffffffffff021916908373ffffffffffffffffffffffffffffffffffffffff16021790555090505060019450505050509392505050565b606060018054611865906150ea565b80601f0160208091040260200160405190810160405280929190818152602001828054611891906150ea565b80156118de5780601f106118b3576101008083540402835291602001916118de565b820191906000526020600020905b8154815290600101906020018083116118c157829003601f168201915b5050505050905090565b600c602052816000526040600020818154811061190457600080fd5b906000526020600020016000915091509054906101000a900473ffffffffffffffffffffffffffffffffffffffff1681565b6000611942600b612fed565b61194c600b613003565b9050600c6000828152602001908152602001600020339080600181540180825580915050600190039060005260206000200160009091909190916101000a81548173ffffffffffffffffffffffffffffffffffffffff021916908373ffffffffffffffffffffffffffffffffffffffff16021790555082601060003373ffffffffffffffffffffffffffffffffffffffff1673ffffffffffffffffffffffffffffffffffffffff16815260200190815260200160002060006101000a81548173ffffffffffffffffffffffffffffffffffffffff021916908373ffffffffffffffffffffffffffffffffffffffff16021790555081601160008381526020019081526020016000209080519060200190611a67929190613afb565b50803373ffffffffffffffffffffffffffffffffffffffff167fe7d1a453d66d83d6e4ffae7901ed08b56c3b1f53a1c43135c2de683e4529b65b60405160405180910390a37f0a554ff72c713dffd0372d9c23cc1e214c1dfefbadda4710f4eee43eb6229a7b3382604051611add929190614a46565b60405180910390a192915050565b611af3612bf2565b73ffffffffffffffffffffffffffffffffffffffff168273ffffffffffffffffffffffffffffffffffffffff161415611b61576040517f08c379a0000000000000000000000000000000000000000000000000000000008152600401611b5890614c6c565b60405180910390fd5b8060056000611b6e612bf2565b73ffffffffffffffffffffffffffffffffffffffff1673ffffffffffffffffffffffffffffffffffffffff16815260200190815260200160002060008473ffffffffffffffffffffffffffffffffffffffff1673ffffffffffffffffffffffffffffffffffffffff16815260200190815260200160002060006101000a81548160ff0219169083151502179055508173ffffffffffffffffffffffffffffffffffffffff16611c1b612bf2565b73ffffffffffffffffffffffffffffffffffffffff167f17307eab39ab6107e8899845ad3d59bd9653f200f220920489ca2b5937696c3183604051611c609190614ac8565b60405180910390a35050565b6000600c6000838152602001908152602001600020805480602002602001604051908101604052809291908181526020018280548015611d0157602002820191906000526020600020905b8160009054906101000a900473ffffffffffffffffffffffffffffffffffffffff1673ffffffffffffffffffffffffffffffffffffffff1681526020019060010190808311611cb7575b505050505090506000600f60008581526020019081526020016000206040518060800160405290816000820160009054906101000a900460ff166003811115611d73577f4e487b7100000000000000000000000000000000000000000000000000000000600052602160045260246000fd5b6003811115611dab577f4e487b7100000000000000000000000000000000000000000000000000000000600052602160045260246000fd5b815260200160018201548152602001600282018054611dc9906150ea565b80601f0160208091040260200160405190810160405280929190818152602001828054611df5906150ea565b8015611e425780601f10611e1757610100808354040283529160200191611e42565b820191906000526020600020905b815481529060010190602001808311611e2557829003601f168201915b505050505081526020016003820160009054906101000a900473ffffffffffffffffffffffffffffffffffffffff1673ffffffffffffffffffffffffffffffffffffffff1673ffffffffffffffffffffffffffffffffffffffff1681525050905060008260018360200151611eb79190614fdb565b81518110611eee577f4e487b7100000000000000000000000000000000000000000000000000000000600052603260045260246000fd5b602002602001015190503373ffffffffffffffffffffffffffffffffffffffff168173ffffffffffffffffffffffffffffffffffffffff1614611f66576040517f08c379a0000000000000000000000000000000000000000000000000000000008152600401611f5d90614b8c565b60405180910390fd5b60016003811115611fa0577f4e487b7100000000000000000000000000000000000000000000000000000000600052602160045260246000fd5b600f600087815260200190815260200160002060000160009054906101000a900460ff166003811115611ffc577f4e487b7100000000000000000000000000000000000000000000000000000000600052602160045260246000fd5b1461203c576040517f08c379a000000000000000000000000000000000000000000000000000000000815260040161203390614d2c565b60405180910390fd5b60028260000190600381111561207b577f4e487b7100000000000000000000000000000000000000000000000000000000600052602160045260246000fd5b908160038111156120b5577f4e487b7100000000000000000000000000000000000000000000000000000000600052602160045260246000fd5b8152505081600f600087815260200190815260200160002060008201518160000160006101000a81548160ff0219169083600381111561211e577f4e487b7100000000000000000000000000000000000000000000000000000000600052602160045260246000fd5b0217905550602082015181600101556040820151816002019080519060200190612149929190613afb565b5060608201518160030160006101000a81548173ffffffffffffffffffffffffffffffffffffffff021916908373ffffffffffffffffffffffffffffffffffffffff16021790555090505084848773ffffffffffffffffffffffffffffffffffffffff167f1852380d0869dc478452f3f2bcfac707f842df524f5b8896d2a4f70c756f818460405160405180910390a47fe82baa24ba3534133b9033b3b6013784eaa8e524dc5ef8cf2e3e0945d007462486858760405161220c93929190614a6f565b60405180910390a1505050505050565b612227838383610d4e565b505050565b6011602052806000526040600020600091509050805461224b906150ea565b80601f0160208091040260200160405190810160405280929190818152602001828054612277906150ea565b80156122c45780601f10612299576101008083540402835291602001916122c4565b820191906000526020600020905b8154815290600101906020018083116122a757829003601f168201915b505050505081565b6122dd6122d7612bf2565b83612cb3565b61231c576040517f08c379a000000000000000000000000000000000000000000000000000000000815260040161231390614dec565b60405180910390fd5b61232884848484613011565b50505050565b606061233982612b86565b612378576040517f08c379a000000000000000000000000000000000000000000000000000000000815260040161236f90614dac565b60405180910390fd5b600061238261306d565b905060008151116123a257604051806020016040528060008152506123cd565b806123ac84613084565b6040516020016123bd9291906149bb565b6040516020818303038152906040525b915050919050565b6000600c600084815260200190815260200160002080548060200260200160405190810160405280929190818152602001828054801561246a57602002820191906000526020600020905b8160009054906101000a900473ffffffffffffffffffffffffffffffffffffffff1673ffffffffffffffffffffffffffffffffffffffff1681526020019060010190808311612420575b505050505090506000816001846124819190614fdb565b815181106124b8577f4e487b7100000000000000000000000000000000000000000000000000000000600052603260045260246000fd5b602002602001015190503373ffffffffffffffffffffffffffffffffffffffff168173ffffffffffffffffffffffffffffffffffffffff1614612530576040517f08c379a000000000000000000000000000000000000000000000000000000000815260040161252790614c8c565b60405180910390fd5b60005b858110156127b157612545600a612fed565b6000612551600a613003565b905061255d8882613250565b600061256887611284565b90506040518060800160405280600160038111156125af577f4e487b7100000000000000000000000000000000000000000000000000000000600052602160045260246000fd5b81526020018781526020018281526020018573ffffffffffffffffffffffffffffffffffffffff16815250600f600084815260200190815260200160002060008201518160000160006101000a81548160ff0219169083600381111561263e577f4e487b7100000000000000000000000000000000000000000000000000000000600052602160045260246000fd5b0217905550602082015181600101556040820151816002019080519060200190612669929190613afb565b5060608201518160030160006101000a81548173ffffffffffffffffffffffffffffffffffffffff021916908373ffffffffffffffffffffffffffffffffffffffff160217905550905050600d600088815260200190815260200160002080549050600e600084815260200190815260200160002081905550600d600088815260200190815260200160002082908060018154018082558091505060019003906000526020600020016000909190919091505581878a73ffffffffffffffffffffffffffffffffffffffff167f97fac0ce6558f4accbb4696915809c0ef7023ffe7ba9454e94d49fb652aae1d560405160405180910390a47f6d651fdc8652e9b93372b6cece4377b2c0f78be48b1ffbf3bdafc7baef0138ab89888460405161279493929190614a6f565b60405180910390a1505080806127a99061511c565b915050612533565b50505050505050565b6000600560008473ffffffffffffffffffffffffffffffffffffffff1673ffffffffffffffffffffffffffffffffffffffff16815260200190815260200160002060008373ffffffffffffffffffffffffffffffffffffffff1673ffffffffffffffffffffffffffffffffffffffff16815260200190815260200160002060009054906101000a900460ff16905092915050565b600080600c60008481526020019081526020016000208054806020026020016040519081016040528092919081815260200182805480156128e457602002820191906000526020600020905b8160009054906101000a900473ffffffffffffffffffffffffffffffffffffffff1673ffffffffffffffffffffffffffffffffffffffff168152602001906001019080831161289a575b505050505090506000815190508092505050919050565b600080600f60008481526020019081526020016000206040518060800160405290816000820160009054906101000a900460ff166003811115612967577f4e487b7100000000000000000000000000000000000000000000000000000000600052602160045260246000fd5b600381111561299f577f4e487b7100000000000000000000000000000000000000000000000000000000600052602160045260246000fd5b8152602001600182015481526020016002820180546129bd906150ea565b80601f01602080910402602001604051908101604052809291908181526020018280546129e9906150ea565b8015612a365780601f10612a0b57610100808354040283529160200191612a36565b820191906000526020600020905b815481529060010190602001808311612a1957829003601f168201915b505050505081526020016003820160009054906101000a900473ffffffffffffffffffffffffffffffffffffffff1673ffffffffffffffffffffffffffffffffffffffff1673ffffffffffffffffffffffffffffffffffffffff168152505090508060000151915050919050565b60007f80ac58cd000000000000000000000000000000000000000000000000000000007bffffffffffffffffffffffffffffffffffffffffffffffffffffffff1916827bffffffffffffffffffffffffffffffffffffffffffffffffffffffff19161480612b6f57507f5b5e139f000000000000000000000000000000000000000000000000000000007bffffffffffffffffffffffffffffffffffffffffffffffffffffffff1916827bffffffffffffffffffffffffffffffffffffffffffffffffffffffff1916145b80612b7f5750612b7e8261341e565b5b9050919050565b60008073ffffffffffffffffffffffffffffffffffffffff166002600084815260200190815260200160002060009054906101000a900473ffffffffffffffffffffffffffffffffffffffff1673ffffffffffffffffffffffffffffffffffffffff1614159050919050565b600033905090565b816004600083815260200190815260200160002060006101000a81548173ffffffffffffffffffffffffffffffffffffffff021916908373ffffffffffffffffffffffffffffffffffffffff160217905550808273ffffffffffffffffffffffffffffffffffffffff16612c6d83610eac565b73ffffffffffffffffffffffffffffffffffffffff167f8c5be1e5ebec7d5bd14f71427d1e84f3dd0314c0f7b2291e5b200ac8c7c3b92560405160405180910390a45050565b6000612cbe82612b86565b612cfd576040517f08c379a0000000000000000000000000000000000000000000000000000000008152600401612cf490614cac565b60405180910390fd5b6000612d0883610eac565b90508073ffffffffffffffffffffffffffffffffffffffff168473ffffffffffffffffffffffffffffffffffffffff161480612d7757508373ffffffffffffffffffffffffffffffffffffffff16612d5f84610810565b73ffffffffffffffffffffffffffffffffffffffff16145b80612d885750612d8781856127ba565b5b91505092915050565b8273ffffffffffffffffffffffffffffffffffffffff16612db182610eac565b73ffffffffffffffffffffffffffffffffffffffff1614612e07576040517f08c379a0000000000000000000000000000000000000000000000000000000008152600401612dfe90614d8c565b60405180910390fd5b600073ffffffffffffffffffffffffffffffffffffffff168273ffffffffffffffffffffffffffffffffffffffff161415612e77576040517f08c379a0000000000000000000000000000000000000000000000000000000008152600401612e6e90614c4c565b60405180910390fd5b612e82838383613488565b612e8d600082612bfa565b6001600360008573ffffffffffffffffffffffffffffffffffffffff1673ffffffffffffffffffffffffffffffffffffffff1681526020019081526020016000206000828254612edd9190614fdb565b925050819055506001600360008473ffffffffffffffffffffffffffffffffffffffff1673ffffffffffffffffffffffffffffffffffffffff1681526020019081526020016000206000828254612f349190614f54565b92505081905550816002600083815260200190815260200160002060006101000a81548173ffffffffffffffffffffffffffffffffffffffff021916908373ffffffffffffffffffffffffffffffffffffffff160217905550808273ffffffffffffffffffffffffffffffffffffffff168473ffffffffffffffffffffffffffffffffffffffff167fddf252ad1be2c89b69c2b068fc378daa952ba7f163c4a11628f55a4df523b3ef60405160405180910390a4505050565b6001816000016000828254019250508190555050565b600081600001549050919050565b61301c848484612d91565b6130288484848461359c565b613067576040517f08c379a000000000000000000000000000000000000000000000000000000000815260040161305e90614bcc565b60405180910390fd5b50505050565b606060405180602001604052806000815250905090565b606060008214156130cc576040518060400160405280600181526020017f3000000000000000000000000000000000000000000000000000000000000000815250905061324b565b600082905060005b600082146130fe5780806130e79061511c565b915050600a826130f79190614faa565b91506130d4565b60008167ffffffffffffffff811115613140577f4e487b7100000000000000000000000000000000000000000000000000000000600052604160045260246000fd5b6040519080825280601f01601f1916602001820160405280156131725781602001600182028036833780820191505090505b5090505b600085146132445760018261318b9190614fdb565b9150600a8561319a9190615165565b60306131a69190614f54565b7f010000000000000000000000000000000000000000000000000000000000000002818381518110613201577f4e487b7100000000000000000000000000000000000000000000000000000000600052603260045260246000fd5b60200101907effffffffffffffffffffffffffffffffffffffffffffffffffffffffffffff1916908160001a905350600a8561323d9190614faa565b9450613176565b8093505050505b919050565b600073ffffffffffffffffffffffffffffffffffffffff168273ffffffffffffffffffffffffffffffffffffffff1614156132c0576040517f08c379a00000000000000000000000000000000000000000000000000000000081526004016132b790614d4c565b60405180910390fd5b6132c981612b86565b15613309576040517f08c379a000000000000000000000000000000000000000000000000000000000815260040161330090614bec565b60405180910390fd5b61331560008383613488565b6001600360008473ffffffffffffffffffffffffffffffffffffffff1673ffffffffffffffffffffffffffffffffffffffff16815260200190815260200160002060008282546133659190614f54565b92505081905550816002600083815260200190815260200160002060006101000a81548173ffffffffffffffffffffffffffffffffffffffff021916908373ffffffffffffffffffffffffffffffffffffffff160217905550808273ffffffffffffffffffffffffffffffffffffffff16600073ffffffffffffffffffffffffffffffffffffffff167fddf252ad1be2c89b69c2b068fc378daa952ba7f163c4a11628f55a4df523b3ef60405160405180910390a45050565b60007f01ffc9a7000000000000000000000000000000000000000000000000000000007bffffffffffffffffffffffffffffffffffffffffffffffffffffffff1916827bffffffffffffffffffffffffffffffffffffffffffffffffffffffff1916149050919050565b61349383838361376b565b600073ffffffffffffffffffffffffffffffffffffffff168373ffffffffffffffffffffffffffffffffffffffff1614156134d6576134d181613770565b613515565b8173ffffffffffffffffffffffffffffffffffffffff168373ffffffffffffffffffffffffffffffffffffffff16146135145761351383826137b9565b5b5b600073ffffffffffffffffffffffffffffffffffffffff168273ffffffffffffffffffffffffffffffffffffffff1614156135585761355381613926565b613597565b8273ffffffffffffffffffffffffffffffffffffffff168273ffffffffffffffffffffffffffffffffffffffff1614613596576135958282613a69565b5b5b505050565b60006135bd8473ffffffffffffffffffffffffffffffffffffffff16613ae8565b1561375e578373ffffffffffffffffffffffffffffffffffffffff1663150b7a026135e6612bf2565b8786866040518563ffffffff167c010000000000000000000000000000000000000000000000000000000002815260040161362494939291906149fa565b602060405180830381600087803b15801561363e57600080fd5b505af192505050801561366f57506040513d601f19601f8201168201806040525081019061366c9190613fad565b60015b6136f2573d806000811461369f576040519150601f19603f3d011682016040523d82523d6000602084013e6136a4565b606091505b506000815114156136ea576040517f08c379a00000000000000000000000000000000000000000000000000000000081526004016136e190614bcc565b60405180910390fd5b805181602001fd5b63150b7a027c0100000000000000000000000000000000000000000000000000000000027bffffffffffffffffffffffffffffffffffffffffffffffffffffffff1916817bffffffffffffffffffffffffffffffffffffffffffffffffffffffff191614915050613763565b600190505b949350505050565b505050565b6008805490506009600083815260200190815260200160002081905550600881908060018154018082558091505060019003906000526020600020016000909190919091505550565b600060016137c68461119b565b6137d09190614fdb565b90506000600760008481526020019081526020016000205490508181146138b5576000600660008673ffffffffffffffffffffffffffffffffffffffff1673ffffffffffffffffffffffffffffffffffffffff168152602001908152602001600020600084815260200190815260200160002054905080600660008773ffffffffffffffffffffffffffffffffffffffff1673ffffffffffffffffffffffffffffffffffffffff168152602001908152602001600020600084815260200190815260200160002081905550816007600083815260200190815260200160002081905550505b6007600084815260200190815260200160002060009055600660008573ffffffffffffffffffffffffffffffffffffffff1673ffffffffffffffffffffffffffffffffffffffff16815260200190815260200160002060008381526020019081526020016000206000905550505050565b6000600160088054905061393a9190614fdb565b9050600060096000848152602001908152602001600020549050600060088381548110613990577f4e487b7100000000000000000000000000000000000000000000000000000000600052603260045260246000fd5b9060005260206000200154905080600883815481106139d8577f4e487b7100000000000000000000000000000000000000000000000000000000600052603260045260246000fd5b906000526020600020018190555081600960008381526020019081526020016000208190555060096000858152602001908152602001600020600090556008805480613a4d577f4e487b7100000000000000000000000000000000000000000000000000000000600052603160045260246000fd5b6001900381819060005260206000200160009055905550505050565b6000613a748361119b565b905081600660008573ffffffffffffffffffffffffffffffffffffffff1673ffffffffffffffffffffffffffffffffffffffff168152602001908152602001600020600083815260200190815260200160002081905550806007600084815260200190815260200160002081905550505050565b600080823b905060008111915050919050565b828054613b07906150ea565b90600052602060002090601f016020900481019282613b295760008555613b70565b82601f10613b4257805160ff1916838001178555613b70565b82800160010185558215613b70579182015b82811115613b6f578251825591602001919060010190613b54565b5b509050613b7d9190613b81565b5090565b5b80821115613b9a576000816000905550600101613b82565b5090565b6000613bb1613bac84614e78565b614e47565b905082815260208101848484011115613bc957600080fd5b613bd48482856150a8565b509392505050565b6000613bef613bea84614ea8565b614e47565b905082815260208101848484011115613c0757600080fd5b613c128482856150a8565b509392505050565b600081359050613c29816152a6565b92915050565b600081359050613c3e816152bd565b92915050565b600081359050613c53816152d4565b92915050565b600081519050613c68816152d4565b92915050565b600082601f830112613c7f57600080fd5b8135613c8f848260208601613b9e565b91505092915050565b600082601f830112613ca957600080fd5b8135613cb9848260208601613bdc565b91505092915050565b600081359050613cd1816152eb565b92915050565b600060208284031215613ce957600080fd5b6000613cf784828501613c1a565b91505092915050565b60008060408385031215613d1357600080fd5b6000613d2185828601613c1a565b9250506020613d3285828601613c1a565b9150509250929050565b600080600060608486031215613d5157600080fd5b6000613d5f86828701613c1a565b9350506020613d7086828701613c1a565b9250506040613d8186828701613cc2565b9150509250925092565b60008060008060808587031215613da157600080fd5b6000613daf87828801613c1a565b9450506020613dc087828801613c1a565b9350506040613dd187828801613cc2565b925050606085013567ffffffffffffffff811115613dee57600080fd5b613dfa87828801613c6e565b91505092959194509250565b60008060408385031215613e1957600080fd5b6000613e2785828601613c1a565b9250506020613e3885828601613c2f565b9150509250929050565b60008060408385031215613e5557600080fd5b6000613e6385828601613c1a565b925050602083013567ffffffffffffffff811115613e8057600080fd5b613e8c85828601613c98565b9150509250929050565b60008060408385031215613ea957600080fd5b6000613eb785828601613c1a565b9250506020613ec885828601613cc2565b9150509250929050565b600080600060608486031215613ee757600080fd5b6000613ef586828701613c1a565b9350506020613f0686828701613cc2565b9250506040613f1786828701613cc2565b9150509250925092565b60008060008060808587031215613f3757600080fd5b6000613f4587828801613c1a565b9450506020613f5687828801613cc2565b9350506040613f6787828801613cc2565b9250506060613f7887828801613cc2565b91505092959194509250565b600060208284031215613f9657600080fd5b6000613fa484828501613c44565b91505092915050565b600060208284031215613fbf57600080fd5b6000613fcd84828501613c59565b91505092915050565b600060208284031215613fe857600080fd5b6000613ff684828501613cc2565b91505092915050565b6000806040838503121561401257600080fd5b600061402085828601613cc2565b925050602061403185828601613c1a565b9150509250929050565b6000806040838503121561404e57600080fd5b600061405c85828601613cc2565b925050602061406d85828601613cc2565b9150509250929050565b6000614083838361408f565b60208301905092915050565b6140988161500f565b82525050565b6140a78161500f565b82525050565b60006140b882614ee8565b6140c28185614f16565b93506140cd83614ed8565b8060005b838110156140fe5781516140e58882614077565b97506140f083614f09565b9250506001810190506140d1565b5085935050505092915050565b61411481615021565b82525050565b600061412582614ef3565b61412f8185614f27565b935061413f8185602086016150b7565b61414881615281565b840191505092915050565b61415c81615096565b82525050565b600061416d82614efe565b6141778185614f38565b93506141878185602086016150b7565b61419081615281565b840191505092915050565b60006141a682614efe565b6141b08185614f49565b93506141c08185602086016150b7565b80840191505092915050565b60006141d9601a83614f38565b91507f7469636b657420737461747573206973206e6f742076616c69640000000000006000830152602082019050919050565b6000614219602d83614f38565b91507f796f752073686f756c642063616c6c207363616e2066726f6d207469636b657460008301527f73616c6520636f6e7472616374000000000000000000000000000000000000006020830152604082019050919050565b600061427f602b83614f38565b91507f455243373231456e756d657261626c653a206f776e657220696e646578206f7560008301527f74206f6620626f756e64730000000000000000000000000000000000000000006020830152604082019050919050565b60006142e5603283614f38565b91507f4552433732313a207472616e7366657220746f206e6f6e20455243373231526560008301527f63656976657220696d706c656d656e74657200000000000000000000000000006020830152604082019050919050565b600061434b601c83614f38565b91507f4552433732313a20746f6b656e20616c7265616479206d696e746564000000006000830152602082019050919050565b600061438b601c83614f38565b91507f6f6e6c79206f7267696e697a65722063616e20706c7567206974656d000000006000830152602082019050919050565b60006143cb602f83614f38565b91507f796f752073686f756c642063616c6c20726566756e642066726f6d207469636b60008301527f657473616c6520636f6e747261637400000000000000000000000000000000006020830152604082019050919050565b6000614431602483614f38565b91507f4552433732313a207472616e7366657220746f20746865207a65726f2061646460008301527f72657373000000000000000000000000000000000000000000000000000000006020830152604082019050919050565b6000614497601983614f38565b91507f4552433732313a20617070726f766520746f2063616c6c6572000000000000006000830152602082019050919050565b60006144d7603283614f38565b91507f796f752073686f756c642063616c6c206275795469636b65742066726f6d207460008301527f69636b657473616c6520636f6e747261637400000000000000000000000000006020830152604082019050919050565b600061453d602c83614f38565b91507f4552433732313a206f70657261746f7220717565727920666f72206e6f6e657860008301527f697374656e7420746f6b656e00000000000000000000000000000000000000006020830152604082019050919050565b60006145a3603883614f38565b91507f4552433732313a20617070726f76652063616c6c6572206973206e6f74206f7760008301527f6e6572206e6f7220617070726f76656420666f7220616c6c00000000000000006020830152604082019050919050565b6000614609602a83614f38565b91507f4552433732313a2062616c616e636520717565727920666f7220746865207a6560008301527f726f2061646472657373000000000000000000000000000000000000000000006020830152604082019050919050565b600061466f602983614f38565b91507f4552433732313a206f776e657220717565727920666f72206e6f6e657869737460008301527f656e7420746f6b656e00000000000000000000000000000000000000000000006020830152604082019050919050565b60006146d5601983614f38565b91507f5469636b6574207374617465206d7573742062652050616964000000000000006000830152602082019050919050565b6000614715602083614f38565b91507f4552433732313a206d696e7420746f20746865207a65726f20616464726573736000830152602082019050919050565b6000614755602c83614f38565b91507f4552433732313a20617070726f76656420717565727920666f72206e6f6e657860008301527f697374656e7420746f6b656e00000000000000000000000000000000000000006020830152604082019050919050565b60006147bb602983614f38565b91507f4552433732313a207472616e73666572206f6620746f6b656e2074686174206960008301527f73206e6f74206f776e00000000000000000000000000000000000000000000006020830152604082019050919050565b6000614821602f83614f38565b91507f4552433732314d657461646174613a2055524920717565727920666f72206e6f60008301527f6e6578697374656e7420746f6b656e00000000000000000000000000000000006020830152604082019050919050565b6000614887602183614f38565b91507f4552433732313a20617070726f76616c20746f2063757272656e74206f776e6560008301527f72000000000000000000000000000000000000000000000000000000000000006020830152604082019050919050565b60006148ed603183614f38565b91507f4552433732313a207472616e736665722063616c6c6572206973206e6f74206f60008301527f776e6572206e6f7220617070726f7665640000000000000000000000000000006020830152604082019050919050565b6000614953602c83614f38565b91507f455243373231456e756d657261626c653a20676c6f62616c20696e646578206f60008301527f7574206f6620626f756e647300000000000000000000000000000000000000006020830152604082019050919050565b6149b58161508c565b82525050565b60006149c7828561419b565b91506149d3828461419b565b91508190509392505050565b60006020820190506149f4600083018461409e565b92915050565b6000608082019050614a0f600083018761409e565b614a1c602083018661409e565b614a2960408301856149ac565b8181036060830152614a3b818461411a565b905095945050505050565b6000604082019050614a5b600083018561409e565b614a6860208301846149ac565b9392505050565b6000606082019050614a84600083018661409e565b614a9160208301856149ac565b614a9e60408301846149ac565b949350505050565b60006020820190508181036000830152614ac081846140ad565b905092915050565b6000602082019050614add600083018461410b565b92915050565b6000602082019050614af86000830184614153565b92915050565b6000608082019050614b136000830187614153565b614b2060208301866149ac565b8181036040830152614b328185614162565b9050614b41606083018461409e565b95945050505050565b60006020820190508181036000830152614b648184614162565b905092915050565b60006020820190508181036000830152614b85816141cc565b9050919050565b60006020820190508181036000830152614ba58161420c565b9050919050565b60006020820190508181036000830152614bc581614272565b9050919050565b60006020820190508181036000830152614be5816142d8565b9050919050565b60006020820190508181036000830152614c058161433e565b9050919050565b60006020820190508181036000830152614c258161437e565b9050919050565b60006020820190508181036000830152614c45816143be565b9050919050565b60006020820190508181036000830152614c6581614424565b9050919050565b60006020820190508181036000830152614c858161448a565b9050919050565b60006020820190508181036000830152614ca5816144ca565b9050919050565b60006020820190508181036000830152614cc581614530565b9050919050565b60006020820190508181036000830152614ce581614596565b9050919050565b60006020820190508181036000830152614d05816145fc565b9050919050565b60006020820190508181036000830152614d2581614662565b9050919050565b60006020820190508181036000830152614d45816146c8565b9050919050565b60006020820190508181036000830152614d6581614708565b9050919050565b60006020820190508181036000830152614d8581614748565b9050919050565b60006020820190508181036000830152614da5816147ae565b9050919050565b60006020820190508181036000830152614dc581614814565b9050919050565b60006020820190508181036000830152614de58161487a565b9050919050565b60006020820190508181036000830152614e05816148e0565b9050919050565b60006020820190508181036000830152614e2581614946565b9050919050565b6000602082019050614e4160008301846149ac565b92915050565b6000604051905081810181811067ffffffffffffffff82111715614e6e57614e6d615252565b5b8060405250919050565b600067ffffffffffffffff821115614e9357614e92615252565b5b601f19601f8301169050602081019050919050565b600067ffffffffffffffff821115614ec357614ec2615252565b5b601f19601f8301169050602081019050919050565b6000819050602082019050919050565b600081519050919050565b600081519050919050565b600081519050919050565b6000602082019050919050565b600082825260208201905092915050565b600082825260208201905092915050565b600082825260208201905092915050565b600081905092915050565b6000614f5f8261508c565b9150614f6a8361508c565b9250827fffffffffffffffffffffffffffffffffffffffffffffffffffffffffffffffff03821115614f9f57614f9e615196565b5b828201905092915050565b6000614fb58261508c565b9150614fc08361508c565b925082614fd057614fcf6151c5565b5b828204905092915050565b6000614fe68261508c565b9150614ff18361508c565b92508282101561500457615003615196565b5b828203905092915050565b600061501a8261506c565b9050919050565b60008115159050919050565b60007fffffffff0000000000000000000000000000000000000000000000000000000082169050919050565b600081905061506782615292565b919050565b600073ffffffffffffffffffffffffffffffffffffffff82169050919050565b6000819050919050565b60006150a182615059565b9050919050565b82818337600083830152505050565b60005b838110156150d55780820151818401526020810190506150ba565b838111156150e4576000848401525b50505050565b6000600282049050600182168061510257607f821691505b6020821081141561511657615115615223565b5b50919050565b60006151278261508c565b91507fffffffffffffffffffffffffffffffffffffffffffffffffffffffffffffffff82141561515a57615159615196565b5b600182019050919050565b60006151708261508c565b915061517b8361508c565b92508261518b5761518a6151c5565b5b828206905092915050565b7f4e487b7100000000000000000000000000000000000000000000000000000000600052601160045260246000fd5b7f4e487b7100000000000000000000000000000000000000000000000000000000600052601260045260246000fd5b7f4e487b7100000000000000000000000000000000000000000000000000000000600052602160045260246000fd5b7f4e487b7100000000000000000000000000000000000000000000000000000000600052602260045260246000fd5b7f4e487b7100000000000000000000000000000000000000000000000000000000600052604160045260246000fd5b6000601f19601f8301169050919050565b600481106152a3576152a26151f4565b5b50565b6152af8161500f565b81146152ba57600080fd5b50565b6152c681615021565b81146152d157600080fd5b50565b6152dd8161502d565b81146152e857600080fd5b50565b6152f48161508c565b81146152ff57600080fd5b5056fea2646970667358221220c1f3e879bf5ec592dfc392d6f54a67e893e70669e5969a662c34d7f2528ae13564736f6c63430008000033",
  "immutableReferences": {},
  "source": "pragma solidity ^0.8.0;\n\nimport \"../../../node_modules/@openzeppelin/contracts/token/ERC721/extensions/ERC721Enumerable.sol\";\nimport \"../../../node_modules/@openzeppelin/contracts/token/ERC721/ERC721.sol\";\n//import \"../../../node_modules/@openzeppelin/contracts/token/ERC721/presets/ERC721PresetMinterPauserAutoId.sol\";\nimport \"../../../node_modules/@openzeppelin/contracts/utils/Counters.sol\";\nimport \"../../../node_modules/@openzeppelin/contracts/utils/math/SafeMath.sol\";\n\n\n\n\n\n\n\n// Ticket is ERC721 (NFT) token with  availability to reedem tickets\n\n/**\n\n    ERC-721 is non-fungible token.  So, each tokenID is a unique ticket\n\n    Usefull tips:\n    // Mapping from owner to list of owned token IDs\n    mapping(address => uint256[]) private _ownedTokens;\n\n    // Mapping from token ID to index of the owner tokens list\n    mapping(uint256 => uint256) private _ownedTokensIndex;\n\n    // Array with all token ids, used for enumeration\n    uint256[] private _allTokens;\n\n    // Mapping from token id to position in the allTokens array\n    mapping(uint256 => uint256) private _allTokensIndex;\n\n    Gets the list of token IDs of the requested owner.\n     function _tokensOfOwner(address owner) internal view returns (uint256[] storage) {\n        return _ownedTokens[owner];\n    }\n\n\n\n **/\n\ncontract MSNFT is ERC721Enumerable {\n   using SafeMath for uint256;\n   using Counters for Counters.Counter;\n\n\n    //events\n    event TicketBought(address indexed visitor_wallet,uint256 indexed event_id, uint256 indexed ticket_id);\n    event TicketBoughtHuman(address visitor_wallet,uint256 event_id, uint256 ticket_id);\n    event TicketFulfilled(address indexed visitor_wallet,uint256 indexed event_id, uint256 indexed ticket_id);   // FIXME: add date to event?\n    event TicketFulfilledHuman(address visitor_wallet,uint256 event_id, uint256 ticket_id);\n    event EventIdReserved(address indexed ticket_sale, uint256 indexed event_id);\n    event EventIdReservedHuman(address ticket_sale, uint256 event_id);\n\n    // Global counters for ticket_id and event_id\n    Counters.Counter _ticket_id_count;\n    Counters.Counter _event_id_count;\n\n    // Ticket lifecycle\n    enum TicketState {Non_Existed, Paid, Fulfilled, Cancelled}\n\n    // map from event id to ticketsale address\n    // TIP: ticket type = array.length\n    mapping(uint256 => address[]) public eventsales;\n    // map from event id to ticket ids\n    mapping (uint256 => uint256[]) public ticketIds;\n    // map fron token ID to its index in ticketIds\n    mapping (uint256 => uint256) ticketIndex;\n    // map from ticket id to ticket info\n    mapping (uint256 => TicketInfo) public ticketInfoStorage;\n    // map from sale address to organizer\n    mapping(address => address) retailers;\n    // map from event id to event JID\n    mapping(uint256 => string) public JIDs;\n\n\n    /**\n   * Ticket information\n   */\n\n    struct TicketInfo {\n    //string description;\n    //uint price;\n    TicketState state;\n   // Counters.Counter ticket_type;\n    uint ticket_type;\n    string event_JID;\n    address sale_address;\n  }\n\n   // TicketInfo[] internal ticketStorage;\n\n\n\n    //FIXME: invoke constructor from 721(?)\n    constructor(string memory name_, string memory smbl_) ERC721(name_,smbl_) ERC721Enumerable() {\n      //  _addMinter(address(this));\n    }\n\n    /*\n    // FIXME: approve for ticketsale, not factory\n    function setApprovalForEvent(address _owner, address ticketsale) internal{\n        bool approved;\n        super._operatorApprovals[_owner][ticketsale] = approved;\n        emit ApprovalForAll(_owner, ticketsale, approved);\n    }\n    */\n\n    function _transferFromTicket(address from, address to, uint256 tokenId) public {\n        super.safeTransferFrom(from, to, tokenId);\n    }\n\n    // TODO - check for event_id already existed\n    function reserveEventId(address orginizer, string memory jid) public returns(uint256 event_id){\n        _event_id_count.increment();\n        event_id = _event_id_count.current();\n      //  eventsales[event_id] = msg.sender;\n        eventsales[event_id].push(msg.sender);\n        retailers[msg.sender] = orginizer;\n        JIDs[event_id] = jid;\n        // Roles for minting has been removed in zeppeline 0.8.0 erc721\n        //_addMinter(msg.sender);\n        emit EventIdReserved(msg.sender,event_id);\n        emit EventIdReservedHuman(msg.sender,event_id);\n        return event_id;\n    }\n\n    // plug additional sale for selling different types of ticket by one event\n    function plugSale(uint256 event_id, address orginizer) public returns(uint) {\n        address[] memory _sales = eventsales[event_id];\n        address _sale = _sales[0];\n        require(retailers[_sale] == orginizer, \"only orginizer can plug item\");\n        eventsales[event_id].push(msg.sender);\n        uint type_count = getTicketTypeCount(event_id);\n        return type_count;\n    }\n\n    //TODO - return ticketIDs(?)\n    function buyTicket(address buyer, uint256 ticketAmount, uint256 event_id, uint _ticket_type) public{\n        address[] memory _sales = eventsales[event_id];\n        address _sale = _sales[_ticket_type - 1]; // array start from 0\n        require(_sale == msg.sender, \"you should call buyTicket from ticketsale contract\");\n        for (uint256 i = 0; i < ticketAmount; i++ ){\n            _ticket_id_count.increment();\n            uint256 ticket_id = _ticket_id_count.current();\n\n            _mint(buyer,ticket_id);\n            string memory jid = getJidbyEventID(event_id);\n            ticketInfoStorage[ticket_id] = TicketInfo(TicketState.Paid,_ticket_type, jid,_sale);\n            ticketIndex[ticket_id] = ticketIds[event_id].length;\n            ticketIds[event_id].push(ticket_id);\n            // approve for ticketsale (msg.sender = ticketsale)\n          //  approve(msg.sender, ticket_id);\n         //   setApprovalForEvent(buyer,msg.sender);\n            emit TicketBought(buyer,event_id,ticket_id);\n            emit TicketBoughtHuman(buyer,event_id,ticket_id);\n        }\n\n    }\n\n    // This function is burning tokens.\n    // @deprecated\n    /*\n    function redeemTicket(address owner,uint256 tokenId, uint256 event_id) public{\n        require(eventsales[event_id] == msg.sender, \"caller doesn't match with event_id\");\n        super._burn(owner,tokenId);\n\n       // To prevent a gap in the tokens array, we store the last token in the index of the token to delete, and\n       // then delete the last slot (swap and pop).\n\n\n        uint256 ticket_index = ticketIndex[tokenId];\n        uint256 lastTicketIndex = ticketIds[event_id].length.sub(1);\n\n      //  uint256[] storage ticketIdArray = ticketIds[event_id];\n      //  uint256 lastTicketId = ticketIdArray[lastTicketIndex];\n\n        uint256 lastTicketId = ticketIds[event_id][lastTicketIndex];\n\n\n        ticketIds[event_id][ticket_index] = lastTicketId; // Move the last token to the slot of the to-delete token\n        ticketIndex[lastTicketId] = ticket_index;         // Update the moved token's index\n\n        ticketIds[event_id].length--;  // remove last element in array\n        ticketIndex[tokenId] = 0;\n\n\n    }\n    */\n\n\n     function redeemTicket(address visitor, uint256 tokenId, uint256 event_id) public{\n        address[] memory _sales = eventsales[event_id];\n        TicketInfo memory info = ticketInfoStorage[tokenId];\n        address _sale = _sales[info.ticket_type - 1];\n        require(_sale == msg.sender, \"you should call scan from ticketsale contract\");\n        require(ticketInfoStorage[tokenId].state == TicketState.Paid, \"Ticket state must be Paid\");\n        info.state = TicketState.Fulfilled;\n        ticketInfoStorage[tokenId] = info;\n        emit TicketFulfilled(visitor,event_id,tokenId);\n        emit TicketFulfilledHuman(visitor, event_id,tokenId);\n    }\n\n    function refundTicket(address visitor,uint256 tokenId, uint256 event_id) public returns(bool) {\n        address[] memory _sales = eventsales[event_id];\n        TicketInfo memory info = ticketInfoStorage[tokenId];\n        address _sale = _sales[info.ticket_type - 1];\n        require(_sale == msg.sender, \"you should call refund from ticketsale contract\");\n        // check status\n        TicketState status = getTicketStatus(tokenId);\n        require(status == TicketState.Paid, \"ticket status is not valid\");\n        _transferFromTicket(visitor, msg.sender, tokenId);\n        info.state = TicketState.Cancelled;\n        ticketInfoStorage[tokenId] = info;\n        return true;\n    }\n\n    function getTicketTypeCount(uint256 event_id) public view returns(uint) {\n        address[] memory _sales = eventsales[event_id];\n        uint ticket_type = _sales.length;\n        return ticket_type;\n    }\n\n\n//                  FIXME: fix get items of owner\n/*\n  //  Gets the list of token IDs of the requested owner.\n     function _tokensOfOwner(address owner) internal view returns (uint256[] storage) {\n        return super._ownedTokens[owner];\n    }\n\n\n\n    function getTicketByOwner(address _owner) public view returns(uint256[] memory) {\n        uint256[] storage tickets = _tokensOfOwner(_owner);\n        return tickets;\n    }\n*/\n\n\n    function getTicketSales(uint256 event_id) public view returns(address[] memory) {\n        address[] memory sales = eventsales[event_id];\n        return sales;\n    }\n\n    function getJidbyEventID(uint256 event_id) public view returns (string memory jid) {\n        jid = JIDs[event_id];\n        return jid;\n    }\n\n    function getJidByTicketId(uint ticket_id) public view returns (string memory jid) {\n        TicketInfo memory info = ticketInfoStorage[ticket_id];\n        jid = info.event_JID;\n        return jid;\n    }\n\n    function getTicketStatus(uint ticket_id) public view returns (TicketState status) {\n        TicketInfo memory info = ticketInfoStorage[ticket_id];\n        status = info.state;\n        return status;\n    }\n}",
  "sourcePath": "/home/jack/ethProjects/UniversalNFTMarketplace/contracts/721/singleton/MSNFT.sol",
  "compiler": {
    "name": "solc",
    "version": "0.8.0+commit.c7dfd78e.Emscripten.clang"
  },
  "schemaVersion": "3.4.1",
  "updatedAt": "2021-06-20T19:06:23.713Z",
  "devdoc": {
    "kind": "dev",
    "methods": {
      "approve(address,uint256)": {
        "details": "See {IERC721-approve}."
      },
      "balanceOf(address)": {
        "details": "See {IERC721-balanceOf}."
      },
      "getApproved(uint256)": {
        "details": "See {IERC721-getApproved}."
      },
      "isApprovedForAll(address,address)": {
        "details": "See {IERC721-isApprovedForAll}."
      },
      "name()": {
        "details": "See {IERC721Metadata-name}."
      },
      "ownerOf(uint256)": {
        "details": "See {IERC721-ownerOf}."
      },
      "safeTransferFrom(address,address,uint256)": {
        "details": "See {IERC721-safeTransferFrom}."
      },
      "safeTransferFrom(address,address,uint256,bytes)": {
        "details": "See {IERC721-safeTransferFrom}."
      },
      "setApprovalForAll(address,bool)": {
        "details": "See {IERC721-setApprovalForAll}."
      },
      "supportsInterface(bytes4)": {
        "details": "See {IERC165-supportsInterface}."
      },
      "symbol()": {
        "details": "See {IERC721Metadata-symbol}."
      },
      "tokenByIndex(uint256)": {
        "details": "See {IERC721Enumerable-tokenByIndex}."
      },
      "tokenOfOwnerByIndex(address,uint256)": {
        "details": "See {IERC721Enumerable-tokenOfOwnerByIndex}."
      },
      "tokenURI(uint256)": {
        "details": "See {IERC721Metadata-tokenURI}."
      },
      "totalSupply()": {
        "details": "See {IERC721Enumerable-totalSupply}."
      },
      "transferFrom(address,address,uint256)": {
        "details": "See {IERC721-transferFrom}."
      }
    },
    "version": 1
  },
  "userdoc": {
    "kind": "user",
    "methods": {},
    "notice": "ERC-721 is non-fungible token.  So, each tokenID is a unique ticket Usefull tips: // Mapping from owner to list of owned token IDs mapping(address => uint256[]) private _ownedTokens; // Mapping from token ID to index of the owner tokens list mapping(uint256 => uint256) private _ownedTokensIndex; // Array with all token ids, used for enumeration uint256[] private _allTokens; // Mapping from token id to position in the allTokens array mapping(uint256 => uint256) private _allTokensIndex; Gets the list of token IDs of the requested owner. function _tokensOfOwner(address owner) internal view returns (uint256[] storage) { return _ownedTokens[owner]; }*",
    "version": 1
  }
}