{
  "contractName": "MSNFT",
  "abi": [
    {
      "inputs": [
        {
          "internalType": "string",
          "name": "name_",
          "type": "string"
        },
        {
          "internalType": "string",
          "name": "smbl_",
          "type": "string"
        }
      ],
      "stateMutability": "nonpayable",
      "type": "constructor"
    },
    {
      "anonymous": false,
      "inputs": [
        {
          "indexed": true,
          "internalType": "address",
          "name": "owner",
          "type": "address"
        },
        {
          "indexed": true,
          "internalType": "address",
          "name": "approved",
          "type": "address"
        },
        {
          "indexed": true,
          "internalType": "uint256",
          "name": "tokenId",
          "type": "uint256"
        }
      ],
      "name": "Approval",
      "type": "event"
    },
    {
      "anonymous": false,
      "inputs": [
        {
          "indexed": true,
          "internalType": "address",
          "name": "owner",
          "type": "address"
        },
        {
          "indexed": true,
          "internalType": "address",
          "name": "operator",
          "type": "address"
        },
        {
          "indexed": false,
          "internalType": "bool",
          "name": "approved",
          "type": "bool"
        }
      ],
      "name": "ApprovalForAll",
      "type": "event"
    },
    {
      "anonymous": false,
      "inputs": [
        {
          "indexed": true,
          "internalType": "address",
          "name": "visitor_wallet",
          "type": "address"
        },
        {
          "indexed": true,
          "internalType": "uint256",
          "name": "event_id",
          "type": "uint256"
        },
        {
          "indexed": true,
          "internalType": "uint256",
          "name": "ticket_id",
          "type": "uint256"
        }
      ],
      "name": "ItemBought",
      "type": "event"
    },
    {
      "anonymous": false,
      "inputs": [
        {
          "indexed": false,
          "internalType": "address",
          "name": "visitor_wallet",
          "type": "address"
        },
        {
          "indexed": false,
          "internalType": "uint256",
          "name": "event_id",
          "type": "uint256"
        },
        {
          "indexed": false,
          "internalType": "uint256",
          "name": "ticket_id",
          "type": "uint256"
        }
      ],
      "name": "ItemBoughtHuman",
      "type": "event"
    },
    {
      "anonymous": false,
      "inputs": [
        {
          "indexed": true,
          "internalType": "address",
          "name": "ticket_sale",
          "type": "address"
        },
        {
          "indexed": true,
          "internalType": "uint256",
          "name": "event_id",
          "type": "uint256"
        }
      ],
      "name": "MasterIdReserved",
      "type": "event"
    },
    {
      "anonymous": false,
      "inputs": [
        {
          "indexed": false,
          "internalType": "address",
          "name": "ticket_sale",
          "type": "address"
        },
        {
          "indexed": false,
          "internalType": "uint256",
          "name": "event_id",
          "type": "uint256"
        }
      ],
      "name": "MasterIdReservedHuman",
      "type": "event"
    },
    {
      "anonymous": false,
      "inputs": [
        {
          "indexed": true,
          "internalType": "address",
          "name": "from",
          "type": "address"
        },
        {
          "indexed": true,
          "internalType": "address",
          "name": "to",
          "type": "address"
        },
        {
          "indexed": true,
          "internalType": "uint256",
          "name": "tokenId",
          "type": "uint256"
        }
      ],
      "name": "Transfer",
      "type": "event"
    },
    {
      "inputs": [
        {
          "internalType": "uint256",
          "name": "",
          "type": "uint256"
        }
      ],
      "name": "JIDs",
      "outputs": [
        {
          "internalType": "string",
          "name": "",
          "type": "string"
        }
      ],
      "stateMutability": "view",
      "type": "function"
    },
    {
      "inputs": [
        {
          "internalType": "uint256",
          "name": "",
          "type": "uint256"
        }
      ],
      "name": "MetaInfo",
      "outputs": [
        {
          "internalType": "string",
          "name": "description",
          "type": "string"
        },
        {
          "internalType": "address",
          "name": "author",
          "type": "address"
        },
        {
          "internalType": "enum MSNFT.RarityType",
          "name": "rarity",
          "type": "uint8"
        },
        {
          "internalType": "uint256",
          "name": "circulated_supply",
          "type": "uint256"
        }
      ],
      "stateMutability": "view",
      "type": "function"
    },
    {
      "inputs": [
        {
          "internalType": "address",
          "name": "to",
          "type": "address"
        },
        {
          "internalType": "uint256",
          "name": "tokenId",
          "type": "uint256"
        }
      ],
      "name": "approve",
      "outputs": [],
      "stateMutability": "nonpayable",
      "type": "function"
    },
    {
      "inputs": [
        {
          "internalType": "uint256",
          "name": "",
          "type": "uint256"
        }
      ],
      "name": "authors",
      "outputs": [
        {
          "internalType": "address",
          "name": "",
          "type": "address"
        }
      ],
      "stateMutability": "view",
      "type": "function"
    },
    {
      "inputs": [
        {
          "internalType": "address",
          "name": "owner",
          "type": "address"
        }
      ],
      "name": "balanceOf",
      "outputs": [
        {
          "internalType": "uint256",
          "name": "",
          "type": "uint256"
        }
      ],
      "stateMutability": "view",
      "type": "function"
    },
    {
      "inputs": [
        {
          "internalType": "uint256",
          "name": "tokenId",
          "type": "uint256"
        }
      ],
      "name": "getApproved",
      "outputs": [
        {
          "internalType": "address",
          "name": "",
          "type": "address"
        }
      ],
      "stateMutability": "view",
      "type": "function"
    },
    {
      "inputs": [
        {
          "internalType": "address",
          "name": "owner",
          "type": "address"
        },
        {
          "internalType": "address",
          "name": "operator",
          "type": "address"
        }
      ],
      "name": "isApprovedForAll",
      "outputs": [
        {
          "internalType": "bool",
          "name": "",
          "type": "bool"
        }
      ],
      "stateMutability": "view",
      "type": "function"
    },
    {
      "inputs": [
        {
          "internalType": "uint256",
          "name": "",
          "type": "uint256"
        },
        {
          "internalType": "uint256",
          "name": "",
          "type": "uint256"
        }
      ],
      "name": "itemIds",
      "outputs": [
        {
          "internalType": "uint256",
          "name": "",
          "type": "uint256"
        }
      ],
      "stateMutability": "view",
      "type": "function"
    },
    {
      "inputs": [
        {
          "internalType": "uint256",
          "name": "",
          "type": "uint256"
        }
      ],
      "name": "mastersales",
      "outputs": [
        {
          "internalType": "address",
          "name": "",
          "type": "address"
        }
      ],
      "stateMutability": "view",
      "type": "function"
    },
    {
      "inputs": [],
      "name": "name",
      "outputs": [
        {
          "internalType": "string",
          "name": "",
          "type": "string"
        }
      ],
      "stateMutability": "view",
      "type": "function"
    },
    {
      "inputs": [
        {
          "internalType": "uint256",
          "name": "tokenId",
          "type": "uint256"
        }
      ],
      "name": "ownerOf",
      "outputs": [
        {
          "internalType": "address",
          "name": "",
          "type": "address"
        }
      ],
      "stateMutability": "view",
      "type": "function"
    },
    {
      "inputs": [
        {
          "internalType": "address",
          "name": "from",
          "type": "address"
        },
        {
          "internalType": "address",
          "name": "to",
          "type": "address"
        },
        {
          "internalType": "uint256",
          "name": "tokenId",
          "type": "uint256"
        }
      ],
      "name": "safeTransferFrom",
      "outputs": [],
      "stateMutability": "nonpayable",
      "type": "function"
    },
    {
      "inputs": [
        {
          "internalType": "address",
          "name": "from",
          "type": "address"
        },
        {
          "internalType": "address",
          "name": "to",
          "type": "address"
        },
        {
          "internalType": "uint256",
          "name": "tokenId",
          "type": "uint256"
        },
        {
          "internalType": "bytes",
          "name": "_data",
          "type": "bytes"
        }
      ],
      "name": "safeTransferFrom",
      "outputs": [],
      "stateMutability": "nonpayable",
      "type": "function"
    },
    {
      "inputs": [
        {
          "internalType": "address",
          "name": "operator",
          "type": "address"
        },
        {
          "internalType": "bool",
          "name": "approved",
          "type": "bool"
        }
      ],
      "name": "setApprovalForAll",
      "outputs": [],
      "stateMutability": "nonpayable",
      "type": "function"
    },
    {
      "inputs": [
        {
          "internalType": "bytes4",
          "name": "interfaceId",
          "type": "bytes4"
        }
      ],
      "name": "supportsInterface",
      "outputs": [
        {
          "internalType": "bool",
          "name": "",
          "type": "bool"
        }
      ],
      "stateMutability": "view",
      "type": "function"
    },
    {
      "inputs": [],
      "name": "symbol",
      "outputs": [
        {
          "internalType": "string",
          "name": "",
          "type": "string"
        }
      ],
      "stateMutability": "view",
      "type": "function"
    },
    {
      "inputs": [
        {
          "internalType": "uint256",
          "name": "index",
          "type": "uint256"
        }
      ],
      "name": "tokenByIndex",
      "outputs": [
        {
          "internalType": "uint256",
          "name": "",
          "type": "uint256"
        }
      ],
      "stateMutability": "view",
      "type": "function"
    },
    {
      "inputs": [
        {
          "internalType": "address",
          "name": "owner",
          "type": "address"
        },
        {
          "internalType": "uint256",
          "name": "index",
          "type": "uint256"
        }
      ],
      "name": "tokenOfOwnerByIndex",
      "outputs": [
        {
          "internalType": "uint256",
          "name": "",
          "type": "uint256"
        }
      ],
      "stateMutability": "view",
      "type": "function"
    },
    {
      "inputs": [
        {
          "internalType": "uint256",
          "name": "tokenId",
          "type": "uint256"
        }
      ],
      "name": "tokenURI",
      "outputs": [
        {
          "internalType": "string",
          "name": "",
          "type": "string"
        }
      ],
      "stateMutability": "view",
      "type": "function"
    },
    {
      "inputs": [],
      "name": "totalSupply",
      "outputs": [
        {
          "internalType": "uint256",
          "name": "",
          "type": "uint256"
        }
      ],
      "stateMutability": "view",
      "type": "function"
    },
    {
      "inputs": [
        {
          "internalType": "address",
          "name": "from",
          "type": "address"
        },
        {
          "internalType": "address",
          "name": "to",
          "type": "address"
        },
        {
          "internalType": "uint256",
          "name": "tokenId",
          "type": "uint256"
        }
      ],
      "name": "transferFrom",
      "outputs": [],
      "stateMutability": "nonpayable",
      "type": "function"
    },
    {
      "inputs": [
        {
          "internalType": "address",
          "name": "from",
          "type": "address"
        },
        {
          "internalType": "address",
          "name": "to",
          "type": "address"
        },
        {
          "internalType": "uint256",
          "name": "tokenId",
          "type": "uint256"
        }
      ],
      "name": "_transferFromTicket",
      "outputs": [],
      "stateMutability": "nonpayable",
      "type": "function"
    },
    {
      "inputs": [
        {
          "internalType": "address",
          "name": "organizer",
          "type": "address"
        },
        {
          "internalType": "uint256",
          "name": "_masterId",
          "type": "uint256"
        },
        {
          "internalType": "address",
          "name": "_sale",
          "type": "address"
        }
      ],
      "name": "PlugCrowdSale",
      "outputs": [],
      "stateMutability": "nonpayable",
      "type": "function"
    },
    {
      "inputs": [
        {
          "internalType": "address",
          "name": "_author",
          "type": "address"
        },
        {
          "internalType": "string",
          "name": "_description",
          "type": "string"
        },
        {
          "internalType": "uint256",
          "name": "_supplyType",
          "type": "uint256"
        }
      ],
      "name": "createMasterCopy",
      "outputs": [
        {
          "internalType": "uint256",
          "name": "c_master_id",
          "type": "uint256"
        }
      ],
      "stateMutability": "nonpayable",
      "type": "function"
    },
    {
      "inputs": [
        {
          "internalType": "uint256",
          "name": "_masterId",
          "type": "uint256"
        }
      ],
      "name": "get_rarity",
      "outputs": [
        {
          "internalType": "enum MSNFT.RarityType",
          "name": "",
          "type": "uint8"
        }
      ],
      "stateMutability": "view",
      "type": "function"
    },
    {
      "inputs": [
        {
          "internalType": "uint256",
          "name": "_masterId",
          "type": "uint256"
        }
      ],
      "name": "get_author",
      "outputs": [
        {
          "internalType": "address",
          "name": "_author",
          "type": "address"
        }
      ],
      "stateMutability": "view",
      "type": "function"
    },
    {
      "inputs": [
        {
          "internalType": "address",
          "name": "buyer",
          "type": "address"
        },
        {
          "internalType": "uint256",
          "name": "itemAmount",
          "type": "uint256"
        },
        {
          "internalType": "uint256",
          "name": "master_id",
          "type": "uint256"
        }
      ],
      "name": "buyTicket",
      "outputs": [],
      "stateMutability": "nonpayable",
      "type": "function"
    },
    {
      "inputs": [
        {
          "internalType": "uint256",
          "name": "master_id",
          "type": "uint256"
        }
      ],
      "name": "getItemSale",
      "outputs": [
        {
          "internalType": "address",
          "name": "",
          "type": "address"
        }
      ],
      "stateMutability": "view",
      "type": "function"
    }
  ],
  "bytecode": "0x60806040523480156200001157600080fd5b50604051620046c1380380620046c18339818101604052810190620000379190620001d8565b8181816000908051906020019062000051929190620000b6565b5080600190805190602001906200006a929190620000b6565b50505033600c60006101000a81548173ffffffffffffffffffffffffffffffffffffffff021916908373ffffffffffffffffffffffffffffffffffffffff16021790555050506200037c565b828054620000c490620002e8565b90600052602060002090601f016020900481019282620000e8576000855562000134565b82601f106200010357805160ff191683800117855562000134565b8280016001018555821562000134579182015b828111156200013357825182559160200191906001019062000116565b5b50905062000143919062000147565b5090565b5b808211156200016257600081600090555060010162000148565b5090565b60006200017d62000177846200027f565b6200024b565b9050828152602081018484840111156200019657600080fd5b620001a3848285620002b2565b509392505050565b600082601f830112620001bd57600080fd5b8151620001cf84826020860162000166565b91505092915050565b60008060408385031215620001ec57600080fd5b600083015167ffffffffffffffff8111156200020757600080fd5b6200021585828601620001ab565b925050602083015167ffffffffffffffff8111156200023357600080fd5b6200024185828601620001ab565b9150509250929050565b6000604051905081810181811067ffffffffffffffff821117156200027557620002746200034d565b5b8060405250919050565b600067ffffffffffffffff8211156200029d576200029c6200034d565b5b601f19601f8301169050602081019050919050565b60005b83811015620002d2578082015181840152602081019050620002b5565b83811115620002e2576000848401525b50505050565b600060028204905060018216806200030157607f821691505b602082108114156200031857620003176200031e565b5b50919050565b7f4e487b7100000000000000000000000000000000000000000000000000000000600052602260045260246000fd5b7f4e487b7100000000000000000000000000000000000000000000000000000000600052604160045260246000fd5b614335806200038c6000396000f3fe608060405234801561001057600080fd5b50600436106101e1576000357c01000000000000000000000000000000000000000000000000000000009004806394ff3acc11610116578063b7b239f9116100b4578063c87b56dd1161008e578063c87b56dd146105a4578063e3e5c2b9146105d4578063e985e9c5146105f0578063f520cb4c14610620576101e1565b8063b7b239f914610528578063b88d4fde14610558578063be5010b214610574576101e1565b8063a22cb465116100f0578063a22cb46514610490578063ab31520a146104ac578063ad140b1d146104c8578063b661497a146104f8576101e1565b806394ff3acc1461042657806395d89b41146104425780639e004ba814610460576101e1565b806323b872dd1161018357806342842e0e1161015d57806342842e0e1461037a5780634f6ccce7146103965780636352211e146103c657806370a08231146103f6576101e1565b806323b872dd146102fe5780632f745c591461031a5780633db804da1461034a576101e1565b8063095ea7b3116101bf578063095ea7b3146102645780630e304d881461028057806318160ddd146102b0578063239e1d72146102ce576101e1565b806301ffc9a7146101e657806306fdde0314610216578063081812fc14610234575b600080fd5b61020060048036038101906101fb9190613183565b610653565b60405161020d9190613b3e565b60405180910390f35b61021e6106cd565b60405161022b9190613b74565b60405180910390f35b61024e600480360381019061024991906131d5565b61075f565b60405161025b9190613a77565b60405180910390f35b61027e600480360381019061027991906130a9565b6107e4565b005b61029a600480360381019061029591906131d5565b6108fc565b6040516102a79190613a77565b60405180910390f35b6102b8610939565b6040516102c59190613e62565b60405180910390f35b6102e860048036038101906102e391906131d5565b610946565b6040516102f59190613b59565b60405180910390f35b61031860048036038101906103139190612f3c565b610afc565b005b610334600480360381019061032f91906130a9565b610b5c565b6040516103419190613e62565b60405180910390f35b610364600480360381019061035f91906131d5565b610c01565b6040516103719190613a77565b60405180910390f35b610394600480360381019061038f9190612f3c565b610c34565b005b6103b060048036038101906103ab91906131d5565b610c54565b6040516103bd9190613e62565b60405180910390f35b6103e060048036038101906103db91906131d5565b610ceb565b6040516103ed9190613a77565b60405180910390f35b610410600480360381019061040b9190612ed7565b610d9d565b60405161041d9190613e62565b60405180910390f35b610440600480360381019061043b91906130e5565b610e55565b005b61044a611156565b6040516104579190613b74565b60405180910390f35b61047a600480360381019061047591906131d5565b6111e8565b6040516104879190613a77565b60405180910390f35b6104aa60048036038101906104a59190613006565b61122a565b005b6104c660048036038101906104c19190612f3c565b6113ab565b005b6104e260048036038101906104dd91906131d5565b6113bb565b6040516104ef9190613b74565b60405180910390f35b610512600480360381019061050d91906131d5565b61145b565b60405161051f9190613a77565b60405180910390f35b610542600480360381019061053d9190613042565b61148e565b60405161054f9190613e62565b60405180910390f35b610572600480360381019061056d9190612f8b565b6116e1565b005b61058e600480360381019061058991906131fe565b611743565b60405161059b9190613e62565b60405180910390f35b6105be60048036038101906105b991906131d5565b611774565b6040516105cb9190613b74565b60405180910390f35b6105ee60048036038101906105e99190613134565b61181b565b005b61060a60048036038101906106059190612f00565b6119f1565b6040516106179190613b3e565b60405180910390f35b61063a600480360381019061063591906131d5565b611a85565b60405161064a9493929190613b96565b60405180910390f35b60007f780e9d63000000000000000000000000000000000000000000000000000000007bffffffffffffffffffffffffffffffffffffffffffffffffffffffff1916827bffffffffffffffffffffffffffffffffffffffffffffffffffffffff191614806106c657506106c582611b6a565b5b9050919050565b6060600080546106dc906140e7565b80601f0160208091040260200160405190810160405280929190818152602001828054610708906140e7565b80156107555780601f1061072a57610100808354040283529160200191610755565b820191906000526020600020905b81548152906001019060200180831161073857829003601f168201915b5050505050905090565b600061076a82611c4c565b6107a9576040517f08c379a00000000000000000000000000000000000000000000000000000000081526004016107a090613d42565b60405180910390fd5b6004600083815260200190815260200160002060009054906101000a900473ffffffffffffffffffffffffffffffffffffffff169050919050565b60006107ef82610ceb565b90508073ffffffffffffffffffffffffffffffffffffffff168373ffffffffffffffffffffffffffffffffffffffff161415610860576040517f08c379a000000000000000000000000000000000000000000000000000000000815260040161085790613de2565b60405180910390fd5b8073ffffffffffffffffffffffffffffffffffffffff1661087f611cb8565b73ffffffffffffffffffffffffffffffffffffffff1614806108ae57506108ad816108a8611cb8565b6119f1565b5b6108ed576040517f08c379a00000000000000000000000000000000000000000000000000000000081526004016108e490613cc2565b60405180910390fd5b6108f78383611cc0565b505050565b60006011600083815260200190815260200160002060009054906101000a900473ffffffffffffffffffffffffffffffffffffffff169050919050565b6000600880549050905090565b6000610950612c85565b6013600084815260200190815260200160002060405180608001604052908160008201805461097e906140e7565b80601f01602080910402602001604051908101604052809291908181526020018280546109aa906140e7565b80156109f75780601f106109cc576101008083540402835291602001916109f7565b820191906000526020600020905b8154815290600101906020018083116109da57829003601f168201915b505050505081526020016001820160009054906101000a900473ffffffffffffffffffffffffffffffffffffffff1673ffffffffffffffffffffffffffffffffffffffff1673ffffffffffffffffffffffffffffffffffffffff1681526020016001820160149054906101000a900460ff166002811115610aa1577f4e487b7100000000000000000000000000000000000000000000000000000000600052602160045260246000fd5b6002811115610ad9577f4e487b7100000000000000000000000000000000000000000000000000000000600052602160045260246000fd5b815260200160028201548152505090506000816040015190508092505050919050565b610b0d610b07611cb8565b82611d79565b610b4c576040517f08c379a0000000000000000000000000000000000000000000000000000000008152600401610b4390613e02565b60405180910390fd5b610b57838383611e57565b505050565b6000610b6783610d9d565b8210610ba8576040517f08c379a0000000000000000000000000000000000000000000000000000000008152600401610b9f90613be2565b60405180910390fd5b600660008473ffffffffffffffffffffffffffffffffffffffff1673ffffffffffffffffffffffffffffffffffffffff168152602001908152602001600020600083815260200190815260200160002054905092915050565b60116020528060005260406000206000915054906101000a900473ffffffffffffffffffffffffffffffffffffffff1681565b610c4f838383604051806020016040528060008152506116e1565b505050565b6000610c5e610939565b8210610c9f576040517f08c379a0000000000000000000000000000000000000000000000000000000008152600401610c9690613e22565b60405180910390fd5b60088281548110610cd9577f4e487b7100000000000000000000000000000000000000000000000000000000600052603260045260246000fd5b90600052602060002001549050919050565b6000806002600084815260200190815260200160002060009054906101000a900473ffffffffffffffffffffffffffffffffffffffff169050600073ffffffffffffffffffffffffffffffffffffffff168173ffffffffffffffffffffffffffffffffffffffff161415610d94576040517f08c379a0000000000000000000000000000000000000000000000000000000008152600401610d8b90613d02565b60405180910390fd5b80915050919050565b60008073ffffffffffffffffffffffffffffffffffffffff168273ffffffffffffffffffffffffffffffffffffffff161415610e0e576040517f08c379a0000000000000000000000000000000000000000000000000000000008152600401610e0590613ce2565b60405180910390fd5b600360008373ffffffffffffffffffffffffffffffffffffffff1673ffffffffffffffffffffffffffffffffffffffff168152602001908152602001600020549050919050565b600c60009054906101000a900473ffffffffffffffffffffffffffffffffffffffff1673ffffffffffffffffffffffffffffffffffffffff163373ffffffffffffffffffffffffffffffffffffffff1614610ee5576040517f08c379a0000000000000000000000000000000000000000000000000000000008152600401610edc90613dc2565b60405180910390fd5b610eed612c85565b60136000848152602001908152602001600020604051806080016040529081600082018054610f1b906140e7565b80601f0160208091040260200160405190810160405280929190818152602001828054610f47906140e7565b8015610f945780601f10610f6957610100808354040283529160200191610f94565b820191906000526020600020905b815481529060010190602001808311610f7757829003601f168201915b505050505081526020016001820160009054906101000a900473ffffffffffffffffffffffffffffffffffffffff1673ffffffffffffffffffffffffffffffffffffffff1673ffffffffffffffffffffffffffffffffffffffff1681526020016001820160149054906101000a900460ff16600281111561103e577f4e487b7100000000000000000000000000000000000000000000000000000000600052602160045260246000fd5b6002811115611076577f4e487b7100000000000000000000000000000000000000000000000000000000600052602160045260246000fd5b815260200160028201548152505090506000816020015190508473ffffffffffffffffffffffffffffffffffffffff168173ffffffffffffffffffffffffffffffffffffffff16146110fd576040517f08c379a00000000000000000000000000000000000000000000000000000000081526004016110f490613c42565b60405180910390fd5b82600d600086815260200190815260200160002060006101000a81548173ffffffffffffffffffffffffffffffffffffffff021916908373ffffffffffffffffffffffffffffffffffffffff1602179055505050505050565b606060018054611165906140e7565b80601f0160208091040260200160405190810160405280929190818152602001828054611191906140e7565b80156111de5780601f106111b3576101008083540402835291602001916111de565b820191906000526020600020905b8154815290600101906020018083116111c157829003601f168201915b5050505050905090565b600080600d600084815260200190815260200160002060009054906101000a900473ffffffffffffffffffffffffffffffffffffffff16905080915050919050565b611232611cb8565b73ffffffffffffffffffffffffffffffffffffffff168273ffffffffffffffffffffffffffffffffffffffff1614156112a0576040517f08c379a000000000000000000000000000000000000000000000000000000000815260040161129790613c82565b60405180910390fd5b80600560006112ad611cb8565b73ffffffffffffffffffffffffffffffffffffffff1673ffffffffffffffffffffffffffffffffffffffff16815260200190815260200160002060008473ffffffffffffffffffffffffffffffffffffffff1673ffffffffffffffffffffffffffffffffffffffff16815260200190815260200160002060006101000a81548160ff0219169083151502179055508173ffffffffffffffffffffffffffffffffffffffff1661135a611cb8565b73ffffffffffffffffffffffffffffffffffffffff167f17307eab39ab6107e8899845ad3d59bd9653f200f220920489ca2b5937696c318360405161139f9190613b3e565b60405180910390a35050565b6113b6838383610c34565b505050565b601260205280600052604060002060009150905080546113da906140e7565b80601f0160208091040260200160405190810160405280929190818152602001828054611406906140e7565b80156114535780601f1061142857610100808354040283529160200191611453565b820191906000526020600020905b81548152906001019060200180831161143657829003601f168201915b505050505081565b600d6020528060005260406000206000915054906101000a900473ffffffffffffffffffffffffffffffffffffffff1681565b6000600c60009054906101000a900473ffffffffffffffffffffffffffffffffffffffff1673ffffffffffffffffffffffffffffffffffffffff163373ffffffffffffffffffffffffffffffffffffffff1614611520576040517f08c379a000000000000000000000000000000000000000000000000000000000815260040161151790613e42565b60405180910390fd5b600061152a6120b3565b905060006115378461214b565b905060405180608001604052808681526020018773ffffffffffffffffffffffffffffffffffffffff16815260200182600281111561159f577f4e487b7100000000000000000000000000000000000000000000000000000000600052602160045260246000fd5b815260200160008152506013600084815260200190815260200160002060008201518160000190805190602001906115d8929190612cfb565b5060208201518160010160006101000a81548173ffffffffffffffffffffffffffffffffffffffff021916908373ffffffffffffffffffffffffffffffffffffffff16021790555060408201518160010160146101000a81548160ff02191690836002811115611671577f4e487b7100000000000000000000000000000000000000000000000000000000600052602160045260246000fd5b021790555060608201518160020155905050856011600084815260200190815260200160002060006101000a81548173ffffffffffffffffffffffffffffffffffffffff021916908373ffffffffffffffffffffffffffffffffffffffff16021790555081925050509392505050565b6116f26116ec611cb8565b83611d79565b611731576040517f08c379a000000000000000000000000000000000000000000000000000000000815260040161172890613e02565b60405180910390fd5b61173d84848484612177565b50505050565b600e602052816000526040600020818154811061175f57600080fd5b90600052602060002001600091509150505481565b606061177f82611c4c565b6117be576040517f08c379a00000000000000000000000000000000000000000000000000000000081526004016117b590613da2565b60405180910390fd5b60006117c86121d3565b905060008151116117e85760405180602001604052806000815250611813565b806117f2846121ea565b604051602001611803929190613a53565b6040516020818303038152906040525b915050919050565b6000600d600083815260200190815260200160002060009054906101000a900473ffffffffffffffffffffffffffffffffffffffff1690503373ffffffffffffffffffffffffffffffffffffffff168173ffffffffffffffffffffffffffffffffffffffff16146118c1576040517f08c379a00000000000000000000000000000000000000000000000000000000081526004016118b890613d62565b60405180910390fd5b60005b838110156119ea576118d6600a6123b6565b60006118e2600a6123cc565b90506118ee86826123da565b600e600085815260200190815260200160002080549050600f600083815260200190815260200160002081905550600e600085815260200190815260200160002081908060018154018082558091505060019003906000526020600020016000909190919091505580848773ffffffffffffffffffffffffffffffffffffffff167ffe2094c9ff56716cb07edf0cff82da158f346cb3bb2d89703228ab4eb0c329b660405160405180910390a47f2550da409a7fd6a0b8e2a7af9372f4297635788f07cf08c3d5ed13ab297ad5938685836040516119ce93929190613b07565b60405180910390a15080806119e290614119565b9150506118c4565b5050505050565b6000600560008473ffffffffffffffffffffffffffffffffffffffff1673ffffffffffffffffffffffffffffffffffffffff16815260200190815260200160002060008373ffffffffffffffffffffffffffffffffffffffff1673ffffffffffffffffffffffffffffffffffffffff16815260200190815260200160002060009054906101000a900460ff16905092915050565b6013602052806000526040600020600091509050806000018054611aa8906140e7565b80601f0160208091040260200160405190810160405280929190818152602001828054611ad4906140e7565b8015611b215780601f10611af657610100808354040283529160200191611b21565b820191906000526020600020905b815481529060010190602001808311611b0457829003601f168201915b5050505050908060010160009054906101000a900473ffffffffffffffffffffffffffffffffffffffff16908060010160149054906101000a900460ff16908060020154905084565b60007f80ac58cd000000000000000000000000000000000000000000000000000000007bffffffffffffffffffffffffffffffffffffffffffffffffffffffff1916827bffffffffffffffffffffffffffffffffffffffffffffffffffffffff19161480611c3557507f5b5e139f000000000000000000000000000000000000000000000000000000007bffffffffffffffffffffffffffffffffffffffffffffffffffffffff1916827bffffffffffffffffffffffffffffffffffffffffffffffffffffffff1916145b80611c455750611c44826125a8565b5b9050919050565b60008073ffffffffffffffffffffffffffffffffffffffff166002600084815260200190815260200160002060009054906101000a900473ffffffffffffffffffffffffffffffffffffffff1673ffffffffffffffffffffffffffffffffffffffff1614159050919050565b600033905090565b816004600083815260200190815260200160002060006101000a81548173ffffffffffffffffffffffffffffffffffffffff021916908373ffffffffffffffffffffffffffffffffffffffff160217905550808273ffffffffffffffffffffffffffffffffffffffff16611d3383610ceb565b73ffffffffffffffffffffffffffffffffffffffff167f8c5be1e5ebec7d5bd14f71427d1e84f3dd0314c0f7b2291e5b200ac8c7c3b92560405160405180910390a45050565b6000611d8482611c4c565b611dc3576040517f08c379a0000000000000000000000000000000000000000000000000000000008152600401611dba90613ca2565b60405180910390fd5b6000611dce83610ceb565b90508073ffffffffffffffffffffffffffffffffffffffff168473ffffffffffffffffffffffffffffffffffffffff161480611e3d57508373ffffffffffffffffffffffffffffffffffffffff16611e258461075f565b73ffffffffffffffffffffffffffffffffffffffff16145b80611e4e5750611e4d81856119f1565b5b91505092915050565b8273ffffffffffffffffffffffffffffffffffffffff16611e7782610ceb565b73ffffffffffffffffffffffffffffffffffffffff1614611ecd576040517f08c379a0000000000000000000000000000000000000000000000000000000008152600401611ec490613d82565b60405180910390fd5b600073ffffffffffffffffffffffffffffffffffffffff168273ffffffffffffffffffffffffffffffffffffffff161415611f3d576040517f08c379a0000000000000000000000000000000000000000000000000000000008152600401611f3490613c62565b60405180910390fd5b611f48838383612612565b611f53600082611cc0565b6001600360008573ffffffffffffffffffffffffffffffffffffffff1673ffffffffffffffffffffffffffffffffffffffff1681526020019081526020016000206000828254611fa39190613fd8565b925050819055506001600360008473ffffffffffffffffffffffffffffffffffffffff1673ffffffffffffffffffffffffffffffffffffffff1681526020019081526020016000206000828254611ffa9190613f51565b92505081905550816002600083815260200190815260200160002060006101000a81548173ffffffffffffffffffffffffffffffffffffffff021916908373ffffffffffffffffffffffffffffffffffffffff160217905550808273ffffffffffffffffffffffffffffffffffffffff168473ffffffffffffffffffffffffffffffffffffffff167fddf252ad1be2c89b69c2b068fc378daa952ba7f163c4a11628f55a4df523b3ef60405160405180910390a4505050565b60006120bf600b6123b6565b6120c9600b6123cc565b9050803373ffffffffffffffffffffffffffffffffffffffff167f42ff04921a81aac6b1b91bb0c423fb8405d7fce459953ab5fc98ed27744691be60405160405180910390a37f8e1c0dfd342869718621c5de225aa832476d36b5cab6accbcf4c07aa496eaf1c3382604051612140929190613ade565b60405180910390a190565b6000600182141561215b57600090505b600082141561216d5760029050612172565b600190505b919050565b612182848484611e57565b61218e84848484612726565b6121cd576040517f08c379a00000000000000000000000000000000000000000000000000000000081526004016121c490613c02565b60405180910390fd5b50505050565b606060405180602001604052806000815250905090565b60606000821415612232576040518060400160405280600181526020017f300000000000000000000000000000000000000000000000000000000000000081525090506123b1565b600082905060005b6000821461226457808061224d90614119565b915050600a8261225d9190613fa7565b915061223a565b60008167ffffffffffffffff8111156122a6577f4e487b7100000000000000000000000000000000000000000000000000000000600052604160045260246000fd5b6040519080825280601f01601f1916602001820160405280156122d85781602001600182028036833780820191505090505b5090505b600085146123aa576001826122f19190613fd8565b9150600a856123009190614162565b603061230c9190613f51565b7f010000000000000000000000000000000000000000000000000000000000000002818381518110612367577f4e487b7100000000000000000000000000000000000000000000000000000000600052603260045260246000fd5b60200101907effffffffffffffffffffffffffffffffffffffffffffffffffffffffffffff1916908160001a905350600a856123a39190613fa7565b94506122dc565b8093505050505b919050565b6001816000016000828254019250508190555050565b600081600001549050919050565b600073ffffffffffffffffffffffffffffffffffffffff168273ffffffffffffffffffffffffffffffffffffffff16141561244a576040517f08c379a000000000000000000000000000000000000000000000000000000000815260040161244190613d22565b60405180910390fd5b61245381611c4c565b15612493576040517f08c379a000000000000000000000000000000000000000000000000000000000815260040161248a90613c22565b60405180910390fd5b61249f60008383612612565b6001600360008473ffffffffffffffffffffffffffffffffffffffff1673ffffffffffffffffffffffffffffffffffffffff16815260200190815260200160002060008282546124ef9190613f51565b92505081905550816002600083815260200190815260200160002060006101000a81548173ffffffffffffffffffffffffffffffffffffffff021916908373ffffffffffffffffffffffffffffffffffffffff160217905550808273ffffffffffffffffffffffffffffffffffffffff16600073ffffffffffffffffffffffffffffffffffffffff167fddf252ad1be2c89b69c2b068fc378daa952ba7f163c4a11628f55a4df523b3ef60405160405180910390a45050565b60007f01ffc9a7000000000000000000000000000000000000000000000000000000007bffffffffffffffffffffffffffffffffffffffffffffffffffffffff1916827bffffffffffffffffffffffffffffffffffffffffffffffffffffffff1916149050919050565b61261d8383836128f5565b600073ffffffffffffffffffffffffffffffffffffffff168373ffffffffffffffffffffffffffffffffffffffff1614156126605761265b816128fa565b61269f565b8173ffffffffffffffffffffffffffffffffffffffff168373ffffffffffffffffffffffffffffffffffffffff161461269e5761269d8382612943565b5b5b600073ffffffffffffffffffffffffffffffffffffffff168273ffffffffffffffffffffffffffffffffffffffff1614156126e2576126dd81612ab0565b612721565b8273ffffffffffffffffffffffffffffffffffffffff168273ffffffffffffffffffffffffffffffffffffffff16146127205761271f8282612bf3565b5b5b505050565b60006127478473ffffffffffffffffffffffffffffffffffffffff16612c72565b156128e8578373ffffffffffffffffffffffffffffffffffffffff1663150b7a02612770611cb8565b8786866040518563ffffffff167c01000000000000000000000000000000000000000000000000000000000281526004016127ae9493929190613a92565b602060405180830381600087803b1580156127c857600080fd5b505af19250505080156127f957506040513d601f19601f820116820180604052508101906127f691906131ac565b60015b61287c573d8060008114612829576040519150601f19603f3d011682016040523d82523d6000602084013e61282e565b606091505b50600081511415612874576040517f08c379a000000000000000000000000000000000000000000000000000000000815260040161286b90613c02565b60405180910390fd5b805181602001fd5b63150b7a027c0100000000000000000000000000000000000000000000000000000000027bffffffffffffffffffffffffffffffffffffffffffffffffffffffff1916817bffffffffffffffffffffffffffffffffffffffffffffffffffffffff1916149150506128ed565b600190505b949350505050565b505050565b6008805490506009600083815260200190815260200160002081905550600881908060018154018082558091505060019003906000526020600020016000909190919091505550565b6000600161295084610d9d565b61295a9190613fd8565b9050600060076000848152602001908152602001600020549050818114612a3f576000600660008673ffffffffffffffffffffffffffffffffffffffff1673ffffffffffffffffffffffffffffffffffffffff168152602001908152602001600020600084815260200190815260200160002054905080600660008773ffffffffffffffffffffffffffffffffffffffff1673ffffffffffffffffffffffffffffffffffffffff168152602001908152602001600020600084815260200190815260200160002081905550816007600083815260200190815260200160002081905550505b6007600084815260200190815260200160002060009055600660008573ffffffffffffffffffffffffffffffffffffffff1673ffffffffffffffffffffffffffffffffffffffff16815260200190815260200160002060008381526020019081526020016000206000905550505050565b60006001600880549050612ac49190613fd8565b9050600060096000848152602001908152602001600020549050600060088381548110612b1a577f4e487b7100000000000000000000000000000000000000000000000000000000600052603260045260246000fd5b906000526020600020015490508060088381548110612b62577f4e487b7100000000000000000000000000000000000000000000000000000000600052603260045260246000fd5b906000526020600020018190555081600960008381526020019081526020016000208190555060096000858152602001908152602001600020600090556008805480612bd7577f4e487b7100000000000000000000000000000000000000000000000000000000600052603160045260246000fd5b6001900381819060005260206000200160009055905550505050565b6000612bfe83610d9d565b905081600660008573ffffffffffffffffffffffffffffffffffffffff1673ffffffffffffffffffffffffffffffffffffffff168152602001908152602001600020600083815260200190815260200160002081905550806007600084815260200190815260200160002081905550505050565b600080823b905060008111915050919050565b604051806080016040528060608152602001600073ffffffffffffffffffffffffffffffffffffffff16815260200160006002811115612cee577f4e487b7100000000000000000000000000000000000000000000000000000000600052602160045260246000fd5b8152602001600081525090565b828054612d07906140e7565b90600052602060002090601f016020900481019282612d295760008555612d70565b82601f10612d4257805160ff1916838001178555612d70565b82800160010185558215612d70579182015b82811115612d6f578251825591602001919060010190612d54565b5b509050612d7d9190612d81565b5090565b5b80821115612d9a576000816000905550600101612d82565b5090565b6000612db1612dac84613eae565b613e7d565b905082815260208101848484011115612dc957600080fd5b612dd48482856140a5565b509392505050565b6000612def612dea84613ede565b613e7d565b905082815260208101848484011115612e0757600080fd5b612e128482856140a5565b509392505050565b600081359050612e29816142a3565b92915050565b600081359050612e3e816142ba565b92915050565b600081359050612e53816142d1565b92915050565b600081519050612e68816142d1565b92915050565b600082601f830112612e7f57600080fd5b8135612e8f848260208601612d9e565b91505092915050565b600082601f830112612ea957600080fd5b8135612eb9848260208601612ddc565b91505092915050565b600081359050612ed1816142e8565b92915050565b600060208284031215612ee957600080fd5b6000612ef784828501612e1a565b91505092915050565b60008060408385031215612f1357600080fd5b6000612f2185828601612e1a565b9250506020612f3285828601612e1a565b9150509250929050565b600080600060608486031215612f5157600080fd5b6000612f5f86828701612e1a565b9350506020612f7086828701612e1a565b9250506040612f8186828701612ec2565b9150509250925092565b60008060008060808587031215612fa157600080fd5b6000612faf87828801612e1a565b9450506020612fc087828801612e1a565b9350506040612fd187828801612ec2565b925050606085013567ffffffffffffffff811115612fee57600080fd5b612ffa87828801612e6e565b91505092959194509250565b6000806040838503121561301957600080fd5b600061302785828601612e1a565b925050602061303885828601612e2f565b9150509250929050565b60008060006060848603121561305757600080fd5b600061306586828701612e1a565b935050602084013567ffffffffffffffff81111561308257600080fd5b61308e86828701612e98565b925050604061309f86828701612ec2565b9150509250925092565b600080604083850312156130bc57600080fd5b60006130ca85828601612e1a565b92505060206130db85828601612ec2565b9150509250929050565b6000806000606084860312156130fa57600080fd5b600061310886828701612e1a565b935050602061311986828701612ec2565b925050604061312a86828701612e1a565b9150509250925092565b60008060006060848603121561314957600080fd5b600061315786828701612e1a565b935050602061316886828701612ec2565b925050604061317986828701612ec2565b9150509250925092565b60006020828403121561319557600080fd5b60006131a384828501612e44565b91505092915050565b6000602082840312156131be57600080fd5b60006131cc84828501612e59565b91505092915050565b6000602082840312156131e757600080fd5b60006131f584828501612ec2565b91505092915050565b6000806040838503121561321157600080fd5b600061321f85828601612ec2565b925050602061323085828601612ec2565b9150509250929050565b6132438161400c565b82525050565b6132528161401e565b82525050565b600061326382613f0e565b61326d8185613f24565b935061327d8185602086016140b4565b6132868161427e565b840191505092915050565b61329a81614093565b82525050565b60006132ab82613f19565b6132b58185613f35565b93506132c58185602086016140b4565b6132ce8161427e565b840191505092915050565b60006132e482613f19565b6132ee8185613f46565b93506132fe8185602086016140b4565b80840191505092915050565b6000613317602b83613f35565b91507f455243373231456e756d657261626c653a206f776e657220696e646578206f7560008301527f74206f6620626f756e64730000000000000000000000000000000000000000006020830152604082019050919050565b600061337d603283613f35565b91507f4552433732313a207472616e7366657220746f206e6f6e20455243373231526560008301527f63656976657220696d706c656d656e74657200000000000000000000000000006020830152604082019050919050565b60006133e3601c83613f35565b91507f4552433732313a20746f6b656e20616c7265616479206d696e746564000000006000830152602082019050919050565b6000613423601f83613f35565b91507f796f7520646f6e2774206f776e20746f2074686973206d6173746572206964006000830152602082019050919050565b6000613463602483613f35565b91507f4552433732313a207472616e7366657220746f20746865207a65726f2061646460008301527f72657373000000000000000000000000000000000000000000000000000000006020830152604082019050919050565b60006134c9601983613f35565b91507f4552433732313a20617070726f766520746f2063616c6c6572000000000000006000830152602082019050919050565b6000613509602c83613f35565b91507f4552433732313a206f70657261746f7220717565727920666f72206e6f6e657860008301527f697374656e7420746f6b656e00000000000000000000000000000000000000006020830152604082019050919050565b600061356f603883613f35565b91507f4552433732313a20617070726f76652063616c6c6572206973206e6f74206f7760008301527f6e6572206e6f7220617070726f76656420666f7220616c6c00000000000000006020830152604082019050919050565b60006135d5602a83613f35565b91507f4552433732313a2062616c616e636520717565727920666f7220746865207a6560008301527f726f2061646472657373000000000000000000000000000000000000000000006020830152604082019050919050565b600061363b602983613f35565b91507f4552433732313a206f776e657220717565727920666f72206e6f6e657869737460008301527f656e7420746f6b656e00000000000000000000000000000000000000000000006020830152604082019050919050565b60006136a1602083613f35565b91507f4552433732313a206d696e7420746f20746865207a65726f20616464726573736000830152602082019050919050565b60006136e1602c83613f35565b91507f4552433732313a20617070726f76656420717565727920666f72206e6f6e657860008301527f697374656e7420746f6b656e00000000000000000000000000000000000000006020830152604082019050919050565b6000613747603083613f35565b91507f796f752073686f756c642063616c6c206275795469636b65742066726f6d206960008301527f74656d73616c6520636f6e7472616374000000000000000000000000000000006020830152604082019050919050565b60006137ad602983613f35565b91507f4552433732313a207472616e73666572206f6620746f6b656e2074686174206960008301527f73206e6f74206f776e00000000000000000000000000000000000000000000006020830152604082019050919050565b6000613813602f83613f35565b91507f4552433732314d657461646174613a2055524920717565727920666f72206e6f60008301527f6e6578697374656e7420746f6b656e00000000000000000000000000000000006020830152604082019050919050565b6000613879601f83613f35565b91507f6f6e6c7920666163746f72792063616e20706c75672063726f776473616c65006000830152602082019050919050565b60006138b9602183613f35565b91507f4552433732313a20617070726f76616c20746f2063757272656e74206f776e6560008301527f72000000000000000000000000000000000000000000000000000000000000006020830152604082019050919050565b600061391f603183613f35565b91507f4552433732313a207472616e736665722063616c6c6572206973206e6f74206f60008301527f776e6572206e6f7220617070726f7665640000000000000000000000000000006020830152604082019050919050565b6000613985602c83613f35565b91507f455243373231456e756d657261626c653a20676c6f62616c20696e646578206f60008301527f7574206f6620626f756e647300000000000000000000000000000000000000006020830152604082019050919050565b60006139eb602283613f35565b91507f6f6e6c7920666163746f72792063616e20637265617465206d6173746572636f60008301527f70790000000000000000000000000000000000000000000000000000000000006020830152604082019050919050565b613a4d81614089565b82525050565b6000613a5f82856132d9565b9150613a6b82846132d9565b91508190509392505050565b6000602082019050613a8c600083018461323a565b92915050565b6000608082019050613aa7600083018761323a565b613ab4602083018661323a565b613ac16040830185613a44565b8181036060830152613ad38184613258565b905095945050505050565b6000604082019050613af3600083018561323a565b613b006020830184613a44565b9392505050565b6000606082019050613b1c600083018661323a565b613b296020830185613a44565b613b366040830184613a44565b949350505050565b6000602082019050613b536000830184613249565b92915050565b6000602082019050613b6e6000830184613291565b92915050565b60006020820190508181036000830152613b8e81846132a0565b905092915050565b60006080820190508181036000830152613bb081876132a0565b9050613bbf602083018661323a565b613bcc6040830185613291565b613bd96060830184613a44565b95945050505050565b60006020820190508181036000830152613bfb8161330a565b9050919050565b60006020820190508181036000830152613c1b81613370565b9050919050565b60006020820190508181036000830152613c3b816133d6565b9050919050565b60006020820190508181036000830152613c5b81613416565b9050919050565b60006020820190508181036000830152613c7b81613456565b9050919050565b60006020820190508181036000830152613c9b816134bc565b9050919050565b60006020820190508181036000830152613cbb816134fc565b9050919050565b60006020820190508181036000830152613cdb81613562565b9050919050565b60006020820190508181036000830152613cfb816135c8565b9050919050565b60006020820190508181036000830152613d1b8161362e565b9050919050565b60006020820190508181036000830152613d3b81613694565b9050919050565b60006020820190508181036000830152613d5b816136d4565b9050919050565b60006020820190508181036000830152613d7b8161373a565b9050919050565b60006020820190508181036000830152613d9b816137a0565b9050919050565b60006020820190508181036000830152613dbb81613806565b9050919050565b60006020820190508181036000830152613ddb8161386c565b9050919050565b60006020820190508181036000830152613dfb816138ac565b9050919050565b60006020820190508181036000830152613e1b81613912565b9050919050565b60006020820190508181036000830152613e3b81613978565b9050919050565b60006020820190508181036000830152613e5b816139de565b9050919050565b6000602082019050613e776000830184613a44565b92915050565b6000604051905081810181811067ffffffffffffffff82111715613ea457613ea361424f565b5b8060405250919050565b600067ffffffffffffffff821115613ec957613ec861424f565b5b601f19601f8301169050602081019050919050565b600067ffffffffffffffff821115613ef957613ef861424f565b5b601f19601f8301169050602081019050919050565b600081519050919050565b600081519050919050565b600082825260208201905092915050565b600082825260208201905092915050565b600081905092915050565b6000613f5c82614089565b9150613f6783614089565b9250827fffffffffffffffffffffffffffffffffffffffffffffffffffffffffffffffff03821115613f9c57613f9b614193565b5b828201905092915050565b6000613fb282614089565b9150613fbd83614089565b925082613fcd57613fcc6141c2565b5b828204905092915050565b6000613fe382614089565b9150613fee83614089565b92508282101561400157614000614193565b5b828203905092915050565b600061401782614069565b9050919050565b60008115159050919050565b60007fffffffff0000000000000000000000000000000000000000000000000000000082169050919050565b60008190506140648261428f565b919050565b600073ffffffffffffffffffffffffffffffffffffffff82169050919050565b6000819050919050565b600061409e82614056565b9050919050565b82818337600083830152505050565b60005b838110156140d25780820151818401526020810190506140b7565b838111156140e1576000848401525b50505050565b600060028204905060018216806140ff57607f821691505b6020821081141561411357614112614220565b5b50919050565b600061412482614089565b91507fffffffffffffffffffffffffffffffffffffffffffffffffffffffffffffffff82141561415757614156614193565b5b600182019050919050565b600061416d82614089565b915061417883614089565b925082614188576141876141c2565b5b828206905092915050565b7f4e487b7100000000000000000000000000000000000000000000000000000000600052601160045260246000fd5b7f4e487b7100000000000000000000000000000000000000000000000000000000600052601260045260246000fd5b7f4e487b7100000000000000000000000000000000000000000000000000000000600052602160045260246000fd5b7f4e487b7100000000000000000000000000000000000000000000000000000000600052602260045260246000fd5b7f4e487b7100000000000000000000000000000000000000000000000000000000600052604160045260246000fd5b6000601f19601f8301169050919050565b600381106142a05761429f6141f1565b5b50565b6142ac8161400c565b81146142b757600080fd5b50565b6142c38161401e565b81146142ce57600080fd5b50565b6142da8161402a565b81146142e557600080fd5b50565b6142f181614089565b81146142fc57600080fd5b5056fea264697066735822122065359a31462d9e33cd9f6e1aa6fbd6fcee992d08db34b5f0ff9ca1f6e05e7cf764736f6c63430008000033",
  "immutableReferences": {},
  "source": "pragma solidity ^0.8.0;\n\nimport \"../../../node_modules/@openzeppelin/contracts/token/ERC721/extensions/ERC721Enumerable.sol\";\nimport \"../../../node_modules/@openzeppelin/contracts/token/ERC721/ERC721.sol\";\n//import \"../../../node_modules/@openzeppelin/contracts/token/ERC721/presets/ERC721PresetMinterPauserAutoId.sol\";\nimport \"../../../node_modules/@openzeppelin/contracts/utils/Counters.sol\";\nimport \"../../../node_modules/@openzeppelin/contracts/utils/math/SafeMath.sol\";\n\n\n\n\n\n\n\n// Ticket is ERC721 (NFT) token with  availability to reedem tickets\n\n/**\n\n    ERC-721 is non-fungible token.  So, each tokenID is a unique ticket\n\n    Usefull tips:\n    // Mapping from owner to list of owned token IDs\n    mapping(address => uint256[]) private _ownedTokens;\n\n    // Mapping from token ID to index of the owner tokens list\n    mapping(uint256 => uint256) private _ownedTokensIndex;\n\n    // Array with all token ids, used for enumeration\n    uint256[] private _allTokens;\n\n    // Mapping from token id to position in the allTokens array\n    mapping(uint256 => uint256) private _allTokensIndex;\n\n    Gets the list of token IDs of the requested owner.\n     function _tokensOfOwner(address owner) internal view returns (uint256[] storage) {\n        return _ownedTokens[owner];\n    }\n\n\n\n **/\n\ncontract MSNFT is ERC721Enumerable {\n   using SafeMath for uint256;\n   using Counters for Counters.Counter;\n\n\n\n    // Master -- Mastercopy, abstraction\n    // Item -- originate from mastercopy (nft-token)\n\n\n\n    //events\n    event ItemBought(address indexed visitor_wallet,uint256 indexed event_id, uint256 indexed ticket_id);\n    event ItemBoughtHuman(address visitor_wallet,uint256 event_id, uint256 ticket_id);\n //   event TicketFulfilled(address indexed visitor_wallet,uint256 indexed event_id, uint256 indexed ticket_id);   // FIXME: add date to event?\n   // event TicketFulfilledHuman(address visitor_wallet,uint256 event_id, uint256 ticket_id);\n    event MasterIdReserved(address indexed ticket_sale, uint256 indexed event_id);\n    event MasterIdReservedHuman(address ticket_sale, uint256 event_id);\n\n    // Global counters for ticket_id and event_id\n    Counters.Counter _item_id_count;\n    Counters.Counter _master_id_count;\n\n\n    // Motherland\n    address factory_address;\n\n\n\n    // Ticket lifecycle TODO: Deprecated, delete this\n    enum TicketState {Non_Existed, Paid, Fulfilled, Cancelled}\n\n    // Rarity type\n    // Unique -- the one\n    // Rare -- limited\n    // Common -- unlimited\n    enum RarityType {Unique, Rare, Common}\n\n    // map from mastercopy_id  to itemsale address\n    // TIP: ticket type = array.length\n    mapping(uint256 => address) public mastersales;\n    // map from master_id to item ids\n    mapping (uint256 => uint256[]) public itemIds;\n    // map fron token ID to its index in itemIds\n    mapping (uint256 => uint256) itemIndex;\n    // map from item id to item info\n    //mapping (uint256 => ItemInfo) public itemInfoStorage;  // TODO: -- we can remove it as item is a simulacr and all info we need we already have in MetaInfo\n    \n    // map from sale address to organizer -- TODO: this can be double info from factory\n    mapping(address => address) retailers;\n    \n    // map from masterId to author address\n    mapping(uint256 => address) public authors;\n\n\n    // map from event id to event JID  TODO: Depracated, remove this\n    mapping(uint256 => string) public JIDs;\n\n\n    // map from MasterCopyId to Meta info\n    mapping(uint256 => ItemInfo) public MetaInfo;\n\n\n    /**\n   * Ticket information\n   */\n\n    struct ItemInfo {\n    \n    string description;\n    address author;\n    //uint price;\n  //  TicketState state;\n    RarityType rarity;\n   // Counters.Counter ticket_type;\n  //  uint ticket_type;\n    uint circulated_supply;\n  //  string event_JID;\n  //  address sale_address;\n  }\n\n\n\n    \n    constructor(string memory name_, string memory smbl_) ERC721(name_,smbl_) ERC721Enumerable() {\n      //  _addMinter(address(this));\n        factory_address = msg.sender;\n    }\n\n    /*\n    // FIXME: approve for ticketsale, not factory\n    function setApprovalForEvent(address _owner, address ticketsale) internal{\n        bool approved;\n        super._operatorApprovals[_owner][ticketsale] = approved;\n        emit ApprovalForAll(_owner, ticketsale, approved);\n    }\n    */\n\n    function _transferFromTicket(address from, address to, uint256 tokenId) public {\n        super.safeTransferFrom(from, to, tokenId);\n    }\n\n    /* TODO: Deprecated, delete this\n    // TODO - check for event_id already existed\n    function reserveMasterIdForSale(address orginizer, string memory jid) public returns(uint256 master_id){\n       \n        master_id = _reserveMasterId();\n\n      //  eventsales[event_id] = msg.sender;\n        mastersales[master_id].push(msg.sender);\n        retailers[msg.sender] = orginizer;\n        JIDs[master_id] = jid;\n        // Roles for minting has been removed in zeppeline 0.8.0 erc721\n        //_addMinter(msg.sender);\n\n        // Rarity set\n\n\n\n        \n        return master_id;\n    }\n */\n\n    function PlugCrowdSale(address organizer, uint256 _masterId, address _sale) public {\n        // only factory knows about crowdsale contracts and only she should have access to this\n        require(msg.sender == factory_address, \"only factory can plug crowdsale\");\n        // only author of asset can plug crowdsale\n        ItemInfo memory meta;\n        meta = MetaInfo[_masterId];\n        address author = meta.author;\n        require(author == organizer, \"you don't own to this master id\");\n        mastersales[_masterId] = _sale;\n\n    }\n\n    function _reserveMasterId() internal returns(uint256 _master_id) {\n        _master_id_count.increment();\n        _master_id = _master_id_count.current();\n\n        emit MasterIdReserved(msg.sender,_master_id);\n        emit MasterIdReservedHuman(msg.sender,_master_id);\n\n        return _master_id;\n    }\n\n    function createMasterCopy(address _author ,string memory _description, uint256 _supplyType) public returns(uint256 c_master_id){\n\n\n        // TODO\n        // Add security check, should be only factory(?)\n        require(msg.sender == factory_address, \"only factory can create mastercopy\");\n\n        uint256 mid = _reserveMasterId();\n        RarityType _rarity = set_rarity(_supplyType);\n        MetaInfo[mid] = ItemInfo(_description,_author,_rarity,0);\n        authors[mid] = _author;\n        \n        // TODO -- emit event about master copy creation?\n\n\n        // return mastercopy id\n        return mid;\n    }\n\n     function set_rarity(uint256 _supplyType) private pure returns(RarityType _rarity) {\n       \n        // only one token exist\n        if (_supplyType == 1) {\n            _rarity = RarityType.Unique;\n        }\n        // Unlimited sale\n        if (_supplyType == 0) {\n            _rarity = RarityType.Common;\n        } else {\n            // Limited sale\n            _rarity = RarityType.Rare;\n        }\n        return _rarity;\n\n\n    }\n\n\n    function get_rarity(uint256 _masterId) public view returns (RarityType) {\n        \n        ItemInfo memory meta;\n        meta = MetaInfo[_masterId];\n        RarityType _rarity_type = meta.rarity;\n        return _rarity_type;\n    }\n\n    function get_author(uint256 _masterId) public view returns (address _author) {\n        _author = authors[_masterId];\n        return _author;\n    }\n\n\n/*\n    // plug additional sale for selling different types of ticket by one event\n    function plugSale(uint256 event_id, address orginizer) public returns(uint) {\n        address[] memory _sales = eventsales[event_id];\n        address _sale = _sales[0];\n        require(retailers[_sale] == orginizer, \"only orginizer can plug item\");\n        eventsales[event_id].push(msg.sender);\n        uint type_count = getTicketTypeCount(event_id);\n        return type_count;\n    }\n    */\n\n    //TODO - return ticketIDs(?)\n    function buyTicket(address buyer, uint256 itemAmount, uint256 master_id) public{\n       // address[] memory _sales = mastersales[master_id];\n       // address _sale = _sales[_ticket_type - 1]; // array start from 0\n       address _sale = mastersales[master_id];\n        require(_sale == msg.sender, \"you should call buyTicket from itemsale contract\");\n        for (uint256 i = 0; i < itemAmount; i++ ){\n            _item_id_count.increment();\n            uint256 item_id = _item_id_count.current();\n\n            // TODO: WARNING -- ADD CHECK FOR RARITY, ADD HIGHLEVEL MINT FUNCTION WIH IMPACT AT CIRCULATING SUPPLY\n            _mint(buyer,item_id);\n         //   itemInfoStorage[item_id] = ItemInfo(TicketState.Paid,RarityType.State,_ticket_type, jid,_sale);\n            itemIndex[item_id] = itemIds[master_id].length;\n            itemIds[master_id].push(item_id);\n            // approve for ticketsale (msg.sender = ticketsale)\n          //  approve(msg.sender, ticket_id);\n         //   setApprovalForEvent(buyer,msg.sender);\n            emit ItemBought(buyer,master_id,item_id);\n            emit ItemBoughtHuman(buyer,master_id,item_id);\n        }\n\n    }\n\n    // This function is burning tokens.\n    // @deprecated\n    /*\n    function redeemTicket(address owner,uint256 tokenId, uint256 event_id) public{\n        require(eventsales[event_id] == msg.sender, \"caller doesn't match with event_id\");\n        super._burn(owner,tokenId);\n\n       // To prevent a gap in the tokens array, we store the last token in the index of the token to delete, and\n       // then delete the last slot (swap and pop).\n\n\n        uint256 ticket_index = ticketIndex[tokenId];\n        uint256 lastTicketIndex = ticketIds[event_id].length.sub(1);\n\n      //  uint256[] storage ticketIdArray = ticketIds[event_id];\n      //  uint256 lastTicketId = ticketIdArray[lastTicketIndex];\n\n        uint256 lastTicketId = ticketIds[event_id][lastTicketIndex];\n\n\n        ticketIds[event_id][ticket_index] = lastTicketId; // Move the last token to the slot of the to-delete token\n        ticketIndex[lastTicketId] = ticket_index;         // Update the moved token's index\n\n        ticketIds[event_id].length--;  // remove last element in array\n        ticketIndex[tokenId] = 0;\n\n\n    }\n    */\n\n\n/*          Deprecated as there are no Tickets anymore.\n            Can be revived if there are a need for 'expiration' mode\n\n     function redeemTicket(address visitor, uint256 tokenId, uint256 event_id) public{\n        address[] memory _sales = eventsales[event_id];\n        TicketInfo memory info = ticketInfoStorage[tokenId];\n        address _sale = _sales[info.ticket_type - 1];\n        require(_sale == msg.sender, \"you should call scan from ticketsale contract\");\n        require(ticketInfoStorage[tokenId].state == TicketState.Paid, \"Ticket state must be Paid\");\n        info.state = TicketState.Fulfilled;\n        ticketInfoStorage[tokenId] = info;\n        emit TicketFulfilled(visitor,event_id,tokenId);\n        emit TicketFulfilledHuman(visitor, event_id,tokenId);\n    }\n\n    function refundTicket(address visitor,uint256 tokenId, uint256 event_id) public returns(bool) {\n        address[] memory _sales = eventsales[event_id];\n        TicketInfo memory info = ticketInfoStorage[tokenId];\n        address _sale = _sales[info.ticket_type - 1];\n        require(_sale == msg.sender, \"you should call refund from ticketsale contract\");\n        // check status\n        TicketState status = getTicketStatus(tokenId);\n        require(status == TicketState.Paid, \"ticket status is not valid\");\n        _transferFromTicket(visitor, msg.sender, tokenId);\n        info.state = TicketState.Cancelled;\n        ticketInfoStorage[tokenId] = info;\n        return true;\n    }\n    */\n\n/*\n    function getTicketTypeCount(uint256 event_id) public view returns(uint) {\n        address[] memory _sales = eventsales[event_id];\n        uint ticket_type = _sales.length;\n        return ticket_type;\n    }\n*/\n\n//                  FIXME: fix get items of owner\n/*\n  //  Gets the list of token IDs of the requested owner.\n     function _tokensOfOwner(address owner) internal view returns (uint256[] storage) {\n        return super._ownedTokens[owner];\n    }\n\n\n\n    function getTicketByOwner(address _owner) public view returns(uint256[] memory) {\n        uint256[] storage tickets = _tokensOfOwner(_owner);\n        return tickets;\n    }\n*/\n\n\n    function getItemSale(uint256 master_id) public view returns(address) {\n        address sale = mastersales[master_id];\n        return sale;\n    }\n\n/*\n    function getJidbyEventID(uint256 master_id) public view returns (string memory jid) {\n        jid = JIDs[master_id];\n        return jid;\n    }\n*/\n\n\n/*      TODO : Deprecated, remove it.\n    function getJidByTicketId(uint item_id) public view returns (string memory jid) {\n        ItemInfo memory info = itemInfoStorage[item_id];\n        jid = info.event_JID;\n        return jid;\n    }\n    \n    function getTicketStatus(uint item_id) public view returns (TicketState status) {\n        ItemInfo memory info = itemInfoStorage[item_id];\n        status = info.state;\n        return status;\n    }\n    */\n}",
  "sourcePath": "/home/jack/ethProjects/UniversalNFTMarketplace/contracts/721/singleton/MSNFT.sol",
  "compiler": {
    "name": "solc",
    "version": "0.8.0+commit.c7dfd78e.Emscripten.clang"
  },
  "schemaVersion": "3.4.1",
  "updatedAt": "2021-06-24T19:06:18.349Z",
  "devdoc": {
    "kind": "dev",
    "methods": {
      "approve(address,uint256)": {
        "details": "See {IERC721-approve}."
      },
      "balanceOf(address)": {
        "details": "See {IERC721-balanceOf}."
      },
      "getApproved(uint256)": {
        "details": "See {IERC721-getApproved}."
      },
      "isApprovedForAll(address,address)": {
        "details": "See {IERC721-isApprovedForAll}."
      },
      "name()": {
        "details": "See {IERC721Metadata-name}."
      },
      "ownerOf(uint256)": {
        "details": "See {IERC721-ownerOf}."
      },
      "safeTransferFrom(address,address,uint256)": {
        "details": "See {IERC721-safeTransferFrom}."
      },
      "safeTransferFrom(address,address,uint256,bytes)": {
        "details": "See {IERC721-safeTransferFrom}."
      },
      "setApprovalForAll(address,bool)": {
        "details": "See {IERC721-setApprovalForAll}."
      },
      "supportsInterface(bytes4)": {
        "details": "See {IERC165-supportsInterface}."
      },
      "symbol()": {
        "details": "See {IERC721Metadata-symbol}."
      },
      "tokenByIndex(uint256)": {
        "details": "See {IERC721Enumerable-tokenByIndex}."
      },
      "tokenOfOwnerByIndex(address,uint256)": {
        "details": "See {IERC721Enumerable-tokenOfOwnerByIndex}."
      },
      "tokenURI(uint256)": {
        "details": "See {IERC721Metadata-tokenURI}."
      },
      "totalSupply()": {
        "details": "See {IERC721Enumerable-totalSupply}."
      },
      "transferFrom(address,address,uint256)": {
        "details": "See {IERC721-transferFrom}."
      }
    },
    "version": 1
  },
  "userdoc": {
    "kind": "user",
    "methods": {},
    "notice": "ERC-721 is non-fungible token.  So, each tokenID is a unique ticket Usefull tips: // Mapping from owner to list of owned token IDs mapping(address => uint256[]) private _ownedTokens; // Mapping from token ID to index of the owner tokens list mapping(uint256 => uint256) private _ownedTokensIndex; // Array with all token ids, used for enumeration uint256[] private _allTokens; // Mapping from token id to position in the allTokens array mapping(uint256 => uint256) private _allTokensIndex; Gets the list of token IDs of the requested owner. function _tokensOfOwner(address owner) internal view returns (uint256[] storage) { return _ownedTokens[owner]; }*",
    "version": 1
  }
}