{
  "contractName": "MSNFT",
  "abi": [
    {
      "inputs": [
        {
          "internalType": "string",
          "name": "name_",
          "type": "string"
        },
        {
          "internalType": "string",
          "name": "smbl_",
          "type": "string"
        }
      ],
      "stateMutability": "nonpayable",
      "type": "constructor"
    },
    {
      "anonymous": false,
      "inputs": [
        {
          "indexed": true,
          "internalType": "address",
          "name": "owner",
          "type": "address"
        },
        {
          "indexed": true,
          "internalType": "address",
          "name": "approved",
          "type": "address"
        },
        {
          "indexed": true,
          "internalType": "uint256",
          "name": "tokenId",
          "type": "uint256"
        }
      ],
      "name": "Approval",
      "type": "event"
    },
    {
      "anonymous": false,
      "inputs": [
        {
          "indexed": true,
          "internalType": "address",
          "name": "owner",
          "type": "address"
        },
        {
          "indexed": true,
          "internalType": "address",
          "name": "operator",
          "type": "address"
        },
        {
          "indexed": false,
          "internalType": "bool",
          "name": "approved",
          "type": "bool"
        }
      ],
      "name": "ApprovalForAll",
      "type": "event"
    },
    {
      "anonymous": false,
      "inputs": [
        {
          "indexed": true,
          "internalType": "address",
          "name": "buyer",
          "type": "address"
        },
        {
          "indexed": true,
          "internalType": "uint256",
          "name": "master_id",
          "type": "uint256"
        },
        {
          "indexed": true,
          "internalType": "uint256",
          "name": "item_id",
          "type": "uint256"
        }
      ],
      "name": "ItemBought",
      "type": "event"
    },
    {
      "anonymous": false,
      "inputs": [
        {
          "indexed": false,
          "internalType": "address",
          "name": "buyer",
          "type": "address"
        },
        {
          "indexed": false,
          "internalType": "uint256",
          "name": "master_id",
          "type": "uint256"
        },
        {
          "indexed": false,
          "internalType": "uint256",
          "name": "item_id",
          "type": "uint256"
        }
      ],
      "name": "ItemBoughtHuman",
      "type": "event"
    },
    {
      "anonymous": false,
      "inputs": [
        {
          "indexed": false,
          "internalType": "address",
          "name": "author",
          "type": "address"
        },
        {
          "indexed": false,
          "internalType": "uint256",
          "name": "master_id",
          "type": "uint256"
        },
        {
          "indexed": true,
          "internalType": "string",
          "name": "description",
          "type": "string"
        },
        {
          "indexed": true,
          "internalType": "string",
          "name": "link",
          "type": "string"
        }
      ],
      "name": "MasterCopyCreatedHuman",
      "type": "event"
    },
    {
      "anonymous": false,
      "inputs": [
        {
          "indexed": true,
          "internalType": "address",
          "name": "author",
          "type": "address"
        },
        {
          "indexed": true,
          "internalType": "uint256",
          "name": "master_id",
          "type": "uint256"
        }
      ],
      "name": "MasterIdReserved",
      "type": "event"
    },
    {
      "anonymous": false,
      "inputs": [
        {
          "indexed": false,
          "internalType": "address",
          "name": "author",
          "type": "address"
        },
        {
          "indexed": false,
          "internalType": "uint256",
          "name": "master_id",
          "type": "uint256"
        }
      ],
      "name": "MasterIdReservedHuman",
      "type": "event"
    },
    {
      "anonymous": false,
      "inputs": [
        {
          "indexed": true,
          "internalType": "address",
          "name": "author",
          "type": "address"
        },
        {
          "indexed": false,
          "internalType": "uint256",
          "name": "master_id",
          "type": "uint256"
        },
        {
          "indexed": true,
          "internalType": "string",
          "name": "description",
          "type": "string"
        },
        {
          "indexed": true,
          "internalType": "string",
          "name": "link",
          "type": "string"
        }
      ],
      "name": "MaterCopyCreated",
      "type": "event"
    },
    {
      "anonymous": false,
      "inputs": [
        {
          "indexed": true,
          "internalType": "address",
          "name": "from",
          "type": "address"
        },
        {
          "indexed": true,
          "internalType": "address",
          "name": "to",
          "type": "address"
        },
        {
          "indexed": true,
          "internalType": "uint256",
          "name": "tokenId",
          "type": "uint256"
        }
      ],
      "name": "Transfer",
      "type": "event"
    },
    {
      "inputs": [
        {
          "internalType": "uint256",
          "name": "",
          "type": "uint256"
        }
      ],
      "name": "MetaInfo",
      "outputs": [
        {
          "internalType": "string",
          "name": "magnet_link",
          "type": "string"
        },
        {
          "internalType": "string",
          "name": "description",
          "type": "string"
        },
        {
          "internalType": "address",
          "name": "author",
          "type": "address"
        },
        {
          "internalType": "enum MSNFT.RarityType",
          "name": "rarity",
          "type": "uint8"
        },
        {
          "internalType": "uint256",
          "name": "i_totalSupply",
          "type": "uint256"
        }
      ],
      "stateMutability": "view",
      "type": "function"
    },
    {
      "inputs": [
        {
          "internalType": "address",
          "name": "to",
          "type": "address"
        },
        {
          "internalType": "uint256",
          "name": "tokenId",
          "type": "uint256"
        }
      ],
      "name": "approve",
      "outputs": [],
      "stateMutability": "nonpayable",
      "type": "function"
    },
    {
      "inputs": [
        {
          "internalType": "uint256",
          "name": "",
          "type": "uint256"
        }
      ],
      "name": "authors",
      "outputs": [
        {
          "internalType": "address",
          "name": "",
          "type": "address"
        }
      ],
      "stateMutability": "view",
      "type": "function"
    },
    {
      "inputs": [
        {
          "internalType": "address",
          "name": "owner",
          "type": "address"
        }
      ],
      "name": "balanceOf",
      "outputs": [
        {
          "internalType": "uint256",
          "name": "",
          "type": "uint256"
        }
      ],
      "stateMutability": "view",
      "type": "function"
    },
    {
      "inputs": [
        {
          "internalType": "uint256",
          "name": "tokenId",
          "type": "uint256"
        }
      ],
      "name": "getApproved",
      "outputs": [
        {
          "internalType": "address",
          "name": "",
          "type": "address"
        }
      ],
      "stateMutability": "view",
      "type": "function"
    },
    {
      "inputs": [
        {
          "internalType": "address",
          "name": "owner",
          "type": "address"
        },
        {
          "internalType": "address",
          "name": "operator",
          "type": "address"
        }
      ],
      "name": "isApprovedForAll",
      "outputs": [
        {
          "internalType": "bool",
          "name": "",
          "type": "bool"
        }
      ],
      "stateMutability": "view",
      "type": "function"
    },
    {
      "inputs": [
        {
          "internalType": "uint256",
          "name": "",
          "type": "uint256"
        },
        {
          "internalType": "uint256",
          "name": "",
          "type": "uint256"
        }
      ],
      "name": "itemIds",
      "outputs": [
        {
          "internalType": "uint256",
          "name": "",
          "type": "uint256"
        }
      ],
      "stateMutability": "view",
      "type": "function"
    },
    {
      "inputs": [
        {
          "internalType": "uint256",
          "name": "",
          "type": "uint256"
        }
      ],
      "name": "mastersales",
      "outputs": [
        {
          "internalType": "address",
          "name": "",
          "type": "address"
        }
      ],
      "stateMutability": "view",
      "type": "function"
    },
    {
      "inputs": [],
      "name": "name",
      "outputs": [
        {
          "internalType": "string",
          "name": "",
          "type": "string"
        }
      ],
      "stateMutability": "view",
      "type": "function"
    },
    {
      "inputs": [
        {
          "internalType": "uint256",
          "name": "tokenId",
          "type": "uint256"
        }
      ],
      "name": "ownerOf",
      "outputs": [
        {
          "internalType": "address",
          "name": "",
          "type": "address"
        }
      ],
      "stateMutability": "view",
      "type": "function"
    },
    {
      "inputs": [
        {
          "internalType": "address",
          "name": "from",
          "type": "address"
        },
        {
          "internalType": "address",
          "name": "to",
          "type": "address"
        },
        {
          "internalType": "uint256",
          "name": "tokenId",
          "type": "uint256"
        }
      ],
      "name": "safeTransferFrom",
      "outputs": [],
      "stateMutability": "nonpayable",
      "type": "function"
    },
    {
      "inputs": [
        {
          "internalType": "address",
          "name": "from",
          "type": "address"
        },
        {
          "internalType": "address",
          "name": "to",
          "type": "address"
        },
        {
          "internalType": "uint256",
          "name": "tokenId",
          "type": "uint256"
        },
        {
          "internalType": "bytes",
          "name": "_data",
          "type": "bytes"
        }
      ],
      "name": "safeTransferFrom",
      "outputs": [],
      "stateMutability": "nonpayable",
      "type": "function"
    },
    {
      "inputs": [
        {
          "internalType": "address",
          "name": "operator",
          "type": "address"
        },
        {
          "internalType": "bool",
          "name": "approved",
          "type": "bool"
        }
      ],
      "name": "setApprovalForAll",
      "outputs": [],
      "stateMutability": "nonpayable",
      "type": "function"
    },
    {
      "inputs": [
        {
          "internalType": "bytes4",
          "name": "interfaceId",
          "type": "bytes4"
        }
      ],
      "name": "supportsInterface",
      "outputs": [
        {
          "internalType": "bool",
          "name": "",
          "type": "bool"
        }
      ],
      "stateMutability": "view",
      "type": "function"
    },
    {
      "inputs": [],
      "name": "symbol",
      "outputs": [
        {
          "internalType": "string",
          "name": "",
          "type": "string"
        }
      ],
      "stateMutability": "view",
      "type": "function"
    },
    {
      "inputs": [
        {
          "internalType": "uint256",
          "name": "index",
          "type": "uint256"
        }
      ],
      "name": "tokenByIndex",
      "outputs": [
        {
          "internalType": "uint256",
          "name": "",
          "type": "uint256"
        }
      ],
      "stateMutability": "view",
      "type": "function"
    },
    {
      "inputs": [
        {
          "internalType": "address",
          "name": "owner",
          "type": "address"
        },
        {
          "internalType": "uint256",
          "name": "index",
          "type": "uint256"
        }
      ],
      "name": "tokenOfOwnerByIndex",
      "outputs": [
        {
          "internalType": "uint256",
          "name": "",
          "type": "uint256"
        }
      ],
      "stateMutability": "view",
      "type": "function"
    },
    {
      "inputs": [
        {
          "internalType": "uint256",
          "name": "tokenId",
          "type": "uint256"
        }
      ],
      "name": "tokenURI",
      "outputs": [
        {
          "internalType": "string",
          "name": "",
          "type": "string"
        }
      ],
      "stateMutability": "view",
      "type": "function"
    },
    {
      "inputs": [],
      "name": "totalSupply",
      "outputs": [
        {
          "internalType": "uint256",
          "name": "",
          "type": "uint256"
        }
      ],
      "stateMutability": "view",
      "type": "function"
    },
    {
      "inputs": [
        {
          "internalType": "address",
          "name": "from",
          "type": "address"
        },
        {
          "internalType": "address",
          "name": "to",
          "type": "address"
        },
        {
          "internalType": "uint256",
          "name": "tokenId",
          "type": "uint256"
        }
      ],
      "name": "transferFrom",
      "outputs": [],
      "stateMutability": "nonpayable",
      "type": "function"
    },
    {
      "inputs": [
        {
          "internalType": "address",
          "name": "organizer",
          "type": "address"
        },
        {
          "internalType": "uint256",
          "name": "_masterId",
          "type": "uint256"
        },
        {
          "internalType": "address",
          "name": "_sale",
          "type": "address"
        }
      ],
      "name": "PlugCrowdSale",
      "outputs": [],
      "stateMutability": "nonpayable",
      "type": "function"
    },
    {
      "inputs": [
        {
          "internalType": "string",
          "name": "link",
          "type": "string"
        },
        {
          "internalType": "address",
          "name": "_author",
          "type": "address"
        },
        {
          "internalType": "string",
          "name": "_description",
          "type": "string"
        },
        {
          "internalType": "uint256",
          "name": "_supplyType",
          "type": "uint256"
        }
      ],
      "name": "createMasterCopy",
      "outputs": [
        {
          "internalType": "uint256",
          "name": "c_master_id",
          "type": "uint256"
        }
      ],
      "stateMutability": "nonpayable",
      "type": "function"
    },
    {
      "inputs": [
        {
          "internalType": "uint256",
          "name": "_masterId",
          "type": "uint256"
        }
      ],
      "name": "get_rarity",
      "outputs": [
        {
          "internalType": "enum MSNFT.RarityType",
          "name": "",
          "type": "uint8"
        }
      ],
      "stateMutability": "view",
      "type": "function"
    },
    {
      "inputs": [
        {
          "internalType": "uint256",
          "name": "_masterId",
          "type": "uint256"
        }
      ],
      "name": "get_author",
      "outputs": [
        {
          "internalType": "address",
          "name": "_author",
          "type": "address"
        }
      ],
      "stateMutability": "view",
      "type": "function"
    },
    {
      "inputs": [
        {
          "internalType": "address",
          "name": "to",
          "type": "address"
        },
        {
          "internalType": "uint256",
          "name": "m_master_id",
          "type": "uint256"
        }
      ],
      "name": "EmitItem",
      "outputs": [],
      "stateMutability": "nonpayable",
      "type": "function"
    },
    {
      "inputs": [
        {
          "internalType": "address",
          "name": "buyer",
          "type": "address"
        },
        {
          "internalType": "uint256",
          "name": "itemAmount",
          "type": "uint256"
        },
        {
          "internalType": "uint256",
          "name": "master_id",
          "type": "uint256"
        }
      ],
      "name": "buyItem",
      "outputs": [],
      "stateMutability": "nonpayable",
      "type": "function"
    },
    {
      "inputs": [
        {
          "internalType": "uint256",
          "name": "master_id",
          "type": "uint256"
        }
      ],
      "name": "getItemSale",
      "outputs": [
        {
          "internalType": "address",
          "name": "",
          "type": "address"
        }
      ],
      "stateMutability": "view",
      "type": "function"
    }
  ],
  "bytecode": "0x60806040523480156200001157600080fd5b50604051620053fb380380620053fb8339818101604052810190620000379190620001d8565b8181816000908051906020019062000051929190620000b6565b5080600190805190602001906200006a929190620000b6565b50505033600c60006101000a81548173ffffffffffffffffffffffffffffffffffffffff021916908373ffffffffffffffffffffffffffffffffffffffff16021790555050506200037c565b828054620000c490620002e8565b90600052602060002090601f016020900481019282620000e8576000855562000134565b82601f106200010357805160ff191683800117855562000134565b8280016001018555821562000134579182015b828111156200013357825182559160200191906001019062000116565b5b50905062000143919062000147565b5090565b5b808211156200016257600081600090555060010162000148565b5090565b60006200017d62000177846200027f565b6200024b565b9050828152602081018484840111156200019657600080fd5b620001a3848285620002b2565b509392505050565b600082601f830112620001bd57600080fd5b8151620001cf84826020860162000166565b91505092915050565b60008060408385031215620001ec57600080fd5b600083015167ffffffffffffffff8111156200020757600080fd5b6200021585828601620001ab565b925050602083015167ffffffffffffffff8111156200023357600080fd5b6200024185828601620001ab565b9150509250929050565b6000604051905081810181811067ffffffffffffffff821117156200027557620002746200034d565b5b8060405250919050565b600067ffffffffffffffff8211156200029d576200029c6200034d565b5b601f19601f8301169050602081019050919050565b60005b83811015620002d2578082015181840152602081019050620002b5565b83811115620002e2576000848401525b50505050565b600060028204905060018216806200030157607f821691505b602082108114156200031857620003176200031e565b5b50919050565b7f4e487b7100000000000000000000000000000000000000000000000000000000600052602260045260246000fd5b7f4e487b7100000000000000000000000000000000000000000000000000000000600052604160045260246000fd5b61506f806200038c6000396000f3fe608060405234801561001057600080fd5b50600436106101c6576000357c01000000000000000000000000000000000000000000000000000000009004806370a0823111610116578063b88d4fde116100b4578063e985e9c51161008e578063e985e9c514610559578063f1d121c114610589578063f520cb4c146105b9578063f6b45c46146105ed576101c6565b8063b88d4fde146104dd578063be5010b2146104f9578063c87b56dd14610529576101c6565b80639e004ba8116100f05780639e004ba814610445578063a22cb46514610475578063abcc4ff114610491578063b661497a146104ad576101c6565b806370a08231146103db57806394ff3acc1461040b57806395d89b4114610427576101c6565b8063239e1d72116101835780633db804da1161015d5780633db804da1461032f57806342842e0e1461035f5780634f6ccce71461037b5780636352211e146103ab576101c6565b8063239e1d72146102b357806323b872dd146102e35780632f745c59146102ff576101c6565b806301ffc9a7146101cb57806306fdde03146101fb578063081812fc14610219578063095ea7b3146102495780630e304d881461026557806318160ddd14610295575b600080fd5b6101e560048036038101906101e09190613bc0565b610609565b6040516101f291906147e3565b60405180910390f35b610203610683565b6040516102109190614819565b60405180910390f35b610233600480360381019061022e9190613ca5565b610715565b604051610240919061471c565b60405180910390f35b610263600480360381019061025e9190613ae6565b61079a565b005b61027f600480360381019061027a9190613ca5565b6108b2565b60405161028c919061471c565b60405180910390f35b61029d6108ef565b6040516102aa9190614b9c565b60405180910390f35b6102cd60048036038101906102c89190613ca5565b6108fc565b6040516102da91906147fe565b60405180910390f35b6102fd60048036038101906102f891906139e0565b610b44565b005b61031960048036038101906103149190613ae6565b610ba4565b6040516103269190614b9c565b60405180910390f35b61034960048036038101906103449190613ca5565b610c49565b604051610356919061471c565b60405180910390f35b610379600480360381019061037491906139e0565b610c7c565b005b61039560048036038101906103909190613ca5565b610c9c565b6040516103a29190614b9c565b60405180910390f35b6103c560048036038101906103c09190613ca5565b610d33565b6040516103d2919061471c565b60405180910390f35b6103f560048036038101906103f0919061397b565b610de5565b6040516104029190614b9c565b60405180910390f35b61042560048036038101906104209190613b22565b610e9d565b005b61042f6112d2565b60405161043c9190614819565b60405180910390f35b61045f600480360381019061045a9190613ca5565b611364565b60405161046c919061471c565b60405180910390f35b61048f600480360381019061048a9190613aaa565b6113a6565b005b6104ab60048036038101906104a69190613ae6565b611527565b005b6104c760048036038101906104c29190613ca5565b6117f5565b6040516104d4919061471c565b60405180910390f35b6104f760048036038101906104f29190613a2f565b611828565b005b610513600480360381019061050e9190613cce565b61188a565b6040516105209190614b9c565b60405180910390f35b610543600480360381019061053e9190613ca5565b6118bb565b6040516105509190614819565b60405180910390f35b610573600480360381019061056e91906139a4565b611962565b60405161058091906147e3565b60405180910390f35b6105a3600480360381019061059e9190613c12565b6119f6565b6040516105b09190614b9c565b60405180910390f35b6105d360048036038101906105ce9190613ca5565b611ec7565b6040516105e495949392919061483b565b60405180910390f35b61060760048036038101906106029190613b71565b61203a565b005b60007f780e9d63000000000000000000000000000000000000000000000000000000007bffffffffffffffffffffffffffffffffffffffffffffffffffffffff1916827bffffffffffffffffffffffffffffffffffffffffffffffffffffffff1916148061067c575061067b826121a9565b5b9050919050565b60606000805461069290614e21565b80601f01602080910402602001604051908101604052809291908181526020018280546106be90614e21565b801561070b5780601f106106e05761010080835404028352916020019161070b565b820191906000526020600020905b8154815290600101906020018083116106ee57829003601f168201915b5050505050905090565b60006107208261228b565b61075f576040517f08c379a000000000000000000000000000000000000000000000000000000000815260040161075690614a5c565b60405180910390fd5b6004600083815260200190815260200160002060009054906101000a900473ffffffffffffffffffffffffffffffffffffffff169050919050565b60006107a582610d33565b90508073ffffffffffffffffffffffffffffffffffffffff168373ffffffffffffffffffffffffffffffffffffffff161415610816576040517f08c379a000000000000000000000000000000000000000000000000000000000815260040161080d90614adc565b60405180910390fd5b8073ffffffffffffffffffffffffffffffffffffffff166108356122f7565b73ffffffffffffffffffffffffffffffffffffffff16148061086457506108638161085e6122f7565b611962565b5b6108a3576040517f08c379a000000000000000000000000000000000000000000000000000000000815260040161089a906149dc565b60405180910390fd5b6108ad83836122ff565b505050565b60006011600083815260200190815260200160002060009054906101000a900473ffffffffffffffffffffffffffffffffffffffff169050919050565b6000600880549050905090565b6000610906613722565b601260008481526020019081526020016000206040518060a001604052908160008201805461093490614e21565b80601f016020809104026020016040519081016040528092919081815260200182805461096090614e21565b80156109ad5780601f10610982576101008083540402835291602001916109ad565b820191906000526020600020905b81548152906001019060200180831161099057829003601f168201915b505050505081526020016001820180546109c690614e21565b80601f01602080910402602001604051908101604052809291908181526020018280546109f290614e21565b8015610a3f5780601f10610a1457610100808354040283529160200191610a3f565b820191906000526020600020905b815481529060010190602001808311610a2257829003601f168201915b505050505081526020016002820160009054906101000a900473ffffffffffffffffffffffffffffffffffffffff1673ffffffffffffffffffffffffffffffffffffffff1673ffffffffffffffffffffffffffffffffffffffff1681526020016002820160149054906101000a900460ff166002811115610ae9577f4e487b7100000000000000000000000000000000000000000000000000000000600052602160045260246000fd5b6002811115610b21577f4e487b7100000000000000000000000000000000000000000000000000000000600052602160045260246000fd5b815260200160038201548152505090506000816060015190508092505050919050565b610b55610b4f6122f7565b826123b8565b610b94576040517f08c379a0000000000000000000000000000000000000000000000000000000008152600401610b8b90614b1c565b60405180910390fd5b610b9f838383612496565b505050565b6000610baf83610de5565b8210610bf0576040517f08c379a0000000000000000000000000000000000000000000000000000000008152600401610be79061489c565b60405180910390fd5b600660008473ffffffffffffffffffffffffffffffffffffffff1673ffffffffffffffffffffffffffffffffffffffff168152602001908152602001600020600083815260200190815260200160002054905092915050565b60116020528060005260406000206000915054906101000a900473ffffffffffffffffffffffffffffffffffffffff1681565b610c9783838360405180602001604052806000815250611828565b505050565b6000610ca66108ef565b8210610ce7576040517f08c379a0000000000000000000000000000000000000000000000000000000008152600401610cde90614b5c565b60405180910390fd5b60088281548110610d21577f4e487b7100000000000000000000000000000000000000000000000000000000600052603260045260246000fd5b90600052602060002001549050919050565b6000806002600084815260200190815260200160002060009054906101000a900473ffffffffffffffffffffffffffffffffffffffff169050600073ffffffffffffffffffffffffffffffffffffffff168173ffffffffffffffffffffffffffffffffffffffff161415610ddc576040517f08c379a0000000000000000000000000000000000000000000000000000000008152600401610dd390614a1c565b60405180910390fd5b80915050919050565b60008073ffffffffffffffffffffffffffffffffffffffff168273ffffffffffffffffffffffffffffffffffffffff161415610e56576040517f08c379a0000000000000000000000000000000000000000000000000000000008152600401610e4d906149fc565b60405180910390fd5b600360008373ffffffffffffffffffffffffffffffffffffffff1673ffffffffffffffffffffffffffffffffffffffff168152602001908152602001600020549050919050565b600c60009054906101000a900473ffffffffffffffffffffffffffffffffffffffff1673ffffffffffffffffffffffffffffffffffffffff163373ffffffffffffffffffffffffffffffffffffffff1614610f2d576040517f08c379a0000000000000000000000000000000000000000000000000000000008152600401610f249061497c565b60405180910390fd5b610f35613722565b601260008481526020019081526020016000206040518060a0016040529081600082018054610f6390614e21565b80601f0160208091040260200160405190810160405280929190818152602001828054610f8f90614e21565b8015610fdc5780601f10610fb157610100808354040283529160200191610fdc565b820191906000526020600020905b815481529060010190602001808311610fbf57829003601f168201915b50505050508152602001600182018054610ff590614e21565b80601f016020809104026020016040519081016040528092919081815260200182805461102190614e21565b801561106e5780601f106110435761010080835404028352916020019161106e565b820191906000526020600020905b81548152906001019060200180831161105157829003601f168201915b505050505081526020016002820160009054906101000a900473ffffffffffffffffffffffffffffffffffffffff1673ffffffffffffffffffffffffffffffffffffffff1673ffffffffffffffffffffffffffffffffffffffff1681526020016002820160149054906101000a900460ff166002811115611118577f4e487b7100000000000000000000000000000000000000000000000000000000600052602160045260246000fd5b6002811115611150577f4e487b7100000000000000000000000000000000000000000000000000000000600052602160045260246000fd5b815260200160038201548152505090506000816040015190508473ffffffffffffffffffffffffffffffffffffffff168173ffffffffffffffffffffffffffffffffffffffff16146111d7576040517f08c379a00000000000000000000000000000000000000000000000000000000081526004016111ce906148fc565b60405180910390fd5b600073ffffffffffffffffffffffffffffffffffffffff16600d600086815260200190815260200160002060009054906101000a900473ffffffffffffffffffffffffffffffffffffffff1673ffffffffffffffffffffffffffffffffffffffff1614611279576040517f08c379a000000000000000000000000000000000000000000000000000000000815260040161127090614afc565b60405180910390fd5b82600d600086815260200190815260200160002060006101000a81548173ffffffffffffffffffffffffffffffffffffffff021916908373ffffffffffffffffffffffffffffffffffffffff1602179055505050505050565b6060600180546112e190614e21565b80601f016020809104026020016040519081016040528092919081815260200182805461130d90614e21565b801561135a5780601f1061132f5761010080835404028352916020019161135a565b820191906000526020600020905b81548152906001019060200180831161133d57829003601f168201915b5050505050905090565b600080600d600084815260200190815260200160002060009054906101000a900473ffffffffffffffffffffffffffffffffffffffff16905080915050919050565b6113ae6122f7565b73ffffffffffffffffffffffffffffffffffffffff168273ffffffffffffffffffffffffffffffffffffffff16141561141c576040517f08c379a00000000000000000000000000000000000000000000000000000000081526004016114139061493c565b60405180910390fd5b80600560006114296122f7565b73ffffffffffffffffffffffffffffffffffffffff1673ffffffffffffffffffffffffffffffffffffffff16815260200190815260200160002060008473ffffffffffffffffffffffffffffffffffffffff1673ffffffffffffffffffffffffffffffffffffffff16815260200190815260200160002060006101000a81548160ff0219169083151502179055508173ffffffffffffffffffffffffffffffffffffffff166114d66122f7565b73ffffffffffffffffffffffffffffffffffffffff167f17307eab39ab6107e8899845ad3d59bd9653f200f220920489ca2b5937696c318360405161151b91906147e3565b60405180910390a35050565b61152f613722565b601260008381526020019081526020016000206040518060a001604052908160008201805461155d90614e21565b80601f016020809104026020016040519081016040528092919081815260200182805461158990614e21565b80156115d65780601f106115ab576101008083540402835291602001916115d6565b820191906000526020600020905b8154815290600101906020018083116115b957829003601f168201915b505050505081526020016001820180546115ef90614e21565b80601f016020809104026020016040519081016040528092919081815260200182805461161b90614e21565b80156116685780601f1061163d57610100808354040283529160200191611668565b820191906000526020600020905b81548152906001019060200180831161164b57829003601f168201915b505050505081526020016002820160009054906101000a900473ffffffffffffffffffffffffffffffffffffffff1673ffffffffffffffffffffffffffffffffffffffff1673ffffffffffffffffffffffffffffffffffffffff1681526020016002820160149054906101000a900460ff166002811115611712577f4e487b7100000000000000000000000000000000000000000000000000000000600052602160045260246000fd5b600281111561174a577f4e487b7100000000000000000000000000000000000000000000000000000000600052602160045260246000fd5b81526020016003820154815250509050806040015173ffffffffffffffffffffffffffffffffffffffff163373ffffffffffffffffffffffffffffffffffffffff16146117cc576040517f08c379a00000000000000000000000000000000000000000000000000000000081526004016117c390614b3c565b60405180910390fd5b6117d6600a6126f2565b60006117e2600a612708565b90506117ef848483612716565b50505050565b600d6020528060005260406000206000915054906101000a900473ffffffffffffffffffffffffffffffffffffffff1681565b6118396118336122f7565b836123b8565b611878576040517f08c379a000000000000000000000000000000000000000000000000000000000815260040161186f90614b1c565b60405180910390fd5b61188484848484612b72565b50505050565b600e60205281600052604060002081815481106118a657600080fd5b90600052602060002001600091509150505481565b60606118c68261228b565b611905576040517f08c379a00000000000000000000000000000000000000000000000000000000081526004016118fc90614abc565b60405180910390fd5b600061190f612bce565b9050600081511161192f576040518060200160405280600081525061195a565b8061193984612be5565b60405160200161194a9291906146f8565b6040516020818303038152906040525b915050919050565b6000600560008473ffffffffffffffffffffffffffffffffffffffff1673ffffffffffffffffffffffffffffffffffffffff16815260200190815260200160002060008373ffffffffffffffffffffffffffffffffffffffff1673ffffffffffffffffffffffffffffffffffffffff16815260200190815260200160002060009054906101000a900460ff16905092915050565b6000600c60009054906101000a900473ffffffffffffffffffffffffffffffffffffffff1673ffffffffffffffffffffffffffffffffffffffff163373ffffffffffffffffffffffffffffffffffffffff1614611a88576040517f08c379a0000000000000000000000000000000000000000000000000000000008152600401611a7f9061495c565b60405180910390fd5b6000611a9385612db1565b90506000611aa084612e4b565b9050600060016002811115611ade577f4e487b7100000000000000000000000000000000000000000000000000000000600052602160045260246000fd5b826002811115611b17577f4e487b7100000000000000000000000000000000000000000000000000000000600052602160045260246000fd5b1415611b21578490505b60006002811115611b5b577f4e487b7100000000000000000000000000000000000000000000000000000000600052602160045260246000fd5b826002811115611b94577f4e487b7100000000000000000000000000000000000000000000000000000000600052602160045260246000fd5b1415611b9f57600190505b600280811115611bd8577f4e487b7100000000000000000000000000000000000000000000000000000000600052602160045260246000fd5b826002811115611c11577f4e487b7100000000000000000000000000000000000000000000000000000000600052602160045260246000fd5b1415611c1c57600090505b6040518060a001604052808981526020018781526020018873ffffffffffffffffffffffffffffffffffffffff168152602001836002811115611c88577f4e487b7100000000000000000000000000000000000000000000000000000000600052602160045260246000fd5b815260200182815250601260008581526020019081526020016000206000820151816000019080519060200190611cc092919061379f565b506020820151816001019080519060200190611cdd92919061379f565b5060408201518160020160006101000a81548173ffffffffffffffffffffffffffffffffffffffff021916908373ffffffffffffffffffffffffffffffffffffffff16021790555060608201518160020160146101000a81548160ff02191690836002811115611d76577f4e487b7100000000000000000000000000000000000000000000000000000000600052602160045260246000fd5b021790555060808201518160030155905050866011600085815260200190815260200160002060006101000a81548173ffffffffffffffffffffffffffffffffffffffff021916908373ffffffffffffffffffffffffffffffffffffffff16021790555087604051611de891906146e1565b604051809103902086604051611dfe91906146e1565b60405180910390208873ffffffffffffffffffffffffffffffffffffffff167fba6060494b3d8c725eb188a99bb81350295c389a6f34667f9880659df06f17c386604051611e4c9190614b9c565b60405180910390a487604051611e6291906146e1565b604051809103902086604051611e7891906146e1565b60405180910390207f12c2dc801e0f0b6bc9cbba6cd67d7094390753fe1eef4b4b57ab666fe32cf3898986604051611eb1929190614783565b60405180910390a3829350505050949350505050565b6012602052806000526040600020600091509050806000018054611eea90614e21565b80601f0160208091040260200160405190810160405280929190818152602001828054611f1690614e21565b8015611f635780601f10611f3857610100808354040283529160200191611f63565b820191906000526020600020905b815481529060010190602001808311611f4657829003601f168201915b505050505090806001018054611f7890614e21565b80601f0160208091040260200160405190810160405280929190818152602001828054611fa490614e21565b8015611ff15780601f10611fc657610100808354040283529160200191611ff1565b820191906000526020600020905b815481529060010190602001808311611fd457829003601f168201915b5050505050908060020160009054906101000a900473ffffffffffffffffffffffffffffffffffffffff16908060020160149054906101000a900460ff16908060030154905085565b6000600d600083815260200190815260200160002060009054906101000a900473ffffffffffffffffffffffffffffffffffffffff1690503373ffffffffffffffffffffffffffffffffffffffff168173ffffffffffffffffffffffffffffffffffffffff16146120e0576040517f08c379a00000000000000000000000000000000000000000000000000000000081526004016120d7906149bc565b60405180910390fd5b60005b838110156121a2576120f5600a6126f2565b6000612101600a612708565b905061210e868583612716565b80848773ffffffffffffffffffffffffffffffffffffffff167ffe2094c9ff56716cb07edf0cff82da158f346cb3bb2d89703228ab4eb0c329b660405160405180910390a47f2550da409a7fd6a0b8e2a7af9372f4297635788f07cf08c3d5ed13ab297ad593868583604051612186939291906147ac565b60405180910390a150808061219a90614e53565b9150506120e3565b5050505050565b60007f80ac58cd000000000000000000000000000000000000000000000000000000007bffffffffffffffffffffffffffffffffffffffffffffffffffffffff1916827bffffffffffffffffffffffffffffffffffffffffffffffffffffffff1916148061227457507f5b5e139f000000000000000000000000000000000000000000000000000000007bffffffffffffffffffffffffffffffffffffffffffffffffffffffff1916827bffffffffffffffffffffffffffffffffffffffffffffffffffffffff1916145b80612284575061228382612e77565b5b9050919050565b60008073ffffffffffffffffffffffffffffffffffffffff166002600084815260200190815260200160002060009054906101000a900473ffffffffffffffffffffffffffffffffffffffff1673ffffffffffffffffffffffffffffffffffffffff1614159050919050565b600033905090565b816004600083815260200190815260200160002060006101000a81548173ffffffffffffffffffffffffffffffffffffffff021916908373ffffffffffffffffffffffffffffffffffffffff160217905550808273ffffffffffffffffffffffffffffffffffffffff1661237283610d33565b73ffffffffffffffffffffffffffffffffffffffff167f8c5be1e5ebec7d5bd14f71427d1e84f3dd0314c0f7b2291e5b200ac8c7c3b92560405160405180910390a45050565b60006123c38261228b565b612402576040517f08c379a00000000000000000000000000000000000000000000000000000000081526004016123f99061499c565b60405180910390fd5b600061240d83610d33565b90508073ffffffffffffffffffffffffffffffffffffffff168473ffffffffffffffffffffffffffffffffffffffff16148061247c57508373ffffffffffffffffffffffffffffffffffffffff1661246484610715565b73ffffffffffffffffffffffffffffffffffffffff16145b8061248d575061248c8185611962565b5b91505092915050565b8273ffffffffffffffffffffffffffffffffffffffff166124b682610d33565b73ffffffffffffffffffffffffffffffffffffffff161461250c576040517f08c379a000000000000000000000000000000000000000000000000000000000815260040161250390614a7c565b60405180910390fd5b600073ffffffffffffffffffffffffffffffffffffffff168273ffffffffffffffffffffffffffffffffffffffff16141561257c576040517f08c379a00000000000000000000000000000000000000000000000000000000081526004016125739061491c565b60405180910390fd5b612587838383612ee1565b6125926000826122ff565b6001600360008573ffffffffffffffffffffffffffffffffffffffff1673ffffffffffffffffffffffffffffffffffffffff16815260200190815260200160002060008282546125e29190614d12565b925050819055506001600360008473ffffffffffffffffffffffffffffffffffffffff1673ffffffffffffffffffffffffffffffffffffffff16815260200190815260200160002060008282546126399190614c8b565b92505081905550816002600083815260200190815260200160002060006101000a81548173ffffffffffffffffffffffffffffffffffffffff021916908373ffffffffffffffffffffffffffffffffffffffff160217905550808273ffffffffffffffffffffffffffffffffffffffff168473ffffffffffffffffffffffffffffffffffffffff167fddf252ad1be2c89b69c2b068fc378daa952ba7f163c4a11628f55a4df523b3ef60405160405180910390a4505050565b6001816000016000828254019250508190555050565b600081600001549050919050565b61271e613722565b601260008481526020019081526020016000206040518060a001604052908160008201805461274c90614e21565b80601f016020809104026020016040519081016040528092919081815260200182805461277890614e21565b80156127c55780601f1061279a576101008083540402835291602001916127c5565b820191906000526020600020905b8154815290600101906020018083116127a857829003601f168201915b505050505081526020016001820180546127de90614e21565b80601f016020809104026020016040519081016040528092919081815260200182805461280a90614e21565b80156128575780601f1061282c57610100808354040283529160200191612857565b820191906000526020600020905b81548152906001019060200180831161283a57829003601f168201915b505050505081526020016002820160009054906101000a900473ffffffffffffffffffffffffffffffffffffffff1673ffffffffffffffffffffffffffffffffffffffff1673ffffffffffffffffffffffffffffffffffffffff1681526020016002820160149054906101000a900460ff166002811115612901577f4e487b7100000000000000000000000000000000000000000000000000000000600052602160045260246000fd5b6002811115612939577f4e487b7100000000000000000000000000000000000000000000000000000000600052602160045260246000fd5b8152602001600382015481525050905060006002811115612983577f4e487b7100000000000000000000000000000000000000000000000000000000600052602160045260246000fd5b816060015160028111156129c0577f4e487b7100000000000000000000000000000000000000000000000000000000600052602160045260246000fd5b1415612a20576000600e60008581526020019081526020016000208054905014612a1f576040517f08c379a0000000000000000000000000000000000000000000000000000000008152600401612a1690614a9c565b60405180910390fd5b5b60016002811115612a5a577f4e487b7100000000000000000000000000000000000000000000000000000000600052602160045260246000fd5b81606001516002811115612a97577f4e487b7100000000000000000000000000000000000000000000000000000000600052602160045260246000fd5b1415612afa578060800151600e60008581526020019081526020016000208054905010612af9576040517f08c379a0000000000000000000000000000000000000000000000000000000008152600401612af090614b7c565b60405180910390fd5b5b612b048483612ff5565b600e600084815260200190815260200160002080549050600f600084815260200190815260200160002081905550600e600084815260200190815260200160002082908060018154018082558091505060019003906000526020600020016000909190919091505550505050565b612b7d848484612496565b612b89848484846131c3565b612bc8576040517f08c379a0000000000000000000000000000000000000000000000000000000008152600401612bbf906148bc565b60405180910390fd5b50505050565b606060405180602001604052806000815250905090565b60606000821415612c2d576040518060400160405280600181526020017f30000000000000000000000000000000000000000000000000000000000000008152509050612dac565b600082905060005b60008214612c5f578080612c4890614e53565b915050600a82612c589190614ce1565b9150612c35565b60008167ffffffffffffffff811115612ca1577f4e487b7100000000000000000000000000000000000000000000000000000000600052604160045260246000fd5b6040519080825280601f01601f191660200182016040528015612cd35781602001600182028036833780820191505090505b5090505b60008514612da557600182612cec9190614d12565b9150600a85612cfb9190614e9c565b6030612d079190614c8b565b7f010000000000000000000000000000000000000000000000000000000000000002818381518110612d62577f4e487b7100000000000000000000000000000000000000000000000000000000600052603260045260246000fd5b60200101907effffffffffffffffffffffffffffffffffffffffffffffffffffffffffffff1916908160001a905350600a85612d9e9190614ce1565b9450612cd7565b8093505050505b919050565b6000612dbd600b6126f2565b612dc7600b612708565b9050808273ffffffffffffffffffffffffffffffffffffffff167f42ff04921a81aac6b1b91bb0c423fb8405d7fce459953ab5fc98ed27744691be60405160405180910390a37f8e1c0dfd342869718621c5de225aa832476d36b5cab6accbcf4c07aa496eaf1c8282604051612e3e929190614783565b60405180910390a1919050565b60006001821415612e5b57600090505b6000821415612e6d5760029050612e72565b600190505b919050565b60007f01ffc9a7000000000000000000000000000000000000000000000000000000007bffffffffffffffffffffffffffffffffffffffffffffffffffffffff1916827bffffffffffffffffffffffffffffffffffffffffffffffffffffffff1916149050919050565b612eec838383613392565b600073ffffffffffffffffffffffffffffffffffffffff168373ffffffffffffffffffffffffffffffffffffffff161415612f2f57612f2a81613397565b612f6e565b8173ffffffffffffffffffffffffffffffffffffffff168373ffffffffffffffffffffffffffffffffffffffff1614612f6d57612f6c83826133e0565b5b5b600073ffffffffffffffffffffffffffffffffffffffff168273ffffffffffffffffffffffffffffffffffffffff161415612fb157612fac8161354d565b612ff0565b8273ffffffffffffffffffffffffffffffffffffffff168273ffffffffffffffffffffffffffffffffffffffff1614612fef57612fee8282613690565b5b5b505050565b600073ffffffffffffffffffffffffffffffffffffffff168273ffffffffffffffffffffffffffffffffffffffff161415613065576040517f08c379a000000000000000000000000000000000000000000000000000000000815260040161305c90614a3c565b60405180910390fd5b61306e8161228b565b156130ae576040517f08c379a00000000000000000000000000000000000000000000000000000000081526004016130a5906148dc565b60405180910390fd5b6130ba60008383612ee1565b6001600360008473ffffffffffffffffffffffffffffffffffffffff1673ffffffffffffffffffffffffffffffffffffffff168152602001908152602001600020600082825461310a9190614c8b565b92505081905550816002600083815260200190815260200160002060006101000a81548173ffffffffffffffffffffffffffffffffffffffff021916908373ffffffffffffffffffffffffffffffffffffffff160217905550808273ffffffffffffffffffffffffffffffffffffffff16600073ffffffffffffffffffffffffffffffffffffffff167fddf252ad1be2c89b69c2b068fc378daa952ba7f163c4a11628f55a4df523b3ef60405160405180910390a45050565b60006131e48473ffffffffffffffffffffffffffffffffffffffff1661370f565b15613385578373ffffffffffffffffffffffffffffffffffffffff1663150b7a0261320d6122f7565b8786866040518563ffffffff167c010000000000000000000000000000000000000000000000000000000002815260040161324b9493929190614737565b602060405180830381600087803b15801561326557600080fd5b505af192505050801561329657506040513d601f19601f820116820180604052508101906132939190613be9565b60015b613319573d80600081146132c6576040519150601f19603f3d011682016040523d82523d6000602084013e6132cb565b606091505b50600081511415613311576040517f08c379a0000000000000000000000000000000000000000000000000000000008152600401613308906148bc565b60405180910390fd5b805181602001fd5b63150b7a027c0100000000000000000000000000000000000000000000000000000000027bffffffffffffffffffffffffffffffffffffffffffffffffffffffff1916817bffffffffffffffffffffffffffffffffffffffffffffffffffffffff19161491505061338a565b600190505b949350505050565b505050565b6008805490506009600083815260200190815260200160002081905550600881908060018154018082558091505060019003906000526020600020016000909190919091505550565b600060016133ed84610de5565b6133f79190614d12565b90506000600760008481526020019081526020016000205490508181146134dc576000600660008673ffffffffffffffffffffffffffffffffffffffff1673ffffffffffffffffffffffffffffffffffffffff168152602001908152602001600020600084815260200190815260200160002054905080600660008773ffffffffffffffffffffffffffffffffffffffff1673ffffffffffffffffffffffffffffffffffffffff168152602001908152602001600020600084815260200190815260200160002081905550816007600083815260200190815260200160002081905550505b6007600084815260200190815260200160002060009055600660008573ffffffffffffffffffffffffffffffffffffffff1673ffffffffffffffffffffffffffffffffffffffff16815260200190815260200160002060008381526020019081526020016000206000905550505050565b600060016008805490506135619190614d12565b90506000600960008481526020019081526020016000205490506000600883815481106135b7577f4e487b7100000000000000000000000000000000000000000000000000000000600052603260045260246000fd5b9060005260206000200154905080600883815481106135ff577f4e487b7100000000000000000000000000000000000000000000000000000000600052603260045260246000fd5b906000526020600020018190555081600960008381526020019081526020016000208190555060096000858152602001908152602001600020600090556008805480613674577f4e487b7100000000000000000000000000000000000000000000000000000000600052603160045260246000fd5b6001900381819060005260206000200160009055905550505050565b600061369b83610de5565b905081600660008573ffffffffffffffffffffffffffffffffffffffff1673ffffffffffffffffffffffffffffffffffffffff168152602001908152602001600020600083815260200190815260200160002081905550806007600084815260200190815260200160002081905550505050565b600080823b905060008111915050919050565b6040518060a001604052806060815260200160608152602001600073ffffffffffffffffffffffffffffffffffffffff16815260200160006002811115613792577f4e487b7100000000000000000000000000000000000000000000000000000000600052602160045260246000fd5b8152602001600081525090565b8280546137ab90614e21565b90600052602060002090601f0160209004810192826137cd5760008555613814565b82601f106137e657805160ff1916838001178555613814565b82800160010185558215613814579182015b828111156138135782518255916020019190600101906137f8565b5b5090506138219190613825565b5090565b5b8082111561383e576000816000905550600101613826565b5090565b600061385561385084614be8565b614bb7565b90508281526020810184848401111561386d57600080fd5b613878848285614ddf565b509392505050565b600061389361388e84614c18565b614bb7565b9050828152602081018484840111156138ab57600080fd5b6138b6848285614ddf565b509392505050565b6000813590506138cd81614fdd565b92915050565b6000813590506138e281614ff4565b92915050565b6000813590506138f78161500b565b92915050565b60008151905061390c8161500b565b92915050565b600082601f83011261392357600080fd5b8135613933848260208601613842565b91505092915050565b600082601f83011261394d57600080fd5b813561395d848260208601613880565b91505092915050565b60008135905061397581615022565b92915050565b60006020828403121561398d57600080fd5b600061399b848285016138be565b91505092915050565b600080604083850312156139b757600080fd5b60006139c5858286016138be565b92505060206139d6858286016138be565b9150509250929050565b6000806000606084860312156139f557600080fd5b6000613a03868287016138be565b9350506020613a14868287016138be565b9250506040613a2586828701613966565b9150509250925092565b60008060008060808587031215613a4557600080fd5b6000613a53878288016138be565b9450506020613a64878288016138be565b9350506040613a7587828801613966565b925050606085013567ffffffffffffffff811115613a9257600080fd5b613a9e87828801613912565b91505092959194509250565b60008060408385031215613abd57600080fd5b6000613acb858286016138be565b9250506020613adc858286016138d3565b9150509250929050565b60008060408385031215613af957600080fd5b6000613b07858286016138be565b9250506020613b1885828601613966565b9150509250929050565b600080600060608486031215613b3757600080fd5b6000613b45868287016138be565b9350506020613b5686828701613966565b9250506040613b67868287016138be565b9150509250925092565b600080600060608486031215613b8657600080fd5b6000613b94868287016138be565b9350506020613ba586828701613966565b9250506040613bb686828701613966565b9150509250925092565b600060208284031215613bd257600080fd5b6000613be0848285016138e8565b91505092915050565b600060208284031215613bfb57600080fd5b6000613c09848285016138fd565b91505092915050565b60008060008060808587031215613c2857600080fd5b600085013567ffffffffffffffff811115613c4257600080fd5b613c4e8782880161393c565b9450506020613c5f878288016138be565b935050604085013567ffffffffffffffff811115613c7c57600080fd5b613c888782880161393c565b9250506060613c9987828801613966565b91505092959194509250565b600060208284031215613cb757600080fd5b6000613cc584828501613966565b91505092915050565b60008060408385031215613ce157600080fd5b6000613cef85828601613966565b9250506020613d0085828601613966565b9150509250929050565b613d1381614d46565b82525050565b613d2281614d58565b82525050565b6000613d3382614c48565b613d3d8185614c5e565b9350613d4d818560208601614dee565b613d5681614fb8565b840191505092915050565b613d6a81614dcd565b82525050565b6000613d7b82614c53565b613d858185614c6f565b9350613d95818560208601614dee565b613d9e81614fb8565b840191505092915050565b6000613db482614c53565b613dbe8185614c80565b9350613dce818560208601614dee565b80840191505092915050565b6000613de7602b83614c6f565b91507f455243373231456e756d657261626c653a206f776e657220696e646578206f7560008301527f74206f6620626f756e64730000000000000000000000000000000000000000006020830152604082019050919050565b6000613e4d603283614c6f565b91507f4552433732313a207472616e7366657220746f206e6f6e20455243373231526560008301527f63656976657220696d706c656d656e74657200000000000000000000000000006020830152604082019050919050565b6000613eb3601c83614c6f565b91507f4552433732313a20746f6b656e20616c7265616479206d696e746564000000006000830152602082019050919050565b6000613ef3601f83614c6f565b91507f796f7520646f6e2774206f776e20746f2074686973206d6173746572206964006000830152602082019050919050565b6000613f33602483614c6f565b91507f4552433732313a207472616e7366657220746f20746865207a65726f2061646460008301527f72657373000000000000000000000000000000000000000000000000000000006020830152604082019050919050565b6000613f99601983614c6f565b91507f4552433732313a20617070726f766520746f2063616c6c6572000000000000006000830152602082019050919050565b6000613fd9603283614c6f565b91507f4d534e46543a206f6e6c7920666163746f727920636f6e74726163742063616e60008301527f20637265617465206d6173746572636f707900000000000000000000000000006020830152604082019050919050565b600061403f602f83614c6f565b91507f4d534e46543a206f6e6c7920666163746f727920636f6e74726163742063616e60008301527f20706c75672063726f776473616c6500000000000000000000000000000000006020830152604082019050919050565b60006140a5602c83614c6f565b91507f4552433732313a206f70657261746f7220717565727920666f72206e6f6e657860008301527f697374656e7420746f6b656e00000000000000000000000000000000000000006020830152604082019050919050565b600061410b603583614c6f565b91507f4d534e46543a20796f752073686f756c642063616c6c206275794974656d206660008301527f726f6d206974656d73616c6520636f6e747261637400000000000000000000006020830152604082019050919050565b6000614171603883614c6f565b91507f4552433732313a20617070726f76652063616c6c6572206973206e6f74206f7760008301527f6e6572206e6f7220617070726f76656420666f7220616c6c00000000000000006020830152604082019050919050565b60006141d7602a83614c6f565b91507f4552433732313a2062616c616e636520717565727920666f7220746865207a6560008301527f726f2061646472657373000000000000000000000000000000000000000000006020830152604082019050919050565b600061423d602983614c6f565b91507f4552433732313a206f776e657220717565727920666f72206e6f6e657869737460008301527f656e7420746f6b656e00000000000000000000000000000000000000000000006020830152604082019050919050565b60006142a3602083614c6f565b91507f4552433732313a206d696e7420746f20746865207a65726f20616464726573736000830152602082019050919050565b60006142e3602c83614c6f565b91507f4552433732313a20617070726f76656420717565727920666f72206e6f6e657860008301527f697374656e7420746f6b656e00000000000000000000000000000000000000006020830152604082019050919050565b6000614349602983614c6f565b91507f4552433732313a207472616e73666572206f6620746f6b656e2074686174206960008301527f73206e6f74206f776e00000000000000000000000000000000000000000000006020830152604082019050919050565b60006143af603683614c6f565b91507f4d534e46543a204d494e543a2074727920746f206d696e74206d6f726520746860008301527f616e206f6e65206f6620556e69717565204974656d73000000000000000000006020830152604082019050919050565b6000614415602f83614c6f565b91507f4552433732314d657461646174613a2055524920717565727920666f72206e6f60008301527f6e6578697374656e7420746f6b656e00000000000000000000000000000000006020830152604082019050919050565b600061447b602183614c6f565b91507f4552433732313a20617070726f76616c20746f2063757272656e74206f776e6560008301527f72000000000000000000000000000000000000000000000000000000000000006020830152604082019050919050565b60006144e1602583614c6f565b91507f4d534e46543a20796f7520616c7265616479206861766520706c75676765642060008301527f73616c65200000000000000000000000000000000000000000000000000000006020830152604082019050919050565b6000614547603183614c6f565b91507f4552433732313a207472616e736665722063616c6c6572206973206e6f74206f60008301527f776e6572206e6f7220617070726f7665640000000000000000000000000000006020830152604082019050919050565b60006145ad603183614c6f565b91507f4d534e46543a206f6e6c7920617574686f722063616e20656d6974206974656d60008301527f73206f757473696465206f662073616c650000000000000000000000000000006020830152604082019050919050565b6000614613602c83614c6f565b91507f455243373231456e756d657261626c653a20676c6f62616c20696e646578206f60008301527f7574206f6620626f756e647300000000000000000000000000000000000000006020830152604082019050919050565b6000614679603d83614c6f565b91507f204d534e46543a204d494e543a2074727920746f206d696e74206d6f7265207460008301527f68616e20746f74616c537570706c79206f66205261726520746f6b656e0000006020830152604082019050919050565b6146db81614dc3565b82525050565b60006146ed8284613da9565b915081905092915050565b60006147048285613da9565b91506147108284613da9565b91508190509392505050565b60006020820190506147316000830184613d0a565b92915050565b600060808201905061474c6000830187613d0a565b6147596020830186613d0a565b61476660408301856146d2565b81810360608301526147788184613d28565b905095945050505050565b60006040820190506147986000830185613d0a565b6147a560208301846146d2565b9392505050565b60006060820190506147c16000830186613d0a565b6147ce60208301856146d2565b6147db60408301846146d2565b949350505050565b60006020820190506147f86000830184613d19565b92915050565b60006020820190506148136000830184613d61565b92915050565b600060208201905081810360008301526148338184613d70565b905092915050565b600060a08201905081810360008301526148558188613d70565b905081810360208301526148698187613d70565b90506148786040830186613d0a565b6148856060830185613d61565b61489260808301846146d2565b9695505050505050565b600060208201905081810360008301526148b581613dda565b9050919050565b600060208201905081810360008301526148d581613e40565b9050919050565b600060208201905081810360008301526148f581613ea6565b9050919050565b6000602082019050818103600083015261491581613ee6565b9050919050565b6000602082019050818103600083015261493581613f26565b9050919050565b6000602082019050818103600083015261495581613f8c565b9050919050565b6000602082019050818103600083015261497581613fcc565b9050919050565b6000602082019050818103600083015261499581614032565b9050919050565b600060208201905081810360008301526149b581614098565b9050919050565b600060208201905081810360008301526149d5816140fe565b9050919050565b600060208201905081810360008301526149f581614164565b9050919050565b60006020820190508181036000830152614a15816141ca565b9050919050565b60006020820190508181036000830152614a3581614230565b9050919050565b60006020820190508181036000830152614a5581614296565b9050919050565b60006020820190508181036000830152614a75816142d6565b9050919050565b60006020820190508181036000830152614a958161433c565b9050919050565b60006020820190508181036000830152614ab5816143a2565b9050919050565b60006020820190508181036000830152614ad581614408565b9050919050565b60006020820190508181036000830152614af58161446e565b9050919050565b60006020820190508181036000830152614b15816144d4565b9050919050565b60006020820190508181036000830152614b358161453a565b9050919050565b60006020820190508181036000830152614b55816145a0565b9050919050565b60006020820190508181036000830152614b7581614606565b9050919050565b60006020820190508181036000830152614b958161466c565b9050919050565b6000602082019050614bb160008301846146d2565b92915050565b6000604051905081810181811067ffffffffffffffff82111715614bde57614bdd614f89565b5b8060405250919050565b600067ffffffffffffffff821115614c0357614c02614f89565b5b601f19601f8301169050602081019050919050565b600067ffffffffffffffff821115614c3357614c32614f89565b5b601f19601f8301169050602081019050919050565b600081519050919050565b600081519050919050565b600082825260208201905092915050565b600082825260208201905092915050565b600081905092915050565b6000614c9682614dc3565b9150614ca183614dc3565b9250827fffffffffffffffffffffffffffffffffffffffffffffffffffffffffffffffff03821115614cd657614cd5614ecd565b5b828201905092915050565b6000614cec82614dc3565b9150614cf783614dc3565b925082614d0757614d06614efc565b5b828204905092915050565b6000614d1d82614dc3565b9150614d2883614dc3565b925082821015614d3b57614d3a614ecd565b5b828203905092915050565b6000614d5182614da3565b9050919050565b60008115159050919050565b60007fffffffff0000000000000000000000000000000000000000000000000000000082169050919050565b6000819050614d9e82614fc9565b919050565b600073ffffffffffffffffffffffffffffffffffffffff82169050919050565b6000819050919050565b6000614dd882614d90565b9050919050565b82818337600083830152505050565b60005b83811015614e0c578082015181840152602081019050614df1565b83811115614e1b576000848401525b50505050565b60006002820490506001821680614e3957607f821691505b60208210811415614e4d57614e4c614f5a565b5b50919050565b6000614e5e82614dc3565b91507fffffffffffffffffffffffffffffffffffffffffffffffffffffffffffffffff821415614e9157614e90614ecd565b5b600182019050919050565b6000614ea782614dc3565b9150614eb283614dc3565b925082614ec257614ec1614efc565b5b828206905092915050565b7f4e487b7100000000000000000000000000000000000000000000000000000000600052601160045260246000fd5b7f4e487b7100000000000000000000000000000000000000000000000000000000600052601260045260246000fd5b7f4e487b7100000000000000000000000000000000000000000000000000000000600052602160045260246000fd5b7f4e487b7100000000000000000000000000000000000000000000000000000000600052602260045260246000fd5b7f4e487b7100000000000000000000000000000000000000000000000000000000600052604160045260246000fd5b6000601f19601f8301169050919050565b60038110614fda57614fd9614f2b565b5b50565b614fe681614d46565b8114614ff157600080fd5b50565b614ffd81614d58565b811461500857600080fd5b50565b61501481614d64565b811461501f57600080fd5b50565b61502b81614dc3565b811461503657600080fd5b5056fea26469706673582212201b0aa502ee4af084fec438ebbfaf1fc53ed71865d8e4ef85614baf3bc15416a164736f6c63430008000033",
  "immutableReferences": {},
  "source": "pragma solidity ^0.8.0;\n//\"SPDX-License-Identifier: UNLICENSED\"\n\nimport \"../../../node_modules/@openzeppelin/contracts/token/ERC721/extensions/ERC721Enumerable.sol\";\nimport \"../../../node_modules/@openzeppelin/contracts/token/ERC721/ERC721.sol\";\n//import \"../../../node_modules/@openzeppelin/contracts/token/ERC721/presets/ERC721PresetMinterPauserAutoId.sol\";\nimport \"../../../node_modules/@openzeppelin/contracts/utils/Counters.sol\";\nimport \"../../../node_modules/@openzeppelin/contracts/utils/math/SafeMath.sol\";\n\n\n\n\n\n\n// @todo: remove it\n// Ticket is ERC721 (NFT) token with  availability to reedem tickets\n\n/**\n\n    ERC-721 is non-fungible token.  So, each tokenID is a unique ticket\n\n    Usefull tips:\n    // Mapping from owner to list of owned token IDs\n    mapping(address => uint256[]) private _ownedTokens;\n\n    // Mapping from token ID to index of the owner tokens list\n    mapping(uint256 => uint256) private _ownedTokensIndex;\n\n    // Array with all token ids, used for enumeration\n    uint256[] private _allTokens;\n\n    // Mapping from token id to position in the allTokens array\n    mapping(uint256 => uint256) private _allTokensIndex;\n\n    Gets the list of token IDs of the requested owner.\n     function _tokensOfOwner(address owner) internal view returns (uint256[] storage) {\n        return _ownedTokens[owner];\n    }\n\n\n\n **/\n\ncontract MSNFT is ERC721Enumerable {\n   using SafeMath for uint256;\n   using Counters for Counters.Counter;\n\n\n\n    // Master -- Mastercopy, abstraction\n    // Item -- originate from mastercopy (nft-token)\n\n\n\n    //events\n    event ItemBought(address indexed buyer,uint256 indexed master_id, uint256 indexed item_id);\n    event ItemBoughtHuman(address buyer,uint256 master_id, uint256 item_id);\n\n\n    // Service event for debug\n    event MasterIdReserved(address indexed author, uint256 indexed master_id);\n    event MasterIdReservedHuman(address author, uint256 master_id);\n\n    // MasterCopyCreation\n    event MaterCopyCreated(address indexed author, uint256 master_id, string indexed description, string indexed link);\n    event MasterCopyCreatedHuman(address author, uint256 master_id, string indexed description, string indexed link);\n\n    // Global counters for item_id and master_id\n    Counters.Counter _item_id_count;\n    Counters.Counter _master_id_count;\n\n\n    // Motherland\n    address factory_address;\n\n\n\n    // Ticket lifecycle TODO: Remove it or use it as state of item? Do we need that?\n    //enum TicketState {Non_Existed, Paid, Fulfilled, Cancelled}\n\n    // Rarity type\n    // Unique -- the one\n    // Rare -- limited\n    // Common -- unlimited\n    enum RarityType {Unique, Rare, Common}\n\n    // map from mastercopy_id  to itemsale address\n    mapping(uint256 => address) public mastersales;\n\n\n     /*\n                    @NOTE\n            if we mint 3rd item for some master (and already have two minted items) then\n            item_id is global counter and can't be determine (think of it as random). let's assume that we have our third token item_id = 245, and we minting for master_id = 18\n            itemIndex[245] = itemIds[18].lenght // = 2\n            itemIds[18] = itemIds[18].push(245) // = [x , y, 245] (3 elements array)\n            \n            itemIds is a map which return you array of items tethered to specific master\n            arrays starts with 0, so item 245 will be stored as third element of array from itemIds[18] and can be getted from there \n\n        */\n\n    // map from master_id to item ids\n    mapping (uint256 => uint256[]) public itemIds; // -- length of this array can be used as totalSupply!  (total number of specific token (items) can be getted as itemIds[master].length)\n\n    // map from token ID to its index in itemIds\n    mapping (uint256 => uint256) itemIndex;         // -- each token have a position in itemIds array. itemIndex is help to track where exactly stored itemId in itemIds array. \n\n    \n    // map from sale address to organizer -- TODO: this can be double info from factory\n    mapping(address => address) retailers;\n    \n    // map from masterId to author address\n    mapping(uint256 => address) public authors;\n\n\n    // map from MasterCopyId to Meta info\n    mapping(uint256 => ItemInfo) public MetaInfo;\n\n\n    /**\n   *                                                            Item information\n   */\n    struct ItemInfo \n    {\n    // TODO: is this really nececcary to write it as string?\n    // this is link to torrent \n    // @todo: *WARNING -- should be unique!!*\n    string magnet_link;\n\n    // TODO: rework this for searching functionality (case when user seacrh nft item at marketplace by name (or ticker?))\n    string description;\n    address author;\n    RarityType rarity;\n  \n    // @todo rename it\n    uint i_totalSupply; // 0 means infinite, so it not be actually considered as usual totalSupply(!!)\n    // ACTUAL total supply for specific mastercopy can be getted as itemIds[master_id].lenght\n\n    }\n\n\n\n    \n    constructor(string memory name_, string memory smbl_) ERC721(name_,smbl_) ERC721Enumerable() {\n      //  _addMinter(address(this));\n      // @todo: only factory can deploy this contract?\n        factory_address = msg.sender;\n    }\n\n\n    // This function 'plug' itemsale contract from factory to mastersales map (works only for MoonShard NFT, should be called after MasterCopy creation)\n    function PlugCrowdSale(address organizer, uint256 _masterId, address _sale) public {\n        // only factory knows about crowdsale contracts and only she should have access to this\n        require(msg.sender == factory_address, \"MSNFT: only factory contract can plug crowdsale\");\n        // only author of asset can plug crowdsale\n        ItemInfo memory meta;\n        meta = MetaInfo[_masterId];\n        address author = meta.author;\n        require(author == organizer, \"you don't own to this master id\");\n        require(mastersales[_masterId] == address(0), \"MSNFT: you already have plugged sale \");\n        mastersales[_masterId] = _sale;\n\n    }\n\n    function _reserveMasterId(address _author) internal returns(uint256 _master_id) {\n        _master_id_count.increment();\n        _master_id = _master_id_count.current();\n\n        emit MasterIdReserved(_author,_master_id);\n        emit MasterIdReservedHuman(_author,_master_id);\n\n        return _master_id;\n    }\n\n\n    // create Master Copy of item (without starting sale). It wraps file info into nft and create record in blockchain. Other items(tokens) are just links to master record\n    function createMasterCopy(string memory link, address _author ,string memory _description, uint256 _supplyType) public returns(uint256 c_master_id){\n\n        require(msg.sender == factory_address, \"MSNFT: only factory contract can create mastercopy\");\n\n        uint256 mid = _reserveMasterId(_author);\n        RarityType _rarity = set_rarity(_supplyType);\n        uint m_totalSupply;\n        if (_rarity == RarityType.Rare){\n            m_totalSupply = _supplyType;\n        } if (_rarity == RarityType.Unique) {\n            m_totalSupply = 1;\n        } if (_rarity == RarityType.Common) {\n            m_totalSupply = 0;  // infinite. which means it is not really totalSupply\n        }\n        MetaInfo[mid] = ItemInfo(link, _description,_author,_rarity, m_totalSupply);\n        authors[mid] = _author;\n        \n        MaterCopyCreated(_author, mid, _description, link);\n        MasterCopyCreatedHuman(_author,mid,_description,link);\n\n        // return mastercopy id\n        return mid;\n    }\n\n     function set_rarity(uint256 _supplyType) private pure returns(RarityType _rarity) {\n       \n        // only one token exist\n        if (_supplyType == 1) {\n            _rarity = RarityType.Unique;\n        }\n        // Unlimited sale\n        if (_supplyType == 0) {\n            _rarity = RarityType.Common;\n        } else {\n            // Limited sale\n            _rarity = RarityType.Rare;\n        }\n        return _rarity;\n\n\n    }\n\n\n    function get_rarity(uint256 _masterId) public view returns (RarityType) {\n        \n        ItemInfo memory meta;\n        meta = MetaInfo[_masterId];\n        RarityType _rarity_type = meta.rarity;\n        return _rarity_type;\n    }\n\n    function get_author(uint256 _masterId) public view returns (address _author) {\n        _author = authors[_masterId];\n        return _author;\n    }\n\n\n\n    function Mint(address to, uint m_master_id, uint item_id) internal {\n\n        \n        ItemInfo memory meta;\n        meta = MetaInfo[m_master_id];\n     \n        // Check rarity vs itemAmount\n        if (meta.rarity == RarityType.Unique) {\n            require(itemIds[m_master_id].length == 0 , \"MSNFT: MINT: try to mint more than one of Unique Items\");\n        }\n        if (meta.rarity == RarityType.Rare) {\n            require(itemIds[m_master_id].length < meta.i_totalSupply,\" MSNFT: MINT: try to mint more than totalSupply of Rare token\");\n        }\n        \n        _mint(to,item_id);\n\n        /*\n            \n            if we mint 3rd item for some master (and already have two minted items) then\n            item_id is global counter and can't be determine (think of it as random). let's assume that we have our third token item_id = 245, and we minting for master_id = 18\n            itemIndex[245] = itemIds[18].lenght // = 2\n            itemIds[18] = itemIds[18].push(245) // = [x , y, 245] (3 elements array)\n            \n            itemIds is a map which return you array of items tethered to specific master\n            arrays starts with 0, so item 245 will be stored as third element of array from itemIds[18] and can be getted from there \n\n        */\n        itemIndex[item_id] = itemIds[m_master_id].length;   // this item_id will be stored at itemIds[m_master_id] at this *position order*.  \n        itemIds[m_master_id].push(item_id);                 // this item is stored at itemIds and tethered to master_id\n    }\n\n\n    \n    // this function emit item outside of buying mechanism\n    // only owner of master can call it\n    function EmitItem(address to, uint m_master_id) public {\n        ItemInfo memory meta;\n        meta = MetaInfo[m_master_id];\n        require(msg.sender == meta.author, \"MSNFT: only author can emit items outside of sale\");\n\n        _item_id_count.increment();\n        uint256 item_id = _item_id_count.current();\n        Mint(to, m_master_id, item_id);\n\n    }\n/*\n    // plug additional sale for selling different types of ticket by one event\n    function plugSale(uint256 event_id, address orginizer) public returns(uint) {\n        address[] memory _sales = eventsales[event_id];\n        address _sale = _sales[0];\n        require(retailers[_sale] == orginizer, \"only orginizer can plug item\");\n        eventsales[event_id].push(msg.sender);\n        uint type_count = getTicketTypeCount(event_id);\n        return type_count;\n    }\n    */\n\n    // @TODO - return itemIDs(?)\n    function buyItem(address buyer, uint256 itemAmount, uint256 master_id) public{\n       address _sale = mastersales[master_id];\n        require(_sale == msg.sender, \"MSNFT: you should call buyItem from itemsale contract\");\n\n        for (uint256 i = 0; i < itemAmount; i++ ){\n            _item_id_count.increment();\n            uint256 item_id = _item_id_count.current();\n\n           \n            Mint(buyer, master_id, item_id);\n            \n            emit ItemBought(buyer,master_id,item_id);\n            emit ItemBoughtHuman(buyer,master_id,item_id);\n        }\n\n    }\n\n    // This function is burning tokens.\n    // @deprecated\n    /*\n    function redeemTicket(address owner,uint256 tokenId, uint256 event_id) public{\n        require(eventsales[event_id] == msg.sender, \"caller doesn't match with event_id\");\n        super._burn(owner,tokenId);\n\n       // To prevent a gap in the tokens array, we store the last token in the index of the token to delete, and\n       // then delete the last slot (swap and pop).\n\n\n        uint256 ticket_index = ticketIndex[tokenId];\n        uint256 lastTicketIndex = ticketIds[event_id].length.sub(1);\n\n      //  uint256[] storage ticketIdArray = ticketIds[event_id];\n      //  uint256 lastTicketId = ticketIdArray[lastTicketIndex];\n\n        uint256 lastTicketId = ticketIds[event_id][lastTicketIndex];\n\n\n        ticketIds[event_id][ticket_index] = lastTicketId; // Move the last token to the slot of the to-delete token\n        ticketIndex[lastTicketId] = ticket_index;         // Update the moved token's index\n\n        ticketIds[event_id].length--;  // remove last element in array\n        ticketIndex[tokenId] = 0;\n\n\n    }\n    */\n\n\n\n//                  FIXME: fix get items of owner\n/*\n  //  Gets the list of token IDs of the requested owner.\n     function _tokensOfOwner(address owner) internal view returns (uint256[] storage) {\n        return super._ownedTokens[owner];\n    }\n\n\n\n    function getTicketByOwner(address _owner) public view returns(uint256[] memory) {\n        uint256[] storage tickets = _tokensOfOwner(_owner);\n        return tickets;\n    }\n*/\n\n\n    function getItemSale(uint256 master_id) public view returns(address) {\n        address sale = mastersales[master_id];\n        return sale;\n    }\n\n\n\n/*      \n    function getTicketStatus(uint item_id) public view returns (TicketState status) {\n        ItemInfo memory info = itemInfoStorage[item_id];\n        status = info.state;\n        return status;\n    }\n    */\n}",
  "sourcePath": "/home/jack/ethProjects/UniversalNFTMarketplace/contracts/721/singleton/MSNFT.sol",
  "compiler": {
    "name": "solc",
    "version": "0.8.0+commit.c7dfd78e.Emscripten.clang"
  },
  "schemaVersion": "3.2.5",
  "updatedAt": "2021-08-14T09:18:43.115Z",
  "devdoc": {
    "kind": "dev",
    "methods": {
      "approve(address,uint256)": {
        "details": "See {IERC721-approve}."
      },
      "balanceOf(address)": {
        "details": "See {IERC721-balanceOf}."
      },
      "getApproved(uint256)": {
        "details": "See {IERC721-getApproved}."
      },
      "isApprovedForAll(address,address)": {
        "details": "See {IERC721-isApprovedForAll}."
      },
      "name()": {
        "details": "See {IERC721Metadata-name}."
      },
      "ownerOf(uint256)": {
        "details": "See {IERC721-ownerOf}."
      },
      "safeTransferFrom(address,address,uint256)": {
        "details": "See {IERC721-safeTransferFrom}."
      },
      "safeTransferFrom(address,address,uint256,bytes)": {
        "details": "See {IERC721-safeTransferFrom}."
      },
      "setApprovalForAll(address,bool)": {
        "details": "See {IERC721-setApprovalForAll}."
      },
      "supportsInterface(bytes4)": {
        "details": "See {IERC165-supportsInterface}."
      },
      "symbol()": {
        "details": "See {IERC721Metadata-symbol}."
      },
      "tokenByIndex(uint256)": {
        "details": "See {IERC721Enumerable-tokenByIndex}."
      },
      "tokenOfOwnerByIndex(address,uint256)": {
        "details": "See {IERC721Enumerable-tokenOfOwnerByIndex}."
      },
      "tokenURI(uint256)": {
        "details": "See {IERC721Metadata-tokenURI}."
      },
      "totalSupply()": {
        "details": "See {IERC721Enumerable-totalSupply}."
      },
      "transferFrom(address,address,uint256)": {
        "details": "See {IERC721-transferFrom}."
      }
    },
    "version": 1
  },
  "userdoc": {
    "kind": "user",
    "methods": {},
    "notice": "ERC-721 is non-fungible token.  So, each tokenID is a unique ticket Usefull tips: // Mapping from owner to list of owned token IDs mapping(address => uint256[]) private _ownedTokens; // Mapping from token ID to index of the owner tokens list mapping(uint256 => uint256) private _ownedTokensIndex; // Array with all token ids, used for enumeration uint256[] private _allTokens; // Mapping from token id to position in the allTokens array mapping(uint256 => uint256) private _allTokensIndex; Gets the list of token IDs of the requested owner. function _tokensOfOwner(address owner) internal view returns (uint256[] storage) { return _ownedTokens[owner]; }*",
    "version": 1
  }
}