{
  "contractName": "MSNFT",
  "abi": [
    {
      "inputs": [
        {
          "internalType": "string",
          "name": "name_",
          "type": "string"
        },
        {
          "internalType": "string",
          "name": "smbl_",
          "type": "string"
        }
      ],
      "stateMutability": "nonpayable",
      "type": "constructor"
    },
    {
      "anonymous": false,
      "inputs": [
        {
          "indexed": true,
          "internalType": "address",
          "name": "owner",
          "type": "address"
        },
        {
          "indexed": true,
          "internalType": "address",
          "name": "approved",
          "type": "address"
        },
        {
          "indexed": true,
          "internalType": "uint256",
          "name": "tokenId",
          "type": "uint256"
        }
      ],
      "name": "Approval",
      "type": "event"
    },
    {
      "anonymous": false,
      "inputs": [
        {
          "indexed": true,
          "internalType": "address",
          "name": "owner",
          "type": "address"
        },
        {
          "indexed": true,
          "internalType": "address",
          "name": "operator",
          "type": "address"
        },
        {
          "indexed": false,
          "internalType": "bool",
          "name": "approved",
          "type": "bool"
        }
      ],
      "name": "ApprovalForAll",
      "type": "event"
    },
    {
      "anonymous": false,
      "inputs": [
        {
          "indexed": true,
          "internalType": "address",
          "name": "buyer",
          "type": "address"
        },
        {
          "indexed": true,
          "internalType": "uint256",
          "name": "master_id",
          "type": "uint256"
        },
        {
          "indexed": true,
          "internalType": "uint256",
          "name": "item_id",
          "type": "uint256"
        }
      ],
      "name": "ItemBought",
      "type": "event"
    },
    {
      "anonymous": false,
      "inputs": [
        {
          "indexed": false,
          "internalType": "address",
          "name": "buyer",
          "type": "address"
        },
        {
          "indexed": false,
          "internalType": "uint256",
          "name": "master_id",
          "type": "uint256"
        },
        {
          "indexed": false,
          "internalType": "uint256",
          "name": "item_id",
          "type": "uint256"
        }
      ],
      "name": "ItemBoughtHuman",
      "type": "event"
    },
    {
      "anonymous": false,
      "inputs": [
        {
          "indexed": false,
          "internalType": "address",
          "name": "author",
          "type": "address"
        },
        {
          "indexed": true,
          "internalType": "uint256",
          "name": "master_id",
          "type": "uint256"
        },
        {
          "indexed": false,
          "internalType": "string",
          "name": "description",
          "type": "string"
        },
        {
          "indexed": false,
          "internalType": "string",
          "name": "link",
          "type": "string"
        }
      ],
      "name": "MasterCopyCreatedHuman",
      "type": "event"
    },
    {
      "anonymous": false,
      "inputs": [
        {
          "indexed": true,
          "internalType": "address",
          "name": "author",
          "type": "address"
        },
        {
          "indexed": true,
          "internalType": "uint256",
          "name": "master_id",
          "type": "uint256"
        }
      ],
      "name": "MasterIdReserved",
      "type": "event"
    },
    {
      "anonymous": false,
      "inputs": [
        {
          "indexed": false,
          "internalType": "address",
          "name": "author",
          "type": "address"
        },
        {
          "indexed": false,
          "internalType": "uint256",
          "name": "master_id",
          "type": "uint256"
        }
      ],
      "name": "MasterIdReservedHuman",
      "type": "event"
    },
    {
      "anonymous": false,
      "inputs": [
        {
          "indexed": true,
          "internalType": "address",
          "name": "author",
          "type": "address"
        },
        {
          "indexed": false,
          "internalType": "uint256",
          "name": "master_id",
          "type": "uint256"
        },
        {
          "indexed": true,
          "internalType": "string",
          "name": "description",
          "type": "string"
        },
        {
          "indexed": true,
          "internalType": "string",
          "name": "link",
          "type": "string"
        }
      ],
      "name": "MaterCopyCreated",
      "type": "event"
    },
    {
      "anonymous": false,
      "inputs": [
        {
          "indexed": true,
          "internalType": "address",
          "name": "previousOwner",
          "type": "address"
        },
        {
          "indexed": true,
          "internalType": "address",
          "name": "newOwner",
          "type": "address"
        }
      ],
      "name": "OwnershipTransferred",
      "type": "event"
    },
    {
      "anonymous": false,
      "inputs": [
        {
          "indexed": true,
          "internalType": "address",
          "name": "from",
          "type": "address"
        },
        {
          "indexed": true,
          "internalType": "address",
          "name": "to",
          "type": "address"
        },
        {
          "indexed": true,
          "internalType": "uint256",
          "name": "tokenId",
          "type": "uint256"
        }
      ],
      "name": "Transfer",
      "type": "event"
    },
    {
      "inputs": [
        {
          "internalType": "uint256",
          "name": "",
          "type": "uint256"
        }
      ],
      "name": "MetaInfo",
      "outputs": [
        {
          "internalType": "string",
          "name": "magnet_link",
          "type": "string"
        },
        {
          "internalType": "string",
          "name": "description",
          "type": "string"
        },
        {
          "internalType": "address",
          "name": "author",
          "type": "address"
        },
        {
          "internalType": "enum MSNFT.RarityType",
          "name": "rarity",
          "type": "uint8"
        },
        {
          "internalType": "uint256",
          "name": "i_totalSupply",
          "type": "uint256"
        }
      ],
      "stateMutability": "view",
      "type": "function",
      "constant": true
    },
    {
      "inputs": [
        {
          "internalType": "address",
          "name": "to",
          "type": "address"
        },
        {
          "internalType": "uint256",
          "name": "tokenId",
          "type": "uint256"
        }
      ],
      "name": "approve",
      "outputs": [],
      "stateMutability": "nonpayable",
      "type": "function"
    },
    {
      "inputs": [
        {
          "internalType": "uint256",
          "name": "",
          "type": "uint256"
        }
      ],
      "name": "authors",
      "outputs": [
        {
          "internalType": "address",
          "name": "",
          "type": "address"
        }
      ],
      "stateMutability": "view",
      "type": "function",
      "constant": true
    },
    {
      "inputs": [
        {
          "internalType": "address",
          "name": "owner",
          "type": "address"
        }
      ],
      "name": "balanceOf",
      "outputs": [
        {
          "internalType": "uint256",
          "name": "",
          "type": "uint256"
        }
      ],
      "stateMutability": "view",
      "type": "function",
      "constant": true
    },
    {
      "inputs": [
        {
          "internalType": "uint256",
          "name": "tokenId",
          "type": "uint256"
        }
      ],
      "name": "getApproved",
      "outputs": [
        {
          "internalType": "address",
          "name": "",
          "type": "address"
        }
      ],
      "stateMutability": "view",
      "type": "function",
      "constant": true
    },
    {
      "inputs": [
        {
          "internalType": "address",
          "name": "owner",
          "type": "address"
        },
        {
          "internalType": "address",
          "name": "operator",
          "type": "address"
        }
      ],
      "name": "isApprovedForAll",
      "outputs": [
        {
          "internalType": "bool",
          "name": "",
          "type": "bool"
        }
      ],
      "stateMutability": "view",
      "type": "function",
      "constant": true
    },
    {
      "inputs": [
        {
          "internalType": "uint256",
          "name": "",
          "type": "uint256"
        },
        {
          "internalType": "uint256",
          "name": "",
          "type": "uint256"
        }
      ],
      "name": "itemIds",
      "outputs": [
        {
          "internalType": "uint256",
          "name": "",
          "type": "uint256"
        }
      ],
      "stateMutability": "view",
      "type": "function",
      "constant": true
    },
    {
      "inputs": [
        {
          "internalType": "uint256",
          "name": "",
          "type": "uint256"
        }
      ],
      "name": "mastersales",
      "outputs": [
        {
          "internalType": "address",
          "name": "",
          "type": "address"
        }
      ],
      "stateMutability": "view",
      "type": "function",
      "constant": true
    },
    {
      "inputs": [],
      "name": "name",
      "outputs": [
        {
          "internalType": "string",
          "name": "",
          "type": "string"
        }
      ],
      "stateMutability": "view",
      "type": "function",
      "constant": true
    },
    {
      "inputs": [],
      "name": "owner",
      "outputs": [
        {
          "internalType": "address",
          "name": "",
          "type": "address"
        }
      ],
      "stateMutability": "view",
      "type": "function",
      "constant": true
    },
    {
      "inputs": [
        {
          "internalType": "uint256",
          "name": "tokenId",
          "type": "uint256"
        }
      ],
      "name": "ownerOf",
      "outputs": [
        {
          "internalType": "address",
          "name": "",
          "type": "address"
        }
      ],
      "stateMutability": "view",
      "type": "function",
      "constant": true
    },
    {
      "inputs": [],
      "name": "renounceOwnership",
      "outputs": [],
      "stateMutability": "nonpayable",
      "type": "function"
    },
    {
      "inputs": [
        {
          "internalType": "address",
          "name": "from",
          "type": "address"
        },
        {
          "internalType": "address",
          "name": "to",
          "type": "address"
        },
        {
          "internalType": "uint256",
          "name": "tokenId",
          "type": "uint256"
        }
      ],
      "name": "safeTransferFrom",
      "outputs": [],
      "stateMutability": "nonpayable",
      "type": "function"
    },
    {
      "inputs": [
        {
          "internalType": "address",
          "name": "from",
          "type": "address"
        },
        {
          "internalType": "address",
          "name": "to",
          "type": "address"
        },
        {
          "internalType": "uint256",
          "name": "tokenId",
          "type": "uint256"
        },
        {
          "internalType": "bytes",
          "name": "_data",
          "type": "bytes"
        }
      ],
      "name": "safeTransferFrom",
      "outputs": [],
      "stateMutability": "nonpayable",
      "type": "function"
    },
    {
      "inputs": [
        {
          "internalType": "address",
          "name": "operator",
          "type": "address"
        },
        {
          "internalType": "bool",
          "name": "approved",
          "type": "bool"
        }
      ],
      "name": "setApprovalForAll",
      "outputs": [],
      "stateMutability": "nonpayable",
      "type": "function"
    },
    {
      "inputs": [
        {
          "internalType": "bytes4",
          "name": "interfaceId",
          "type": "bytes4"
        }
      ],
      "name": "supportsInterface",
      "outputs": [
        {
          "internalType": "bool",
          "name": "",
          "type": "bool"
        }
      ],
      "stateMutability": "view",
      "type": "function",
      "constant": true
    },
    {
      "inputs": [],
      "name": "symbol",
      "outputs": [
        {
          "internalType": "string",
          "name": "",
          "type": "string"
        }
      ],
      "stateMutability": "view",
      "type": "function",
      "constant": true
    },
    {
      "inputs": [
        {
          "internalType": "uint256",
          "name": "index",
          "type": "uint256"
        }
      ],
      "name": "tokenByIndex",
      "outputs": [
        {
          "internalType": "uint256",
          "name": "",
          "type": "uint256"
        }
      ],
      "stateMutability": "view",
      "type": "function",
      "constant": true
    },
    {
      "inputs": [
        {
          "internalType": "address",
          "name": "owner",
          "type": "address"
        },
        {
          "internalType": "uint256",
          "name": "index",
          "type": "uint256"
        }
      ],
      "name": "tokenOfOwnerByIndex",
      "outputs": [
        {
          "internalType": "uint256",
          "name": "",
          "type": "uint256"
        }
      ],
      "stateMutability": "view",
      "type": "function",
      "constant": true
    },
    {
      "inputs": [
        {
          "internalType": "uint256",
          "name": "tokenId",
          "type": "uint256"
        }
      ],
      "name": "tokenURI",
      "outputs": [
        {
          "internalType": "string",
          "name": "",
          "type": "string"
        }
      ],
      "stateMutability": "view",
      "type": "function",
      "constant": true
    },
    {
      "inputs": [],
      "name": "totalSupply",
      "outputs": [
        {
          "internalType": "uint256",
          "name": "",
          "type": "uint256"
        }
      ],
      "stateMutability": "view",
      "type": "function",
      "constant": true
    },
    {
      "inputs": [
        {
          "internalType": "address",
          "name": "from",
          "type": "address"
        },
        {
          "internalType": "address",
          "name": "to",
          "type": "address"
        },
        {
          "internalType": "uint256",
          "name": "tokenId",
          "type": "uint256"
        }
      ],
      "name": "transferFrom",
      "outputs": [],
      "stateMutability": "nonpayable",
      "type": "function"
    },
    {
      "inputs": [
        {
          "internalType": "address",
          "name": "newOwner",
          "type": "address"
        }
      ],
      "name": "transferOwnership",
      "outputs": [],
      "stateMutability": "nonpayable",
      "type": "function"
    },
    {
      "inputs": [
        {
          "internalType": "address",
          "name": "organizer",
          "type": "address"
        },
        {
          "internalType": "uint256",
          "name": "_masterId",
          "type": "uint256"
        },
        {
          "internalType": "address",
          "name": "_sale",
          "type": "address"
        }
      ],
      "name": "PlugCrowdSale",
      "outputs": [],
      "stateMutability": "nonpayable",
      "type": "function"
    },
    {
      "inputs": [
        {
          "internalType": "string",
          "name": "link",
          "type": "string"
        },
        {
          "internalType": "address",
          "name": "_author",
          "type": "address"
        },
        {
          "internalType": "string",
          "name": "_description",
          "type": "string"
        },
        {
          "internalType": "uint256",
          "name": "_supplyType",
          "type": "uint256"
        }
      ],
      "name": "createMasterCopy",
      "outputs": [
        {
          "internalType": "uint256",
          "name": "c_master_id",
          "type": "uint256"
        }
      ],
      "stateMutability": "nonpayable",
      "type": "function"
    },
    {
      "inputs": [
        {
          "internalType": "uint256",
          "name": "_masterId",
          "type": "uint256"
        }
      ],
      "name": "get_rarity",
      "outputs": [
        {
          "internalType": "enum MSNFT.RarityType",
          "name": "",
          "type": "uint8"
        }
      ],
      "stateMutability": "view",
      "type": "function",
      "constant": true
    },
    {
      "inputs": [
        {
          "internalType": "uint256",
          "name": "_masterId",
          "type": "uint256"
        }
      ],
      "name": "get_author",
      "outputs": [
        {
          "internalType": "address",
          "name": "_author",
          "type": "address"
        }
      ],
      "stateMutability": "view",
      "type": "function",
      "constant": true
    },
    {
      "inputs": [
        {
          "internalType": "address",
          "name": "to",
          "type": "address"
        },
        {
          "internalType": "uint256",
          "name": "m_master_id",
          "type": "uint256"
        }
      ],
      "name": "EmitItem",
      "outputs": [],
      "stateMutability": "nonpayable",
      "type": "function"
    },
    {
      "inputs": [
        {
          "internalType": "address",
          "name": "buyer",
          "type": "address"
        },
        {
          "internalType": "uint256",
          "name": "itemAmount",
          "type": "uint256"
        },
        {
          "internalType": "uint256",
          "name": "master_id",
          "type": "uint256"
        }
      ],
      "name": "buyItem",
      "outputs": [],
      "stateMutability": "nonpayable",
      "type": "function"
    },
    {
      "inputs": [
        {
          "internalType": "uint256",
          "name": "master_id",
          "type": "uint256"
        }
      ],
      "name": "getItemSale",
      "outputs": [
        {
          "internalType": "address",
          "name": "",
          "type": "address"
        }
      ],
      "stateMutability": "view",
      "type": "function",
      "constant": true
    },
    {
      "inputs": [
        {
          "internalType": "address",
          "name": "factory_address_",
          "type": "address"
        }
      ],
      "name": "updateFactoryAdress",
      "outputs": [],
      "stateMutability": "nonpayable",
      "type": "function"
    },
    {
      "inputs": [],
      "name": "getFactoryAddress",
      "outputs": [
        {
          "internalType": "address",
          "name": "",
          "type": "address"
        }
      ],
      "stateMutability": "view",
      "type": "function",
      "constant": true
    }
  ],
  "bytecode": "0x60806040523480156200001157600080fd5b50604051620034d9380380620034d9833981016040819052620000349162000223565b8151829082906200004d906000906020850190620000d2565b50805162000063906001906020840190620000d2565b505050600062000078620000ce60201b60201c565b600a80546001600160a01b0319166001600160a01b038316908117909155604051919250906000907f8be0079c531659141344cd1fd0a4f28419497f9722a3daafe3b4186f6b6457e0908290a3505050620002dd565b3390565b828054620000e0906200028a565b90600052602060002090601f0160209004810192826200010457600085556200014f565b82601f106200011f57805160ff19168380011785556200014f565b828001600101855582156200014f579182015b828111156200014f57825182559160200191906001019062000132565b506200015d92915062000161565b5090565b5b808211156200015d576000815560010162000162565b600082601f83011262000189578081fd5b81516001600160401b0380821115620001a657620001a6620002c7565b6040516020601f8401601f1916820181018381118382101715620001ce57620001ce620002c7565b6040528382528584018101871015620001e5578485fd5b8492505b83831015620002085785830181015182840182015291820191620001e9565b838311156200021957848185840101525b5095945050505050565b6000806040838503121562000236578182fd5b82516001600160401b03808211156200024d578384fd5b6200025b8683870162000178565b9350602085015191508082111562000271578283fd5b50620002808582860162000178565b9150509250929050565b6002810460018216806200029f57607f821691505b60208210811415620002c157634e487b7160e01b600052602260045260246000fd5b50919050565b634e487b7160e01b600052604160045260246000fd5b6131ec80620002ed6000396000f3fe608060405234801561001057600080fd5b50600436106101f05760003560e01c806394ff3acc1161010f578063be5010b2116100a2578063f1d121c111610071578063f1d121c114610413578063f2fde38b14610426578063f520cb4c14610439578063f6b45c461461045d576101f0565b8063be5010b2146103c7578063c87b56dd146103da578063e985e9c5146103ed578063e9d52a0814610400576101f0565b8063a9c2e36c116100de578063a9c2e36c14610386578063abcc4ff11461038e578063b661497a146103a1578063b88d4fde146103b4576101f0565b806394ff3acc1461034557806395d89b41146103585780639e004ba814610360578063a22cb46514610373576101f0565b80632f745c59116101875780636352211e116101565780636352211e1461030f57806370a0823114610322578063715018a6146103355780638da5cb5b1461033d576101f0565b80632f745c59146102c35780633db804da146102d657806342842e0e146102e95780634f6ccce7146102fc576101f0565b80630e304d88116101c35780630e304d881461026857806318160ddd1461027b578063239e1d721461029057806323b872dd146102b0576101f0565b806301ffc9a7146101f557806306fdde031461021e578063081812fc14610233578063095ea7b314610253575b600080fd5b610208610203366004612641565b610470565b6040516102159190612885565b60405180910390f35b61022661049d565b604051610215919061289e565b6102466102413660046126f2565b61052f565b60405161021591906127c4565b6102666102613660046125ab565b61057b565b005b6102466102763660046126f2565b610613565b61028361062e565b6040516102159190613079565b6102a361029e3660046126f2565b610634565b6040516102159190612890565b6102666102be3660046124bd565b6107f5565b6102836102d13660046125ab565b61082d565b6102466102e43660046126f2565b610882565b6102666102f73660046124bd565b61089d565b61028361030a3660046126f2565b6108b8565b61024661031d3660046126f2565b610913565b610283610330366004612471565b610948565b61026661098c565b610246610a15565b6102666103533660046125d4565b610a24565b610226610ca3565b61024661036e3660046126f2565b610cb2565b610266610381366004612571565b610ccd565b610246610d9b565b61026661039c3660046125ab565b610daa565b6102466103af3660046126f2565b610fbd565b6102666103c23660046124f8565b610fd8565b6102836103d536600461270a565b611011565b6102266103e83660046126f2565b611042565b6102086103fb36600461248b565b6110c5565b61026661040e366004612471565b6110f3565b610283610421366004612679565b611154565b610266610434366004612471565b6113fa565b61044c6104473660046126f2565b6114bb565b6040516102159594939291906128b1565b61026661046b36600461260f565b611609565b60006001600160e01b0319821663780e9d6360e01b14806104955750610495826116fb565b90505b919050565b6060600080546104ac906130f1565b80601f01602080910402602001604051908101604052809291908181526020018280546104d8906130f1565b80156105255780601f106104fa57610100808354040283529160200191610525565b820191906000526020600020905b81548152906001019060200180831161050857829003601f168201915b5050505050905090565b600061053a8261173b565b61055f5760405162461bcd60e51b815260040161055690612d39565b60405180910390fd5b506000908152600460205260409020546001600160a01b031690565b600061058682610913565b9050806001600160a01b0316836001600160a01b031614156105ba5760405162461bcd60e51b815260040161055690612ea8565b806001600160a01b03166105cc611758565b6001600160a01b031614806105e857506105e8816103fb611758565b6106045760405162461bcd60e51b815260040161055690612c14565b61060e838361175c565b505050565b6000908152601260205260409020546001600160a01b031690565b60085490565b600061063e6122db565b60008381526013602052604090819020815160a08101909252805482908290610666906130f1565b80601f0160208091040260200160405190810160405280929190818152602001828054610692906130f1565b80156106df5780601f106106b4576101008083540402835291602001916106df565b820191906000526020600020905b8154815290600101906020018083116106c257829003601f168201915b505050505081526020016001820180546106f8906130f1565b80601f0160208091040260200160405190810160405280929190818152602001828054610724906130f1565b80156107715780601f1061074657610100808354040283529160200191610771565b820191906000526020600020905b81548152906001019060200180831161075457829003601f168201915b50505091835250506002828101546001600160a01b0381166020840152604090920191600160a01b900460ff16908111156107bc57634e487b7160e01b600052602160045260246000fd5b60028111156107db57634e487b7160e01b600052602160045260246000fd5b815260039190910154602090910152606001519392505050565b610806610800611758565b826117ca565b6108225760405162461bcd60e51b815260040161055690612f2e565b61060e838383611847565b600061083883610948565b82106108565760405162461bcd60e51b815260040161055690612906565b506001600160a01b03821660009081526006602090815260408083208484529091529020545b92915050565b6012602052600090815260409020546001600160a01b031681565b61060e83838360405180602001604052806000815250610fd8565b60006108c261062e565b82106108e05760405162461bcd60e51b815260040161055690612fd0565b6008828154811061090157634e487b7160e01b600052603260045260246000fd5b90600052602060002001549050919050565b6000818152600260205260408120546001600160a01b0316806104955760405162461bcd60e51b815260040161055690612cbb565b60006001600160a01b0382166109705760405162461bcd60e51b815260040161055690612c71565b506001600160a01b031660009081526003602052604090205490565b610994611758565b6001600160a01b03166109a5610a15565b6001600160a01b0316146109cb5760405162461bcd60e51b815260040161055690612d85565b600a546040516000916001600160a01b0316907f8be0079c531659141344cd1fd0a4f28419497f9722a3daafe3b4186f6b6457e0908390a3600a80546001600160a01b0319169055565b600a546001600160a01b031690565b600d546001600160a01b03163314610a4e5760405162461bcd60e51b815260040161055690612b24565b610a566122db565b60008381526013602052604090819020815160a08101909252805482908290610a7e906130f1565b80601f0160208091040260200160405190810160405280929190818152602001828054610aaa906130f1565b8015610af75780601f10610acc57610100808354040283529160200191610af7565b820191906000526020600020905b815481529060010190602001808311610ada57829003601f168201915b50505050508152602001600182018054610b10906130f1565b80601f0160208091040260200160405190810160405280929190818152602001828054610b3c906130f1565b8015610b895780601f10610b5e57610100808354040283529160200191610b89565b820191906000526020600020905b815481529060010190602001808311610b6c57829003601f168201915b50505091835250506002828101546001600160a01b0381166020840152604090920191600160a01b900460ff1690811115610bd457634e487b7160e01b600052602160045260246000fd5b6002811115610bf357634e487b7160e01b600052602160045260246000fd5b81526020016003820154815250509050600081604001519050846001600160a01b0316816001600160a01b031614610c3d5760405162461bcd60e51b815260040161055690612a20565b6000848152600e60205260409020546001600160a01b031615610c725760405162461bcd60e51b815260040161055690612ee9565b50506000918252600e602052604090912080546001600160a01b0319166001600160a01b0390921691909117905550565b6060600180546104ac906130f1565b6000908152600e60205260409020546001600160a01b031690565b610cd5611758565b6001600160a01b0316826001600160a01b03161415610d065760405162461bcd60e51b815260040161055690612a9b565b8060056000610d13611758565b6001600160a01b03908116825260208083019390935260409182016000908120918716808252919093529120805460ff191692151592909217909155610d57611758565b6001600160a01b03167f17307eab39ab6107e8899845ad3d59bd9653f200f220920489ca2b5937696c3183604051610d8f9190612885565b60405180910390a35050565b600d546001600160a01b031690565b610db26122db565b60008281526013602052604090819020815160a08101909252805482908290610dda906130f1565b80601f0160208091040260200160405190810160405280929190818152602001828054610e06906130f1565b8015610e535780601f10610e2857610100808354040283529160200191610e53565b820191906000526020600020905b815481529060010190602001808311610e3657829003601f168201915b50505050508152602001600182018054610e6c906130f1565b80601f0160208091040260200160405190810160405280929190818152602001828054610e98906130f1565b8015610ee55780601f10610eba57610100808354040283529160200191610ee5565b820191906000526020600020905b815481529060010190602001808311610ec857829003601f168201915b50505091835250506002828101546001600160a01b0381166020840152604090920191600160a01b900460ff1690811115610f3057634e487b7160e01b600052602160045260246000fd5b6002811115610f4f57634e487b7160e01b600052602160045260246000fd5b8152602001600382015481525050905080604001516001600160a01b0316336001600160a01b031614610f945760405162461bcd60e51b815260040161055690612f7f565b610f9e600b611974565b6000610faa600b61197d565b9050610fb7848483611981565b50505050565b600e602052600090815260409020546001600160a01b031681565b610fe9610fe3611758565b836117ca565b6110055760405162461bcd60e51b815260040161055690612f2e565b610fb784848484611c2d565b600f602052816000526040600020818154811061102d57600080fd5b90600052602060002001600091509150505481565b606061104d8261173b565b6110695760405162461bcd60e51b815260040161055690612e59565b6000611073611c60565b9050600081511161109357604051806020016040528060008152506110be565b8061109d84611c72565b6040516020016110ae929190612795565b6040516020818303038152906040525b9392505050565b6001600160a01b03918216600090815260056020908152604080832093909416825291909152205460ff1690565b6110fb611758565b6001600160a01b031661110c610a15565b6001600160a01b0316146111325760405162461bcd60e51b815260040161055690612d85565b600d80546001600160a01b0319166001600160a01b0392909216919091179055565b600d546000906001600160a01b031633146111815760405162461bcd60e51b815260040161055690612ad2565b600061118c85611d8d565b9050600061119984611e1a565b9050600060018260028111156111bf57634e487b7160e01b600052602160045260246000fd5b14156111c85750835b60008260028111156111ea57634e487b7160e01b600052602160045260246000fd5b14156111f4575060015b600282600281111561121657634e487b7160e01b600052602160045260246000fd5b1415611220575060005b6040518060a00160405280898152602001878152602001886001600160a01b0316815260200183600281111561126657634e487b7160e01b600052602160045260246000fd5b815260209081018390526000858152601382526040902082518051919261129292849290910190612332565b5060208281015180516112ab9260018501920190612332565b506040820151600282810180546001600160a01b0319166001600160a01b03909316929092178083556060850151929160ff60a01b1990911690600160a01b90849081111561130a57634e487b7160e01b600052602160045260246000fd5b0217905550608091909101516003909101556000838152601260205260409081902080546001600160a01b0319166001600160a01b038a1617905551611351908990612779565b6040518091039020866040516113679190612779565b6040518091039020886001600160a01b03167fba6060494b3d8c725eb188a99bb81350295c389a6f34667f9880659df06f17c3866040516113a89190613079565b60405180910390a4827f12c2dc801e0f0b6bc9cbba6cd67d7094390753fe1eef4b4b57ab666fe32cf38988888b6040516113e493929190612815565b60405180910390a250909150505b949350505050565b611402611758565b6001600160a01b0316611413610a15565b6001600160a01b0316146114395760405162461bcd60e51b815260040161055690612d85565b6001600160a01b03811661145f5760405162461bcd60e51b8152600401610556906129a3565b600a546040516001600160a01b038084169216907f8be0079c531659141344cd1fd0a4f28419497f9722a3daafe3b4186f6b6457e090600090a3600a80546001600160a01b0319166001600160a01b0392909216919091179055565b6013602052600090815260409020805481906114d6906130f1565b80601f0160208091040260200160405190810160405280929190818152602001828054611502906130f1565b801561154f5780601f106115245761010080835404028352916020019161154f565b820191906000526020600020905b81548152906001019060200180831161153257829003601f168201915b505050505090806001018054611564906130f1565b80601f0160208091040260200160405190810160405280929190818152602001828054611590906130f1565b80156115dd5780601f106115b2576101008083540402835291602001916115dd565b820191906000526020600020905b8154815290600101906020018083116115c057829003601f168201915b50505050600283015460039093015491926001600160a01b03811692600160a01b90910460ff16915085565b6000818152600e60205260409020546001600160a01b03163381146116405760405162461bcd60e51b815260040161055690612bbf565b60005b838110156116f457611655600b611974565b6000611661600b61197d565b905061166e868583611981565b8084876001600160a01b03167ffe2094c9ff56716cb07edf0cff82da158f346cb3bb2d89703228ab4eb0c329b660405160405180910390a47f2550da409a7fd6a0b8e2a7af9372f4297635788f07cf08c3d5ed13ab297ad5938685836040516116d993929190612864565b60405180910390a150806116ec8161312c565b915050611643565b5050505050565b60006001600160e01b031982166380ac58cd60e01b148061172c57506001600160e01b03198216635b5e139f60e01b145b80610495575061049582611e3e565b6000908152600260205260409020546001600160a01b0316151590565b3390565b600081815260046020526040902080546001600160a01b0319166001600160a01b038416908117909155819061179182610913565b6001600160a01b03167f8c5be1e5ebec7d5bd14f71427d1e84f3dd0314c0f7b2291e5b200ac8c7c3b92560405160405180910390a45050565b60006117d58261173b565b6117f15760405162461bcd60e51b815260040161055690612b73565b60006117fc83610913565b9050806001600160a01b0316846001600160a01b031614806118375750836001600160a01b031661182c8461052f565b6001600160a01b0316145b806113f257506113f281856110c5565b826001600160a01b031661185a82610913565b6001600160a01b0316146118805760405162461bcd60e51b815260040161055690612dba565b6001600160a01b0382166118a65760405162461bcd60e51b815260040161055690612a57565b6118b1838383611e57565b6118bc60008261175c565b6001600160a01b03831660009081526003602052604081208054600192906118e59084906130ae565b90915550506001600160a01b0382166000908152600360205260408120805460019290611913908490613082565b909155505060008181526002602052604080822080546001600160a01b0319166001600160a01b0386811691821790925591518493918716917fddf252ad1be2c89b69c2b068fc378daa952ba7f163c4a11628f55a4df523b3ef91a4505050565b80546001019055565b5490565b6119896122db565b60008381526013602052604090819020815160a081019092528054829082906119b1906130f1565b80601f01602080910402602001604051908101604052809291908181526020018280546119dd906130f1565b8015611a2a5780601f106119ff57610100808354040283529160200191611a2a565b820191906000526020600020905b815481529060010190602001808311611a0d57829003601f168201915b50505050508152602001600182018054611a43906130f1565b80601f0160208091040260200160405190810160405280929190818152602001828054611a6f906130f1565b8015611abc5780601f10611a9157610100808354040283529160200191611abc565b820191906000526020600020905b815481529060010190602001808311611a9f57829003601f168201915b50505091835250506002828101546001600160a01b0381166020840152604090920191600160a01b900460ff1690811115611b0757634e487b7160e01b600052602160045260246000fd5b6002811115611b2657634e487b7160e01b600052602160045260246000fd5b8152600391909101546020909101529050600081606001516002811115611b5d57634e487b7160e01b600052602160045260246000fd5b1415611b8f576000838152600f602052604090205415611b8f5760405162461bcd60e51b815260040161055690612e03565b600181606001516002811115611bb557634e487b7160e01b600052602160045260246000fd5b1415611bec5760808101516000848152600f602052604090205410611bec5760405162461bcd60e51b81526004016105569061301c565b611bf68483611ee0565b506000918252600f602081815260408085208054858752601084529186208290559282526001810183559184529092209091015550565b611c38848484611847565b611c4484848484611fbf565b610fb75760405162461bcd60e51b815260040161055690612951565b60408051602081019091526000815290565b606081611c9757506040805180820190915260018152600360fc1b6020820152610498565b8160005b8115611cc15780611cab8161312c565b9150611cba9050600a8361309a565b9150611c9b565b60008167ffffffffffffffff811115611cea57634e487b7160e01b600052604160045260246000fd5b6040519080825280601f01601f191660200182016040528015611d14576020820181803683370190505b5090505b84156113f257611d296001836130ae565b9150611d36600a86613147565b611d41906030613082565b60f81b818381518110611d6457634e487b7160e01b600052603260045260246000fd5b60200101906001600160f81b031916908160001a905350611d86600a8661309a565b9450611d18565b6000611d99600c611974565b611da3600c61197d565b905080826001600160a01b03167f42ff04921a81aac6b1b91bb0c423fb8405d7fce459953ab5fc98ed27744691be60405160405180910390a37f8e1c0dfd342869718621c5de225aa832476d36b5cab6accbcf4c07aa496eaf1c8282604051611e0d92919061284b565b60405180910390a1919050565b60008160011415611e29575060005b81611e3657506002610498565b506001919050565b6001600160e01b031981166301ffc9a760e01b14919050565b611e6283838361060e565b6001600160a01b038316611e7e57611e79816120d7565b611ea1565b816001600160a01b0316836001600160a01b031614611ea157611ea1838261211b565b6001600160a01b038216611ebd57611eb8816121b8565b61060e565b826001600160a01b0316826001600160a01b03161461060e5761060e8282612291565b6001600160a01b038216611f065760405162461bcd60e51b815260040161055690612d04565b611f0f8161173b565b15611f2c5760405162461bcd60e51b8152600401610556906129e9565b611f3860008383611e57565b6001600160a01b0382166000908152600360205260408120805460019290611f61908490613082565b909155505060008181526002602052604080822080546001600160a01b0319166001600160a01b03861690811790915590518392907fddf252ad1be2c89b69c2b068fc378daa952ba7f163c4a11628f55a4df523b3ef908290a45050565b6000611fd3846001600160a01b03166122d5565b156120cf57836001600160a01b031663150b7a02611fef611758565b8786866040518563ffffffff1660e01b815260040161201194939291906127d8565b602060405180830381600087803b15801561202b57600080fd5b505af192505050801561205b575060408051601f3d908101601f191682019092526120589181019061265d565b60015b6120b5573d808015612089576040519150601f19603f3d011682016040523d82523d6000602084013e61208e565b606091505b5080516120ad5760405162461bcd60e51b815260040161055690612951565b805181602001fd5b6001600160e01b031916630a85bd0160e11b1490506113f2565b5060016113f2565b600880546000838152600960205260408120829055600182018355919091527ff3f7a9fe364faab93b216da50a3214154f22a0a2b415b23a84c8169e8b636ee30155565b6000600161212884610948565b61213291906130ae565b600083815260076020526040902054909150808214612185576001600160a01b03841660009081526006602090815260408083208584528252808320548484528184208190558352600790915290208190555b5060009182526007602090815260408084208490556001600160a01b039094168352600681528383209183525290812055565b6008546000906121ca906001906130ae565b6000838152600960205260408120546008805493945090928490811061220057634e487b7160e01b600052603260045260246000fd5b90600052602060002001549050806008838154811061222f57634e487b7160e01b600052603260045260246000fd5b600091825260208083209091019290925582815260099091526040808220849055858252812055600880548061227557634e487b7160e01b600052603160045260246000fd5b6001900381819060005260206000200160009055905550505050565b600061229c83610948565b6001600160a01b039093166000908152600660209081526040808320868452825280832085905593825260079052919091209190915550565b3b151590565b6040518060a00160405280606081526020016060815260200160006001600160a01b031681526020016000600281111561232557634e487b7160e01b600052602160045260246000fd5b8152602001600081525090565b82805461233e906130f1565b90600052602060002090601f01602090048101928261236057600085556123a6565b82601f1061237957805160ff19168380011785556123a6565b828001600101855582156123a6579182015b828111156123a657825182559160200191906001019061238b565b506123b29291506123b6565b5090565b5b808211156123b257600081556001016123b7565b600067ffffffffffffffff808411156123e6576123e6613187565b604051601f8501601f19168101602001828111828210171561240a5761240a613187565b60405284815291508183850186101561242257600080fd5b8484602083013760006020868301015250509392505050565b80356001600160a01b038116811461049857600080fd5b600082601f830112612462578081fd5b6110be838335602085016123cb565b600060208284031215612482578081fd5b6110be8261243b565b6000806040838503121561249d578081fd5b6124a68361243b565b91506124b46020840161243b565b90509250929050565b6000806000606084860312156124d1578081fd5b6124da8461243b565b92506124e86020850161243b565b9150604084013590509250925092565b6000806000806080858703121561250d578081fd5b6125168561243b565b93506125246020860161243b565b925060408501359150606085013567ffffffffffffffff811115612546578182fd5b8501601f81018713612556578182fd5b612565878235602084016123cb565b91505092959194509250565b60008060408385031215612583578182fd5b61258c8361243b565b9150602083013580151581146125a0578182fd5b809150509250929050565b600080604083850312156125bd578182fd5b6125c68361243b565b946020939093013593505050565b6000806000606084860312156125e8578283fd5b6125f18461243b565b9250602084013591506126066040850161243b565b90509250925092565b600080600060608486031215612623578283fd5b61262c8461243b565b95602085013595506040909401359392505050565b600060208284031215612652578081fd5b81356110be8161319d565b60006020828403121561266e578081fd5b81516110be8161319d565b6000806000806080858703121561268e578384fd5b843567ffffffffffffffff808211156126a5578586fd5b6126b188838901612452565b95506126bf6020880161243b565b945060408701359150808211156126d4578384fd5b506126e187828801612452565b949793965093946060013593505050565b600060208284031215612703578081fd5b5035919050565b6000806040838503121561271c578182fd5b50508035926020909101359150565b600081518084526127438160208601602086016130c5565b601f01601f19169290920160200192915050565b6003811061277557634e487b7160e01b600052602160045260246000fd5b9052565b6000825161278b8184602087016130c5565b9190910192915050565b600083516127a78184602088016130c5565b8351908301906127bb8183602088016130c5565b01949350505050565b6001600160a01b0391909116815260200190565b6001600160a01b038581168252841660208201526040810183905260806060820181905260009061280b9083018461272b565b9695505050505050565b6001600160a01b03841681526060602082018190526000906128399083018561272b565b828103604084015261280b818561272b565b6001600160a01b03929092168252602082015260400190565b6001600160a01b039390931683526020830191909152604082015260600190565b901515815260200190565b6020810161087c8284612757565b6000602082526110be602083018461272b565b600060a082526128c460a083018861272b565b82810360208401526128d6818861272b565b6001600160a01b038716604085015291506128f690506060830185612757565b8260808301529695505050505050565b6020808252602b908201527f455243373231456e756d657261626c653a206f776e657220696e646578206f7560408201526a74206f6620626f756e647360a81b606082015260800190565b60208082526032908201527f4552433732313a207472616e7366657220746f206e6f6e20455243373231526560408201527131b2b4bb32b91034b6b83632b6b2b73a32b960711b606082015260800190565b60208082526026908201527f4f776e61626c653a206e6577206f776e657220697320746865207a65726f206160408201526564647265737360d01b606082015260800190565b6020808252601c908201527f4552433732313a20746f6b656e20616c7265616479206d696e74656400000000604082015260600190565b6020808252601f908201527f796f7520646f6e2774206f776e20746f2074686973206d617374657220696400604082015260600190565b60208082526024908201527f4552433732313a207472616e7366657220746f20746865207a65726f206164646040820152637265737360e01b606082015260800190565b60208082526019908201527f4552433732313a20617070726f766520746f2063616c6c657200000000000000604082015260600190565b60208082526032908201527f4d534e46543a206f6e6c7920666163746f727920636f6e74726163742063616e60408201527120637265617465206d6173746572636f707960701b606082015260800190565b6020808252602f908201527f4d534e46543a206f6e6c7920666163746f727920636f6e74726163742063616e60408201526e20706c75672063726f776473616c6560881b606082015260800190565b6020808252602c908201527f4552433732313a206f70657261746f7220717565727920666f72206e6f6e657860408201526b34b9ba32b73a103a37b5b2b760a11b606082015260800190565b60208082526035908201527f4d534e46543a20796f752073686f756c642063616c6c206275794974656d20666040820152741c9bdb481a5d195b5cd85b194818dbdb9d1c9858dd605a1b606082015260800190565b60208082526038908201527f4552433732313a20617070726f76652063616c6c6572206973206e6f74206f7760408201527f6e6572206e6f7220617070726f76656420666f7220616c6c0000000000000000606082015260800190565b6020808252602a908201527f4552433732313a2062616c616e636520717565727920666f7220746865207a65604082015269726f206164647265737360b01b606082015260800190565b60208082526029908201527f4552433732313a206f776e657220717565727920666f72206e6f6e657869737460408201526832b73a103a37b5b2b760b91b606082015260800190565b6020808252818101527f4552433732313a206d696e7420746f20746865207a65726f2061646472657373604082015260600190565b6020808252602c908201527f4552433732313a20617070726f76656420717565727920666f72206e6f6e657860408201526b34b9ba32b73a103a37b5b2b760a11b606082015260800190565b6020808252818101527f4f776e61626c653a2063616c6c6572206973206e6f7420746865206f776e6572604082015260600190565b60208082526029908201527f4552433732313a207472616e73666572206f6620746f6b656e2074686174206960408201526839903737ba1037bbb760b91b606082015260800190565b60208082526036908201527f4d534e46543a204d494e543a2074727920746f206d696e74206d6f7265207468604082015275616e206f6e65206f6620556e69717565204974656d7360501b606082015260800190565b6020808252602f908201527f4552433732314d657461646174613a2055524920717565727920666f72206e6f60408201526e3732bc34b9ba32b73a103a37b5b2b760891b606082015260800190565b60208082526021908201527f4552433732313a20617070726f76616c20746f2063757272656e74206f776e656040820152603960f91b606082015260800190565b60208082526025908201527f4d534e46543a20796f7520616c7265616479206861766520706c756767656420604082015264039b0b632960dd1b606082015260800190565b60208082526031908201527f4552433732313a207472616e736665722063616c6c6572206973206e6f74206f6040820152701ddb995c881b9bdc88185c1c1c9bdd9959607a1b606082015260800190565b60208082526031908201527f4d534e46543a206f6e6c7920617574686f722063616e20656d6974206974656d60408201527073206f757473696465206f662073616c6560781b606082015260800190565b6020808252602c908201527f455243373231456e756d657261626c653a20676c6f62616c20696e646578206f60408201526b7574206f6620626f756e647360a01b606082015260800190565b6020808252603d908201527f204d534e46543a204d494e543a2074727920746f206d696e74206d6f7265207460408201527f68616e20746f74616c537570706c79206f66205261726520746f6b656e000000606082015260800190565b90815260200190565b600082198211156130955761309561315b565b500190565b6000826130a9576130a9613171565b500490565b6000828210156130c0576130c061315b565b500390565b60005b838110156130e05781810151838201526020016130c8565b83811115610fb75750506000910152565b60028104600182168061310557607f821691505b6020821081141561312657634e487b7160e01b600052602260045260246000fd5b50919050565b60006000198214156131405761314061315b565b5060010190565b60008261315657613156613171565b500690565b634e487b7160e01b600052601160045260246000fd5b634e487b7160e01b600052601260045260246000fd5b634e487b7160e01b600052604160045260246000fd5b6001600160e01b0319811681146131b357600080fd5b5056fea264697066735822122008a0cdab7b812a61ee5aa52625ae6e039a24237fe6670a7f43c1456e22e6e27e64736f6c63430008000033",
  "immutableReferences": {},
  "source": "pragma solidity ^0.8.0;\n//\"SPDX-License-Identifier: UNLICENSED\"\n\nimport \"../../../node_modules/@openzeppelin/contracts/token/ERC721/extensions/ERC721Enumerable.sol\";\nimport \"../../../node_modules/@openzeppelin/contracts/token/ERC721/ERC721.sol\";\n//import \"../../../node_modules/@openzeppelin/contracts/token/ERC721/presets/ERC721PresetMinterPauserAutoId.sol\";\nimport \"../../../node_modules/@openzeppelin/contracts/utils/Counters.sol\";\nimport \"../../../node_modules/@openzeppelin/contracts/utils/math/SafeMath.sol\";\nimport \"../../../node_modules/@openzeppelin/contracts/access/Ownable.sol\";\n\n\n/**\n *      MoonShard Non-fungible Token\n *  @title MSNFT\n *  @author JackBekket\n *  @dev MSNFT is a ERC721Enumerable token contract\n *  ERC721Enumerable stand for singletone pattern, which mean each created NFT is NOT a separate contract, but record in this single contract\n * When user want's to create NFT -- he creates MasterCopy first (with link to a file), then he can emit items(tokens) or start crowdsale of them\n * Each token is ITEM. Each item is a link to a MasterCopy\n * Each NFT have a rarity type (Unique -- only one exist, Rare -- limited edition, Common -- unlimited edition)\n * createMasterCopy, plugSale, buyItem -- external intefaces to be called from factory contract \n*/\ncontract MSNFT is ERC721Enumerable, Ownable {\n   using SafeMath for uint256;\n   using Counters for Counters.Counter;\n\n\n\n    // Master -- Mastercopy, abstraction\n    // Item -- originate from mastercopy (nft-token)\n\n\n\n    //events\n    /**\n     * @dev Events about buying item. events named *Human stands for human readability\n     * @param buyer -- user who buy item\n     * @param master_id -- unique id of mastercopy\n     * @param item_id -- unique id of item\n     */\n    event ItemBought(address indexed buyer,uint256 indexed master_id, uint256 indexed item_id);\n    event ItemBoughtHuman(address buyer,uint256 master_id, uint256 item_id);\n\n\n    // Service event for debug\n    event MasterIdReserved(address indexed author, uint256 indexed master_id);\n    event MasterIdReservedHuman(address author, uint256 master_id);\n\n    // MasterCopyCreation\n    /**\n     * @dev event about master-copy creation\n     * @param master_id -- unique master id \n     * @param description -- indexed description, which can be key for search. we do not store description info in state, only in event\n     * @param link -- link to a file in CDN\n     */\n    event MaterCopyCreated(address indexed author, uint256 master_id, string indexed description, string indexed link);\n    event MasterCopyCreatedHuman(address author, uint256 indexed master_id, string description, string link);\n\n    // Global counters for item_id and master_id\n    /**\n     * @dev Global counters for item_id and master_id. They are replacing atomic lock algo for reserving id\n     *\n     *\n     */\n    Counters.Counter _item_id_count;\n    Counters.Counter _master_id_count;\n\n\n    // Motherland\n    address private factory_address;    // ITS A VERY IMPORTANT TO KEEP THIS SAFE!!  THIS CONTRACT DO NOT KNOW ABOUT FACTORY CODE SO IT COULD BE REPLACED BY UNKNOWN CONTRACT AND GET ACCESS TO SERVICE FUNCTIONS\n    // HOWEVER IT'S THE ONLY WAY TO MAKE THIS CONTRACT UPGRADABLE AND INDEPENDENT FROM FACTORY.\n\n\n\n    // Ticket lifecycle @TODO: Maybe useful for migration in future\n    //enum TicketState {Non_Existed, Paid, Fulfilled, Cancelled}\n\n    // Rarity type\n    /**\n     * @dev Rarity type of token\n     * @param Unique -- only one token can exist\n     * @param Rare -- there are limited number of tokens\n     * @param Common -- there are unlimited number of tokens\n     */\n    enum RarityType {Unique, Rare, Common}\n\n    // map from mastercopy_id  to itemsale address\n    mapping(uint256 => address) public mastersales;\n\n\n     /*\n                    @NOTE\n            if we mint 3rd item for some master (and already have two minted items) then\n            item_id is global counter and can't be determine (think of it as random). let's assume that we have our third token item_id = 245, and we minting for master_id = 18\n            itemIndex[245] = itemIds[18].lenght // = 2\n            itemIds[18] = itemIds[18].push(245) // = [x , y, 245] (3 elements array)\n            \n            itemIds is a map which return you array of items tethered to specific master\n            arrays starts with 0, so item 245 will be stored as third element of array from itemIds[18] and can be getted from there \n\n        */\n\n    // map from master_id to item ids\n    mapping (uint256 => uint256[]) public itemIds; // -- length of this array can be used as totalSupply!  (total number of specific token (items) can be getted as itemIds[master].length)\n\n    // map from token ID to its index in itemIds\n    mapping (uint256 => uint256) itemIndex;         // -- each token have a position in itemIds array. itemIndex is help to track where exactly stored itemId in itemIds array. \n\n    \n    // map from sale address to organizer -- TODO: this can be double info from factory\n    mapping(address => address) retailers;\n    \n    // map from masterId to author address\n    mapping(uint256 => address) public authors;\n\n\n    // map from MasterCopyId to Meta info\n    mapping(uint256 => ItemInfo) public MetaInfo;\n\n\n    /**\n   *                                                            Item information\n   *    @dev ItemInfo contains meta information about Master/Item. \n   *    @param magnet_link -- unique link to a torrent\n   *    @param author -- address of author\n   *    @param rarity -- rarity of an item, see RarityType\n   *    @param i_totalSupply -- it is not a total supply. total supply of a token is itemIds[mater_id].lenght\n   */\n    struct ItemInfo \n    {\n    // TODO: is this really nececcary to write it as string?\n    // this is link to torrent \n    // @todo: *WARNING -- should be unique!!*\n    string magnet_link;\n\n    // TODO: rework this for searching functionality (case when user seacrh nft item at marketplace by name (or ticker?))\n    string description;\n    address author;\n    RarityType rarity;\n  \n    // @todo rename it\n    uint i_totalSupply; // 0 means infinite, so it not be actually considered as usual totalSupply(!!)\n    // ACTUAL total supply for specific mastercopy can be getted as itemIds[master_id].lenght\n\n    }\n\n\n\n    \n    constructor(string memory name_, string memory smbl_) ERC721(name_,smbl_) ERC721Enumerable() {}\n\n    // @todo should be changed visibility to external?\n    /**\n     *  @dev This function 'plug' itemsale contract from factory to mastersales map (works only for MoonShard NFT, should be called after MasterCopy creation)\n     *  @param organizer -- address of seller (author)\n     *  @param _masterId -- Id of mastercopy, which has been created by CreateMasterCopy\n     *  @param _sale -- address of crowdsale contract. Note that this function can be called only from factory.\n     */\n    function PlugCrowdSale(address organizer, uint256 _masterId, address _sale) public {\n        // only factory knows about crowdsale contracts and only she should have access to this\n        require(msg.sender == factory_address, \"MSNFT: only factory contract can plug crowdsale\");\n        // only author of asset can plug crowdsale\n        ItemInfo memory meta;\n        meta = MetaInfo[_masterId];\n        address author = meta.author;\n        require(author == organizer, \"you don't own to this master id\");\n        require(mastersales[_masterId] == address(0), \"MSNFT: you already have plugged sale \");\n        mastersales[_masterId] = _sale;\n\n    }\n\n    /**\n     * @dev safely reserve master_id\n     * @param _author -- address of author\n     * @return _master_id \n     */\n    function _reserveMasterId(address _author) internal returns(uint256 _master_id) {\n        _master_id_count.increment();\n        _master_id = _master_id_count.current();\n\n        emit MasterIdReserved(_author,_master_id);\n        emit MasterIdReservedHuman(_author,_master_id);\n\n        return _master_id;\n    }\n\n\n    // \n    /**\n     * @dev create Master Copy of item (without starting sale). It wraps file info into nft and create record in blockchain. Other items(tokens) are just links to master record\n     * @param link -- link to a file\n     * @param _author -- address of author\n     * @param _description -- indexed description to be stored in events\n     * @param _supplyType -- type of supply, where 1 is for unique nft, 0 for common nft, anything else is rare. Used to check inside mint func\n     * @return c_master_id reserved mastercopy id\n     */\n    function createMasterCopy(string memory link, address _author ,string memory _description, uint256 _supplyType) public returns(uint256 c_master_id){\n\n        require(msg.sender == factory_address, \"MSNFT: only factory contract can create mastercopy\");\n\n        uint256 mid = _reserveMasterId(_author);\n        RarityType _rarity = set_rarity(_supplyType);\n        uint m_totalSupply;\n        if (_rarity == RarityType.Rare){\n            m_totalSupply = _supplyType;\n        } if (_rarity == RarityType.Unique) {\n            m_totalSupply = 1;\n        } if (_rarity == RarityType.Common) {\n            m_totalSupply = 0;  // infinite. which means it is not really totalSupply\n        }\n        MetaInfo[mid] = ItemInfo(link, _description,_author,_rarity, m_totalSupply);\n        authors[mid] = _author;\n        \n        emit MaterCopyCreated(_author, mid, _description, link);\n        emit MasterCopyCreatedHuman(_author,mid,_description,link);\n\n        // return mastercopy id\n        return mid;\n    }\n\n\n     /**\n     * @dev setting rarity for token\n     * @param _supplyType type of supply, see createMasterCopy\n     * @return _rarity type of rarity based at supplyType\n     */\n     function set_rarity(uint256 _supplyType) private pure returns(RarityType _rarity) {\n\n        if (_supplyType == 1) {         // Only one token exist\n            _rarity = RarityType.Unique;\n        }\n        if (_supplyType == 0) {         // Unlimited sale\n            _rarity = RarityType.Common;\n        } else {\n            _rarity = RarityType.Rare;  // Limited sale\n        }\n        \n        return _rarity;\n    }\n\n\n    /**\n     *  @dev get rarity of specific master\n     *  @param _masterId master copy id\n     *  @return RarityType \n     */\n    function get_rarity(uint256 _masterId) public view returns (RarityType) {\n        \n        ItemInfo memory meta;\n        meta = MetaInfo[_masterId];\n        RarityType _rarity_type = meta.rarity;\n        return _rarity_type;\n    }\n\n\n    /**\n     *  @dev get author of master\n     */\n    function get_author(uint256 _masterId) public view returns (address _author) {\n        _author = authors[_masterId];\n        return _author;\n    }\n\n\n    /**\n     *  @dev Mint new token. Require master_id and item_id\n     *  @param to whom address should mint\n     *  @param m_master_id master copy of item\n     *  @param item_id counter of item. There are no incrementation of this counter here, so make sure this function is purely internal(!)\n     */\n    function Mint(address to, uint m_master_id, uint item_id) internal {\n\n        ItemInfo memory meta;\n        meta = MetaInfo[m_master_id];\n     \n        // Check rarity vs itemAmount\n        if (meta.rarity == RarityType.Unique) {\n            require(itemIds[m_master_id].length == 0 , \"MSNFT: MINT: try to mint more than one of Unique Items\");\n        }\n        if (meta.rarity == RarityType.Rare) {\n            require(itemIds[m_master_id].length < meta.i_totalSupply,\" MSNFT: MINT: try to mint more than totalSupply of Rare token\");\n        }\n        \n        _mint(to,item_id);\n\n        /*\n            \n            if we mint 3rd item for some master (and already have two minted items) then\n            item_id is global counter and can't be determine (think of it as random). let's assume that we have our third token item_id = 245, and we minting for master_id = 18\n            itemIndex[245] = itemIds[18].lenght // = 2\n            itemIds[18] = itemIds[18].push(245) // = [x , y, 245] (3 elements array)\n            \n            itemIds is a map which return you array of items tethered to specific master\n            arrays starts with 0, so item 245 will be stored as third element of array from itemIds[18] and can be getted from there \n\n        */\n        itemIndex[item_id] = itemIds[m_master_id].length;   // this item_id will be stored at itemIds[m_master_id] at this *position order*.  \n        itemIds[m_master_id].push(item_id);                 // this item is stored at itemIds and tethered to master_id\n    }\n\n\n    /**\n     * @dev this function emit item outside of buying mechanism, only owner of master can call it\n     * @param to whom minted token will be sent\n     * @param m_master_id id of mastercopy\n     */\n    function EmitItem(address to, uint m_master_id) public {\n        ItemInfo memory meta;\n        meta = MetaInfo[m_master_id];\n        require(msg.sender == meta.author, \"MSNFT: only author can emit items outside of sale\");\n\n        _item_id_count.increment();\n        uint256 item_id = _item_id_count.current();\n        Mint(to, m_master_id, item_id);\n    }\n\n\n    // @todo -- make external instead of public?\n    /**\n     *  @dev external function for buying items, should be invoked from tokensale contract\n     *  @param buyer address of buyer\n     *  @param itemAmount how much of tokens we want to buy if possible\n     *  @param master_id Master copy id \n     */\n    function buyItem(address buyer, uint256 itemAmount, uint256 master_id) public{\n       address _sale = mastersales[master_id];\n        require(_sale == msg.sender, \"MSNFT: you should call buyItem from itemsale contract\");\n\n        for (uint256 i = 0; i < itemAmount; i++ ){\n            _item_id_count.increment();\n            uint256 item_id = _item_id_count.current();\n\n            Mint(buyer, master_id, item_id);\n            \n            emit ItemBought(buyer,master_id,item_id);\n            emit ItemBoughtHuman(buyer,master_id,item_id);\n        }\n\n    }\n\n    // This function is burning tokens. \n    // @deprecated\n    /*\n    function redeemTicket(address owner,uint256 tokenId, uint256 event_id) public{\n        require(eventsales[event_id] == msg.sender, \"caller doesn't match with event_id\");\n        super._burn(owner,tokenId); \n\n       // To prevent a gap in the tokens array, we store the last token in the index of the token to delete, and\n       // then delete the last slot (swap and pop).\n\n\n        uint256 ticket_index = ticketIndex[tokenId];\n        uint256 lastTicketIndex = ticketIds[event_id].length.sub(1);\n\n      //  uint256[] storage ticketIdArray = ticketIds[event_id];\n      //  uint256 lastTicketId = ticketIdArray[lastTicketIndex];\n\n        uint256 lastTicketId = ticketIds[event_id][lastTicketIndex];\n\n\n        ticketIds[event_id][ticket_index] = lastTicketId; // Move the last token to the slot of the to-delete token\n        ticketIndex[lastTicketId] = ticket_index;         // Update the moved token's index\n\n        ticketIds[event_id].length--;  // remove last element in array\n        ticketIndex[tokenId] = 0;\n\n\n    }\n    */\n\n\n\n//                  @FIXME: fix get items of owner\n/*\n  //  Gets the list of token IDs of the requested owner.\n     function _tokensOfOwner(address owner) internal view returns (uint256[] storage) {\n        return super._ownedTokens[owner];\n    }\n\n\n\n    function getTicketByOwner(address _owner) public view returns(uint256[] memory) {\n        uint256[] storage tickets = _tokensOfOwner(_owner);\n        return tickets;\n    }\n*/\n\n    /**\n     * @dev get itemSale contract address tethered to this master_id\n     */\n    function getItemSale(uint256 master_id) public view returns(address) {\n        address sale = mastersales[master_id];\n        return sale;\n    }\n\n\n\n/*      \n    function getTicketStatus(uint item_id) public view returns (TicketState status) {\n        ItemInfo memory info = itemInfoStorage[item_id];\n        status = info.state;\n        return status;\n    }\n    */\n\n\n    /**\n     *  @dev update factory address. as we deploy separately this contract, then factory contract, then we need to update factory address outside of MSNFT constructor\n     *  also, it may be useful if we would need to upgrade tokensale contract (which include upgrade of a factory contract), so it can be used when rollup new versions of factory and sale\n     */\n    function updateFactoryAdress(address factory_address_) public onlyOwner() {\n        factory_address = factory_address_;\n    }\n\n    function getFactoryAddress() public view returns(address) {\n        return factory_address;\n    }\n\n\n    /*\n    Usefull tips:\n    // Mapping from owner to list of owned token IDs\n    mapping(address => uint256[]) private _ownedTokens;\n\n    // Mapping from token ID to index of the owner tokens list\n    mapping(uint256 => uint256) private _ownedTokensIndex;\n\n    // Array with all token ids, used for enumeration\n    uint256[] private _allTokens;\n\n    // Mapping from token id to position in the allTokens array\n    mapping(uint256 => uint256) private _allTokensIndex;\n\n    Gets the list of token IDs of the requested owner.\n     function _tokensOfOwner(address owner) internal view returns (uint256[] storage) {\n        return _ownedTokens[owner];\n    }\n    */\n\n}",
  "sourcePath": "/home/jack/ethProjects/UniversalNFTMarketplace/contracts/721/singleton/MSNFT.sol",
  "compiler": {
    "name": "solc",
    "version": "0.8.0+commit.c7dfd78e.Emscripten.clang"
  },
  "schemaVersion": "3.2.5",
  "updatedAt": "2021-08-29T06:53:35.701Z",
  "networkType": "ethereum",
  "devdoc": {
    "author": "JackBekket",
    "details": "MSNFT is a ERC721Enumerable token contract  ERC721Enumerable stand for singletone pattern, which mean each created NFT is NOT a separate contract, but record in this single contract When user want's to create NFT -- he creates MasterCopy first (with link to a file), then he can emit items(tokens) or start crowdsale of them Each token is ITEM. Each item is a link to a MasterCopy Each NFT have a rarity type (Unique -- only one exist, Rare -- limited edition, Common -- unlimited edition) createMasterCopy, plugSale, buyItem -- external intefaces to be called from factory contract ",
    "events": {
      "ItemBought(address,uint256,uint256)": {
        "details": "Events about buying item. events named *Human stands for human readability",
        "params": {
          "buyer": "-- user who buy item",
          "item_id": "-- unique id of item",
          "master_id": "-- unique id of mastercopy"
        }
      },
      "MaterCopyCreated(address,uint256,string,string)": {
        "details": "event about master-copy creation",
        "params": {
          "description": "-- indexed description, which can be key for search. we do not store description info in state, only in event",
          "link": "-- link to a file in CDN",
          "master_id": "-- unique master id "
        }
      }
    },
    "kind": "dev",
    "methods": {
      "EmitItem(address,uint256)": {
        "details": "this function emit item outside of buying mechanism, only owner of master can call it",
        "params": {
          "m_master_id": "id of mastercopy",
          "to": "whom minted token will be sent"
        }
      },
      "PlugCrowdSale(address,uint256,address)": {
        "details": "This function 'plug' itemsale contract from factory to mastersales map (works only for MoonShard NFT, should be called after MasterCopy creation)",
        "params": {
          "_masterId": "-- Id of mastercopy, which has been created by CreateMasterCopy",
          "_sale": "-- address of crowdsale contract. Note that this function can be called only from factory.",
          "organizer": "-- address of seller (author)"
        }
      },
      "approve(address,uint256)": {
        "details": "See {IERC721-approve}."
      },
      "balanceOf(address)": {
        "details": "See {IERC721-balanceOf}."
      },
      "buyItem(address,uint256,uint256)": {
        "details": "external function for buying items, should be invoked from tokensale contract",
        "params": {
          "buyer": "address of buyer",
          "itemAmount": "how much of tokens we want to buy if possible",
          "master_id": "Master copy id "
        }
      },
      "createMasterCopy(string,address,string,uint256)": {
        "details": "create Master Copy of item (without starting sale). It wraps file info into nft and create record in blockchain. Other items(tokens) are just links to master record",
        "params": {
          "_author": "-- address of author",
          "_description": "-- indexed description to be stored in events",
          "_supplyType": "-- type of supply, where 1 is for unique nft, 0 for common nft, anything else is rare. Used to check inside mint func",
          "link": "-- link to a file"
        },
        "returns": {
          "c_master_id": "reserved mastercopy id"
        }
      },
      "getApproved(uint256)": {
        "details": "See {IERC721-getApproved}."
      },
      "getItemSale(uint256)": {
        "details": "get itemSale contract address tethered to this master_id"
      },
      "get_author(uint256)": {
        "details": "get author of master"
      },
      "get_rarity(uint256)": {
        "details": "get rarity of specific master",
        "params": {
          "_masterId": "master copy id"
        },
        "returns": {
          "_0": "RarityType "
        }
      },
      "isApprovedForAll(address,address)": {
        "details": "See {IERC721-isApprovedForAll}."
      },
      "name()": {
        "details": "See {IERC721Metadata-name}."
      },
      "owner()": {
        "details": "Returns the address of the current owner."
      },
      "ownerOf(uint256)": {
        "details": "See {IERC721-ownerOf}."
      },
      "renounceOwnership()": {
        "details": "Leaves the contract without owner. It will not be possible to call `onlyOwner` functions anymore. Can only be called by the current owner. NOTE: Renouncing ownership will leave the contract without an owner, thereby removing any functionality that is only available to the owner."
      },
      "safeTransferFrom(address,address,uint256)": {
        "details": "See {IERC721-safeTransferFrom}."
      },
      "safeTransferFrom(address,address,uint256,bytes)": {
        "details": "See {IERC721-safeTransferFrom}."
      },
      "setApprovalForAll(address,bool)": {
        "details": "See {IERC721-setApprovalForAll}."
      },
      "supportsInterface(bytes4)": {
        "details": "See {IERC165-supportsInterface}."
      },
      "symbol()": {
        "details": "See {IERC721Metadata-symbol}."
      },
      "tokenByIndex(uint256)": {
        "details": "See {IERC721Enumerable-tokenByIndex}."
      },
      "tokenOfOwnerByIndex(address,uint256)": {
        "details": "See {IERC721Enumerable-tokenOfOwnerByIndex}."
      },
      "tokenURI(uint256)": {
        "details": "See {IERC721Metadata-tokenURI}."
      },
      "totalSupply()": {
        "details": "See {IERC721Enumerable-totalSupply}."
      },
      "transferFrom(address,address,uint256)": {
        "details": "See {IERC721-transferFrom}."
      },
      "transferOwnership(address)": {
        "details": "Transfers ownership of the contract to a new account (`newOwner`). Can only be called by the current owner."
      },
      "updateFactoryAdress(address)": {
        "details": "update factory address. as we deploy separately this contract, then factory contract, then we need to update factory address outside of MSNFT constructor  also, it may be useful if we would need to upgrade tokensale contract (which include upgrade of a factory contract), so it can be used when rollup new versions of factory and sale"
      }
    },
    "stateVariables": {
      "_item_id_count": {
        "details": "Global counters for item_id and master_id. They are replacing atomic lock algo for reserving id"
      }
    },
    "title": "MSNFT",
    "version": 1
  },
  "userdoc": {
    "kind": "user",
    "methods": {},
    "notice": "MoonShard Non-fungible Token",
    "version": 1
  }
}