{
  "contractName": "TicketFactory721",
  "abi": [
    {
      "inputs": [
        {
          "internalType": "address",
          "name": "_ticket",
          "type": "address"
        },
        {
          "internalType": "address payable",
          "name": "_treasure_fund",
          "type": "address"
        }
      ],
      "stateMutability": "nonpayable",
      "type": "constructor"
    },
    {
      "anonymous": false,
      "inputs": [
        {
          "indexed": true,
          "internalType": "address",
          "name": "organizer",
          "type": "address"
        },
        {
          "indexed": true,
          "internalType": "address",
          "name": "orginal_sale",
          "type": "address"
        },
        {
          "indexed": true,
          "internalType": "uint256",
          "name": "event_id",
          "type": "uint256"
        }
      ],
      "name": "PluggedSale",
      "type": "event"
    },
    {
      "anonymous": false,
      "inputs": [
        {
          "indexed": false,
          "internalType": "address",
          "name": "organizer",
          "type": "address"
        },
        {
          "indexed": false,
          "internalType": "address",
          "name": "original_sale",
          "type": "address"
        },
        {
          "indexed": false,
          "internalType": "uint256",
          "name": "event_id",
          "type": "uint256"
        },
        {
          "indexed": false,
          "internalType": "uint256",
          "name": "ticket_type",
          "type": "uint256"
        }
      ],
      "name": "PluggedSaleHuman",
      "type": "event"
    },
    {
      "anonymous": false,
      "inputs": [
        {
          "indexed": true,
          "internalType": "address",
          "name": "organizer",
          "type": "address"
        },
        {
          "indexed": false,
          "internalType": "uint256",
          "name": "price",
          "type": "uint256"
        },
        {
          "indexed": true,
          "internalType": "uint256",
          "name": "event_id",
          "type": "uint256"
        },
        {
          "indexed": true,
          "internalType": "string",
          "name": "event_JID",
          "type": "string"
        }
      ],
      "name": "SaleCreated",
      "type": "event"
    },
    {
      "anonymous": false,
      "inputs": [
        {
          "indexed": false,
          "internalType": "address",
          "name": "organizer",
          "type": "address"
        },
        {
          "indexed": false,
          "internalType": "uint256",
          "name": "price",
          "type": "uint256"
        },
        {
          "indexed": false,
          "internalType": "uint256",
          "name": "event_id",
          "type": "uint256"
        },
        {
          "indexed": false,
          "internalType": "string",
          "name": "event_JID",
          "type": "string"
        },
        {
          "indexed": false,
          "internalType": "uint256",
          "name": "ticket_type",
          "type": "uint256"
        }
      ],
      "name": "SaleCreatedHuman",
      "type": "event"
    },
    {
      "inputs": [
        {
          "internalType": "address payable",
          "name": "organizer",
          "type": "address"
        },
        {
          "internalType": "uint256",
          "name": "price",
          "type": "uint256"
        },
        {
          "internalType": "string",
          "name": "event_JID",
          "type": "string"
        },
        {
          "internalType": "uint256",
          "name": "sale_limit",
          "type": "uint256"
        },
        {
          "internalType": "uint256",
          "name": "timeToStart",
          "type": "uint256"
        }
      ],
      "name": "createTicketSale",
      "outputs": [
        {
          "internalType": "address",
          "name": "ticket_sale_adr",
          "type": "address"
        },
        {
          "internalType": "uint256",
          "name": "event_id",
          "type": "uint256"
        }
      ],
      "stateMutability": "nonpayable",
      "type": "function"
    },
    {
      "inputs": [
        {
          "internalType": "string",
          "name": "JID",
          "type": "string"
        }
      ],
      "name": "getEventIdByJid",
      "outputs": [
        {
          "internalType": "uint256",
          "name": "",
          "type": "uint256"
        }
      ],
      "stateMutability": "view",
      "type": "function"
    },
    {
      "inputs": [],
      "name": "getTicketTemplateAddress",
      "outputs": [
        {
          "internalType": "address",
          "name": "",
          "type": "address"
        }
      ],
      "stateMutability": "view",
      "type": "function"
    }
  ],
  "bytecode": "0x60806040523480156200001157600080fd5b506040516200362e3803806200362e8339818101604052810190620000379190620000ee565b816000806101000a81548173ffffffffffffffffffffffffffffffffffffffff021916908373ffffffffffffffffffffffffffffffffffffffff16021790555080600160006101000a81548173ffffffffffffffffffffffffffffffffffffffff021916908373ffffffffffffffffffffffffffffffffffffffff1602179055505050620001ab565b600081519050620000d18162000177565b92915050565b600081519050620000e88162000191565b92915050565b600080604083850312156200010257600080fd5b60006200011285828601620000c0565b92505060206200012585828601620000d7565b9150509250929050565b60006200013c8262000157565b9050919050565b6000620001508262000157565b9050919050565b600073ffffffffffffffffffffffffffffffffffffffff82169050919050565b62000182816200012f565b81146200018e57600080fd5b50565b6200019c8162000143565b8114620001a857600080fd5b50565b61347380620001bb6000396000f3fe60806040523480156200001157600080fd5b506004361062000063576000357c010000000000000000000000000000000000000000000000000000000090048063722b58171462000068578063723b897b146200008a578063b992389314620000c1575b600080fd5b62000072620000f7565b604051620000819190620007d6565b60405180910390f35b620000a86004803603810190620000a291906200057c565b62000120565b604051620000b892919062000857565b60405180910390f35b620000df6004803603810190620000d9919062000617565b620003ea565b604051620000ee9190620008a6565b60405180910390f35b60008060009054906101000a900473ffffffffffffffffffffffffffffffffffffffff16905090565b60008060008060009054906101000a900473ffffffffffffffffffffffffffffffffffffffff16905060006002876040516200015d9190620007bd565b90815260200160405180910390205414620001af576040517f08c379a0000000000000000000000000000000000000000000000000000000008152600401620001a69062000884565b60405180910390fd5b6000819050620001c4898983898b8a62000414565b935060008490508073ffffffffffffffffffffffffffffffffffffffff166391039dee6040518163ffffffff167c010000000000000000000000000000000000000000000000000000000002815260040160206040518083038186803b1580156200022e57600080fd5b505afa15801562000243573d6000803e3d6000fd5b505050506040513d601f19601f820116820180604052508101906200026991906200065c565b935060008173ffffffffffffffffffffffffffffffffffffffff1663fbbdc4656040518163ffffffff167c010000000000000000000000000000000000000000000000000000000002815260040160206040518083038186803b158015620002d057600080fd5b505afa158015620002e5573d6000803e3d6000fd5b505050506040513d601f19601f820116820180604052508101906200030b91906200065c565b90508460028a604051620003209190620007bd565b90815260200160405180910390208190555088604051620003429190620007bd565b6040518091039020858c73ffffffffffffffffffffffffffffffffffffffff167f87836d9d795936ee8b4b6ffb2c7b7fba245eb618db8294c11e9cf03565afbb408d604051620003939190620008a6565b60405180910390a47f8cf17295cea07172ef627805a194fc701945ac99cb803ae5930490fe2afb45098b8b878c85604051620003d4959493929190620007f3565b60405180910390a1505050509550959350505050565b6000600282604051620003fe9190620007bd565b9081526020016040518091039020549050919050565b600080620004228762000498565b90508088878787600160009054906101000a900473ffffffffffffffffffffffffffffffffffffffff16886040516200045b90620004b7565b6200046d9796959493929190620008c3565b604051809103906000f0801580156200048a573d6000803e3d6000fd5b509150509695505050505050565b6000670de0b6b3a764000082620004b09190620009d5565b9050919050565b6128698062000bd583390190565b6000620004dc620004d6846200097b565b62000947565b905082815260208101848484011115620004f557600080fd5b6200050284828562000aec565b509392505050565b6000813590506200051b8162000ba0565b92915050565b600082601f8301126200053357600080fd5b813562000545848260208601620004c5565b91505092915050565b6000813590506200055f8162000bba565b92915050565b600081519050620005768162000bba565b92915050565b600080600080600060a086880312156200059557600080fd5b6000620005a5888289016200050a565b9550506020620005b8888289016200054e565b945050604086013567ffffffffffffffff811115620005d657600080fd5b620005e48882890162000521565b9350506060620005f7888289016200054e565b92505060806200060a888289016200054e565b9150509295509295909350565b6000602082840312156200062a57600080fd5b600082013567ffffffffffffffff8111156200064557600080fd5b620006538482850162000521565b91505092915050565b6000602082840312156200066f57600080fd5b60006200067f8482850162000565565b91505092915050565b620006938162000a88565b82525050565b620006a48162000a4a565b82525050565b620006b58162000a36565b82525050565b620006c68162000a9c565b82525050565b6000620006d982620009ae565b620006e58185620009b9565b9350620006f781856020860162000afb565b620007028162000b8f565b840191505092915050565b60006200071a82620009ae565b620007268185620009ca565b93506200073881856020860162000afb565b80840191505092915050565b600062000753602683620009b9565b91507f73616c6520776974682074686973204a494420697320616c726561647920637260008301527f65617465642100000000000000000000000000000000000000000000000000006020830152604082019050919050565b620007b78162000a7e565b82525050565b6000620007cb82846200070d565b915081905092915050565b6000602082019050620007ed6000830184620006aa565b92915050565b600060a0820190506200080a600083018862000688565b620008196020830187620007ac565b620008286040830186620007ac565b81810360608301526200083c8185620006cc565b90506200084d6080830184620007ac565b9695505050505050565b60006040820190506200086e6000830185620006aa565b6200087d6020830184620007ac565b9392505050565b600060208201905081810360008301526200089f8162000744565b9050919050565b6000602082019050620008bd6000830184620007ac565b92915050565b600060e082019050620008da600083018a620007ac565b620008e9602083018962000699565b620008f86040830188620006bb565b620009076060830187620007ac565b81810360808301526200091b8186620006cc565b90506200092c60a083018562000699565b6200093b60c0830184620007ac565b98975050505050505050565b6000604051905081810181811067ffffffffffffffff8211171562000971576200097062000b60565b5b8060405250919050565b600067ffffffffffffffff82111562000999576200099862000b60565b5b601f19601f8301169050602081019050919050565b600081519050919050565b600082825260208201905092915050565b600081905092915050565b6000620009e28262000a7e565b9150620009ef8362000a7e565b9250817fffffffffffffffffffffffffffffffffffffffffffffffffffffffffffffffff048311821515161562000a2b5762000a2a62000b31565b5b828202905092915050565b600062000a438262000a5e565b9050919050565b600062000a578262000a5e565b9050919050565b600073ffffffffffffffffffffffffffffffffffffffff82169050919050565b6000819050919050565b600062000a958262000ac4565b9050919050565b600062000aa98262000ab0565b9050919050565b600062000abd8262000a5e565b9050919050565b600062000ad18262000ad8565b9050919050565b600062000ae58262000a5e565b9050919050565b82818337600083830152505050565b60005b8381101562000b1b57808201518184015260208101905062000afe565b8381111562000b2b576000848401525b50505050565b7f4e487b7100000000000000000000000000000000000000000000000000000000600052601160045260246000fd5b7f4e487b7100000000000000000000000000000000000000000000000000000000600052604160045260246000fd5b6000601f19601f8301169050919050565b62000bab8162000a4a565b811462000bb757600080fd5b50565b62000bc58162000a7e565b811462000bd157600080fd5b5056fe6080604052600160045560006006556005600e5542600f553480156200002457600080fd5b50604051620028693803806200286983398181016040528101906200004a91906200044d565b868686868686866001600081905550600087116200009f576040517f08c379a00000000000000000000000000000000000000000000000000000000081526004016200009690620006cd565b60405180910390fd5b600073ffffffffffffffffffffffffffffffffffffffff168673ffffffffffffffffffffffffffffffffffffffff16141562000112576040517f08c379a00000000000000000000000000000000000000000000000000000000081526004016200010990620006ef565b60405180910390fd5b600073ffffffffffffffffffffffffffffffffffffffff168573ffffffffffffffffffffffffffffffffffffffff16141562000185576040517f08c379a00000000000000000000000000000000000000000000000000000000081526004016200017c90620006ab565b60405180910390fd5b8660098190555085600760006101000a81548173ffffffffffffffffffffffffffffffffffffffff021916908373ffffffffffffffffffffffffffffffffffffffff16021790555081600860006101000a81548173ffffffffffffffffffffffffffffffffffffffff021916908373ffffffffffffffffffffffffffffffffffffffff16021790555084600160006101000a81548173ffffffffffffffffffffffffffffffffffffffff021916908373ffffffffffffffffffffffffffffffffffffffff16021790555083600581905550600160009054906101000a900473ffffffffffffffffffffffffffffffffffffffff1673ffffffffffffffffffffffffffffffffffffffff1663a201b238600760009054906101000a900473ffffffffffffffffffffffffffffffffffffffff16856040518363ffffffff167c0100000000000000000000000000000000000000000000000000000000028152600401620002f392919062000677565b602060405180830381600087803b1580156200030e57600080fd5b505af115801562000323573d6000803e3d6000fd5b505050506040513d601f19601f8201168201806040525081019062000349919062000421565b600381905550806010819055505050505050505050505050505050620008fa565b6000620003816200037b8462000745565b62000711565b9050828152602081018484840111156200039a57600080fd5b620003a784828562000836565b509392505050565b600081519050620003c081620008ac565b92915050565b600081519050620003d781620008c6565b92915050565b600082601f830112620003ef57600080fd5b8151620004018482602086016200036a565b91505092915050565b6000815190506200041b81620008e0565b92915050565b6000602082840312156200043457600080fd5b600062000444848285016200040a565b91505092915050565b600080600080600080600060e0888a0312156200046957600080fd5b6000620004798a828b016200040a565b97505060206200048c8a828b01620003af565b96505060406200049f8a828b01620003c6565b9550506060620004b28a828b016200040a565b945050608088015167ffffffffffffffff811115620004d057600080fd5b620004de8a828b01620003dd565b93505060a0620004f18a828b01620003af565b92505060c0620005048a828b016200040a565b91505092959891949750929550565b6200051e81620007fa565b82525050565b6000620005318262000778565b6200053d818562000783565b93506200054f81856020860162000836565b6200055a816200089b565b840191505092915050565b60006200057460248362000783565b91507f43726f776473616c653a20746f6b656e20697320746865207a65726f2061646460008301527f72657373000000000000000000000000000000000000000000000000000000006020830152604082019050919050565b6000620005dc60148362000783565b91507f43726f776473616c653a207261746520697320300000000000000000000000006000830152602082019050919050565b60006200061e60258362000783565b91507f43726f776473616c653a2077616c6c657420697320746865207a65726f20616460008301527f64726573730000000000000000000000000000000000000000000000000000006020830152604082019050919050565b60006040820190506200068e600083018562000513565b8181036020830152620006a2818462000524565b90509392505050565b60006020820190508181036000830152620006c68162000565565b9050919050565b60006020820190508181036000830152620006e881620005cd565b9050919050565b600060208201905081810360008301526200070a816200060f565b9050919050565b6000604051905081810181811067ffffffffffffffff821117156200073b576200073a6200086c565b5b8060405250919050565b600067ffffffffffffffff8211156200076357620007626200086c565b5b601f19601f8301169050602081019050919050565b600081519050919050565b600082825260208201905092915050565b6000620007a182620007d0565b9050919050565b6000620007b582620007d0565b9050919050565b6000620007c98262000794565b9050919050565b600073ffffffffffffffffffffffffffffffffffffffff82169050919050565b6000819050919050565b600062000807826200080e565b9050919050565b60006200081b8262000822565b9050919050565b60006200082f82620007d0565b9050919050565b60005b838110156200085657808201518184015260208101905062000839565b8381111562000866576000848401525b50505050565b7f4e487b7100000000000000000000000000000000000000000000000000000000600052604160045260246000fd5b6000601f19601f8301169050919050565b620008b781620007a8565b8114620008c357600080fd5b50565b620008d181620007bc565b8114620008dd57600080fd5b50565b620008eb81620007f0565b8114620008f757600080fd5b50565b611f5f806200090a6000396000f3fe6080604052600436106101d4576000357c01000000000000000000000000000000000000000000000000000000009004806391039dee11610109578063e678ce7b116100a7578063f9a4bb1e11610081578063f9a4bb1e14610607578063f9cfe26b14610632578063fbbdc4651461065d578063fc0c546a14610688576101d4565b8063e678ce7b14610595578063ecd0c0c3146105b1578063f00a93d3146105dc576101d4565b8063d887c411116100e3578063d887c411146104e6578063dac36d7b14610502578063e27920a81461053f578063e61d95941461056a576101d4565b806391039dee14610465578063a8253cac14610490578063b8afaa48146104bb576101d4565b80634f13dc7e116101765780636c1e81e3116101505780636c1e81e3146103a95780636ed08ea0146103d257806372a020e4146103fd578063868e180914610428576101d4565b80634f13dc7e14610328578063521eb27314610353578063610757e41461037e576101d4565b806323e6f340116101b257806323e6f3401461027c5780632c4e722e146102a75780633b13d188146102d25780634042b66f146102fd576101d4565b806304a75ec5146101d95780631cf6843b14610216578063218fdf4314610253575b600080fd5b3480156101e557600080fd5b5061020060048036038101906101fb9190611661565b6106b3565b60405161020d9190611ab6565b60405180910390f35b34801561022257600080fd5b5061023d600480360381019061023891906116b3565b610760565b60405161024a9190611bcc565b60405180910390f35b34801561025f57600080fd5b5061027a60048036038101906102759190611661565b610789565b005b34801561028857600080fd5b50610291610825565b60405161029e9190611bcc565b60405180910390f35b3480156102b357600080fd5b506102bc61082b565b6040516102c99190611bcc565b60405180910390f35b3480156102de57600080fd5b506102e7610835565b6040516102f49190611bcc565b60405180910390f35b34801561030957600080fd5b5061031261083b565b60405161031f9190611bcc565b60405180910390f35b34801561033457600080fd5b5061033d610845565b60405161034a9190611bcc565b60405180910390f35b34801561035f57600080fd5b5061036861084b565b6040516103759190611996565b60405180910390f35b34801561038a57600080fd5b50610393610875565b6040516103a09190611996565b60405180910390f35b3480156103b557600080fd5b506103d060048036038101906103cb91906115ad565b61089b565b005b3480156103de57600080fd5b506103e761094e565b6040516103f49190611bcc565b60405180910390f35b34801561040957600080fd5b50610412610954565b60405161041f9190611ab6565b60405180910390f35b34801561043457600080fd5b5061044f600480360381019061044a9190611661565b61097a565b60405161045c9190611bcc565b60405180910390f35b34801561047157600080fd5b5061047a610992565b6040516104879190611bcc565b60405180910390f35b34801561049c57600080fd5b506104a561099c565b6040516104b29190611bcc565b60405180910390f35b3480156104c757600080fd5b506104d06109b2565b6040516104dd9190611bcc565b60405180910390f35b61050060048036038101906104fb91906115e9565b6109b8565b005b34801561050e57600080fd5b5061052960048036038101906105249190611661565b6109c8565b6040516105369190611bcc565b60405180910390f35b34801561054b57600080fd5b50610554610a55565b6040516105619190611bcc565b60405180910390f35b34801561057657600080fd5b5061057f610a5b565b60405161058c9190611bcc565b60405180910390f35b6105af60048036038101906105aa91906115e9565b610a65565b005b3480156105bd57600080fd5b506105c6610ca7565b6040516105d39190611ad1565b60405180910390f35b3480156105e857600080fd5b506105f1610ccd565b6040516105fe9190611bcc565b60405180910390f35b34801561061357600080fd5b5061061c610cd7565b6040516106299190611996565b60405180910390f35b34801561063e57600080fd5b50610647610cfd565b6040516106549190611bcc565b60405180910390f35b34801561066957600080fd5b50610672610d03565b60405161067f9190611bcc565b60405180910390f35b34801561069457600080fd5b5061069d610d0d565b6040516106aa9190611ad1565b60405180910390f35b6000600b60008360028111156106f2577f4e487b7100000000000000000000000000000000000000000000000000000000600052602160045260246000fd5b600281111561072a577f4e487b7100000000000000000000000000000000000000000000000000000000600052602160045260246000fd5b815260200190815260200160002060009054906101000a900473ffffffffffffffffffffffffffffffffffffffff169050919050565b60008061076c836109c8565b90506000848261077c9190611cdf565b9050809250505092915050565b600760009054906101000a900473ffffffffffffffffffffffffffffffffffffffff1673ffffffffffffffffffffffffffffffffffffffff163373ffffffffffffffffffffffffffffffffffffffff1614610819576040517f08c379a000000000000000000000000000000000000000000000000000000000815260040161081090611aec565b60405180910390fd5b61082281610d37565b50565b60045481565b6000600954905090565b60105481565b6000600d54905090565b600f5481565b6000600760009054906101000a900473ffffffffffffffffffffffffffffffffffffffff16905090565b600760009054906101000a900473ffffffffffffffffffffffffffffffffffffffff1681565b60006108a5610d0d565b905060006108b1610992565b90508173ffffffffffffffffffffffffffffffffffffffff1663a27c282e8585846040518463ffffffff167c010000000000000000000000000000000000000000000000000000000002815260040161090c93929190611a3a565b600060405180830381600087803b15801561092657600080fd5b505af115801561093a573d6000803e3d6000fd5b505050506109486012610ffa565b50505050565b60035481565b600260009054906101000a900473ffffffffffffffffffffffffffffffffffffffff1681565b600a6020528060005260406000206000915090505481565b6000600354905090565b6000806109a96012611010565b90508091505090565b60115481565b6109c3838383610a65565b505050565b6000600a6000836002811115610a07577f4e487b7100000000000000000000000000000000000000000000000000000000600052602160045260246000fd5b6002811115610a3f577f4e487b7100000000000000000000000000000000000000000000000000000000600052602160045260246000fd5b8152602001908152602001600020549050919050565b600e5481565b6000600654905090565b60026000541415610aab576040517f08c379a0000000000000000000000000000000000000000000000000000000008152600401610aa290611b8c565b60405180910390fd5b600260008190555060008290506000610ac48284610760565b9050610ad28582848661101e565b610b6881600c6000866002811115610b13577f4e487b7100000000000000000000000000000000000000000000000000000000600052602160045260246000fd5b6002811115610b4b577f4e487b7100000000000000000000000000000000000000000000000000000000600052602160045260246000fd5b81526020019081526020016000205461123390919063ffffffff16565b600c6000856002811115610ba5577f4e487b7100000000000000000000000000000000000000000000000000000000600052602160045260246000fd5b6002811115610bdd577f4e487b7100000000000000000000000000000000000000000000000000000000600052602160045260246000fd5b815260200190815260200160002081905550610c048260065461123390919063ffffffff16565b600681905550610c1685838584611249565b8473ffffffffffffffffffffffffffffffffffffffff16610c35611351565b73ffffffffffffffffffffffffffffffffffffffff167f6faf93231a456e552dbc9961f58d9713ee4f2e69d15f1975b050ef0911053a7b8385604051610c7c929190611be7565b60405180910390a3610c8e8582611359565b610c98858261135d565b50506001600081905550505050565b600160009054906101000a900473ffffffffffffffffffffffffffffffffffffffff1681565b6000600554905090565b600860009054906101000a900473ffffffffffffffffffffffffffffffffffffffff1681565b60065481565b6000600454905090565b6000600160009054906101000a900473ffffffffffffffffffffffffffffffffffffffff16905090565b6000610d42826106b3565b905060008173ffffffffffffffffffffffffffffffffffffffff166370a08231306040518263ffffffff167c0100000000000000000000000000000000000000000000000000000000028152600401610d9b919061197b565b60206040518083038186803b158015610db357600080fd5b505afa158015610dc7573d6000803e3d6000fd5b505050506040513d601f19601f82011682018060405250810190610deb919061168a565b90506000606490506000610dff8383611361565b90508083610e0d9190611d39565b92508373ffffffffffffffffffffffffffffffffffffffff1663a9059cbb600760009054906101000a900473ffffffffffffffffffffffffffffffffffffffff16856040518363ffffffff167c0100000000000000000000000000000000000000000000000000000000028152600401610e889291906119b1565b602060405180830381600087803b158015610ea257600080fd5b505af1158015610eb6573d6000803e3d6000fd5b505050506040513d601f19601f82011682018060405250810190610eda9190611638565b508373ffffffffffffffffffffffffffffffffffffffff1663a9059cbb600860009054906101000a900473ffffffffffffffffffffffffffffffffffffffff16836040518363ffffffff167c0100000000000000000000000000000000000000000000000000000000028152600401610f549291906119b1565b602060405180830381600087803b158015610f6e57600080fd5b505af1158015610f82573d6000803e3d6000fd5b505050506040513d601f19601f82011682018060405250810190610fa69190611638565b5060008184610fb59190611c58565b90507f8f4705a6d8c5af200050d845b50d0f90f838a179c62b9365daa314992598fc1b818386604051610fea93929190611c10565b60405180910390a1505050505050565b6001816000016000828254019250508190555050565b600081600001549050919050565b600073ffffffffffffffffffffffffffffffffffffffff168473ffffffffffffffffffffffffffffffffffffffff16141561108e576040517f08c379a000000000000000000000000000000000000000000000000000000000815260040161108590611b4c565b60405180910390fd5b60008314156110d2576040517f08c379a00000000000000000000000000000000000000000000000000000000081526004016110c990611bac565b60405180910390fd5b60006006549050600083826110e79190611c58565b905060055481111561112e576040517f08c379a000000000000000000000000000000000000000000000000000000000815260040161112590611b2c565b60405180910390fd5b6000611139846106b3565b905060008173ffffffffffffffffffffffffffffffffffffffff1663dd62ed3e89306040518363ffffffff167c01000000000000000000000000000000000000000000000000000000000281526004016111949291906119da565b60206040518083038186803b1580156111ac57600080fd5b505afa1580156111c0573d6000803e3d6000fd5b505050506040513d601f19601f820116820180604052508101906111e4919061168a565b905086811015611229576040517f08c379a000000000000000000000000000000000000000000000000000000000815260040161122090611b6c565b60405180910390fd5b5050505050505050565b600081836112419190611c58565b905092915050565b6000611254836106b3565b90508073ffffffffffffffffffffffffffffffffffffffff166323b872dd8630856040518463ffffffff167c01000000000000000000000000000000000000000000000000000000000281526004016112af93929190611a03565b602060405180830381600087803b1580156112c957600080fd5b505af11580156112dd573d6000803e3d6000fd5b505050506040513d601f19601f820116820180604052508101906113019190611638565b611340576040517f08c379a000000000000000000000000000000000000000000000000000000000815260040161133790611b0c565b60405180910390fd5b61134a858561144b565b5050505050565b600033905090565b5050565b5050565b60008061136e8484611502565b9050600061137c8585611518565b9050600061138c600e5486611502565b9050600061139c600e5487611518565b905060006113b36113ad868561152e565b8861152e565b905060006113c1868461152e565b905060006113cf868661152e565b905060006113dd878661152e565b905060006113ec8b6002611502565b905060006113fa8383611233565b90506000611408828e611502565b905060006114168888611233565b905060006114248288611233565b905060006114328285611233565b9050809e50505050505050505050505050505092915050565b600160009054906101000a900473ffffffffffffffffffffffffffffffffffffffff1673ffffffffffffffffffffffffffffffffffffffff1663cd3a15f883836003546004546040518563ffffffff167c01000000000000000000000000000000000000000000000000000000000281526004016114cc9493929190611a71565b600060405180830381600087803b1580156114e657600080fd5b505af11580156114fa573d6000803e3d6000fd5b505050505050565b600081836115109190611cae565b905092915050565b600081836115269190611e45565b905092915050565b6000818361153c9190611cdf565b905092915050565b60008135905061155381611ed4565b92915050565b60008151905061156881611eeb565b92915050565b60008135905061157d81611f02565b92915050565b60008135905061159281611f12565b92915050565b6000815190506115a781611f12565b92915050565b600080604083850312156115c057600080fd5b60006115ce85828601611544565b92505060206115df85828601611583565b9150509250929050565b6000806000606084860312156115fe57600080fd5b600061160c86828701611544565b935050602061161d86828701611583565b925050604061162e8682870161156e565b9150509250925092565b60006020828403121561164a57600080fd5b600061165884828501611559565b91505092915050565b60006020828403121561167357600080fd5b60006116818482850161156e565b91505092915050565b60006020828403121561169c57600080fd5b60006116aa84828501611598565b91505092915050565b600080604083850312156116c657600080fd5b60006116d485828601611583565b92505060206116e58582860161156e565b9150509250929050565b6116f881611dc7565b82525050565b61170781611d7f565b82525050565b61171681611d6d565b82525050565b61172581611dd9565b82525050565b61173481611dfd565b82525050565b6000611747601983611c47565b91507f6f6e6c79206f7267616e61697a65722063616e20646f206974000000000000006000830152602082019050919050565b6000611787602c83611c47565b91507f7472616e736665722066726f6d20627579657220746f207468697320636f6e7460008301527f72616374206661696c65642000000000000000000000000000000000000000006020830152604082019050919050565b60006117ed602a83611c47565b91507f746f6b656e7320616d6f756e742073686f756c64206e6f74206578636565642060008301527f73616c655f6c696d6974000000000000000000000000000000000000000000006020830152604082019050919050565b6000611853602a83611c47565b91507f43726f776473616c653a2062656e656669636961727920697320746865207a6560008301527f726f2061646472657373000000000000000000000000000000000000000000006020830152604082019050919050565b60006118b9601383611c47565b91507f617070726f766564206e6f7420656e6f676874000000000000000000000000006000830152602082019050919050565b60006118f9601f83611c47565b91507f5265656e7472616e637947756172643a207265656e7472616e742063616c6c006000830152602082019050919050565b6000611939601983611c47565b91507f43726f776473616c653a20776569416d6f756e742069732030000000000000006000830152602082019050919050565b61197581611dbd565b82525050565b6000602082019050611990600083018461170d565b92915050565b60006020820190506119ab60008301846116fe565b92915050565b60006040820190506119c660008301856116ef565b6119d3602083018461196c565b9392505050565b60006040820190506119ef600083018561170d565b6119fc602083018461170d565b9392505050565b6000606082019050611a18600083018661170d565b611a25602083018561170d565b611a32604083018461196c565b949350505050565b6000606082019050611a4f600083018661170d565b611a5c602083018561196c565b611a69604083018461196c565b949350505050565b6000608082019050611a86600083018761170d565b611a93602083018661196c565b611aa0604083018561196c565b611aad606083018461196c565b95945050505050565b6000602082019050611acb600083018461171c565b92915050565b6000602082019050611ae6600083018461172b565b92915050565b60006020820190508181036000830152611b058161173a565b9050919050565b60006020820190508181036000830152611b258161177a565b9050919050565b60006020820190508181036000830152611b45816117e0565b9050919050565b60006020820190508181036000830152611b6581611846565b9050919050565b60006020820190508181036000830152611b85816118ac565b9050919050565b60006020820190508181036000830152611ba5816118ec565b9050919050565b60006020820190508181036000830152611bc58161192c565b9050919050565b6000602082019050611be1600083018461196c565b92915050565b6000604082019050611bfc600083018561196c565b611c09602083018461196c565b9392505050565b6000606082019050611c25600083018661196c565b611c32602083018561196c565b611c3f604083018461196c565b949350505050565b600082825260208201905092915050565b6000611c6382611dbd565b9150611c6e83611dbd565b9250827fffffffffffffffffffffffffffffffffffffffffffffffffffffffffffffffff03821115611ca357611ca2611e76565b5b828201905092915050565b6000611cb982611dbd565b9150611cc483611dbd565b925082611cd457611cd3611ea5565b5b828204905092915050565b6000611cea82611dbd565b9150611cf583611dbd565b9250817fffffffffffffffffffffffffffffffffffffffffffffffffffffffffffffffff0483118215151615611d2e57611d2d611e76565b5b828202905092915050565b6000611d4482611dbd565b9150611d4f83611dbd565b925082821015611d6257611d61611e76565b5b828203905092915050565b6000611d7882611d9d565b9050919050565b6000611d8a82611d9d565b9050919050565b60008115159050919050565b600073ffffffffffffffffffffffffffffffffffffffff82169050919050565b6000819050919050565b6000611dd282611e21565b9050919050565b6000611de482611deb565b9050919050565b6000611df682611d9d565b9050919050565b6000611e0882611e0f565b9050919050565b6000611e1a82611d9d565b9050919050565b6000611e2c82611e33565b9050919050565b6000611e3e82611d9d565b9050919050565b6000611e5082611dbd565b9150611e5b83611dbd565b925082611e6b57611e6a611ea5565b5b828206905092915050565b7f4e487b7100000000000000000000000000000000000000000000000000000000600052601160045260246000fd5b7f4e487b7100000000000000000000000000000000000000000000000000000000600052601260045260246000fd5b611edd81611d6d565b8114611ee857600080fd5b50565b611ef481611d91565b8114611eff57600080fd5b50565b60038110611f0f57600080fd5b50565b611f1b81611dbd565b8114611f2657600080fd5b5056fea26469706673582212201c7bd3a1410bdee0273322d9e653f97e82674920cdf0770e585aa1cad09b8ea264736f6c63430008000033a2646970667358221220d4c03eaaad5c8f568017545710e4c3ffb95b348701379ae7ee99bafdf03d56c164736f6c63430008000033",
  "immutableReferences": {},
  "source": "pragma solidity ^0.8.0;\n\n//import './zeppeline/token/ERC20/ERC20Mintable.sol';\n\n// TODO: replace contracts to interfaces cause of gas limit\n// FIXME: this contract required for 7m gas limit -- which is more than standart 6m in ethereum networks. We should consider that when deployment\n\nimport './MSNFT.sol';\nimport './TicketSale721.sol';\n//import './TicketSalePluggable.sol';\n\n\n\ncontract TicketFactory721 {\n\n// constant\naddress ticket_template;\n\naddress payable treasure_fund;\n\n// event\nevent SaleCreated(address indexed organizer, uint price, uint256 indexed event_id, string indexed event_JID);\nevent SaleCreatedHuman(address organizer, uint price, uint256 event_id, string event_JID, uint ticket_type);\nevent PluggedSale(address indexed organizer, address indexed orginal_sale, uint256 indexed event_id);\nevent PluggedSaleHuman(address organizer, address original_sale, uint256 event_id, uint ticket_type);\n\n// mapping from JID to event_id\nmapping (string => uint256) events_jids;\n\n\nconstructor(address _ticket, address payable _treasure_fund)  {\n   // ticket_template = createMSNFT();\n   ticket_template = _ticket;\n   treasure_fund = _treasure_fund;\n}\n\n\nfunction createMSNFT() internal returns (address ticket_address) {\n //  address factory_address = address(this);\n   string memory name_ = \"MoonShardNFT\";\n   string memory smbl_ = \"MSNFT\";\n   ticket_address = address(new MSNFT(name_,smbl_));\n   return ticket_address;\n}\n\n\nfunction createTicketSale721(address payable organizer, uint price, MSNFT token,uint sale_limit, string memory jid,uint timeToStart) internal returns(address ticket_sale) {\n    // calculate price\n    uint256 cena = calculateRate(price);\n\n    ticket_sale = address(new TicketSale721(cena, organizer, token, sale_limit, jid,treasure_fund, timeToStart));\n    return ticket_sale;\n}\n\nfunction createTicketSale(address payable organizer, uint price, string memory event_JID, uint sale_limit, uint timeToStart) public returns (address ticket_sale_adr, uint256 event_id) {\n\n    address ticket_adr = ticket_template;\n    require(events_jids[event_JID] == 0, \"sale with this JID is already created!\");\n    MSNFT ticket = MSNFT(ticket_adr);\n    ticket_sale_adr = createTicketSale721(organizer, price, ticket,sale_limit, event_JID, timeToStart);\n    TicketSale721 ticket_sale = TicketSale721(ticket_sale_adr);\n\n    event_id = ticket_sale.event_id();\n    uint ticket_type = ticket_sale.ticket_type();\n    events_jids[event_JID] = event_id;\n    emit SaleCreated(organizer, price, event_id, event_JID);\n    emit SaleCreatedHuman(organizer,price,event_id, event_JID, ticket_type);\n    return(ticket_sale_adr, event_id);\n\n\n}\n\n/*\nfunction PlugInTicketSale(address payable origin_sale, uint price, uint _sale_limit) public returns(address payable plugin_sale) {\n    uint cena = calculateRate(price);\n    plugin_sale = address(new TicketSalePluggable(cena,origin_sale, _sale_limit,treasure_fund));\n    //TicketSale721 ticket_sale = TicketSale721(origin_sale);\n    TicketSalePluggable plugin_sale_instance = TicketSalePluggable(plugin_sale);\n    uint256 event_id = plugin_sale_instance.event_id();\n    uint ticket_type = plugin_sale_instance.ticket_type();\n    emit PluggedSale(msg.sender,origin_sale,event_id);\n    emit PluggedSaleHuman(msg.sender, origin_sale, event_id, ticket_type);\n    return plugin_sale;\n}\n*/\n\nfunction calculateRate (uint256 price) internal pure returns (uint256 rate_p) {\n    // rate = price * 1 eth\n    rate_p = price * (1 ether); // override for price determinition\n    return rate_p;\n}\n\n\nfunction getEventIdByJid(string memory JID) public view returns(uint256) {\n    return events_jids[JID];\n}\n\nfunction getTicketTemplateAddress() public view returns(address) {\n    return ticket_template;\n}\n\n}",
  "sourcePath": "/home/jack/ethProjects/UniversalNFTMarketplace/contracts/721/singleton/TicketFactory721.sol",
  "compiler": {
    "name": "solc",
    "version": "0.8.0+commit.c7dfd78e.Emscripten.clang"
  },
  "schemaVersion": "3.4.1",
  "updatedAt": "2021-06-20T19:06:23.746Z",
  "devdoc": {
    "kind": "dev",
    "methods": {},
    "version": 1
  },
  "userdoc": {
    "kind": "user",
    "methods": {},
    "version": 1
  }
}