{
  "contractName": "TicketFactory721",
  "abi": [
    {
      "inputs": [
        {
          "internalType": "address",
          "name": "_master",
          "type": "address"
        },
        {
          "internalType": "address payable",
          "name": "_treasure_fund",
          "type": "address"
        }
      ],
      "stateMutability": "nonpayable",
      "type": "constructor"
    },
    {
      "anonymous": false,
      "inputs": [
        {
          "indexed": true,
          "internalType": "address",
          "name": "organizer",
          "type": "address"
        },
        {
          "indexed": true,
          "internalType": "address",
          "name": "orginal_sale",
          "type": "address"
        },
        {
          "indexed": true,
          "internalType": "uint256",
          "name": "event_id",
          "type": "uint256"
        }
      ],
      "name": "PluggedSale",
      "type": "event"
    },
    {
      "anonymous": false,
      "inputs": [
        {
          "indexed": false,
          "internalType": "address",
          "name": "organizer",
          "type": "address"
        },
        {
          "indexed": false,
          "internalType": "address",
          "name": "original_sale",
          "type": "address"
        },
        {
          "indexed": false,
          "internalType": "uint256",
          "name": "event_id",
          "type": "uint256"
        },
        {
          "indexed": false,
          "internalType": "uint256",
          "name": "ticket_type",
          "type": "uint256"
        }
      ],
      "name": "PluggedSaleHuman",
      "type": "event"
    },
    {
      "anonymous": false,
      "inputs": [
        {
          "indexed": true,
          "internalType": "address",
          "name": "organizer",
          "type": "address"
        },
        {
          "indexed": false,
          "internalType": "uint256",
          "name": "price",
          "type": "uint256"
        },
        {
          "indexed": true,
          "internalType": "uint256",
          "name": "event_id",
          "type": "uint256"
        },
        {
          "indexed": true,
          "internalType": "string",
          "name": "event_JID",
          "type": "string"
        }
      ],
      "name": "SaleCreated",
      "type": "event"
    },
    {
      "anonymous": false,
      "inputs": [
        {
          "indexed": false,
          "internalType": "address",
          "name": "organizer",
          "type": "address"
        },
        {
          "indexed": false,
          "internalType": "uint256",
          "name": "price",
          "type": "uint256"
        },
        {
          "indexed": false,
          "internalType": "uint256",
          "name": "event_id",
          "type": "uint256"
        },
        {
          "indexed": false,
          "internalType": "string",
          "name": "event_JID",
          "type": "string"
        },
        {
          "indexed": false,
          "internalType": "uint256",
          "name": "ticket_type",
          "type": "uint256"
        }
      ],
      "name": "SaleCreatedHuman",
      "type": "event"
    },
    {
      "inputs": [
        {
          "internalType": "string",
          "name": "link",
          "type": "string"
        },
        {
          "internalType": "string",
          "name": "_description",
          "type": "string"
        },
        {
          "internalType": "uint256",
          "name": "_supplyType",
          "type": "uint256"
        }
      ],
      "name": "createMasterItem",
      "outputs": [
        {
          "internalType": "uint256",
          "name": "master_id",
          "type": "uint256"
        }
      ],
      "stateMutability": "nonpayable",
      "type": "function"
    },
    {
      "inputs": [
        {
          "internalType": "uint256",
          "name": "price",
          "type": "uint256"
        },
        {
          "internalType": "uint256",
          "name": "sale_limit",
          "type": "uint256"
        },
        {
          "internalType": "enum TokenSale721.CurrencyERC20",
          "name": "currency",
          "type": "uint8"
        },
        {
          "internalType": "uint256",
          "name": "f_master_id",
          "type": "uint256"
        }
      ],
      "name": "createItemSale",
      "outputs": [
        {
          "internalType": "address",
          "name": "item_sale_adr",
          "type": "address"
        }
      ],
      "stateMutability": "nonpayable",
      "type": "function"
    },
    {
      "inputs": [],
      "name": "getMasterTemplateAddress",
      "outputs": [
        {
          "internalType": "address",
          "name": "",
          "type": "address"
        }
      ],
      "stateMutability": "view",
      "type": "function"
    }
  ],
  "bytecode": "0x608060405234801561001057600080fd5b50604051620034c5380380620034c5833981810160405281019061003491906100e6565b816000806101000a81548173ffffffffffffffffffffffffffffffffffffffff021916908373ffffffffffffffffffffffffffffffffffffffff16021790555080600160006101000a81548173ffffffffffffffffffffffffffffffffffffffff021916908373ffffffffffffffffffffffffffffffffffffffff1602179055505050610194565b6000815190506100cb81610166565b92915050565b6000815190506100e08161017d565b92915050565b600080604083850312156100f957600080fd5b6000610107858286016100bc565b9250506020610118858286016100d1565b9150509250929050565b600061012d82610146565b9050919050565b600061013f82610146565b9050919050565b600073ffffffffffffffffffffffffffffffffffffffff82169050919050565b61016f81610122565b811461017a57600080fd5b50565b61018681610134565b811461019157600080fd5b50565b61332180620001a46000396000f3fe60806040523480156200001157600080fd5b506004361062000063576000357c0100000000000000000000000000000000000000000000000000000000900480632b922b6714620000685780635a1defa6146200008a5780638919b0ed14620000c0575b600080fd5b62000072620000f6565b60405162000081919062000717565b60405180910390f35b620000a86004803603810190620000a29190620004f9565b6200011f565b604051620000b791906200082e565b60405180910390f35b620000de6004803603810190620000d89190620005ad565b6200020e565b604051620000ed919062000717565b60405180910390f35b60008060009054906101000a900473ffffffffffffffffffffffffffffffffffffffff16905090565b60008060008054906101000a900473ffffffffffffffffffffffffffffffffffffffff169050600033905060008290508073ffffffffffffffffffffffffffffffffffffffff1663f1d121c1888489896040518563ffffffff167c0100000000000000000000000000000000000000000000000000000000028152600401620001ac9493929190620007b1565b602060405180830381600087803b158015620001c757600080fd5b505af1158015620001dc573d6000803e3d6000fd5b505050506040513d601f19601f8201168201806040525081019062000202919062000581565b93505050509392505050565b60008060008054906101000a900473ffffffffffffffffffffffffffffffffffffffff1690506000339050600082905060008590508173ffffffffffffffffffffffffffffffffffffffff16630e304d88826040518263ffffffff167c01000000000000000000000000000000000000000000000000000000000281526004016200029a91906200082e565b60206040518083038186803b158015620002b357600080fd5b505afa158015620002c8573d6000803e3d6000fd5b505050506040513d601f19601f82011682018060405250810190620002ee9190620004cd565b73ffffffffffffffffffffffffffffffffffffffff168373ffffffffffffffffffffffffffffffffffffffff16146200035e576040517f08c379a000000000000000000000000000000000000000000000000000000000815260040162000355906200080c565b60405180910390fd5b6200036e838a848b8b866200037c565b945050505050949350505050565b6000868585600160009054906101000a900473ffffffffffffffffffffffffffffffffffffffff16898787604051620003b590620003f1565b620003c7979695949392919062000734565b604051809103906000f080158015620003e4573d6000803e3d6000fd5b5090509695505050505050565b61286a8062000a8283390190565b60006200041662000410846200087f565b6200084b565b9050828152602081018484840111156200042f57600080fd5b6200043c84828562000971565b509392505050565b600081519050620004558162000a3c565b92915050565b6000813590506200046c8162000a56565b92915050565b600082601f8301126200048457600080fd5b813562000496848260208601620003ff565b91505092915050565b600081359050620004b08162000a67565b92915050565b600081519050620004c78162000a67565b92915050565b600060208284031215620004e057600080fd5b6000620004f08482850162000444565b91505092915050565b6000806000606084860312156200050f57600080fd5b600084013567ffffffffffffffff8111156200052a57600080fd5b620005388682870162000472565b935050602084013567ffffffffffffffff8111156200055657600080fd5b620005648682870162000472565b925050604062000577868287016200049f565b9150509250925092565b6000602082840312156200059457600080fd5b6000620005a484828501620004b6565b91505092915050565b60008060008060808587031215620005c457600080fd5b6000620005d4878288016200049f565b9450506020620005e7878288016200049f565b9350506040620005fa878288016200045b565b92505060606200060d878288016200049f565b91505092959194509250565b6200062481620008e2565b82525050565b6200063581620008ce565b82525050565b620006468162000935565b82525050565b62000657816200095d565b82525050565b60006200066a82620008b2565b620006768185620008bd565b93506200068881856020860162000980565b620006938162000a14565b840191505092915050565b6000620006ad603283620008bd565b91507f796f7520617265206e6f74206f776e2074686973206d617374657220746f207360008301527f746172742073656c6c696e67206974656d7300000000000000000000000000006020830152604082019050919050565b62000711816200092b565b82525050565b60006020820190506200072e60008301846200062a565b92915050565b600060e0820190506200074b600083018a6200062a565b6200075a60208301896200063b565b62000769604083018862000706565b62000778606083018762000619565b62000787608083018662000706565b6200079660a08301856200064c565b620007a560c083018462000706565b98975050505050505050565b60006080820190508181036000830152620007cd81876200065d565b9050620007de60208301866200062a565b8181036040830152620007f281856200065d565b905062000803606083018462000706565b95945050505050565b6000602082019050818103600083015262000827816200069e565b9050919050565b600060208201905062000845600083018462000706565b92915050565b6000604051905081810181811067ffffffffffffffff82111715620008755762000874620009e5565b5b8060405250919050565b600067ffffffffffffffff8211156200089d576200089c620009e5565b5b601f19601f8301169050602081019050919050565b600081519050919050565b600082825260208201905092915050565b6000620008db826200090b565b9050919050565b6000620008ef826200090b565b9050919050565b6000819050620009068262000a25565b919050565b600073ffffffffffffffffffffffffffffffffffffffff82169050919050565b6000819050919050565b6000620009428262000949565b9050919050565b600062000956826200090b565b9050919050565b60006200096a82620008f6565b9050919050565b82818337600083830152505050565b60005b83811015620009a057808201518184015260208101905062000983565b83811115620009b0576000848401525b50505050565b7f4e487b7100000000000000000000000000000000000000000000000000000000600052602160045260246000fd5b7f4e487b7100000000000000000000000000000000000000000000000000000000600052604160045260246000fd5b6000601f19601f8301169050919050565b6003811062000a395762000a38620009b6565b5b50565b62000a4781620008ce565b811462000a5357600080fd5b50565b6003811062000a6457600080fd5b50565b62000a72816200092b565b811462000a7e57600080fd5b5056fe608060405260006006556005600e5542600f553480156200001f57600080fd5b506040516200286a3803806200286a83398181016040528101906200004591906200066d565b868686868686866001600081905550600073ffffffffffffffffffffffffffffffffffffffff168773ffffffffffffffffffffffffffffffffffffffff161415620000c7576040517f08c379a0000000000000000000000000000000000000000000000000000000008152600401620000be9062000849565b60405180910390fd5b600073ffffffffffffffffffffffffffffffffffffffff168673ffffffffffffffffffffffffffffffffffffffff1614156200013a576040517f08c379a0000000000000000000000000000000000000000000000000000000008152600401620001319062000827565b60405180910390fd5b6000600281111562000175577f4e487b7100000000000000000000000000000000000000000000000000000000600052602160045260246000fd5b826002811115620001af577f4e487b7100000000000000000000000000000000000000000000000000000000600052602160045260246000fd5b14806200022e575060016002811115620001f2577f4e487b7100000000000000000000000000000000000000000000000000000000600052602160045260246000fd5b8260028111156200022c577f4e487b7100000000000000000000000000000000000000000000000000000000600052602160045260246000fd5b145b156200034e5782600a600080600281111562000273577f4e487b7100000000000000000000000000000000000000000000000000000000600052602160045260246000fd5b6002811115620002ac577f4e487b7100000000000000000000000000000000000000000000000000000000600052602160045260246000fd5b81526020019081526020016000208190555082600a6000806002811115620002fd577f4e487b7100000000000000000000000000000000000000000000000000000000600052602160045260246000fd5b600281111562000336577f4e487b7100000000000000000000000000000000000000000000000000000000600052602160045260246000fd5b815260200190815260200160002081905550620003d9565b82600a60008460028111156200038d577f4e487b7100000000000000000000000000000000000000000000000000000000600052602160045260246000fd5b6002811115620003c6577f4e487b7100000000000000000000000000000000000000000000000000000000600052602160045260246000fd5b8152602001908152602001600020819055505b86600760006101000a81548173ffffffffffffffffffffffffffffffffffffffff021916908373ffffffffffffffffffffffffffffffffffffffff16021790555083600860006101000a81548173ffffffffffffffffffffffffffffffffffffffff021916908373ffffffffffffffffffffffffffffffffffffffff16021790555085600160006101000a81548173ffffffffffffffffffffffffffffffffffffffff021916908373ffffffffffffffffffffffffffffffffffffffff16021790555084600581905550600160009054906101000a900473ffffffffffffffffffffffffffffffffffffffff1673ffffffffffffffffffffffffffffffffffffffff1663239e1d72826040518263ffffffff167c01000000000000000000000000000000000000000000000000000000000281526004016200051c91906200086b565b60206040518083038186803b1580156200053557600080fd5b505afa1580156200054a573d6000803e3d6000fd5b505050506040513d601f19601f820116820180604052508101906200057091906200071a565b600460006101000a81548160ff02191690836002811115620005bb577f4e487b7100000000000000000000000000000000000000000000000000000000600052602160045260246000fd5b0217905550806003819055506000601081905550505050505050505050505050505062000989565b600081519050620005f481620008ff565b92915050565b6000815190506200060b8162000919565b92915050565b600081519050620006228162000933565b92915050565b60008151905062000639816200094d565b92915050565b60008151905062000650816200095e565b92915050565b60008151905062000667816200096f565b92915050565b600080600080600080600060e0888a0312156200068957600080fd5b6000620006998a828b01620005e3565b9750506020620006ac8a828b0162000611565b9650506040620006bf8a828b0162000656565b9550506060620006d28a828b01620005fa565b9450506080620006e58a828b0162000656565b93505060a0620006f88a828b0162000628565b92505060c06200070b8a828b0162000656565b91505092959891949750929550565b6000602082840312156200072d57600080fd5b60006200073d848285016200063f565b91505092915050565b60006200075560248362000888565b91507f43726f776473616c653a20746f6b656e20697320746865207a65726f2061646460008301527f72657373000000000000000000000000000000000000000000000000000000006020830152604082019050919050565b6000620007bd60258362000888565b91507f43726f776473616c653a2077616c6c657420697320746865207a65726f20616460008301527f64726573730000000000000000000000000000000000000000000000000000006020830152604082019050919050565b6200082181620008f5565b82525050565b60006020820190508181036000830152620008428162000746565b9050919050565b600060208201905081810360008301526200086481620007ae565b9050919050565b600060208201905062000882600083018462000816565b92915050565b600082825260208201905092915050565b6000620008a682620008d5565b9050919050565b6000620008ba82620008d5565b9050919050565b6000620008ce8262000899565b9050919050565b600073ffffffffffffffffffffffffffffffffffffffff82169050919050565b6000819050919050565b6200090a8162000899565b81146200091657600080fd5b50565b6200092481620008ad565b81146200093057600080fd5b50565b6200093e81620008c1565b81146200094a57600080fd5b50565b600381106200095b57600080fd5b50565b600381106200096c57600080fd5b50565b6200097a81620008f5565b81146200098657600080fd5b50565b611ed180620009996000396000f3fe608060405260043610610183576000357c010000000000000000000000000000000000000000000000000000000090048063868e1809116100ee578063e61d9594116100a7578063f00a93d311610081578063f00a93d314610549578063f9a4bb1e14610574578063f9cfe26b1461059f578063fc0c546a146105ca57610183565b8063e61d9594146104d7578063e678ce7b14610502578063ecd0c0c31461051e57610183565b8063868e1809146103c0578063b8afaa48146103fd578063cec9dca614610428578063d887c41114610453578063dac36d7b1461046f578063e27920a8146104ac57610183565b80634f13dc7e116101405780634f13dc7e146102ac578063521eb273146102d7578063610757e414610302578063628d6e931461032d57806372a020e414610358578063836930181461038357610183565b806304a75ec5146101885780631cf6843b146101c5578063218fdf43146102025780632c4e722e1461022b5780633b13d188146102565780634042b66f14610281575b600080fd5b34801561019457600080fd5b506101af60048036038101906101aa919061153c565b6105f5565b6040516101bc9190611a08565b60405180910390f35b3480156101d157600080fd5b506101ec60048036038101906101e791906115b7565b6106a2565b6040516101f99190611b3e565b60405180910390f35b34801561020e57600080fd5b506102296004803603810190610224919061153c565b6106cb565b005b34801561023757600080fd5b50610240610767565b60405161024d9190611b3e565b60405180910390f35b34801561026257600080fd5b5061026b610771565b6040516102789190611b3e565b60405180910390f35b34801561028d57600080fd5b50610296610777565b6040516102a39190611b3e565b60405180910390f35b3480156102b857600080fd5b506102c1610781565b6040516102ce9190611b3e565b60405180910390f35b3480156102e357600080fd5b506102ec610787565b6040516102f991906118ce565b60405180910390f35b34801561030e57600080fd5b506103176107b1565b60405161032491906118ce565b60405180910390f35b34801561033957600080fd5b506103426107d7565b60405161034f9190611b3e565b60405180910390f35b34801561036457600080fd5b5061036d6107e1565b60405161037a9190611a08565b60405180910390f35b34801561038f57600080fd5b506103aa60048036038101906103a59190611565565b610807565b6040516103b791906119ed565b60405180910390f35b3480156103cc57600080fd5b506103e760048036038101906103e2919061153c565b6108cb565b6040516103f49190611b3e565b60405180910390f35b34801561040957600080fd5b506104126108e3565b60405161041f9190611b3e565b60405180910390f35b34801561043457600080fd5b5061043d6108e9565b60405161044a9190611b3e565b60405180910390f35b61046d600480360381019061046891906114c4565b6108ef565b005b34801561047b57600080fd5b506104966004803603810190610491919061153c565b6108ff565b6040516104a39190611b3e565b60405180910390f35b3480156104b857600080fd5b506104c161098c565b6040516104ce9190611b3e565b60405180910390f35b3480156104e357600080fd5b506104ec610992565b6040516104f99190611b3e565b60405180910390f35b61051c600480360381019061051791906114c4565b61099c565b005b34801561052a57600080fd5b50610533610bf7565b6040516105409190611a23565b60405180910390f35b34801561055557600080fd5b5061055e610c1d565b60405161056b9190611b3e565b60405180910390f35b34801561058057600080fd5b50610589610c27565b60405161059691906118e9565b60405180910390f35b3480156105ab57600080fd5b506105b4610c4d565b6040516105c19190611b3e565b60405180910390f35b3480156105d657600080fd5b506105df610c53565b6040516105ec9190611a23565b60405180910390f35b6000600b6000836002811115610634577f4e487b7100000000000000000000000000000000000000000000000000000000600052602160045260246000fd5b600281111561066c577f4e487b7100000000000000000000000000000000000000000000000000000000600052602160045260246000fd5b815260200190815260200160002060009054906101000a900473ffffffffffffffffffffffffffffffffffffffff169050919050565b6000806106ae836108ff565b9050600084826106be9190611c51565b9050809250505092915050565b600760009054906101000a900473ffffffffffffffffffffffffffffffffffffffff1673ffffffffffffffffffffffffffffffffffffffff163373ffffffffffffffffffffffffffffffffffffffff161461075b576040517f08c379a000000000000000000000000000000000000000000000000000000000815260040161075290611a3e565b60405180910390fd5b61076481610c7d565b50565b6000600954905090565b60105481565b6000600d54905090565b600f5481565b6000600760009054906101000a900473ffffffffffffffffffffffffffffffffffffffff16905090565b600760009054906101000a900473ffffffffffffffffffffffffffffffffffffffff1681565b6000600354905090565b600260009054906101000a900473ffffffffffffffffffffffffffffffffffffffff1681565b600080610812610c1d565b905060008114156108275760019150506108c6565b600181141561087d5760018314610873576040517f08c379a000000000000000000000000000000000000000000000000000000000815260040161086a90611a5e565b60405180910390fd5b60019150506108c6565b808311156108c0576040517f08c379a00000000000000000000000000000000000000000000000000000000081526004016108b790611a5e565b60405180910390fd5b60019150505b919050565b600a6020528060005260406000206000915090505481565b60115481565b60035481565b6108fa83838361099c565b505050565b6000600a600083600281111561093e577f4e487b7100000000000000000000000000000000000000000000000000000000600052602160045260246000fd5b6002811115610976577f4e487b7100000000000000000000000000000000000000000000000000000000600052602160045260246000fd5b8152602001908152602001600020549050919050565b600e5481565b6000600654905090565b600260005414156109e2576040517f08c379a00000000000000000000000000000000000000000000000000000000081526004016109d990611afe565b60405180910390fd5b6002600081905550600082905060006109fb82846106a2565b9050610a0985828486610f40565b610a9f81600c6000866002811115610a4a577f4e487b7100000000000000000000000000000000000000000000000000000000600052602160045260246000fd5b6002811115610a82577f4e487b7100000000000000000000000000000000000000000000000000000000600052602160045260246000fd5b81526020019081526020016000205461114e90919063ffffffff16565b600c6000856002811115610adc577f4e487b7100000000000000000000000000000000000000000000000000000000600052602160045260246000fd5b6002811115610b14577f4e487b7100000000000000000000000000000000000000000000000000000000600052602160045260246000fd5b81526020019081526020016000208190555060006005541415610b3e576000600681905550610b5a565b610b538260065461114e90919063ffffffff16565b6006819055505b610b6685838584611164565b8473ffffffffffffffffffffffffffffffffffffffff16610b8561126c565b73ffffffffffffffffffffffffffffffffffffffff167f6faf93231a456e552dbc9961f58d9713ee4f2e69d15f1975b050ef0911053a7b8385604051610bcc929190611b59565b60405180910390a3610bde8582611274565b610be88582611278565b50506001600081905550505050565b600160009054906101000a900473ffffffffffffffffffffffffffffffffffffffff1681565b6000600554905090565b600860009054906101000a900473ffffffffffffffffffffffffffffffffffffffff1681565b60065481565b6000600160009054906101000a900473ffffffffffffffffffffffffffffffffffffffff16905090565b6000610c88826105f5565b905060008173ffffffffffffffffffffffffffffffffffffffff166370a08231306040518263ffffffff167c0100000000000000000000000000000000000000000000000000000000028152600401610ce191906118ce565b60206040518083038186803b158015610cf957600080fd5b505afa158015610d0d573d6000803e3d6000fd5b505050506040513d601f19601f82011682018060405250810190610d31919061158e565b90506000606490506000610d45838361127c565b90508083610d539190611cab565b92508373ffffffffffffffffffffffffffffffffffffffff1663a9059cbb600760009054906101000a900473ffffffffffffffffffffffffffffffffffffffff16856040518363ffffffff167c0100000000000000000000000000000000000000000000000000000000028152600401610dce92919061198d565b602060405180830381600087803b158015610de857600080fd5b505af1158015610dfc573d6000803e3d6000fd5b505050506040513d601f19601f82011682018060405250810190610e209190611513565b508373ffffffffffffffffffffffffffffffffffffffff1663a9059cbb600860009054906101000a900473ffffffffffffffffffffffffffffffffffffffff16836040518363ffffffff167c0100000000000000000000000000000000000000000000000000000000028152600401610e9a929190611904565b602060405180830381600087803b158015610eb457600080fd5b505af1158015610ec8573d6000803e3d6000fd5b505050506040513d601f19601f82011682018060405250810190610eec9190611513565b5060008184610efb9190611bca565b90507f8f4705a6d8c5af200050d845b50d0f90f838a179c62b9365daa314992598fc1b818386604051610f3093929190611b82565b60405180910390a1505050505050565b600073ffffffffffffffffffffffffffffffffffffffff168473ffffffffffffffffffffffffffffffffffffffff161415610fb0576040517f08c379a0000000000000000000000000000000000000000000000000000000008152600401610fa790611abe565b60405180910390fd5b6000831415610ff4576040517f08c379a0000000000000000000000000000000000000000000000000000000008152600401610feb90611b1e565b60405180910390fd5b600060065490506001151561100884610807565b15151461104a576040517f08c379a000000000000000000000000000000000000000000000000000000000815260040161104190611a9e565b60405180910390fd5b6000611055836105f5565b905060008173ffffffffffffffffffffffffffffffffffffffff1663dd62ed3e88306040518363ffffffff167c01000000000000000000000000000000000000000000000000000000000281526004016110b092919061192d565b60206040518083038186803b1580156110c857600080fd5b505afa1580156110dc573d6000803e3d6000fd5b505050506040513d601f19601f82011682018060405250810190611100919061158e565b905085811015611145576040517f08c379a000000000000000000000000000000000000000000000000000000000815260040161113c90611ade565b60405180910390fd5b50505050505050565b6000818361115c9190611bca565b905092915050565b600061116f836105f5565b90508073ffffffffffffffffffffffffffffffffffffffff166323b872dd8630856040518463ffffffff167c01000000000000000000000000000000000000000000000000000000000281526004016111ca93929190611956565b602060405180830381600087803b1580156111e457600080fd5b505af11580156111f8573d6000803e3d6000fd5b505050506040513d601f19601f8201168201806040525081019061121c9190611513565b61125b576040517f08c379a000000000000000000000000000000000000000000000000000000000815260040161125290611a7e565b60405180910390fd5b6112658585611366565b5050505050565b600033905090565b5050565b5050565b6000806112898484611419565b90506000611297858561142f565b905060006112a7600e5486611419565b905060006112b7600e548761142f565b905060006112ce6112c88685611445565b88611445565b905060006112dc8684611445565b905060006112ea8686611445565b905060006112f88786611445565b905060006113078b6002611419565b90506000611315838361114e565b90506000611323828e611419565b90506000611331888861114e565b9050600061133f828861114e565b9050600061134d828561114e565b9050809e50505050505050505050505050505092915050565b600160009054906101000a900473ffffffffffffffffffffffffffffffffffffffff1673ffffffffffffffffffffffffffffffffffffffff1663e3e5c2b983836003546040518463ffffffff167c01000000000000000000000000000000000000000000000000000000000281526004016113e3939291906119b6565b600060405180830381600087803b1580156113fd57600080fd5b505af1158015611411573d6000803e3d6000fd5b505050505050565b600081836114279190611c20565b905092915050565b6000818361143d9190611db7565b905092915050565b600081836114539190611c51565b905092915050565b60008135905061146a81611e46565b92915050565b60008151905061147f81611e5d565b92915050565b60008135905061149481611e74565b92915050565b6000813590506114a981611e84565b92915050565b6000815190506114be81611e84565b92915050565b6000806000606084860312156114d957600080fd5b60006114e78682870161145b565b93505060206114f88682870161149a565b925050604061150986828701611485565b9150509250925092565b60006020828403121561152557600080fd5b600061153384828501611470565b91505092915050565b60006020828403121561154e57600080fd5b600061155c84828501611485565b91505092915050565b60006020828403121561157757600080fd5b60006115858482850161149a565b91505092915050565b6000602082840312156115a057600080fd5b60006115ae848285016114af565b91505092915050565b600080604083850312156115ca57600080fd5b60006115d88582860161149a565b92505060206115e985828601611485565b9150509250929050565b6115fc81611d39565b82525050565b61160b81611cf1565b82525050565b61161a81611cdf565b82525050565b61162981611d03565b82525050565b61163881611d4b565b82525050565b61164781611d6f565b82525050565b600061165a601983611bb9565b91507f6f6e6c79206f7267616e61697a65722063616e20646f206974000000000000006000830152602082019050919050565b600061169a601d83611bb9565b91507f546f6b656e53616c653a206573636565642073616c65206c696d6974210000006000830152602082019050919050565b60006116da602c83611bb9565b91507f7472616e736665722066726f6d20627579657220746f207468697320636f6e7460008301527f72616374206661696c65642000000000000000000000000000000000000000006020830152604082019050919050565b6000611740602a83611bb9565b91507f746f6b656e7320616d6f756e742073686f756c64206e6f74206578636565642060008301527f73616c655f6c696d6974000000000000000000000000000000000000000000006020830152604082019050919050565b60006117a6602a83611bb9565b91507f43726f776473616c653a2062656e656669636961727920697320746865207a6560008301527f726f2061646472657373000000000000000000000000000000000000000000006020830152604082019050919050565b600061180c601383611bb9565b91507f617070726f766564206e6f7420656e6f676874000000000000000000000000006000830152602082019050919050565b600061184c601f83611bb9565b91507f5265656e7472616e637947756172643a207265656e7472616e742063616c6c006000830152602082019050919050565b600061188c601983611bb9565b91507f43726f776473616c653a20776569416d6f756e742069732030000000000000006000830152602082019050919050565b6118c881611d2f565b82525050565b60006020820190506118e36000830184611611565b92915050565b60006020820190506118fe6000830184611602565b92915050565b600060408201905061191960008301856115f3565b61192660208301846118bf565b9392505050565b60006040820190506119426000830185611611565b61194f6020830184611611565b9392505050565b600060608201905061196b6000830186611611565b6119786020830185611611565b61198560408301846118bf565b949350505050565b60006040820190506119a26000830185611611565b6119af60208301846118bf565b9392505050565b60006060820190506119cb6000830186611611565b6119d860208301856118bf565b6119e560408301846118bf565b949350505050565b6000602082019050611a026000830184611620565b92915050565b6000602082019050611a1d600083018461162f565b92915050565b6000602082019050611a38600083018461163e565b92915050565b60006020820190508181036000830152611a578161164d565b9050919050565b60006020820190508181036000830152611a778161168d565b9050919050565b60006020820190508181036000830152611a97816116cd565b9050919050565b60006020820190508181036000830152611ab781611733565b9050919050565b60006020820190508181036000830152611ad781611799565b9050919050565b60006020820190508181036000830152611af7816117ff565b9050919050565b60006020820190508181036000830152611b178161183f565b9050919050565b60006020820190508181036000830152611b378161187f565b9050919050565b6000602082019050611b5360008301846118bf565b92915050565b6000604082019050611b6e60008301856118bf565b611b7b60208301846118bf565b9392505050565b6000606082019050611b9760008301866118bf565b611ba460208301856118bf565b611bb160408301846118bf565b949350505050565b600082825260208201905092915050565b6000611bd582611d2f565b9150611be083611d2f565b9250827fffffffffffffffffffffffffffffffffffffffffffffffffffffffffffffffff03821115611c1557611c14611de8565b5b828201905092915050565b6000611c2b82611d2f565b9150611c3683611d2f565b925082611c4657611c45611e17565b5b828204905092915050565b6000611c5c82611d2f565b9150611c6783611d2f565b9250817fffffffffffffffffffffffffffffffffffffffffffffffffffffffffffffffff0483118215151615611ca057611c9f611de8565b5b828202905092915050565b6000611cb682611d2f565b9150611cc183611d2f565b925082821015611cd457611cd3611de8565b5b828203905092915050565b6000611cea82611d0f565b9050919050565b6000611cfc82611d0f565b9050919050565b60008115159050919050565b600073ffffffffffffffffffffffffffffffffffffffff82169050919050565b6000819050919050565b6000611d4482611d93565b9050919050565b6000611d5682611d5d565b9050919050565b6000611d6882611d0f565b9050919050565b6000611d7a82611d81565b9050919050565b6000611d8c82611d0f565b9050919050565b6000611d9e82611da5565b9050919050565b6000611db082611d0f565b9050919050565b6000611dc282611d2f565b9150611dcd83611d2f565b925082611ddd57611ddc611e17565b5b828206905092915050565b7f4e487b7100000000000000000000000000000000000000000000000000000000600052601160045260246000fd5b7f4e487b7100000000000000000000000000000000000000000000000000000000600052601260045260246000fd5b611e4f81611cdf565b8114611e5a57600080fd5b50565b611e6681611d03565b8114611e7157600080fd5b50565b60038110611e8157600080fd5b50565b611e8d81611d2f565b8114611e9857600080fd5b5056fea26469706673582212206fe1f7b2147fc3b9fbc693eb18e18445f1dc2489b41d42430a1885ab9d13d09064736f6c63430008000033a2646970667358221220ad88c5f2d98d5a31e4b6ede97b408b58d3414a59d8f122d193e21510a18137ed64736f6c63430008000033",
  "immutableReferences": {},
  "source": "pragma solidity ^0.8.0;\n//\"SPDX-License-Identifier: UNLICENSED\"\n//import './zeppeline/token/ERC20/ERC20Mintable.sol';\n\n\n\nimport './MSNFT.sol';\nimport './TicketSale721.sol';\n//import './TicketSalePluggable.sol';\n\n\n\ncontract TicketFactory721 {\n\n// constant\naddress master_template;\n\naddress payable treasure_fund;\n\n// event\n// TODO : rework events completely\nevent SaleCreated(address indexed organizer, uint price, uint256 indexed event_id, string indexed event_JID);\nevent SaleCreatedHuman(address organizer, uint price, uint256 event_id, string event_JID, uint ticket_type);\nevent PluggedSale(address indexed organizer, address indexed orginal_sale, uint256 indexed event_id);\nevent PluggedSaleHuman(address organizer, address original_sale, uint256 event_id, uint ticket_type);\n\n// mapping from JID to event_id\n//mapping (string => uint256) events_jids;\n\n// mapping from author to master\n\n\n// TODO : invoke createMSNFT when constructor\nconstructor(address _master, address payable _treasure_fund)  {\n   // ticket_template = createMSNFT();\n   master_template = _master;\n   treasure_fund = _treasure_fund;\n}\n\n\nfunction createMSNFT() internal returns (address ticket_address) {\n //  address factory_address = address(this);\n   string memory name_ = \"MoonShardNFT\";\n   string memory smbl_ = \"MSNFT\";\n   ticket_address = address(new MSNFT(name_,smbl_));\n   return ticket_address;\n}\n\n// TODO -- work with interface?\nfunction createTicketSale721(address organizer, uint price, MSNFT token,uint sale_limit, TokenSale721.CurrencyERC20 currency, uint _master_id) internal returns(address ticket_sale) {\n    // calculate price\n    //uint256 cena = calculateRate(price);\n   // CurrencyERC20 currency = GetCurrencyEnum(currency_int);\n    ticket_sale = address(new TicketSale721(organizer, token, sale_limit,treasure_fund, price, currency, _master_id));\n    return ticket_sale;\n}\n\n/*\nfunction createTicketSale(address payable organizer, uint price, string memory event_JID, uint sale_limit, uint timeToStart, TokenSale721.CurrencyERC20 currency) public returns (address ticket_sale_adr, uint256 event_id) {\n\n    address ticket_adr = ticket_template;\n    require(events_jids[event_JID] == 0, \"sale with this JID is already created!\");\n    MSNFT ticket = MSNFT(ticket_adr);\n    ticket_sale_adr = createTicketSale721(organizer, price, ticket,sale_limit, event_JID, timeToStart, currency);\n    TicketSale721 ticket_sale = TicketSale721(ticket_sale_adr);\n\n    event_id = ticket_sale.event_id();\n    uint ticket_type = ticket_sale.ticket_type();\n    events_jids[event_JID] = event_id;\n    emit SaleCreated(organizer, price, event_id, event_JID);\n    emit SaleCreatedHuman(organizer,price,event_id, event_JID, ticket_type);\n    return(ticket_sale_adr, event_id);\n\n\n}\n*/\n\n// supply type -- how much copies can have\n// supplyType --> 1= unique, 0 = common, everything else is rare\n//\nfunction createMasterItem(string memory link, string memory _description, uint256 _supplyType) public returns (uint256 master_id) {\n    address master_adr = master_template;\n    address _author = msg.sender;\n    MSNFT master = MSNFT(master_adr);\n    master_id = master.createMasterCopy(link, _author, _description, _supplyType);\n    return master_id;\n}\n\nfunction createItemSale(uint price, uint sale_limit, TokenSale721.CurrencyERC20 currency, uint f_master_id) public returns (address item_sale_adr) {\n    address master_adr = master_template;\n    address organizer = msg.sender;\n    MSNFT item = MSNFT(master_adr);\n    uint256 master_id = f_master_id;\n    require(organizer == item.get_author(master_id), \"you are not own this master to start selling items\");\n    item_sale_adr = createTicketSale721(organizer, price, item,sale_limit, currency, master_id);\n   // TicketSale721 item_sale = TicketSale721(item_sale_adr);\n\n    return item_sale_adr;\n\n}\n\n/*\nfunction PlugInTicketSale(address payable origin_sale, uint price, uint _sale_limit) public returns(address payable plugin_sale) {\n    uint cena = calculateRate(price);\n    plugin_sale = address(new TicketSalePluggable(cena,origin_sale, _sale_limit,treasure_fund));\n    //TicketSale721 ticket_sale = TicketSale721(origin_sale);\n    TicketSalePluggable plugin_sale_instance = TicketSalePluggable(plugin_sale);\n    uint256 event_id = plugin_sale_instance.event_id();\n    uint ticket_type = plugin_sale_instance.ticket_type();\n    emit PluggedSale(msg.sender,origin_sale,event_id);\n    emit PluggedSaleHuman(msg.sender, origin_sale, event_id, ticket_type);\n    return plugin_sale;\n}\n*/\n\n/*                      DEPRECATED\nfunction calculateRate (uint256 price) internal pure returns (uint256 rate_p) {\n    // rate = price * 1 eth\n    rate_p = price * (1 ether); // override for price determinition\n    return rate_p;\n}\n*/\n\n\n\nfunction getMasterTemplateAddress() public view returns(address) {\n    return master_template;\n}\n\n\n/*\n// I know there is a brutal hardcoded cheat, but I need to work fast\nfunction GetCurrencyEnum (uint128 int_cur) public view returns (CurrencyERC20 enum_currency){\n    if (int_cur = 0) {\n        return enum_currency = CurrencyERC20.USDT;\n    }\n    if (int_cur = 1) {\n        return enum_currency = CurrencyERC20.USDC;\n    }\n    if (int_cur = 2) {\n        return enum_currency = CurrencyERC20.SNM;\n    }\n\n}\n*/\n\n}",
  "sourcePath": "/home/jack/ethProjects/UniversalNFTMarketplace/contracts/721/singleton/TicketFactory721.sol",
  "compiler": {
    "name": "solc",
    "version": "0.8.0+commit.c7dfd78e.Emscripten.clang"
  },
  "schemaVersion": "3.4.1",
  "updatedAt": "2021-08-02T08:11:59.295Z",
  "devdoc": {
    "kind": "dev",
    "methods": {},
    "version": 1
  },
  "userdoc": {
    "kind": "user",
    "methods": {},
    "version": 1
  }
}