{
  "contractName": "TicketFactory721",
  "abi": [
    {
      "inputs": [
        {
          "internalType": "address",
          "name": "_master",
          "type": "address"
        },
        {
          "internalType": "address payable",
          "name": "_treasure_fund",
          "type": "address"
        }
      ],
      "stateMutability": "nonpayable",
      "type": "constructor"
    },
    {
      "anonymous": false,
      "inputs": [
        {
          "indexed": true,
          "internalType": "address",
          "name": "organizer",
          "type": "address"
        },
        {
          "indexed": true,
          "internalType": "address",
          "name": "orginal_sale",
          "type": "address"
        },
        {
          "indexed": true,
          "internalType": "uint256",
          "name": "event_id",
          "type": "uint256"
        }
      ],
      "name": "PluggedSale",
      "type": "event"
    },
    {
      "anonymous": false,
      "inputs": [
        {
          "indexed": false,
          "internalType": "address",
          "name": "organizer",
          "type": "address"
        },
        {
          "indexed": false,
          "internalType": "address",
          "name": "original_sale",
          "type": "address"
        },
        {
          "indexed": false,
          "internalType": "uint256",
          "name": "event_id",
          "type": "uint256"
        },
        {
          "indexed": false,
          "internalType": "uint256",
          "name": "ticket_type",
          "type": "uint256"
        }
      ],
      "name": "PluggedSaleHuman",
      "type": "event"
    },
    {
      "anonymous": false,
      "inputs": [
        {
          "indexed": true,
          "internalType": "address",
          "name": "organizer",
          "type": "address"
        },
        {
          "indexed": false,
          "internalType": "uint256",
          "name": "price",
          "type": "uint256"
        },
        {
          "indexed": true,
          "internalType": "uint256",
          "name": "event_id",
          "type": "uint256"
        },
        {
          "indexed": true,
          "internalType": "string",
          "name": "event_JID",
          "type": "string"
        }
      ],
      "name": "SaleCreated",
      "type": "event"
    },
    {
      "anonymous": false,
      "inputs": [
        {
          "indexed": false,
          "internalType": "address",
          "name": "organizer",
          "type": "address"
        },
        {
          "indexed": false,
          "internalType": "uint256",
          "name": "price",
          "type": "uint256"
        },
        {
          "indexed": false,
          "internalType": "uint256",
          "name": "event_id",
          "type": "uint256"
        },
        {
          "indexed": false,
          "internalType": "string",
          "name": "event_JID",
          "type": "string"
        },
        {
          "indexed": false,
          "internalType": "uint256",
          "name": "ticket_type",
          "type": "uint256"
        }
      ],
      "name": "SaleCreatedHuman",
      "type": "event"
    },
    {
      "inputs": [
        {
          "internalType": "string",
          "name": "link",
          "type": "string"
        },
        {
          "internalType": "string",
          "name": "_description",
          "type": "string"
        },
        {
          "internalType": "uint256",
          "name": "_supplyType",
          "type": "uint256"
        }
      ],
      "name": "createMasterItem",
      "outputs": [
        {
          "internalType": "uint256",
          "name": "master_id",
          "type": "uint256"
        }
      ],
      "stateMutability": "nonpayable",
      "type": "function"
    },
    {
      "inputs": [
        {
          "internalType": "uint256",
          "name": "price",
          "type": "uint256"
        },
        {
          "internalType": "uint256",
          "name": "sale_limit",
          "type": "uint256"
        },
        {
          "internalType": "enum TokenSale721.CurrencyERC20",
          "name": "currency",
          "type": "uint8"
        },
        {
          "internalType": "uint256",
          "name": "f_master_id",
          "type": "uint256"
        }
      ],
      "name": "createItemSale",
      "outputs": [
        {
          "internalType": "address",
          "name": "item_sale_adr",
          "type": "address"
        }
      ],
      "stateMutability": "nonpayable",
      "type": "function"
    },
    {
      "inputs": [],
      "name": "getMasterTemplateAddress",
      "outputs": [
        {
          "internalType": "address",
          "name": "",
          "type": "address"
        }
      ],
      "stateMutability": "view",
      "type": "function"
    }
  ],
  "bytecode": "0x60806040523480156200001157600080fd5b506040516200388d3803806200388d8339818101604052810190620000379190620000ee565b816000806101000a81548173ffffffffffffffffffffffffffffffffffffffff021916908373ffffffffffffffffffffffffffffffffffffffff16021790555080600160006101000a81548173ffffffffffffffffffffffffffffffffffffffff021916908373ffffffffffffffffffffffffffffffffffffffff1602179055505050620001ab565b600081519050620000d18162000177565b92915050565b600081519050620000e88162000191565b92915050565b600080604083850312156200010257600080fd5b60006200011285828601620000c0565b92505060206200012585828601620000d7565b9150509250929050565b60006200013c8262000157565b9050919050565b6000620001508262000157565b9050919050565b600073ffffffffffffffffffffffffffffffffffffffff82169050919050565b62000182816200012f565b81146200018e57600080fd5b50565b6200019c8162000143565b8114620001a857600080fd5b50565b6136d280620001bb6000396000f3fe60806040523480156200001157600080fd5b506004361062000063576000357c0100000000000000000000000000000000000000000000000000000000900480632b922b6714620000685780635a1defa6146200008a5780638919b0ed14620000c0575b600080fd5b62000072620000f6565b604051620000819190620007a6565b60405180910390f35b620000a86004803603810190620000a2919062000588565b6200011f565b604051620000b79190620008fa565b60405180910390f35b620000de6004803603810190620000d891906200063c565b6200020e565b604051620000ed9190620007a6565b60405180910390f35b60008060009054906101000a900473ffffffffffffffffffffffffffffffffffffffff16905090565b60008060008054906101000a900473ffffffffffffffffffffffffffffffffffffffff169050600033905060008290508073ffffffffffffffffffffffffffffffffffffffff1663f1d121c1888489896040518563ffffffff167c0100000000000000000000000000000000000000000000000000000000028152600401620001ac94939291906200087d565b602060405180830381600087803b158015620001c757600080fd5b505af1158015620001dc573d6000803e3d6000fd5b505050506040513d601f19601f8201168201806040525081019062000202919062000610565b93505050509392505050565b60008060008054906101000a900473ffffffffffffffffffffffffffffffffffffffff1690506000339050600082905060008590508173ffffffffffffffffffffffffffffffffffffffff16630e304d88826040518263ffffffff167c01000000000000000000000000000000000000000000000000000000000281526004016200029a9190620008fa565b60206040518083038186803b158015620002b357600080fd5b505afa158015620002c8573d6000803e3d6000fd5b505050506040513d601f19601f82011682018060405250810190620002ee91906200055c565b73ffffffffffffffffffffffffffffffffffffffff168373ffffffffffffffffffffffffffffffffffffffff16146200035e576040517f08c379a00000000000000000000000000000000000000000000000000000000081526004016200035590620008d8565b60405180910390fd5b6200036e838a848b8b866200040b565b94508173ffffffffffffffffffffffffffffffffffffffff166394ff3acc8483886040518463ffffffff167c0100000000000000000000000000000000000000000000000000000000028152600401620003cb9392919062000840565b600060405180830381600087803b158015620003e657600080fd5b505af1158015620003fb573d6000803e3d6000fd5b5050505050505050949350505050565b6000868585600160009054906101000a900473ffffffffffffffffffffffffffffffffffffffff16898787604051620004449062000480565b620004569796959493929190620007c3565b604051809103906000f08015801562000473573d6000803e3d6000fd5b5090509695505050505050565b612b4f8062000b4e83390190565b6000620004a56200049f846200094b565b62000917565b905082815260208101848484011115620004be57600080fd5b620004cb84828562000a3d565b509392505050565b600081519050620004e48162000b08565b92915050565b600081359050620004fb8162000b22565b92915050565b600082601f8301126200051357600080fd5b8135620005258482602086016200048e565b91505092915050565b6000813590506200053f8162000b33565b92915050565b600081519050620005568162000b33565b92915050565b6000602082840312156200056f57600080fd5b60006200057f84828501620004d3565b91505092915050565b6000806000606084860312156200059e57600080fd5b600084013567ffffffffffffffff811115620005b957600080fd5b620005c78682870162000501565b935050602084013567ffffffffffffffff811115620005e557600080fd5b620005f38682870162000501565b925050604062000606868287016200052e565b9150509250925092565b6000602082840312156200062357600080fd5b6000620006338482850162000545565b91505092915050565b600080600080608085870312156200065357600080fd5b600062000663878288016200052e565b945050602062000676878288016200052e565b93505060406200068987828801620004ea565b92505060606200069c878288016200052e565b91505092959194509250565b620006b381620009ae565b82525050565b620006c4816200099a565b82525050565b620006d58162000a01565b82525050565b620006e68162000a29565b82525050565b6000620006f9826200097e565b62000705818562000989565b93506200071781856020860162000a4c565b620007228162000ae0565b840191505092915050565b60006200073c60328362000989565b91507f796f7520617265206e6f74206f776e2074686973206d617374657220746f207360008301527f746172742073656c6c696e67206974656d7300000000000000000000000000006020830152604082019050919050565b620007a081620009f7565b82525050565b6000602082019050620007bd6000830184620006b9565b92915050565b600060e082019050620007da600083018a620006b9565b620007e96020830189620006ca565b620007f8604083018862000795565b620008076060830187620006a8565b62000816608083018662000795565b6200082560a0830185620006db565b6200083460c083018462000795565b98975050505050505050565b6000606082019050620008576000830186620006b9565b62000866602083018562000795565b620008756040830184620006b9565b949350505050565b60006080820190508181036000830152620008998187620006ec565b9050620008aa6020830186620006b9565b8181036040830152620008be8185620006ec565b9050620008cf606083018462000795565b95945050505050565b60006020820190508181036000830152620008f3816200072d565b9050919050565b600060208201905062000911600083018462000795565b92915050565b6000604051905081810181811067ffffffffffffffff8211171562000941576200094062000ab1565b5b8060405250919050565b600067ffffffffffffffff82111562000969576200096862000ab1565b5b601f19601f8301169050602081019050919050565b600081519050919050565b600082825260208201905092915050565b6000620009a782620009d7565b9050919050565b6000620009bb82620009d7565b9050919050565b6000819050620009d28262000af1565b919050565b600073ffffffffffffffffffffffffffffffffffffffff82169050919050565b6000819050919050565b600062000a0e8262000a15565b9050919050565b600062000a2282620009d7565b9050919050565b600062000a3682620009c2565b9050919050565b82818337600083830152505050565b60005b8381101562000a6c57808201518184015260208101905062000a4f565b8381111562000a7c576000848401525b50505050565b7f4e487b7100000000000000000000000000000000000000000000000000000000600052602160045260246000fd5b7f4e487b7100000000000000000000000000000000000000000000000000000000600052604160045260246000fd5b6000601f19601f8301169050919050565b6003811062000b055762000b0462000a82565b5b50565b62000b13816200099a565b811462000b1f57600080fd5b50565b6003811062000b3057600080fd5b50565b62000b3e81620009f7565b811462000b4a57600080fd5b5056fe608060405260006006556005600e5542600f553480156200001f57600080fd5b5060405162002b4f38038062002b4f83398181016040528101906200004591906200085e565b868686868686866001600081905550600073ffffffffffffffffffffffffffffffffffffffff168773ffffffffffffffffffffffffffffffffffffffff161415620000c7576040517f08c379a0000000000000000000000000000000000000000000000000000000008152600401620000be9062000aea565b60405180910390fd5b600073ffffffffffffffffffffffffffffffffffffffff168673ffffffffffffffffffffffffffffffffffffffff1614156200013a576040517f08c379a0000000000000000000000000000000000000000000000000000000008152600401620001319062000aa6565b60405180910390fd5b6000600281111562000175577f4e487b7100000000000000000000000000000000000000000000000000000000600052602160045260246000fd5b826002811115620001af577f4e487b7100000000000000000000000000000000000000000000000000000000600052602160045260246000fd5b14806200022e575060016002811115620001f2577f4e487b7100000000000000000000000000000000000000000000000000000000600052602160045260246000fd5b8260028111156200022c577f4e487b7100000000000000000000000000000000000000000000000000000000600052602160045260246000fd5b145b156200034e5782600a600080600281111562000273577f4e487b7100000000000000000000000000000000000000000000000000000000600052602160045260246000fd5b6002811115620002ac577f4e487b7100000000000000000000000000000000000000000000000000000000600052602160045260246000fd5b81526020019081526020016000208190555082600a6000806002811115620002fd577f4e487b7100000000000000000000000000000000000000000000000000000000600052602160045260246000fd5b600281111562000336577f4e487b7100000000000000000000000000000000000000000000000000000000600052602160045260246000fd5b815260200190815260200160002081905550620003d9565b82600a60008460028111156200038d577f4e487b7100000000000000000000000000000000000000000000000000000000600052602160045260246000fd5b6002811115620003c6577f4e487b7100000000000000000000000000000000000000000000000000000000600052602160045260246000fd5b8152602001908152602001600020819055505b86600760006101000a81548173ffffffffffffffffffffffffffffffffffffffff021916908373ffffffffffffffffffffffffffffffffffffffff16021790555083600860006101000a81548173ffffffffffffffffffffffffffffffffffffffff021916908373ffffffffffffffffffffffffffffffffffffffff16021790555085600160006101000a81548173ffffffffffffffffffffffffffffffffffffffff021916908373ffffffffffffffffffffffffffffffffffffffff160217905550600160009054906101000a900473ffffffffffffffffffffffffffffffffffffffff1673ffffffffffffffffffffffffffffffffffffffff1663239e1d72826040518263ffffffff167c010000000000000000000000000000000000000000000000000000000002815260040162000515919062000b0c565b60206040518083038186803b1580156200052e57600080fd5b505afa15801562000543573d6000803e3d6000fd5b505050506040513d601f19601f820116820180604052508101906200056991906200090b565b600460006101000a81548160ff02191690836002811115620005b4577f4e487b7100000000000000000000000000000000000000000000000000000000600052602160045260246000fd5b021790555060006002811115620005f4577f4e487b7100000000000000000000000000000000000000000000000000000000600052602160045260246000fd5b600460009054906101000a900460ff1660028111156200063d577f4e487b7100000000000000000000000000000000000000000000000000000000600052602160045260246000fd5b14156200068b57600185146200068a576040517f08c379a0000000000000000000000000000000000000000000000000000000008152600401620006819062000ac8565b60405180910390fd5b5b600280811115620006c5577f4e487b7100000000000000000000000000000000000000000000000000000000600052602160045260246000fd5b600460009054906101000a900460ff1660028111156200070e577f4e487b7100000000000000000000000000000000000000000000000000000000600052602160045260246000fd5b14156200071e5760006005819055505b6001600281111562000759577f4e487b7100000000000000000000000000000000000000000000000000000000600052602160045260246000fd5b600460009054906101000a900460ff166002811115620007a2577f4e487b7100000000000000000000000000000000000000000000000000000000600052602160045260246000fd5b1415620007b157846005819055505b806003819055506000601081905550505050505050505050505050505062000c2a565b600081519050620007e58162000ba0565b92915050565b600081519050620007fc8162000bba565b92915050565b600081519050620008138162000bd4565b92915050565b6000815190506200082a8162000bee565b92915050565b600081519050620008418162000bff565b92915050565b600081519050620008588162000c10565b92915050565b600080600080600080600060e0888a0312156200087a57600080fd5b60006200088a8a828b01620007d4565b97505060206200089d8a828b0162000802565b9650506040620008b08a828b0162000847565b9550506060620008c38a828b01620007eb565b9450506080620008d68a828b0162000847565b93505060a0620008e98a828b0162000819565b92505060c0620008fc8a828b0162000847565b91505092959891949750929550565b6000602082840312156200091e57600080fd5b60006200092e8482850162000830565b91505092915050565b60006200094660248362000b29565b91507f43726f776473616c653a20746f6b656e20697320746865207a65726f2061646460008301527f72657373000000000000000000000000000000000000000000000000000000006020830152604082019050919050565b6000620009ae604f8362000b29565b91507f546f6b656e73616c653a20417474656d707420746f20637265617465206e657760008301527f20546f6b656e73616c6520666f7220756e69717565204e46542077697468207760208301527f726f6e672073616c655f6c696d697400000000000000000000000000000000006040830152606082019050919050565b600062000a3c60258362000b29565b91507f43726f776473616c653a2077616c6c657420697320746865207a65726f20616460008301527f64726573730000000000000000000000000000000000000000000000000000006020830152604082019050919050565b62000aa08162000b96565b82525050565b6000602082019050818103600083015262000ac18162000937565b9050919050565b6000602082019050818103600083015262000ae3816200099f565b9050919050565b6000602082019050818103600083015262000b058162000a2d565b9050919050565b600060208201905062000b23600083018462000a95565b92915050565b600082825260208201905092915050565b600062000b478262000b76565b9050919050565b600062000b5b8262000b76565b9050919050565b600062000b6f8262000b3a565b9050919050565b600073ffffffffffffffffffffffffffffffffffffffff82169050919050565b6000819050919050565b62000bab8162000b3a565b811462000bb757600080fd5b50565b62000bc58162000b4e565b811462000bd157600080fd5b50565b62000bdf8162000b62565b811462000beb57600080fd5b50565b6003811062000bfc57600080fd5b50565b6003811062000c0d57600080fd5b50565b62000c1b8162000b96565b811462000c2757600080fd5b50565b611f158062000c3a6000396000f3fe608060405260043610610183576000357c010000000000000000000000000000000000000000000000000000000090048063868e1809116100ee578063e61d9594116100a7578063f00a93d311610081578063f00a93d314610549578063f9a4bb1e14610574578063f9cfe26b1461059f578063fc0c546a146105ca57610183565b8063e61d9594146104d7578063e678ce7b14610502578063ecd0c0c31461051e57610183565b8063868e1809146103c0578063b8afaa48146103fd578063cec9dca614610428578063d887c41114610453578063dac36d7b1461046f578063e27920a8146104ac57610183565b80634f13dc7e116101405780634f13dc7e146102ac578063521eb273146102d7578063610757e414610302578063628d6e931461032d57806372a020e414610358578063836930181461038357610183565b806304a75ec5146101885780631cf6843b146101c5578063218fdf43146102025780632c4e722e1461022b5780633b13d188146102565780634042b66f14610281575b600080fd5b34801561019457600080fd5b506101af60048036038101906101aa9190611534565b6105f5565b6040516101bc9190611a4c565b60405180910390f35b3480156101d157600080fd5b506101ec60048036038101906101e791906115af565b6106a2565b6040516101f99190611b82565b60405180910390f35b34801561020e57600080fd5b5061022960048036038101906102249190611534565b6106cb565b005b34801561023757600080fd5b50610240610767565b60405161024d9190611b82565b60405180910390f35b34801561026257600080fd5b5061026b610771565b6040516102789190611b82565b60405180910390f35b34801561028d57600080fd5b50610296610777565b6040516102a39190611b82565b60405180910390f35b3480156102b857600080fd5b506102c1610781565b6040516102ce9190611b82565b60405180910390f35b3480156102e357600080fd5b506102ec610787565b6040516102f99190611912565b60405180910390f35b34801561030e57600080fd5b506103176107b1565b6040516103249190611912565b60405180910390f35b34801561033957600080fd5b506103426107d7565b60405161034f9190611b82565b60405180910390f35b34801561036457600080fd5b5061036d6107e1565b60405161037a9190611a4c565b60405180910390f35b34801561038f57600080fd5b506103aa60048036038101906103a5919061155d565b610807565b6040516103b79190611a31565b60405180910390f35b3480156103cc57600080fd5b506103e760048036038101906103e29190611534565b6108cb565b6040516103f49190611b82565b60405180910390f35b34801561040957600080fd5b506104126108e3565b60405161041f9190611b82565b60405180910390f35b34801561043457600080fd5b5061043d6108e9565b60405161044a9190611b82565b60405180910390f35b61046d600480360381019061046891906114bc565b6108ef565b005b34801561047b57600080fd5b5061049660048036038101906104919190611534565b6108ff565b6040516104a39190611b82565b60405180910390f35b3480156104b857600080fd5b506104c161098c565b6040516104ce9190611b82565b60405180910390f35b3480156104e357600080fd5b506104ec610992565b6040516104f99190611b82565b60405180910390f35b61051c600480360381019061051791906114bc565b61099c565b005b34801561052a57600080fd5b50610533610bde565b6040516105409190611a67565b60405180910390f35b34801561055557600080fd5b5061055e610c04565b60405161056b9190611b82565b60405180910390f35b34801561058057600080fd5b50610589610c0e565b604051610596919061192d565b60405180910390f35b3480156105ab57600080fd5b506105b4610c34565b6040516105c19190611b82565b60405180910390f35b3480156105d657600080fd5b506105df610c3a565b6040516105ec9190611a67565b60405180910390f35b6000600b6000836002811115610634577f4e487b7100000000000000000000000000000000000000000000000000000000600052602160045260246000fd5b600281111561066c577f4e487b7100000000000000000000000000000000000000000000000000000000600052602160045260246000fd5b815260200190815260200160002060009054906101000a900473ffffffffffffffffffffffffffffffffffffffff169050919050565b6000806106ae836108ff565b9050600084826106be9190611c95565b9050809250505092915050565b600760009054906101000a900473ffffffffffffffffffffffffffffffffffffffff1673ffffffffffffffffffffffffffffffffffffffff163373ffffffffffffffffffffffffffffffffffffffff161461075b576040517f08c379a000000000000000000000000000000000000000000000000000000000815260040161075290611aa2565b60405180910390fd5b61076481610c64565b50565b6000600954905090565b60105481565b6000600d54905090565b600f5481565b6000600760009054906101000a900473ffffffffffffffffffffffffffffffffffffffff16905090565b600760009054906101000a900473ffffffffffffffffffffffffffffffffffffffff1681565b6000600354905090565b600260009054906101000a900473ffffffffffffffffffffffffffffffffffffffff1681565b600080610812610c04565b905060008114156108275760019150506108c6565b600181141561087d5760018314610873576040517f08c379a000000000000000000000000000000000000000000000000000000000815260040161086a90611a82565b60405180910390fd5b60019150506108c6565b808311156108c0576040517f08c379a00000000000000000000000000000000000000000000000000000000081526004016108b790611a82565b60405180910390fd5b60019150505b919050565b600a6020528060005260406000206000915090505481565b60115481565b60035481565b6108fa83838361099c565b505050565b6000600a600083600281111561093e577f4e487b7100000000000000000000000000000000000000000000000000000000600052602160045260246000fd5b6002811115610976577f4e487b7100000000000000000000000000000000000000000000000000000000600052602160045260246000fd5b8152602001908152602001600020549050919050565b600e5481565b6000600654905090565b600260005414156109e2576040517f08c379a00000000000000000000000000000000000000000000000000000000081526004016109d990611b42565b60405180910390fd5b6002600081905550600082905060006109fb82846106a2565b9050610a0985828486610f27565b610a9f81600c6000866002811115610a4a577f4e487b7100000000000000000000000000000000000000000000000000000000600052602160045260246000fd5b6002811115610a82577f4e487b7100000000000000000000000000000000000000000000000000000000600052602160045260246000fd5b81526020019081526020016000205461114690919063ffffffff16565b600c6000856002811115610adc577f4e487b7100000000000000000000000000000000000000000000000000000000600052602160045260246000fd5b6002811115610b14577f4e487b7100000000000000000000000000000000000000000000000000000000600052602160045260246000fd5b815260200190815260200160002081905550610b3b8260065461114690919063ffffffff16565b600681905550610b4d8583858461115c565b8473ffffffffffffffffffffffffffffffffffffffff16610b6c611264565b73ffffffffffffffffffffffffffffffffffffffff167f6faf93231a456e552dbc9961f58d9713ee4f2e69d15f1975b050ef0911053a7b8385604051610bb3929190611b9d565b60405180910390a3610bc5858261126c565b610bcf8582611270565b50506001600081905550505050565b600160009054906101000a900473ffffffffffffffffffffffffffffffffffffffff1681565b6000600554905090565b600860009054906101000a900473ffffffffffffffffffffffffffffffffffffffff1681565b60065481565b6000600160009054906101000a900473ffffffffffffffffffffffffffffffffffffffff16905090565b6000610c6f826105f5565b905060008173ffffffffffffffffffffffffffffffffffffffff166370a08231306040518263ffffffff167c0100000000000000000000000000000000000000000000000000000000028152600401610cc89190611912565b60206040518083038186803b158015610ce057600080fd5b505afa158015610cf4573d6000803e3d6000fd5b505050506040513d601f19601f82011682018060405250810190610d189190611586565b90506000606490506000610d2c8383611274565b90508083610d3a9190611cef565b92508373ffffffffffffffffffffffffffffffffffffffff1663a9059cbb600760009054906101000a900473ffffffffffffffffffffffffffffffffffffffff16856040518363ffffffff167c0100000000000000000000000000000000000000000000000000000000028152600401610db59291906119d1565b602060405180830381600087803b158015610dcf57600080fd5b505af1158015610de3573d6000803e3d6000fd5b505050506040513d601f19601f82011682018060405250810190610e07919061150b565b508373ffffffffffffffffffffffffffffffffffffffff1663a9059cbb600860009054906101000a900473ffffffffffffffffffffffffffffffffffffffff16836040518363ffffffff167c0100000000000000000000000000000000000000000000000000000000028152600401610e81929190611948565b602060405180830381600087803b158015610e9b57600080fd5b505af1158015610eaf573d6000803e3d6000fd5b505050506040513d601f19601f82011682018060405250810190610ed3919061150b565b5060008184610ee29190611c0e565b90507f8f4705a6d8c5af200050d845b50d0f90f838a179c62b9365daa314992598fc1b818386604051610f1793929190611bc6565b60405180910390a1505050505050565b600073ffffffffffffffffffffffffffffffffffffffff168473ffffffffffffffffffffffffffffffffffffffff161415610f97576040517f08c379a0000000000000000000000000000000000000000000000000000000008152600401610f8e90611b02565b60405180910390fd5b6000831415610fdb576040517f08c379a0000000000000000000000000000000000000000000000000000000008152600401610fd290611b62565b60405180910390fd5b6000600654905060008382610ff09190611c0e565b905060011515610fff82610807565b151514611041576040517f08c379a000000000000000000000000000000000000000000000000000000000815260040161103890611ae2565b60405180910390fd5b600061104c846105f5565b905060008173ffffffffffffffffffffffffffffffffffffffff1663dd62ed3e89306040518363ffffffff167c01000000000000000000000000000000000000000000000000000000000281526004016110a7929190611971565b60206040518083038186803b1580156110bf57600080fd5b505afa1580156110d3573d6000803e3d6000fd5b505050506040513d601f19601f820116820180604052508101906110f79190611586565b90508681101561113c576040517f08c379a000000000000000000000000000000000000000000000000000000000815260040161113390611ac2565b60405180910390fd5b5050505050505050565b600081836111549190611c0e565b905092915050565b6000611167836105f5565b90508073ffffffffffffffffffffffffffffffffffffffff166323b872dd8630856040518463ffffffff167c01000000000000000000000000000000000000000000000000000000000281526004016111c29392919061199a565b602060405180830381600087803b1580156111dc57600080fd5b505af11580156111f0573d6000803e3d6000fd5b505050506040513d601f19601f82011682018060405250810190611214919061150b565b611253576040517f08c379a000000000000000000000000000000000000000000000000000000000815260040161124a90611b22565b60405180910390fd5b61125d858561135e565b5050505050565b600033905090565b5050565b5050565b6000806112818484611411565b9050600061128f8585611427565b9050600061129f600e5486611411565b905060006112af600e5487611427565b905060006112c66112c0868561143d565b8861143d565b905060006112d4868461143d565b905060006112e2868661143d565b905060006112f0878661143d565b905060006112ff8b6002611411565b9050600061130d8383611146565b9050600061131b828e611411565b905060006113298888611146565b905060006113378288611146565b905060006113458285611146565b9050809e50505050505050505050505050505092915050565b600160009054906101000a900473ffffffffffffffffffffffffffffffffffffffff1673ffffffffffffffffffffffffffffffffffffffff1663e3e5c2b983836003546040518463ffffffff167c01000000000000000000000000000000000000000000000000000000000281526004016113db939291906119fa565b600060405180830381600087803b1580156113f557600080fd5b505af1158015611409573d6000803e3d6000fd5b505050505050565b6000818361141f9190611c64565b905092915050565b600081836114359190611dfb565b905092915050565b6000818361144b9190611c95565b905092915050565b60008135905061146281611e8a565b92915050565b60008151905061147781611ea1565b92915050565b60008135905061148c81611eb8565b92915050565b6000813590506114a181611ec8565b92915050565b6000815190506114b681611ec8565b92915050565b6000806000606084860312156114d157600080fd5b60006114df86828701611453565b93505060206114f086828701611492565b92505060406115018682870161147d565b9150509250925092565b60006020828403121561151d57600080fd5b600061152b84828501611468565b91505092915050565b60006020828403121561154657600080fd5b60006115548482850161147d565b91505092915050565b60006020828403121561156f57600080fd5b600061157d84828501611492565b91505092915050565b60006020828403121561159857600080fd5b60006115a6848285016114a7565b91505092915050565b600080604083850312156115c257600080fd5b60006115d085828601611492565b92505060206115e18582860161147d565b9150509250929050565b6115f481611d7d565b82525050565b61160381611d35565b82525050565b61161281611d23565b82525050565b61162181611d47565b82525050565b61163081611d8f565b82525050565b61163f81611db3565b82525050565b6000611652601d83611bfd565b91507f546f6b656e53616c653a206578636565642073616c65206c696d6974210000006000830152602082019050919050565b6000611692601983611bfd565b91507f6f6e6c79206f7267616e61697a65722063616e20646f206974000000000000006000830152602082019050919050565b60006116d2603683611bfd565b91507f546f6b656e73616c653a2045524332303a617070726f766564207370656e646960008301527f6e67206c696d6974206973206e6f7420656e6f676874000000000000000000006020830152604082019050919050565b6000611738602a83611bfd565b91507f746f6b656e7320616d6f756e742073686f756c64206e6f74206578636565642060008301527f73616c655f6c696d6974000000000000000000000000000000000000000000006020830152604082019050919050565b600061179e602a83611bfd565b91507f43726f776473616c653a2062656e656669636961727920697320746865207a6560008301527f726f2061646472657373000000000000000000000000000000000000000000006020830152604082019050919050565b6000611804604183611bfd565b91507f546f6b656e53616c653a2045524332303a207472616e7366657246726f6d206260008301527f7579657220746f206974656d73616c6520636f6e7472616374206661696c656460208301527f20000000000000000000000000000000000000000000000000000000000000006040830152606082019050919050565b6000611890601f83611bfd565b91507f5265656e7472616e637947756172643a207265656e7472616e742063616c6c006000830152602082019050919050565b60006118d0601983611bfd565b91507f43726f776473616c653a20776569416d6f756e742069732030000000000000006000830152602082019050919050565b61190c81611d73565b82525050565b60006020820190506119276000830184611609565b92915050565b600060208201905061194260008301846115fa565b92915050565b600060408201905061195d60008301856115eb565b61196a6020830184611903565b9392505050565b60006040820190506119866000830185611609565b6119936020830184611609565b9392505050565b60006060820190506119af6000830186611609565b6119bc6020830185611609565b6119c96040830184611903565b949350505050565b60006040820190506119e66000830185611609565b6119f36020830184611903565b9392505050565b6000606082019050611a0f6000830186611609565b611a1c6020830185611903565b611a296040830184611903565b949350505050565b6000602082019050611a466000830184611618565b92915050565b6000602082019050611a616000830184611627565b92915050565b6000602082019050611a7c6000830184611636565b92915050565b60006020820190508181036000830152611a9b81611645565b9050919050565b60006020820190508181036000830152611abb81611685565b9050919050565b60006020820190508181036000830152611adb816116c5565b9050919050565b60006020820190508181036000830152611afb8161172b565b9050919050565b60006020820190508181036000830152611b1b81611791565b9050919050565b60006020820190508181036000830152611b3b816117f7565b9050919050565b60006020820190508181036000830152611b5b81611883565b9050919050565b60006020820190508181036000830152611b7b816118c3565b9050919050565b6000602082019050611b976000830184611903565b92915050565b6000604082019050611bb26000830185611903565b611bbf6020830184611903565b9392505050565b6000606082019050611bdb6000830186611903565b611be86020830185611903565b611bf56040830184611903565b949350505050565b600082825260208201905092915050565b6000611c1982611d73565b9150611c2483611d73565b9250827fffffffffffffffffffffffffffffffffffffffffffffffffffffffffffffffff03821115611c5957611c58611e2c565b5b828201905092915050565b6000611c6f82611d73565b9150611c7a83611d73565b925082611c8a57611c89611e5b565b5b828204905092915050565b6000611ca082611d73565b9150611cab83611d73565b9250817fffffffffffffffffffffffffffffffffffffffffffffffffffffffffffffffff0483118215151615611ce457611ce3611e2c565b5b828202905092915050565b6000611cfa82611d73565b9150611d0583611d73565b925082821015611d1857611d17611e2c565b5b828203905092915050565b6000611d2e82611d53565b9050919050565b6000611d4082611d53565b9050919050565b60008115159050919050565b600073ffffffffffffffffffffffffffffffffffffffff82169050919050565b6000819050919050565b6000611d8882611dd7565b9050919050565b6000611d9a82611da1565b9050919050565b6000611dac82611d53565b9050919050565b6000611dbe82611dc5565b9050919050565b6000611dd082611d53565b9050919050565b6000611de282611de9565b9050919050565b6000611df482611d53565b9050919050565b6000611e0682611d73565b9150611e1183611d73565b925082611e2157611e20611e5b565b5b828206905092915050565b7f4e487b7100000000000000000000000000000000000000000000000000000000600052601160045260246000fd5b7f4e487b7100000000000000000000000000000000000000000000000000000000600052601260045260246000fd5b611e9381611d23565b8114611e9e57600080fd5b50565b611eaa81611d47565b8114611eb557600080fd5b50565b60038110611ec557600080fd5b50565b611ed181611d73565b8114611edc57600080fd5b5056fea264697066735822122042e3f36b3d1b1a656ed867d53f5857c57870a9b3001fa02fedcd769e2a971a3c64736f6c63430008000033a26469706673582212208ca1b71e1b3f613b2c2d93c59cfa6c84ac357ee08e219807907c9ae3922f31b564736f6c63430008000033",
  "immutableReferences": {},
  "source": "pragma solidity ^0.8.0;\n//\"SPDX-License-Identifier: UNLICENSED\"\n//import './zeppeline/token/ERC20/ERC20Mintable.sol';\n\n\n\nimport './MSNFT.sol';\nimport './TicketSale721.sol';\n//import './TicketSalePluggable.sol';\n\n\n\ncontract TicketFactory721 {\n\n// constant\naddress master_template;\n\naddress payable treasure_fund;\n\n// event\n// TODO : rework events completely\nevent SaleCreated(address indexed organizer, uint price, uint256 indexed event_id, string indexed event_JID);\nevent SaleCreatedHuman(address organizer, uint price, uint256 event_id, string event_JID, uint ticket_type);\nevent PluggedSale(address indexed organizer, address indexed orginal_sale, uint256 indexed event_id);\nevent PluggedSaleHuman(address organizer, address original_sale, uint256 event_id, uint ticket_type);\n\n// mapping from JID to event_id\n//mapping (string => uint256) events_jids;\n\n// mapping from author to master\n\n\n// TODO : invoke createMSNFT when constructor\nconstructor(address _master, address payable _treasure_fund)  {\n   // ticket_template = createMSNFT();\n   master_template = _master;\n   treasure_fund = _treasure_fund;\n}\n\n\nfunction createMSNFT() internal returns (address ticket_address) {\n //  address factory_address = address(this);\n   string memory name_ = \"MoonShardNFT\";\n   string memory smbl_ = \"MSNFT\";\n   ticket_address = address(new MSNFT(name_,smbl_));\n   return ticket_address;\n}\n\n// TODO -- work with interface?\nfunction createTicketSale721(address organizer, uint price, MSNFT token,uint sale_limit, TokenSale721.CurrencyERC20 currency, uint _master_id) internal returns(address ticket_sale) {\n    // calculate price\n    //uint256 cena = calculateRate(price);\n   // CurrencyERC20 currency = GetCurrencyEnum(currency_int);\n    ticket_sale = address(new TicketSale721(organizer, token, sale_limit,treasure_fund, price, currency, _master_id));\n    return ticket_sale;\n}\n\n/*\nfunction createTicketSale(address payable organizer, uint price, string memory event_JID, uint sale_limit, uint timeToStart, TokenSale721.CurrencyERC20 currency) public returns (address ticket_sale_adr, uint256 event_id) {\n\n    address ticket_adr = ticket_template;\n    require(events_jids[event_JID] == 0, \"sale with this JID is already created!\");\n    MSNFT ticket = MSNFT(ticket_adr);\n    ticket_sale_adr = createTicketSale721(organizer, price, ticket,sale_limit, event_JID, timeToStart, currency);\n    TicketSale721 ticket_sale = TicketSale721(ticket_sale_adr);\n\n    event_id = ticket_sale.event_id();\n    uint ticket_type = ticket_sale.ticket_type();\n    events_jids[event_JID] = event_id;\n    emit SaleCreated(organizer, price, event_id, event_JID);\n    emit SaleCreatedHuman(organizer,price,event_id, event_JID, ticket_type);\n    return(ticket_sale_adr, event_id);\n\n\n}\n*/\n\n// supply type -- how much copies can have\n// supplyType --> 1= unique, 0 = common, everything else is rare\n//\nfunction createMasterItem(string memory link, string memory _description, uint256 _supplyType) public returns (uint256 master_id) {\n    address master_adr = master_template;\n    address _author = msg.sender;\n    MSNFT master = MSNFT(master_adr);\n    master_id = master.createMasterCopy(link, _author, _description, _supplyType);\n    return master_id;\n}\n\nfunction createItemSale(uint price, uint sale_limit, TokenSale721.CurrencyERC20 currency, uint f_master_id) public returns (address item_sale_adr) {\n    address master_adr = master_template;\n    address organizer = msg.sender;\n    MSNFT item = MSNFT(master_adr);\n    uint256 master_id = f_master_id;\n    require(organizer == item.get_author(master_id), \"you are not own this master to start selling items\");\n    item_sale_adr = createTicketSale721(organizer, price, item,sale_limit, currency, master_id);\n   \n   // Plug itemsale address to mastersale map\n    item.PlugCrowdSale(organizer, master_id, item_sale_adr);\n    return item_sale_adr;\n\n}\n\n/*\nfunction PlugInTicketSale(address payable origin_sale, uint price, uint _sale_limit) public returns(address payable plugin_sale) {\n    uint cena = calculateRate(price);\n    plugin_sale = address(new TicketSalePluggable(cena,origin_sale, _sale_limit,treasure_fund));\n    //TicketSale721 ticket_sale = TicketSale721(origin_sale);\n    TicketSalePluggable plugin_sale_instance = TicketSalePluggable(plugin_sale);\n    uint256 event_id = plugin_sale_instance.event_id();\n    uint ticket_type = plugin_sale_instance.ticket_type();\n    emit PluggedSale(msg.sender,origin_sale,event_id);\n    emit PluggedSaleHuman(msg.sender, origin_sale, event_id, ticket_type);\n    return plugin_sale;\n}\n*/\n\n/*                      DEPRECATED\nfunction calculateRate (uint256 price) internal pure returns (uint256 rate_p) {\n    // rate = price * 1 eth\n    rate_p = price * (1 ether); // override for price determinition\n    return rate_p;\n}\n*/\n\n\n\nfunction getMasterTemplateAddress() public view returns(address) {\n    return master_template;\n}\n\n\n/*\n// I know there is a brutal hardcoded cheat, but I need to work fast\nfunction GetCurrencyEnum (uint128 int_cur) public view returns (CurrencyERC20 enum_currency){\n    if (int_cur = 0) {\n        return enum_currency = CurrencyERC20.USDT;\n    }\n    if (int_cur = 1) {\n        return enum_currency = CurrencyERC20.USDC;\n    }\n    if (int_cur = 2) {\n        return enum_currency = CurrencyERC20.SNM;\n    }\n\n}\n*/\n\n}",
  "sourcePath": "/home/jack/ethProjects/UniversalNFTMarketplace/contracts/721/singleton/TicketFactory721.sol",
  "compiler": {
    "name": "solc",
    "version": "0.8.0+commit.c7dfd78e.Emscripten.clang"
  },
  "schemaVersion": "3.2.5",
  "updatedAt": "2021-08-02T09:30:54.182Z",
  "devdoc": {
    "kind": "dev",
    "methods": {},
    "version": 1
  },
  "userdoc": {
    "kind": "user",
    "methods": {},
    "version": 1
  }
}