{
  "contractName": "TicketFactory721",
  "abi": [
    {
      "inputs": [
        {
          "internalType": "address",
          "name": "_ticket",
          "type": "address"
        },
        {
          "internalType": "address payable",
          "name": "_treasure_fund",
          "type": "address"
        }
      ],
      "stateMutability": "nonpayable",
      "type": "constructor"
    },
    {
      "anonymous": false,
      "inputs": [
        {
          "indexed": true,
          "internalType": "address",
          "name": "organizer",
          "type": "address"
        },
        {
          "indexed": true,
          "internalType": "address",
          "name": "orginal_sale",
          "type": "address"
        },
        {
          "indexed": true,
          "internalType": "uint256",
          "name": "event_id",
          "type": "uint256"
        }
      ],
      "name": "PluggedSale",
      "type": "event"
    },
    {
      "anonymous": false,
      "inputs": [
        {
          "indexed": false,
          "internalType": "address",
          "name": "organizer",
          "type": "address"
        },
        {
          "indexed": false,
          "internalType": "address",
          "name": "original_sale",
          "type": "address"
        },
        {
          "indexed": false,
          "internalType": "uint256",
          "name": "event_id",
          "type": "uint256"
        },
        {
          "indexed": false,
          "internalType": "uint256",
          "name": "ticket_type",
          "type": "uint256"
        }
      ],
      "name": "PluggedSaleHuman",
      "type": "event"
    },
    {
      "anonymous": false,
      "inputs": [
        {
          "indexed": true,
          "internalType": "address",
          "name": "organizer",
          "type": "address"
        },
        {
          "indexed": false,
          "internalType": "uint256",
          "name": "price",
          "type": "uint256"
        },
        {
          "indexed": true,
          "internalType": "uint256",
          "name": "event_id",
          "type": "uint256"
        },
        {
          "indexed": true,
          "internalType": "string",
          "name": "event_JID",
          "type": "string"
        }
      ],
      "name": "SaleCreated",
      "type": "event"
    },
    {
      "anonymous": false,
      "inputs": [
        {
          "indexed": false,
          "internalType": "address",
          "name": "organizer",
          "type": "address"
        },
        {
          "indexed": false,
          "internalType": "uint256",
          "name": "price",
          "type": "uint256"
        },
        {
          "indexed": false,
          "internalType": "uint256",
          "name": "event_id",
          "type": "uint256"
        },
        {
          "indexed": false,
          "internalType": "string",
          "name": "event_JID",
          "type": "string"
        },
        {
          "indexed": false,
          "internalType": "uint256",
          "name": "ticket_type",
          "type": "uint256"
        }
      ],
      "name": "SaleCreatedHuman",
      "type": "event"
    },
    {
      "inputs": [
        {
          "internalType": "address payable",
          "name": "organizer",
          "type": "address"
        },
        {
          "internalType": "uint256",
          "name": "price",
          "type": "uint256"
        },
        {
          "internalType": "string",
          "name": "event_JID",
          "type": "string"
        },
        {
          "internalType": "uint256",
          "name": "sale_limit",
          "type": "uint256"
        },
        {
          "internalType": "uint256",
          "name": "timeToStart",
          "type": "uint256"
        },
        {
          "internalType": "enum TokenSale721.CurrencyERC20",
          "name": "currency",
          "type": "uint8"
        }
      ],
      "name": "createTicketSale",
      "outputs": [
        {
          "internalType": "address",
          "name": "ticket_sale_adr",
          "type": "address"
        },
        {
          "internalType": "uint256",
          "name": "event_id",
          "type": "uint256"
        }
      ],
      "stateMutability": "nonpayable",
      "type": "function"
    },
    {
      "inputs": [
        {
          "internalType": "string",
          "name": "JID",
          "type": "string"
        }
      ],
      "name": "getEventIdByJid",
      "outputs": [
        {
          "internalType": "uint256",
          "name": "",
          "type": "uint256"
        }
      ],
      "stateMutability": "view",
      "type": "function"
    },
    {
      "inputs": [],
      "name": "getTicketTemplateAddress",
      "outputs": [
        {
          "internalType": "address",
          "name": "",
          "type": "address"
        }
      ],
      "stateMutability": "view",
      "type": "function"
    }
  ],
  "bytecode": "0x60806040523480156200001157600080fd5b5060405162003871380380620038718339818101604052810190620000379190620000ee565b816000806101000a81548173ffffffffffffffffffffffffffffffffffffffff021916908373ffffffffffffffffffffffffffffffffffffffff16021790555080600160006101000a81548173ffffffffffffffffffffffffffffffffffffffff021916908373ffffffffffffffffffffffffffffffffffffffff1602179055505050620001ab565b600081519050620000d18162000177565b92915050565b600081519050620000e88162000191565b92915050565b600080604083850312156200010257600080fd5b60006200011285828601620000c0565b92505060206200012585828601620000d7565b9150509250929050565b60006200013c8262000157565b9050919050565b6000620001508262000157565b9050919050565b600073ffffffffffffffffffffffffffffffffffffffff82169050919050565b62000182816200012f565b81146200018e57600080fd5b50565b6200019c8162000143565b8114620001a857600080fd5b50565b6136b680620001bb6000396000f3fe60806040523480156200001157600080fd5b506004361062000063576000357c0100000000000000000000000000000000000000000000000000000000900480631358ec8a1462000068578063722b5817146200009f578063b992389314620000c1575b600080fd5b6200008660048036038101906200008091906200056a565b620000f7565b60405162000096929190620008ff565b60405180910390f35b620000a9620003c3565b604051620000b89190620007e9565b60405180910390f35b620000df6004803603810190620000d9919062000619565b620003ec565b604051620000ee91906200094e565b60405180910390f35b60008060008060009054906101000a900473ffffffffffffffffffffffffffffffffffffffff1690506000600288604051620001349190620007d0565b9081526020016040518091039020541462000186576040517f08c379a00000000000000000000000000000000000000000000000000000000081526004016200017d906200092c565b60405180910390fd5b60008190506200019c8a8a838a8c8b8b62000416565b935060008490508073ffffffffffffffffffffffffffffffffffffffff166391039dee6040518163ffffffff167c010000000000000000000000000000000000000000000000000000000002815260040160206040518083038186803b1580156200020657600080fd5b505afa1580156200021b573d6000803e3d6000fd5b505050506040513d601f19601f820116820180604052508101906200024191906200065e565b935060008173ffffffffffffffffffffffffffffffffffffffff1663fbbdc4656040518163ffffffff167c010000000000000000000000000000000000000000000000000000000002815260040160206040518083038186803b158015620002a857600080fd5b505afa158015620002bd573d6000803e3d6000fd5b505050506040513d601f19601f82011682018060405250810190620002e391906200065e565b90508460028b604051620002f89190620007d0565b908152602001604051809103902081905550896040516200031a9190620007d0565b6040518091039020858d73ffffffffffffffffffffffffffffffffffffffff167f87836d9d795936ee8b4b6ffb2c7b7fba245eb618db8294c11e9cf03565afbb408e6040516200036b91906200094e565b60405180910390a47f8cf17295cea07172ef627805a194fc701945ac99cb803ae5930490fe2afb45098c8c878d85604051620003ac9594939291906200089b565b60405180910390a150505050965096945050505050565b60008060009054906101000a900473ffffffffffffffffffffffffffffffffffffffff16905090565b6000600282604051620004009190620007d0565b9081526020016040518091039020549050919050565b600087868686600160009054906101000a900473ffffffffffffffffffffffffffffffffffffffff16878c8860405162000450906200048e565b6200046398979695949392919062000806565b604051809103906000f08015801562000480573d6000803e3d6000fd5b509050979650505050505050565b612a988062000be983390190565b6000620004b3620004ad846200099f565b6200096b565b905082815260208101848484011115620004cc57600080fd5b620004d984828562000ad8565b509392505050565b600081359050620004f28162000ba3565b92915050565b600081359050620005098162000bbd565b92915050565b600082601f8301126200052157600080fd5b8135620005338482602086016200049c565b91505092915050565b6000813590506200054d8162000bce565b92915050565b600081519050620005648162000bce565b92915050565b60008060008060008060c087890312156200058457600080fd5b60006200059489828a01620004e1565b9650506020620005a789828a016200053c565b955050604087013567ffffffffffffffff811115620005c557600080fd5b620005d389828a016200050f565b9450506060620005e689828a016200053c565b9350506080620005f989828a016200053c565b92505060a06200060c89828a01620004f8565b9150509295509295509295565b6000602082840312156200062c57600080fd5b600082013567ffffffffffffffff8111156200064757600080fd5b62000655848285016200050f565b91505092915050565b6000602082840312156200067157600080fd5b6000620006818482850162000553565b91505092915050565b620006958162000a60565b82525050565b620006a68162000a0d565b82525050565b620006b781620009f9565b82525050565b620006c88162000a74565b82525050565b620006d98162000a9c565b82525050565b6000620006ec82620009d2565b620006f88185620009dd565b93506200070a81856020860162000ae7565b620007158162000b7b565b840191505092915050565b60006200072d82620009d2565b620007398185620009ee565b93506200074b81856020860162000ae7565b80840191505092915050565b600062000766602683620009dd565b91507f73616c6520776974682074686973204a494420697320616c726561647920637260008301527f65617465642100000000000000000000000000000000000000000000000000006020830152604082019050919050565b620007ca8162000a56565b82525050565b6000620007de828462000720565b915081905092915050565b6000602082019050620008006000830184620006ac565b92915050565b6000610100820190506200081e600083018b6200069b565b6200082d602083018a620006bd565b6200083c6040830189620007bf565b8181036060830152620008508188620006df565b90506200086160808301876200069b565b6200087060a0830186620007bf565b6200087f60c0830185620007bf565b6200088e60e0830184620006ce565b9998505050505050505050565b600060a082019050620008b260008301886200068a565b620008c16020830187620007bf565b620008d06040830186620007bf565b8181036060830152620008e48185620006df565b9050620008f56080830184620007bf565b9695505050505050565b6000604082019050620009166000830185620006ac565b620009256020830184620007bf565b9392505050565b60006020820190508181036000830152620009478162000757565b9050919050565b6000602082019050620009656000830184620007bf565b92915050565b6000604051905081810181811067ffffffffffffffff8211171562000995576200099462000b4c565b5b8060405250919050565b600067ffffffffffffffff821115620009bd57620009bc62000b4c565b5b601f19601f8301169050602081019050919050565b600081519050919050565b600082825260208201905092915050565b600081905092915050565b600062000a068262000a36565b9050919050565b600062000a1a8262000a36565b9050919050565b600081905062000a318262000b8c565b919050565b600073ffffffffffffffffffffffffffffffffffffffff82169050919050565b6000819050919050565b600062000a6d8262000ab0565b9050919050565b600062000a818262000a88565b9050919050565b600062000a958262000a36565b9050919050565b600062000aa98262000a21565b9050919050565b600062000abd8262000ac4565b9050919050565b600062000ad18262000a36565b9050919050565b82818337600083830152505050565b60005b8381101562000b0757808201518184015260208101905062000aea565b8381111562000b17576000848401525b50505050565b7f4e487b7100000000000000000000000000000000000000000000000000000000600052602160045260246000fd5b7f4e487b7100000000000000000000000000000000000000000000000000000000600052604160045260246000fd5b6000601f19601f8301169050919050565b6003811062000ba05762000b9f62000b1d565b5b50565b62000bae8162000a0d565b811462000bba57600080fd5b50565b6003811062000bcb57600080fd5b50565b62000bd98162000a56565b811462000be557600080fd5b5056fe6080604052600160045560006006556005600e5542600f553480156200002457600080fd5b5060405162002a9838038062002a9883398181016040528101906200004a91906200068d565b87878787878787876001600081905550600073ffffffffffffffffffffffffffffffffffffffff168873ffffffffffffffffffffffffffffffffffffffff161415620000cd576040517f08c379a0000000000000000000000000000000000000000000000000000000008152600401620000c4906200090d565b60405180910390fd5b600073ffffffffffffffffffffffffffffffffffffffff168773ffffffffffffffffffffffffffffffffffffffff16141562000140576040517f08c379a00000000000000000000000000000000000000000000000000000000081526004016200013790620008eb565b60405180910390fd5b600060028111156200017b577f4e487b7100000000000000000000000000000000000000000000000000000000600052602160045260246000fd5b816002811115620001b5577f4e487b7100000000000000000000000000000000000000000000000000000000600052602160045260246000fd5b148062000234575060016002811115620001f8577f4e487b7100000000000000000000000000000000000000000000000000000000600052602160045260246000fd5b81600281111562000232577f4e487b7100000000000000000000000000000000000000000000000000000000600052602160045260246000fd5b145b15620003545781600a600080600281111562000279577f4e487b7100000000000000000000000000000000000000000000000000000000600052602160045260246000fd5b6002811115620002b2577f4e487b7100000000000000000000000000000000000000000000000000000000600052602160045260246000fd5b81526020019081526020016000208190555081600a600080600281111562000303577f4e487b7100000000000000000000000000000000000000000000000000000000600052602160045260246000fd5b60028111156200033c577f4e487b7100000000000000000000000000000000000000000000000000000000600052602160045260246000fd5b815260200190815260200160002081905550620003df565b81600a600083600281111562000393577f4e487b7100000000000000000000000000000000000000000000000000000000600052602160045260246000fd5b6002811115620003cc577f4e487b7100000000000000000000000000000000000000000000000000000000600052602160045260246000fd5b8152602001908152602001600020819055505b87600760006101000a81548173ffffffffffffffffffffffffffffffffffffffff021916908373ffffffffffffffffffffffffffffffffffffffff16021790555083600860006101000a81548173ffffffffffffffffffffffffffffffffffffffff021916908373ffffffffffffffffffffffffffffffffffffffff16021790555086600160006101000a81548173ffffffffffffffffffffffffffffffffffffffff021916908373ffffffffffffffffffffffffffffffffffffffff16021790555085600581905550600160009054906101000a900473ffffffffffffffffffffffffffffffffffffffff1673ffffffffffffffffffffffffffffffffffffffff1663a201b238600760009054906101000a900473ffffffffffffffffffffffffffffffffffffffff16876040518363ffffffff167c010000000000000000000000000000000000000000000000000000000002815260040162000546929190620008b7565b602060405180830381600087803b1580156200056157600080fd5b505af115801562000576573d6000803e3d6000fd5b505050506040513d601f19601f820116820180604052508101906200059c919062000769565b600381905550826010819055505050505050505050505050505050505062000b29565b6000620005d6620005d08462000963565b6200092f565b905082815260208101848484011115620005ef57600080fd5b620005fc84828562000a54565b509392505050565b600081519050620006158162000aca565b92915050565b6000815190506200062c8162000ae4565b92915050565b600081519050620006438162000afe565b92915050565b600082601f8301126200065b57600080fd5b81516200066d848260208601620005bf565b91505092915050565b600081519050620006878162000b0f565b92915050565b600080600080600080600080610100898b031215620006ab57600080fd5b6000620006bb8b828c0162000604565b9850506020620006ce8b828c016200061b565b9750506040620006e18b828c0162000676565b965050606089015167ffffffffffffffff811115620006ff57600080fd5b6200070d8b828c0162000649565b9550506080620007208b828c0162000604565b94505060a0620007338b828c0162000676565b93505060c0620007468b828c0162000676565b92505060e0620007598b828c0162000632565b9150509295985092959890939650565b6000602082840312156200077c57600080fd5b60006200078c8482850162000676565b91505092915050565b620007a08162000a18565b82525050565b6000620007b38262000996565b620007bf8185620009a1565b9350620007d181856020860162000a54565b620007dc8162000ab9565b840191505092915050565b6000620007f6602483620009a1565b91507f43726f776473616c653a20746f6b656e20697320746865207a65726f2061646460008301527f72657373000000000000000000000000000000000000000000000000000000006020830152604082019050919050565b60006200085e602583620009a1565b91507f43726f776473616c653a2077616c6c657420697320746865207a65726f20616460008301527f64726573730000000000000000000000000000000000000000000000000000006020830152604082019050919050565b6000604082019050620008ce600083018562000795565b8181036020830152620008e28184620007a6565b90509392505050565b600060208201905081810360008301526200090681620007e7565b9050919050565b6000602082019050818103600083015262000928816200084f565b9050919050565b6000604051905081810181811067ffffffffffffffff8211171562000959576200095862000a8a565b5b8060405250919050565b600067ffffffffffffffff82111562000981576200098062000a8a565b5b601f19601f8301169050602081019050919050565b600081519050919050565b600082825260208201905092915050565b6000620009bf82620009ee565b9050919050565b6000620009d382620009ee565b9050919050565b6000620009e782620009b2565b9050919050565b600073ffffffffffffffffffffffffffffffffffffffff82169050919050565b6000819050919050565b600062000a258262000a2c565b9050919050565b600062000a398262000a40565b9050919050565b600062000a4d82620009ee565b9050919050565b60005b8381101562000a7457808201518184015260208101905062000a57565b8381111562000a84576000848401525b50505050565b7f4e487b7100000000000000000000000000000000000000000000000000000000600052604160045260246000fd5b6000601f19601f8301169050919050565b62000ad581620009c6565b811462000ae157600080fd5b50565b62000aef81620009da565b811462000afb57600080fd5b50565b6003811062000b0c57600080fd5b50565b62000b1a8162000a0e565b811462000b2657600080fd5b50565b611f5f8062000b396000396000f3fe6080604052600436106101d4576000357c01000000000000000000000000000000000000000000000000000000009004806391039dee11610109578063e678ce7b116100a7578063f9a4bb1e11610081578063f9a4bb1e14610607578063f9cfe26b14610632578063fbbdc4651461065d578063fc0c546a14610688576101d4565b8063e678ce7b14610595578063ecd0c0c3146105b1578063f00a93d3146105dc576101d4565b8063d887c411116100e3578063d887c411146104e6578063dac36d7b14610502578063e27920a81461053f578063e61d95941461056a576101d4565b806391039dee14610465578063a8253cac14610490578063b8afaa48146104bb576101d4565b80634f13dc7e116101765780636c1e81e3116101505780636c1e81e3146103a95780636ed08ea0146103d257806372a020e4146103fd578063868e180914610428576101d4565b80634f13dc7e14610328578063521eb27314610353578063610757e41461037e576101d4565b806323e6f340116101b257806323e6f3401461027c5780632c4e722e146102a75780633b13d188146102d25780634042b66f146102fd576101d4565b806304a75ec5146101d95780631cf6843b14610216578063218fdf4314610253575b600080fd5b3480156101e557600080fd5b5061020060048036038101906101fb9190611661565b6106b3565b60405161020d9190611ab6565b60405180910390f35b34801561022257600080fd5b5061023d600480360381019061023891906116b3565b610760565b60405161024a9190611bcc565b60405180910390f35b34801561025f57600080fd5b5061027a60048036038101906102759190611661565b610789565b005b34801561028857600080fd5b50610291610825565b60405161029e9190611bcc565b60405180910390f35b3480156102b357600080fd5b506102bc61082b565b6040516102c99190611bcc565b60405180910390f35b3480156102de57600080fd5b506102e7610835565b6040516102f49190611bcc565b60405180910390f35b34801561030957600080fd5b5061031261083b565b60405161031f9190611bcc565b60405180910390f35b34801561033457600080fd5b5061033d610845565b60405161034a9190611bcc565b60405180910390f35b34801561035f57600080fd5b5061036861084b565b6040516103759190611996565b60405180910390f35b34801561038a57600080fd5b50610393610875565b6040516103a09190611996565b60405180910390f35b3480156103b557600080fd5b506103d060048036038101906103cb91906115ad565b61089b565b005b3480156103de57600080fd5b506103e761094e565b6040516103f49190611bcc565b60405180910390f35b34801561040957600080fd5b50610412610954565b60405161041f9190611ab6565b60405180910390f35b34801561043457600080fd5b5061044f600480360381019061044a9190611661565b61097a565b60405161045c9190611bcc565b60405180910390f35b34801561047157600080fd5b5061047a610992565b6040516104879190611bcc565b60405180910390f35b34801561049c57600080fd5b506104a561099c565b6040516104b29190611bcc565b60405180910390f35b3480156104c757600080fd5b506104d06109b2565b6040516104dd9190611bcc565b60405180910390f35b61050060048036038101906104fb91906115e9565b6109b8565b005b34801561050e57600080fd5b5061052960048036038101906105249190611661565b6109c8565b6040516105369190611bcc565b60405180910390f35b34801561054b57600080fd5b50610554610a55565b6040516105619190611bcc565b60405180910390f35b34801561057657600080fd5b5061057f610a5b565b60405161058c9190611bcc565b60405180910390f35b6105af60048036038101906105aa91906115e9565b610a65565b005b3480156105bd57600080fd5b506105c6610ca7565b6040516105d39190611ad1565b60405180910390f35b3480156105e857600080fd5b506105f1610ccd565b6040516105fe9190611bcc565b60405180910390f35b34801561061357600080fd5b5061061c610cd7565b6040516106299190611996565b60405180910390f35b34801561063e57600080fd5b50610647610cfd565b6040516106549190611bcc565b60405180910390f35b34801561066957600080fd5b50610672610d03565b60405161067f9190611bcc565b60405180910390f35b34801561069457600080fd5b5061069d610d0d565b6040516106aa9190611ad1565b60405180910390f35b6000600b60008360028111156106f2577f4e487b7100000000000000000000000000000000000000000000000000000000600052602160045260246000fd5b600281111561072a577f4e487b7100000000000000000000000000000000000000000000000000000000600052602160045260246000fd5b815260200190815260200160002060009054906101000a900473ffffffffffffffffffffffffffffffffffffffff169050919050565b60008061076c836109c8565b90506000848261077c9190611cdf565b9050809250505092915050565b600760009054906101000a900473ffffffffffffffffffffffffffffffffffffffff1673ffffffffffffffffffffffffffffffffffffffff163373ffffffffffffffffffffffffffffffffffffffff1614610819576040517f08c379a000000000000000000000000000000000000000000000000000000000815260040161081090611aec565b60405180910390fd5b61082281610d37565b50565b60045481565b6000600954905090565b60105481565b6000600d54905090565b600f5481565b6000600760009054906101000a900473ffffffffffffffffffffffffffffffffffffffff16905090565b600760009054906101000a900473ffffffffffffffffffffffffffffffffffffffff1681565b60006108a5610d0d565b905060006108b1610992565b90508173ffffffffffffffffffffffffffffffffffffffff1663a27c282e8585846040518463ffffffff167c010000000000000000000000000000000000000000000000000000000002815260040161090c93929190611a3a565b600060405180830381600087803b15801561092657600080fd5b505af115801561093a573d6000803e3d6000fd5b505050506109486012610ffa565b50505050565b60035481565b600260009054906101000a900473ffffffffffffffffffffffffffffffffffffffff1681565b600a6020528060005260406000206000915090505481565b6000600354905090565b6000806109a96012611010565b90508091505090565b60115481565b6109c3838383610a65565b505050565b6000600a6000836002811115610a07577f4e487b7100000000000000000000000000000000000000000000000000000000600052602160045260246000fd5b6002811115610a3f577f4e487b7100000000000000000000000000000000000000000000000000000000600052602160045260246000fd5b8152602001908152602001600020549050919050565b600e5481565b6000600654905090565b60026000541415610aab576040517f08c379a0000000000000000000000000000000000000000000000000000000008152600401610aa290611b8c565b60405180910390fd5b600260008190555060008290506000610ac48284610760565b9050610ad28582848661101e565b610b6881600c6000866002811115610b13577f4e487b7100000000000000000000000000000000000000000000000000000000600052602160045260246000fd5b6002811115610b4b577f4e487b7100000000000000000000000000000000000000000000000000000000600052602160045260246000fd5b81526020019081526020016000205461123390919063ffffffff16565b600c6000856002811115610ba5577f4e487b7100000000000000000000000000000000000000000000000000000000600052602160045260246000fd5b6002811115610bdd577f4e487b7100000000000000000000000000000000000000000000000000000000600052602160045260246000fd5b815260200190815260200160002081905550610c048260065461123390919063ffffffff16565b600681905550610c1685838584611249565b8473ffffffffffffffffffffffffffffffffffffffff16610c35611351565b73ffffffffffffffffffffffffffffffffffffffff167f6faf93231a456e552dbc9961f58d9713ee4f2e69d15f1975b050ef0911053a7b8385604051610c7c929190611be7565b60405180910390a3610c8e8582611359565b610c98858261135d565b50506001600081905550505050565b600160009054906101000a900473ffffffffffffffffffffffffffffffffffffffff1681565b6000600554905090565b600860009054906101000a900473ffffffffffffffffffffffffffffffffffffffff1681565b60065481565b6000600454905090565b6000600160009054906101000a900473ffffffffffffffffffffffffffffffffffffffff16905090565b6000610d42826106b3565b905060008173ffffffffffffffffffffffffffffffffffffffff166370a08231306040518263ffffffff167c0100000000000000000000000000000000000000000000000000000000028152600401610d9b919061197b565b60206040518083038186803b158015610db357600080fd5b505afa158015610dc7573d6000803e3d6000fd5b505050506040513d601f19601f82011682018060405250810190610deb919061168a565b90506000606490506000610dff8383611361565b90508083610e0d9190611d39565b92508373ffffffffffffffffffffffffffffffffffffffff1663a9059cbb600760009054906101000a900473ffffffffffffffffffffffffffffffffffffffff16856040518363ffffffff167c0100000000000000000000000000000000000000000000000000000000028152600401610e889291906119b1565b602060405180830381600087803b158015610ea257600080fd5b505af1158015610eb6573d6000803e3d6000fd5b505050506040513d601f19601f82011682018060405250810190610eda9190611638565b508373ffffffffffffffffffffffffffffffffffffffff1663a9059cbb600860009054906101000a900473ffffffffffffffffffffffffffffffffffffffff16836040518363ffffffff167c0100000000000000000000000000000000000000000000000000000000028152600401610f549291906119b1565b602060405180830381600087803b158015610f6e57600080fd5b505af1158015610f82573d6000803e3d6000fd5b505050506040513d601f19601f82011682018060405250810190610fa69190611638565b5060008184610fb59190611c58565b90507f8f4705a6d8c5af200050d845b50d0f90f838a179c62b9365daa314992598fc1b818386604051610fea93929190611c10565b60405180910390a1505050505050565b6001816000016000828254019250508190555050565b600081600001549050919050565b600073ffffffffffffffffffffffffffffffffffffffff168473ffffffffffffffffffffffffffffffffffffffff16141561108e576040517f08c379a000000000000000000000000000000000000000000000000000000000815260040161108590611b4c565b60405180910390fd5b60008314156110d2576040517f08c379a00000000000000000000000000000000000000000000000000000000081526004016110c990611bac565b60405180910390fd5b60006006549050600083826110e79190611c58565b905060055481111561112e576040517f08c379a000000000000000000000000000000000000000000000000000000000815260040161112590611b2c565b60405180910390fd5b6000611139846106b3565b905060008173ffffffffffffffffffffffffffffffffffffffff1663dd62ed3e89306040518363ffffffff167c01000000000000000000000000000000000000000000000000000000000281526004016111949291906119da565b60206040518083038186803b1580156111ac57600080fd5b505afa1580156111c0573d6000803e3d6000fd5b505050506040513d601f19601f820116820180604052508101906111e4919061168a565b905086811015611229576040517f08c379a000000000000000000000000000000000000000000000000000000000815260040161122090611b6c565b60405180910390fd5b5050505050505050565b600081836112419190611c58565b905092915050565b6000611254836106b3565b90508073ffffffffffffffffffffffffffffffffffffffff166323b872dd8630856040518463ffffffff167c01000000000000000000000000000000000000000000000000000000000281526004016112af93929190611a03565b602060405180830381600087803b1580156112c957600080fd5b505af11580156112dd573d6000803e3d6000fd5b505050506040513d601f19601f820116820180604052508101906113019190611638565b611340576040517f08c379a000000000000000000000000000000000000000000000000000000000815260040161133790611b0c565b60405180910390fd5b61134a858561144b565b5050505050565b600033905090565b5050565b5050565b60008061136e8484611502565b9050600061137c8585611518565b9050600061138c600e5486611502565b9050600061139c600e5487611518565b905060006113b36113ad868561152e565b8861152e565b905060006113c1868461152e565b905060006113cf868661152e565b905060006113dd878661152e565b905060006113ec8b6002611502565b905060006113fa8383611233565b90506000611408828e611502565b905060006114168888611233565b905060006114248288611233565b905060006114328285611233565b9050809e50505050505050505050505050505092915050565b600160009054906101000a900473ffffffffffffffffffffffffffffffffffffffff1673ffffffffffffffffffffffffffffffffffffffff1663cd3a15f883836003546004546040518563ffffffff167c01000000000000000000000000000000000000000000000000000000000281526004016114cc9493929190611a71565b600060405180830381600087803b1580156114e657600080fd5b505af11580156114fa573d6000803e3d6000fd5b505050505050565b600081836115109190611cae565b905092915050565b600081836115269190611e45565b905092915050565b6000818361153c9190611cdf565b905092915050565b60008135905061155381611ed4565b92915050565b60008151905061156881611eeb565b92915050565b60008135905061157d81611f02565b92915050565b60008135905061159281611f12565b92915050565b6000815190506115a781611f12565b92915050565b600080604083850312156115c057600080fd5b60006115ce85828601611544565b92505060206115df85828601611583565b9150509250929050565b6000806000606084860312156115fe57600080fd5b600061160c86828701611544565b935050602061161d86828701611583565b925050604061162e8682870161156e565b9150509250925092565b60006020828403121561164a57600080fd5b600061165884828501611559565b91505092915050565b60006020828403121561167357600080fd5b60006116818482850161156e565b91505092915050565b60006020828403121561169c57600080fd5b60006116aa84828501611598565b91505092915050565b600080604083850312156116c657600080fd5b60006116d485828601611583565b92505060206116e58582860161156e565b9150509250929050565b6116f881611dc7565b82525050565b61170781611d7f565b82525050565b61171681611d6d565b82525050565b61172581611dd9565b82525050565b61173481611dfd565b82525050565b6000611747601983611c47565b91507f6f6e6c79206f7267616e61697a65722063616e20646f206974000000000000006000830152602082019050919050565b6000611787602c83611c47565b91507f7472616e736665722066726f6d20627579657220746f207468697320636f6e7460008301527f72616374206661696c65642000000000000000000000000000000000000000006020830152604082019050919050565b60006117ed602a83611c47565b91507f746f6b656e7320616d6f756e742073686f756c64206e6f74206578636565642060008301527f73616c655f6c696d6974000000000000000000000000000000000000000000006020830152604082019050919050565b6000611853602a83611c47565b91507f43726f776473616c653a2062656e656669636961727920697320746865207a6560008301527f726f2061646472657373000000000000000000000000000000000000000000006020830152604082019050919050565b60006118b9601383611c47565b91507f617070726f766564206e6f7420656e6f676874000000000000000000000000006000830152602082019050919050565b60006118f9601f83611c47565b91507f5265656e7472616e637947756172643a207265656e7472616e742063616c6c006000830152602082019050919050565b6000611939601983611c47565b91507f43726f776473616c653a20776569416d6f756e742069732030000000000000006000830152602082019050919050565b61197581611dbd565b82525050565b6000602082019050611990600083018461170d565b92915050565b60006020820190506119ab60008301846116fe565b92915050565b60006040820190506119c660008301856116ef565b6119d3602083018461196c565b9392505050565b60006040820190506119ef600083018561170d565b6119fc602083018461170d565b9392505050565b6000606082019050611a18600083018661170d565b611a25602083018561170d565b611a32604083018461196c565b949350505050565b6000606082019050611a4f600083018661170d565b611a5c602083018561196c565b611a69604083018461196c565b949350505050565b6000608082019050611a86600083018761170d565b611a93602083018661196c565b611aa0604083018561196c565b611aad606083018461196c565b95945050505050565b6000602082019050611acb600083018461171c565b92915050565b6000602082019050611ae6600083018461172b565b92915050565b60006020820190508181036000830152611b058161173a565b9050919050565b60006020820190508181036000830152611b258161177a565b9050919050565b60006020820190508181036000830152611b45816117e0565b9050919050565b60006020820190508181036000830152611b6581611846565b9050919050565b60006020820190508181036000830152611b85816118ac565b9050919050565b60006020820190508181036000830152611ba5816118ec565b9050919050565b60006020820190508181036000830152611bc58161192c565b9050919050565b6000602082019050611be1600083018461196c565b92915050565b6000604082019050611bfc600083018561196c565b611c09602083018461196c565b9392505050565b6000606082019050611c25600083018661196c565b611c32602083018561196c565b611c3f604083018461196c565b949350505050565b600082825260208201905092915050565b6000611c6382611dbd565b9150611c6e83611dbd565b9250827fffffffffffffffffffffffffffffffffffffffffffffffffffffffffffffffff03821115611ca357611ca2611e76565b5b828201905092915050565b6000611cb982611dbd565b9150611cc483611dbd565b925082611cd457611cd3611ea5565b5b828204905092915050565b6000611cea82611dbd565b9150611cf583611dbd565b9250817fffffffffffffffffffffffffffffffffffffffffffffffffffffffffffffffff0483118215151615611d2e57611d2d611e76565b5b828202905092915050565b6000611d4482611dbd565b9150611d4f83611dbd565b925082821015611d6257611d61611e76565b5b828203905092915050565b6000611d7882611d9d565b9050919050565b6000611d8a82611d9d565b9050919050565b60008115159050919050565b600073ffffffffffffffffffffffffffffffffffffffff82169050919050565b6000819050919050565b6000611dd282611e21565b9050919050565b6000611de482611deb565b9050919050565b6000611df682611d9d565b9050919050565b6000611e0882611e0f565b9050919050565b6000611e1a82611d9d565b9050919050565b6000611e2c82611e33565b9050919050565b6000611e3e82611d9d565b9050919050565b6000611e5082611dbd565b9150611e5b83611dbd565b925082611e6b57611e6a611ea5565b5b828206905092915050565b7f4e487b7100000000000000000000000000000000000000000000000000000000600052601160045260246000fd5b7f4e487b7100000000000000000000000000000000000000000000000000000000600052601260045260246000fd5b611edd81611d6d565b8114611ee857600080fd5b50565b611ef481611d91565b8114611eff57600080fd5b50565b60038110611f0f57600080fd5b50565b611f1b81611dbd565b8114611f2657600080fd5b5056fea2646970667358221220ec258f20984122792be086adfa1f2bd557eb65a2754c7785e18390fc1c251c3e64736f6c63430008000033a264697066735822122047f2481221a66d0290eec803e8fe153cbb21d4208586f0815800898d5ceb7b3b64736f6c63430008000033",
  "immutableReferences": {},
  "source": "pragma solidity ^0.8.0;\n\n//import './zeppeline/token/ERC20/ERC20Mintable.sol';\n\n// TODO: replace contracts to interfaces cause of gas limit\n// FIXME: this contract required for 7m gas limit -- which is more than standart 6m in ethereum networks. We should consider that when deployment\n\nimport './MSNFT.sol';\nimport './TicketSale721.sol';\n//import './TicketSalePluggable.sol';\n\n\n\ncontract TicketFactory721 {\n\n// constant\naddress ticket_template;\n\naddress payable treasure_fund;\n\n// event\nevent SaleCreated(address indexed organizer, uint price, uint256 indexed event_id, string indexed event_JID);\nevent SaleCreatedHuman(address organizer, uint price, uint256 event_id, string event_JID, uint ticket_type);\nevent PluggedSale(address indexed organizer, address indexed orginal_sale, uint256 indexed event_id);\nevent PluggedSaleHuman(address organizer, address original_sale, uint256 event_id, uint ticket_type);\n\n// mapping from JID to event_id\nmapping (string => uint256) events_jids;\n\n\nconstructor(address _ticket, address payable _treasure_fund)  {\n   // ticket_template = createMSNFT();\n   ticket_template = _ticket;\n   treasure_fund = _treasure_fund;\n}\n\n\nfunction createMSNFT() internal returns (address ticket_address) {\n //  address factory_address = address(this);\n   string memory name_ = \"MoonShardNFT\";\n   string memory smbl_ = \"MSNFT\";\n   ticket_address = address(new MSNFT(name_,smbl_));\n   return ticket_address;\n}\n\n\nfunction createTicketSale721(address payable organizer, uint price, MSNFT token,uint sale_limit, string memory jid,uint timeToStart, TokenSale721.CurrencyERC20 currency) internal returns(address ticket_sale) {\n    // calculate price\n    //uint256 cena = calculateRate(price);\n   // CurrencyERC20 currency = GetCurrencyEnum(currency_int);\n    ticket_sale = address(new TicketSale721(organizer, token, sale_limit, jid,treasure_fund, timeToStart, price, currency));\n    return ticket_sale;\n}\n\nfunction createTicketSale(address payable organizer, uint price, string memory event_JID, uint sale_limit, uint timeToStart, TokenSale721.CurrencyERC20 currency) public returns (address ticket_sale_adr, uint256 event_id) {\n\n    address ticket_adr = ticket_template;\n    require(events_jids[event_JID] == 0, \"sale with this JID is already created!\");\n    MSNFT ticket = MSNFT(ticket_adr);\n    ticket_sale_adr = createTicketSale721(organizer, price, ticket,sale_limit, event_JID, timeToStart, currency);\n    TicketSale721 ticket_sale = TicketSale721(ticket_sale_adr);\n\n    event_id = ticket_sale.event_id();\n    uint ticket_type = ticket_sale.ticket_type();\n    events_jids[event_JID] = event_id;\n    emit SaleCreated(organizer, price, event_id, event_JID);\n    emit SaleCreatedHuman(organizer,price,event_id, event_JID, ticket_type);\n    return(ticket_sale_adr, event_id);\n\n\n}\n\n/*\nfunction PlugInTicketSale(address payable origin_sale, uint price, uint _sale_limit) public returns(address payable plugin_sale) {\n    uint cena = calculateRate(price);\n    plugin_sale = address(new TicketSalePluggable(cena,origin_sale, _sale_limit,treasure_fund));\n    //TicketSale721 ticket_sale = TicketSale721(origin_sale);\n    TicketSalePluggable plugin_sale_instance = TicketSalePluggable(plugin_sale);\n    uint256 event_id = plugin_sale_instance.event_id();\n    uint ticket_type = plugin_sale_instance.ticket_type();\n    emit PluggedSale(msg.sender,origin_sale,event_id);\n    emit PluggedSaleHuman(msg.sender, origin_sale, event_id, ticket_type);\n    return plugin_sale;\n}\n*/\n\n/*                      DEPRECATED\nfunction calculateRate (uint256 price) internal pure returns (uint256 rate_p) {\n    // rate = price * 1 eth\n    rate_p = price * (1 ether); // override for price determinition\n    return rate_p;\n}\n*/\n\nfunction getEventIdByJid(string memory JID) public view returns(uint256) {\n    return events_jids[JID];\n}\n\nfunction getTicketTemplateAddress() public view returns(address) {\n    return ticket_template;\n}\n\n\n/*\n// I know there is a brutal hardcoded cheat, but I need to work fast\nfunction GetCurrencyEnum (uint128 int_cur) public view returns (CurrencyERC20 enum_currency){\n    if (int_cur = 0) {\n        return enum_currency = CurrencyERC20.USDT;\n    }\n    if (int_cur = 1) {\n        return enum_currency = CurrencyERC20.USDC;\n    }\n    if (int_cur = 2) {\n        return enum_currency = CurrencyERC20.SNM;\n    }\n\n}\n*/\n\n}",
  "sourcePath": "/home/jack/ethProjects/UniversalNFTMarketplace/contracts/721/singleton/TicketFactory721.sol",
  "compiler": {
    "name": "solc",
    "version": "0.8.0+commit.c7dfd78e.Emscripten.clang"
  },
  "schemaVersion": "3.4.1",
  "updatedAt": "2021-06-21T14:45:38.290Z",
  "devdoc": {
    "kind": "dev",
    "methods": {},
    "version": 1
  },
  "userdoc": {
    "kind": "user",
    "methods": {},
    "version": 1
  }
}