{
  "contractName": "TicketFactory721",
  "abi": [
    {
      "inputs": [
        {
          "internalType": "address",
          "name": "_master",
          "type": "address"
        },
        {
          "internalType": "address payable",
          "name": "_treasure_fund",
          "type": "address"
        }
      ],
      "stateMutability": "nonpayable",
      "type": "constructor"
    },
    {
      "anonymous": false,
      "inputs": [
        {
          "indexed": true,
          "internalType": "address",
          "name": "organizer",
          "type": "address"
        },
        {
          "indexed": true,
          "internalType": "address",
          "name": "orginal_sale",
          "type": "address"
        },
        {
          "indexed": true,
          "internalType": "uint256",
          "name": "event_id",
          "type": "uint256"
        }
      ],
      "name": "PluggedSale",
      "type": "event"
    },
    {
      "anonymous": false,
      "inputs": [
        {
          "indexed": false,
          "internalType": "address",
          "name": "organizer",
          "type": "address"
        },
        {
          "indexed": false,
          "internalType": "address",
          "name": "original_sale",
          "type": "address"
        },
        {
          "indexed": false,
          "internalType": "uint256",
          "name": "event_id",
          "type": "uint256"
        },
        {
          "indexed": false,
          "internalType": "uint256",
          "name": "ticket_type",
          "type": "uint256"
        }
      ],
      "name": "PluggedSaleHuman",
      "type": "event"
    },
    {
      "anonymous": false,
      "inputs": [
        {
          "indexed": true,
          "internalType": "address",
          "name": "organizer",
          "type": "address"
        },
        {
          "indexed": false,
          "internalType": "uint256",
          "name": "price",
          "type": "uint256"
        },
        {
          "indexed": true,
          "internalType": "uint256",
          "name": "event_id",
          "type": "uint256"
        },
        {
          "indexed": true,
          "internalType": "string",
          "name": "event_JID",
          "type": "string"
        }
      ],
      "name": "SaleCreated",
      "type": "event"
    },
    {
      "anonymous": false,
      "inputs": [
        {
          "indexed": false,
          "internalType": "address",
          "name": "organizer",
          "type": "address"
        },
        {
          "indexed": false,
          "internalType": "uint256",
          "name": "price",
          "type": "uint256"
        },
        {
          "indexed": false,
          "internalType": "uint256",
          "name": "event_id",
          "type": "uint256"
        },
        {
          "indexed": false,
          "internalType": "string",
          "name": "event_JID",
          "type": "string"
        },
        {
          "indexed": false,
          "internalType": "uint256",
          "name": "ticket_type",
          "type": "uint256"
        }
      ],
      "name": "SaleCreatedHuman",
      "type": "event"
    },
    {
      "inputs": [
        {
          "internalType": "string",
          "name": "_description",
          "type": "string"
        },
        {
          "internalType": "uint256",
          "name": "_supplyType",
          "type": "uint256"
        }
      ],
      "name": "createMasterItem",
      "outputs": [
        {
          "internalType": "uint256",
          "name": "master_id",
          "type": "uint256"
        }
      ],
      "stateMutability": "nonpayable",
      "type": "function"
    },
    {
      "inputs": [
        {
          "internalType": "uint256",
          "name": "price",
          "type": "uint256"
        },
        {
          "internalType": "uint256",
          "name": "sale_limit",
          "type": "uint256"
        },
        {
          "internalType": "uint256",
          "name": "timeToStart",
          "type": "uint256"
        },
        {
          "internalType": "enum TokenSale721.CurrencyERC20",
          "name": "currency",
          "type": "uint8"
        },
        {
          "internalType": "uint256",
          "name": "f_master_id",
          "type": "uint256"
        }
      ],
      "name": "createItemSale",
      "outputs": [
        {
          "internalType": "address",
          "name": "item_sale_adr",
          "type": "address"
        }
      ],
      "stateMutability": "nonpayable",
      "type": "function"
    },
    {
      "inputs": [
        {
          "internalType": "string",
          "name": "JID",
          "type": "string"
        }
      ],
      "name": "getEventIdByJid",
      "outputs": [
        {
          "internalType": "uint256",
          "name": "",
          "type": "uint256"
        }
      ],
      "stateMutability": "view",
      "type": "function"
    },
    {
      "inputs": [],
      "name": "getMasterTemplateAddress",
      "outputs": [
        {
          "internalType": "address",
          "name": "",
          "type": "address"
        }
      ],
      "stateMutability": "view",
      "type": "function"
    }
  ],
  "bytecode": "0x60806040523480156200001157600080fd5b506040516200351e3803806200351e8339818101604052810190620000379190620000ee565b816000806101000a81548173ffffffffffffffffffffffffffffffffffffffff021916908373ffffffffffffffffffffffffffffffffffffffff16021790555080600160006101000a81548173ffffffffffffffffffffffffffffffffffffffff021916908373ffffffffffffffffffffffffffffffffffffffff1602179055505050620001ab565b600081519050620000d18162000177565b92915050565b600081519050620000e88162000191565b92915050565b600080604083850312156200010257600080fd5b60006200011285828601620000c0565b92505060206200012585828601620000d7565b9150509250929050565b60006200013c8262000157565b9050919050565b6000620001508262000157565b9050919050565b600073ffffffffffffffffffffffffffffffffffffffff82169050919050565b62000182816200012f565b81146200018e57600080fd5b50565b6200019c8162000143565b8114620001a857600080fd5b50565b61336380620001bb6000396000f3fe60806040523480156200001157600080fd5b50600436106200006f576000357c0100000000000000000000000000000000000000000000000000000000900480632b922b6714620000745780632ec7297f146200009657806335c2481414620000cc578063b99238931462000102575b600080fd5b6200007e62000138565b6040516200008d919062000808565b60405180910390f35b620000b46004803603810190620000ae9190620005b2565b62000161565b604051620000c3919062000919565b60405180910390f35b620000ea6004803603810190620000e4919062000638565b6200024d565b604051620000f9919062000808565b60405180910390f35b6200012060048036038101906200011a91906200056d565b620003c3565b6040516200012f919062000919565b60405180910390f35b60008060009054906101000a900473ffffffffffffffffffffffffffffffffffffffff16905090565b60008060008054906101000a900473ffffffffffffffffffffffffffffffffffffffff169050600033905060008290508073ffffffffffffffffffffffffffffffffffffffff1663b7b239f98388886040518463ffffffff167c0100000000000000000000000000000000000000000000000000000000028152600401620001ec93929190620008b3565b602060405180830381600087803b1580156200020757600080fd5b505af11580156200021c573d6000803e3d6000fd5b505050506040513d601f19601f820116820180604052508101906200024291906200060c565b935050505092915050565b60008060008054906101000a900473ffffffffffffffffffffffffffffffffffffffff1690506000339050600082905060008590508173ffffffffffffffffffffffffffffffffffffffff16630e304d88826040518263ffffffff167c0100000000000000000000000000000000000000000000000000000000028152600401620002d9919062000919565b60206040518083038186803b158015620002f257600080fd5b505afa15801562000307573d6000803e3d6000fd5b505050506040513d601f19601f820116820180604052508101906200032d919062000541565b73ffffffffffffffffffffffffffffffffffffffff168373ffffffffffffffffffffffffffffffffffffffff16146200039d576040517f08c379a00000000000000000000000000000000000000000000000000000000081526004016200039490620008f7565b60405180910390fd5b620003ae838b848c8c8c87620003ed565b94506000859050505050505095945050505050565b6000600282604051620003d79190620007ef565b9081526020016040518091039020549050919050565b6000878686600160009054906101000a900473ffffffffffffffffffffffffffffffffffffffff16878b8888604051620004279062000465565b6200043a98979695949392919062000825565b604051809103906000f08015801562000457573d6000803e3d6000fd5b509050979650505050505050565b6127b68062000b7883390190565b60006200048a62000484846200096a565b62000936565b905082815260208101848484011115620004a357600080fd5b620004b084828562000a67565b509392505050565b600081519050620004c98162000b32565b92915050565b600081359050620004e08162000b4c565b92915050565b600082601f830112620004f857600080fd5b81356200050a84826020860162000473565b91505092915050565b600081359050620005248162000b5d565b92915050565b6000815190506200053b8162000b5d565b92915050565b6000602082840312156200055457600080fd5b60006200056484828501620004b8565b91505092915050565b6000602082840312156200058057600080fd5b600082013567ffffffffffffffff8111156200059b57600080fd5b620005a984828501620004e6565b91505092915050565b60008060408385031215620005c657600080fd5b600083013567ffffffffffffffff811115620005e157600080fd5b620005ef85828601620004e6565b9250506020620006028582860162000513565b9150509250929050565b6000602082840312156200061f57600080fd5b60006200062f848285016200052a565b91505092915050565b600080600080600060a086880312156200065157600080fd5b6000620006618882890162000513565b9550506020620006748882890162000513565b9450506040620006878882890162000513565b93505060606200069a88828901620004cf565b9250506080620006ad8882890162000513565b9150509295509295909350565b620006c581620009d8565b82525050565b620006d681620009c4565b82525050565b620006e78162000a2b565b82525050565b620006f88162000a53565b82525050565b60006200070b826200099d565b620007178185620009a8565b93506200072981856020860162000a76565b620007348162000b0a565b840191505092915050565b60006200074c826200099d565b620007588185620009b9565b93506200076a81856020860162000a76565b80840191505092915050565b600062000785603283620009a8565b91507f796f7520617265206e6f74206f776e2074686973206d617374657220746f207360008301527f746172742073656c6c696e67206974656d7300000000000000000000000000006020830152604082019050919050565b620007e98162000a21565b82525050565b6000620007fd82846200073f565b915081905092915050565b60006020820190506200081f6000830184620006cb565b92915050565b6000610100820190506200083d600083018b620006cb565b6200084c602083018a620006dc565b6200085b6040830189620007de565b6200086a6060830188620006ba565b620008796080830187620007de565b6200088860a0830186620007de565b6200089760c0830185620006ed565b620008a660e0830184620007de565b9998505050505050505050565b6000606082019050620008ca6000830186620006cb565b8181036020830152620008de8185620006fe565b9050620008ef6040830184620007de565b949350505050565b60006020820190508181036000830152620009128162000776565b9050919050565b6000602082019050620009306000830184620007de565b92915050565b6000604051905081810181811067ffffffffffffffff8211171562000960576200095f62000adb565b5b8060405250919050565b600067ffffffffffffffff82111562000988576200098762000adb565b5b601f19601f8301169050602081019050919050565b600081519050919050565b600082825260208201905092915050565b600081905092915050565b6000620009d18262000a01565b9050919050565b6000620009e58262000a01565b9050919050565b6000819050620009fc8262000b1b565b919050565b600073ffffffffffffffffffffffffffffffffffffffff82169050919050565b6000819050919050565b600062000a388262000a3f565b9050919050565b600062000a4c8262000a01565b9050919050565b600062000a6082620009ec565b9050919050565b82818337600083830152505050565b60005b8381101562000a9657808201518184015260208101905062000a79565b8381111562000aa6576000848401525b50505050565b7f4e487b7100000000000000000000000000000000000000000000000000000000600052602160045260246000fd5b7f4e487b7100000000000000000000000000000000000000000000000000000000600052604160045260246000fd5b6000601f19601f8301169050919050565b6003811062000b2f5762000b2e62000aac565b5b50565b62000b3d81620009c4565b811462000b4957600080fd5b50565b6003811062000b5a57600080fd5b50565b62000b688162000a21565b811462000b7457600080fd5b5056fe608060405260006006556005600e5542600f553480156200001f57600080fd5b50604051620027b6380380620027b683398181016040528101906200004591906200066f565b87878787878787876001600081905550600073ffffffffffffffffffffffffffffffffffffffff168873ffffffffffffffffffffffffffffffffffffffff161415620000c8576040517f08c379a0000000000000000000000000000000000000000000000000000000008152600401620000bf9062000861565b60405180910390fd5b600073ffffffffffffffffffffffffffffffffffffffff168773ffffffffffffffffffffffffffffffffffffffff1614156200013b576040517f08c379a000000000000000000000000000000000000000000000000000000000815260040162000132906200083f565b60405180910390fd5b6000600281111562000176577f4e487b7100000000000000000000000000000000000000000000000000000000600052602160045260246000fd5b826002811115620001b0577f4e487b7100000000000000000000000000000000000000000000000000000000600052602160045260246000fd5b14806200022f575060016002811115620001f3577f4e487b7100000000000000000000000000000000000000000000000000000000600052602160045260246000fd5b8260028111156200022d577f4e487b7100000000000000000000000000000000000000000000000000000000600052602160045260246000fd5b145b156200034f5782600a600080600281111562000274577f4e487b7100000000000000000000000000000000000000000000000000000000600052602160045260246000fd5b6002811115620002ad577f4e487b7100000000000000000000000000000000000000000000000000000000600052602160045260246000fd5b81526020019081526020016000208190555082600a6000806002811115620002fe577f4e487b7100000000000000000000000000000000000000000000000000000000600052602160045260246000fd5b600281111562000337577f4e487b7100000000000000000000000000000000000000000000000000000000600052602160045260246000fd5b815260200190815260200160002081905550620003da565b82600a60008460028111156200038e577f4e487b7100000000000000000000000000000000000000000000000000000000600052602160045260246000fd5b6002811115620003c7577f4e487b7100000000000000000000000000000000000000000000000000000000600052602160045260246000fd5b8152602001908152602001600020819055505b87600760006101000a81548173ffffffffffffffffffffffffffffffffffffffff021916908373ffffffffffffffffffffffffffffffffffffffff16021790555084600860006101000a81548173ffffffffffffffffffffffffffffffffffffffff021916908373ffffffffffffffffffffffffffffffffffffffff16021790555086600160006101000a81548173ffffffffffffffffffffffffffffffffffffffff021916908373ffffffffffffffffffffffffffffffffffffffff16021790555085600581905550600160009054906101000a900473ffffffffffffffffffffffffffffffffffffffff1673ffffffffffffffffffffffffffffffffffffffff1663239e1d72826040518263ffffffff167c01000000000000000000000000000000000000000000000000000000000281526004016200051d919062000883565b60206040518083038186803b1580156200053657600080fd5b505afa1580156200054b573d6000803e3d6000fd5b505050506040513d601f19601f8201168201806040525081019062000571919062000732565b600460006101000a81548160ff02191690836002811115620005bc577f4e487b7100000000000000000000000000000000000000000000000000000000600052602160045260246000fd5b0217905550806003819055508360108190555050505050505050505050505050505050620009a1565b600081519050620005f68162000917565b92915050565b6000815190506200060d8162000931565b92915050565b60008151905062000624816200094b565b92915050565b6000815190506200063b8162000965565b92915050565b600081519050620006528162000976565b92915050565b600081519050620006698162000987565b92915050565b600080600080600080600080610100898b0312156200068d57600080fd5b60006200069d8b828c01620005e5565b9850506020620006b08b828c0162000613565b9750506040620006c38b828c0162000658565b9650506060620006d68b828c01620005fc565b9550506080620006e98b828c0162000658565b94505060a0620006fc8b828c0162000658565b93505060c06200070f8b828c016200062a565b92505060e0620007228b828c0162000658565b9150509295985092959890939650565b6000602082840312156200074557600080fd5b6000620007558482850162000641565b91505092915050565b60006200076d602483620008a0565b91507f43726f776473616c653a20746f6b656e20697320746865207a65726f2061646460008301527f72657373000000000000000000000000000000000000000000000000000000006020830152604082019050919050565b6000620007d5602583620008a0565b91507f43726f776473616c653a2077616c6c657420697320746865207a65726f20616460008301527f64726573730000000000000000000000000000000000000000000000000000006020830152604082019050919050565b62000839816200090d565b82525050565b600060208201905081810360008301526200085a816200075e565b9050919050565b600060208201905081810360008301526200087c81620007c6565b9050919050565b60006020820190506200089a60008301846200082e565b92915050565b600082825260208201905092915050565b6000620008be82620008ed565b9050919050565b6000620008d282620008ed565b9050919050565b6000620008e682620008b1565b9050919050565b600073ffffffffffffffffffffffffffffffffffffffff82169050919050565b6000819050919050565b6200092281620008b1565b81146200092e57600080fd5b50565b6200093c81620008c5565b81146200094857600080fd5b50565b6200095681620008d9565b81146200096257600080fd5b50565b600381106200097357600080fd5b50565b600381106200098457600080fd5b50565b62000992816200090d565b81146200099e57600080fd5b50565b611e0580620009b16000396000f3fe608060405260043610610183576000357c010000000000000000000000000000000000000000000000000000000090048063868e1809116100ee578063e61d9594116100a7578063f00a93d311610081578063f00a93d314610549578063f9a4bb1e14610574578063f9cfe26b1461059f578063fc0c546a146105ca57610183565b8063e61d9594146104d7578063e678ce7b14610502578063ecd0c0c31461051e57610183565b8063868e1809146103c0578063b8afaa48146103fd578063cec9dca614610428578063d887c41114610453578063dac36d7b1461046f578063e27920a8146104ac57610183565b80634f13dc7e116101405780634f13dc7e146102ac578063521eb273146102d7578063610757e414610302578063628d6e931461032d57806372a020e414610358578063836930181461038357610183565b806304a75ec5146101885780631cf6843b146101c5578063218fdf43146102025780632c4e722e1461022b5780633b13d188146102565780634042b66f14610281575b600080fd5b34801561019457600080fd5b506101af60048036038101906101aa91906114d0565b6105f5565b6040516101bc919061195c565b60405180910390f35b3480156101d157600080fd5b506101ec60048036038101906101e7919061154b565b6106a2565b6040516101f99190611a72565b60405180910390f35b34801561020e57600080fd5b50610229600480360381019061022491906114d0565b6106cb565b005b34801561023757600080fd5b50610240610767565b60405161024d9190611a72565b60405180910390f35b34801561026257600080fd5b5061026b610771565b6040516102789190611a72565b60405180910390f35b34801561028d57600080fd5b50610296610777565b6040516102a39190611a72565b60405180910390f35b3480156102b857600080fd5b506102c1610781565b6040516102ce9190611a72565b60405180910390f35b3480156102e357600080fd5b506102ec610787565b6040516102f99190611822565b60405180910390f35b34801561030e57600080fd5b506103176107b1565b6040516103249190611822565b60405180910390f35b34801561033957600080fd5b506103426107d7565b60405161034f9190611a72565b60405180910390f35b34801561036457600080fd5b5061036d6107e1565b60405161037a919061195c565b60405180910390f35b34801561038f57600080fd5b506103aa60048036038101906103a591906114f9565b610807565b6040516103b79190611941565b60405180910390f35b3480156103cc57600080fd5b506103e760048036038101906103e291906114d0565b61085f565b6040516103f49190611a72565b60405180910390f35b34801561040957600080fd5b50610412610877565b60405161041f9190611a72565b60405180910390f35b34801561043457600080fd5b5061043d61087d565b60405161044a9190611a72565b60405180910390f35b61046d60048036038101906104689190611458565b610883565b005b34801561047b57600080fd5b50610496600480360381019061049191906114d0565b610893565b6040516104a39190611a72565b60405180910390f35b3480156104b857600080fd5b506104c1610920565b6040516104ce9190611a72565b60405180910390f35b3480156104e357600080fd5b506104ec610926565b6040516104f99190611a72565b60405180910390f35b61051c60048036038101906105179190611458565b610930565b005b34801561052a57600080fd5b50610533610b8b565b6040516105409190611977565b60405180910390f35b34801561055557600080fd5b5061055e610bb1565b60405161056b9190611a72565b60405180910390f35b34801561058057600080fd5b50610589610bbb565b604051610596919061183d565b60405180910390f35b3480156105ab57600080fd5b506105b4610be1565b6040516105c19190611a72565b60405180910390f35b3480156105d657600080fd5b506105df610be7565b6040516105ec9190611977565b60405180910390f35b6000600b6000836002811115610634577f4e487b7100000000000000000000000000000000000000000000000000000000600052602160045260246000fd5b600281111561066c577f4e487b7100000000000000000000000000000000000000000000000000000000600052602160045260246000fd5b815260200190815260200160002060009054906101000a900473ffffffffffffffffffffffffffffffffffffffff169050919050565b6000806106ae83610893565b9050600084826106be9190611b85565b9050809250505092915050565b600760009054906101000a900473ffffffffffffffffffffffffffffffffffffffff1673ffffffffffffffffffffffffffffffffffffffff163373ffffffffffffffffffffffffffffffffffffffff161461075b576040517f08c379a000000000000000000000000000000000000000000000000000000000815260040161075290611992565b60405180910390fd5b61076481610c11565b50565b6000600954905090565b60105481565b6000600d54905090565b600f5481565b6000600760009054906101000a900473ffffffffffffffffffffffffffffffffffffffff16905090565b600760009054906101000a900473ffffffffffffffffffffffffffffffffffffffff1681565b6000600354905090565b600260009054906101000a900473ffffffffffffffffffffffffffffffffffffffff1681565b600080610812610bb1565b9050600081141561082757600191505061085a565b6001811415610847576001831461083d57600080fd5b600191505061085a565b8083111561085457600080fd5b60019150505b919050565b600a6020528060005260406000206000915090505481565b60115481565b60035481565b61088e838383610930565b505050565b6000600a60008360028111156108d2577f4e487b7100000000000000000000000000000000000000000000000000000000600052602160045260246000fd5b600281111561090a577f4e487b7100000000000000000000000000000000000000000000000000000000600052602160045260246000fd5b8152602001908152602001600020549050919050565b600e5481565b6000600654905090565b60026000541415610976576040517f08c379a000000000000000000000000000000000000000000000000000000000815260040161096d90611a32565b60405180910390fd5b60026000819055506000829050600061098f82846106a2565b905061099d85828486610ed4565b610a3381600c60008660028111156109de577f4e487b7100000000000000000000000000000000000000000000000000000000600052602160045260246000fd5b6002811115610a16577f4e487b7100000000000000000000000000000000000000000000000000000000600052602160045260246000fd5b8152602001908152602001600020546110e290919063ffffffff16565b600c6000856002811115610a70577f4e487b7100000000000000000000000000000000000000000000000000000000600052602160045260246000fd5b6002811115610aa8577f4e487b7100000000000000000000000000000000000000000000000000000000600052602160045260246000fd5b81526020019081526020016000208190555060006005541415610ad2576000600681905550610aee565b610ae7826006546110e290919063ffffffff16565b6006819055505b610afa858385846110f8565b8473ffffffffffffffffffffffffffffffffffffffff16610b19611200565b73ffffffffffffffffffffffffffffffffffffffff167f6faf93231a456e552dbc9961f58d9713ee4f2e69d15f1975b050ef0911053a7b8385604051610b60929190611a8d565b60405180910390a3610b728582611208565b610b7c858261120c565b50506001600081905550505050565b600160009054906101000a900473ffffffffffffffffffffffffffffffffffffffff1681565b6000600554905090565b600860009054906101000a900473ffffffffffffffffffffffffffffffffffffffff1681565b60065481565b6000600160009054906101000a900473ffffffffffffffffffffffffffffffffffffffff16905090565b6000610c1c826105f5565b905060008173ffffffffffffffffffffffffffffffffffffffff166370a08231306040518263ffffffff167c0100000000000000000000000000000000000000000000000000000000028152600401610c759190611822565b60206040518083038186803b158015610c8d57600080fd5b505afa158015610ca1573d6000803e3d6000fd5b505050506040513d601f19601f82011682018060405250810190610cc59190611522565b90506000606490506000610cd98383611210565b90508083610ce79190611bdf565b92508373ffffffffffffffffffffffffffffffffffffffff1663a9059cbb600760009054906101000a900473ffffffffffffffffffffffffffffffffffffffff16856040518363ffffffff167c0100000000000000000000000000000000000000000000000000000000028152600401610d629291906118e1565b602060405180830381600087803b158015610d7c57600080fd5b505af1158015610d90573d6000803e3d6000fd5b505050506040513d601f19601f82011682018060405250810190610db491906114a7565b508373ffffffffffffffffffffffffffffffffffffffff1663a9059cbb600860009054906101000a900473ffffffffffffffffffffffffffffffffffffffff16836040518363ffffffff167c0100000000000000000000000000000000000000000000000000000000028152600401610e2e929190611858565b602060405180830381600087803b158015610e4857600080fd5b505af1158015610e5c573d6000803e3d6000fd5b505050506040513d601f19601f82011682018060405250810190610e8091906114a7565b5060008184610e8f9190611afe565b90507f8f4705a6d8c5af200050d845b50d0f90f838a179c62b9365daa314992598fc1b818386604051610ec493929190611ab6565b60405180910390a1505050505050565b600073ffffffffffffffffffffffffffffffffffffffff168473ffffffffffffffffffffffffffffffffffffffff161415610f44576040517f08c379a0000000000000000000000000000000000000000000000000000000008152600401610f3b906119f2565b60405180910390fd5b6000831415610f88576040517f08c379a0000000000000000000000000000000000000000000000000000000008152600401610f7f90611a52565b60405180910390fd5b6000600654905060011515610f9c84610807565b151514610fde576040517f08c379a0000000000000000000000000000000000000000000000000000000008152600401610fd5906119d2565b60405180910390fd5b6000610fe9836105f5565b905060008173ffffffffffffffffffffffffffffffffffffffff1663dd62ed3e88306040518363ffffffff167c0100000000000000000000000000000000000000000000000000000000028152600401611044929190611881565b60206040518083038186803b15801561105c57600080fd5b505afa158015611070573d6000803e3d6000fd5b505050506040513d601f19601f820116820180604052508101906110949190611522565b9050858110156110d9576040517f08c379a00000000000000000000000000000000000000000000000000000000081526004016110d090611a12565b60405180910390fd5b50505050505050565b600081836110f09190611afe565b905092915050565b6000611103836105f5565b90508073ffffffffffffffffffffffffffffffffffffffff166323b872dd8630856040518463ffffffff167c010000000000000000000000000000000000000000000000000000000002815260040161115e939291906118aa565b602060405180830381600087803b15801561117857600080fd5b505af115801561118c573d6000803e3d6000fd5b505050506040513d601f19601f820116820180604052508101906111b091906114a7565b6111ef576040517f08c379a00000000000000000000000000000000000000000000000000000000081526004016111e6906119b2565b60405180910390fd5b6111f985856112fa565b5050505050565b600033905090565b5050565b5050565b60008061121d84846113ad565b9050600061122b85856113c3565b9050600061123b600e54866113ad565b9050600061124b600e54876113c3565b9050600061126261125c86856113d9565b886113d9565b9050600061127086846113d9565b9050600061127e86866113d9565b9050600061128c87866113d9565b9050600061129b8b60026113ad565b905060006112a983836110e2565b905060006112b7828e6113ad565b905060006112c588886110e2565b905060006112d382886110e2565b905060006112e182856110e2565b9050809e50505050505050505050505050505092915050565b600160009054906101000a900473ffffffffffffffffffffffffffffffffffffffff1673ffffffffffffffffffffffffffffffffffffffff1663e3e5c2b983836003546040518463ffffffff167c01000000000000000000000000000000000000000000000000000000000281526004016113779392919061190a565b600060405180830381600087803b15801561139157600080fd5b505af11580156113a5573d6000803e3d6000fd5b505050505050565b600081836113bb9190611b54565b905092915050565b600081836113d19190611ceb565b905092915050565b600081836113e79190611b85565b905092915050565b6000813590506113fe81611d7a565b92915050565b60008151905061141381611d91565b92915050565b60008135905061142881611da8565b92915050565b60008135905061143d81611db8565b92915050565b60008151905061145281611db8565b92915050565b60008060006060848603121561146d57600080fd5b600061147b868287016113ef565b935050602061148c8682870161142e565b925050604061149d86828701611419565b9150509250925092565b6000602082840312156114b957600080fd5b60006114c784828501611404565b91505092915050565b6000602082840312156114e257600080fd5b60006114f084828501611419565b91505092915050565b60006020828403121561150b57600080fd5b60006115198482850161142e565b91505092915050565b60006020828403121561153457600080fd5b600061154284828501611443565b91505092915050565b6000806040838503121561155e57600080fd5b600061156c8582860161142e565b925050602061157d85828601611419565b9150509250929050565b61159081611c6d565b82525050565b61159f81611c25565b82525050565b6115ae81611c13565b82525050565b6115bd81611c37565b82525050565b6115cc81611c7f565b82525050565b6115db81611ca3565b82525050565b60006115ee601983611aed565b91507f6f6e6c79206f7267616e61697a65722063616e20646f206974000000000000006000830152602082019050919050565b600061162e602c83611aed565b91507f7472616e736665722066726f6d20627579657220746f207468697320636f6e7460008301527f72616374206661696c65642000000000000000000000000000000000000000006020830152604082019050919050565b6000611694602a83611aed565b91507f746f6b656e7320616d6f756e742073686f756c64206e6f74206578636565642060008301527f73616c655f6c696d6974000000000000000000000000000000000000000000006020830152604082019050919050565b60006116fa602a83611aed565b91507f43726f776473616c653a2062656e656669636961727920697320746865207a6560008301527f726f2061646472657373000000000000000000000000000000000000000000006020830152604082019050919050565b6000611760601383611aed565b91507f617070726f766564206e6f7420656e6f676874000000000000000000000000006000830152602082019050919050565b60006117a0601f83611aed565b91507f5265656e7472616e637947756172643a207265656e7472616e742063616c6c006000830152602082019050919050565b60006117e0601983611aed565b91507f43726f776473616c653a20776569416d6f756e742069732030000000000000006000830152602082019050919050565b61181c81611c63565b82525050565b600060208201905061183760008301846115a5565b92915050565b60006020820190506118526000830184611596565b92915050565b600060408201905061186d6000830185611587565b61187a6020830184611813565b9392505050565b600060408201905061189660008301856115a5565b6118a360208301846115a5565b9392505050565b60006060820190506118bf60008301866115a5565b6118cc60208301856115a5565b6118d96040830184611813565b949350505050565b60006040820190506118f660008301856115a5565b6119036020830184611813565b9392505050565b600060608201905061191f60008301866115a5565b61192c6020830185611813565b6119396040830184611813565b949350505050565b600060208201905061195660008301846115b4565b92915050565b600060208201905061197160008301846115c3565b92915050565b600060208201905061198c60008301846115d2565b92915050565b600060208201905081810360008301526119ab816115e1565b9050919050565b600060208201905081810360008301526119cb81611621565b9050919050565b600060208201905081810360008301526119eb81611687565b9050919050565b60006020820190508181036000830152611a0b816116ed565b9050919050565b60006020820190508181036000830152611a2b81611753565b9050919050565b60006020820190508181036000830152611a4b81611793565b9050919050565b60006020820190508181036000830152611a6b816117d3565b9050919050565b6000602082019050611a876000830184611813565b92915050565b6000604082019050611aa26000830185611813565b611aaf6020830184611813565b9392505050565b6000606082019050611acb6000830186611813565b611ad86020830185611813565b611ae56040830184611813565b949350505050565b600082825260208201905092915050565b6000611b0982611c63565b9150611b1483611c63565b9250827fffffffffffffffffffffffffffffffffffffffffffffffffffffffffffffffff03821115611b4957611b48611d1c565b5b828201905092915050565b6000611b5f82611c63565b9150611b6a83611c63565b925082611b7a57611b79611d4b565b5b828204905092915050565b6000611b9082611c63565b9150611b9b83611c63565b9250817fffffffffffffffffffffffffffffffffffffffffffffffffffffffffffffffff0483118215151615611bd457611bd3611d1c565b5b828202905092915050565b6000611bea82611c63565b9150611bf583611c63565b925082821015611c0857611c07611d1c565b5b828203905092915050565b6000611c1e82611c43565b9050919050565b6000611c3082611c43565b9050919050565b60008115159050919050565b600073ffffffffffffffffffffffffffffffffffffffff82169050919050565b6000819050919050565b6000611c7882611cc7565b9050919050565b6000611c8a82611c91565b9050919050565b6000611c9c82611c43565b9050919050565b6000611cae82611cb5565b9050919050565b6000611cc082611c43565b9050919050565b6000611cd282611cd9565b9050919050565b6000611ce482611c43565b9050919050565b6000611cf682611c63565b9150611d0183611c63565b925082611d1157611d10611d4b565b5b828206905092915050565b7f4e487b7100000000000000000000000000000000000000000000000000000000600052601160045260246000fd5b7f4e487b7100000000000000000000000000000000000000000000000000000000600052601260045260246000fd5b611d8381611c13565b8114611d8e57600080fd5b50565b611d9a81611c37565b8114611da557600080fd5b50565b60038110611db557600080fd5b50565b611dc181611c63565b8114611dcc57600080fd5b5056fea26469706673582212202bfce953386d31e23a695c12f5f6d21d02ee4b59bdb84e14f0816c7d89da387364736f6c63430008000033a2646970667358221220cebe9cef4527877a468ee66eb44f0fd69a9a205becf8c53768651bace84e394164736f6c63430008000033",
  "immutableReferences": {},
  "source": "pragma solidity ^0.8.0;\n\n//import './zeppeline/token/ERC20/ERC20Mintable.sol';\n\n\n\nimport './MSNFT.sol';\nimport './TicketSale721.sol';\n//import './TicketSalePluggable.sol';\n\n\n\ncontract TicketFactory721 {\n\n// constant\naddress master_template;\n\naddress payable treasure_fund;\n\n// event\nevent SaleCreated(address indexed organizer, uint price, uint256 indexed event_id, string indexed event_JID);\nevent SaleCreatedHuman(address organizer, uint price, uint256 event_id, string event_JID, uint ticket_type);\nevent PluggedSale(address indexed organizer, address indexed orginal_sale, uint256 indexed event_id);\nevent PluggedSaleHuman(address organizer, address original_sale, uint256 event_id, uint ticket_type);\n\n// mapping from JID to event_id\nmapping (string => uint256) events_jids;\n\n// mapping from author to master\n\n\n// TODO : invoke createMSNFT when constructor\nconstructor(address _master, address payable _treasure_fund)  {\n   // ticket_template = createMSNFT();\n   master_template = _master;\n   treasure_fund = _treasure_fund;\n}\n\n\nfunction createMSNFT() internal returns (address ticket_address) {\n //  address factory_address = address(this);\n   string memory name_ = \"MoonShardNFT\";\n   string memory smbl_ = \"MSNFT\";\n   ticket_address = address(new MSNFT(name_,smbl_));\n   return ticket_address;\n}\n\n\nfunction createTicketSale721(address organizer, uint price, MSNFT token,uint sale_limit,uint timeToStart, TokenSale721.CurrencyERC20 currency, uint _master_id) internal returns(address ticket_sale) {\n    // calculate price\n    //uint256 cena = calculateRate(price);\n   // CurrencyERC20 currency = GetCurrencyEnum(currency_int);\n    ticket_sale = address(new TicketSale721(organizer, token, sale_limit,treasure_fund, timeToStart, price, currency, _master_id));\n    return ticket_sale;\n}\n\n/*\nfunction createTicketSale(address payable organizer, uint price, string memory event_JID, uint sale_limit, uint timeToStart, TokenSale721.CurrencyERC20 currency) public returns (address ticket_sale_adr, uint256 event_id) {\n\n    address ticket_adr = ticket_template;\n    require(events_jids[event_JID] == 0, \"sale with this JID is already created!\");\n    MSNFT ticket = MSNFT(ticket_adr);\n    ticket_sale_adr = createTicketSale721(organizer, price, ticket,sale_limit, event_JID, timeToStart, currency);\n    TicketSale721 ticket_sale = TicketSale721(ticket_sale_adr);\n\n    event_id = ticket_sale.event_id();\n    uint ticket_type = ticket_sale.ticket_type();\n    events_jids[event_JID] = event_id;\n    emit SaleCreated(organizer, price, event_id, event_JID);\n    emit SaleCreatedHuman(organizer,price,event_id, event_JID, ticket_type);\n    return(ticket_sale_adr, event_id);\n\n\n}\n*/\n\n// supply type -- how much copies can have\n// supplyType --> 1= unique, 0 = common, everything else is rare\n//\nfunction createMasterItem(string memory _description, uint256 _supplyType) public returns (uint256 master_id) {\n    address master_adr = master_template;\n    address _author = msg.sender;\n    MSNFT master = MSNFT(master_adr);\n    master_id = master.createMasterCopy(_author, _description, _supplyType);\n    return master_id;\n}\n\nfunction createItemSale(uint price, uint sale_limit, uint timeToStart, TokenSale721.CurrencyERC20 currency, uint f_master_id) public returns (address item_sale_adr) {\n    address master_adr = master_template;\n    address organizer = msg.sender;\n    MSNFT item = MSNFT(master_adr);\n    uint256 master_id = f_master_id;\n    require(organizer == item.get_author(master_id), \"you are not own this master to start selling items\");\n    item_sale_adr = createTicketSale721(organizer, price, item,sale_limit, timeToStart, currency, master_id);\n    TicketSale721 item_sale = TicketSale721(item_sale_adr);\n\n}\n\n/*\nfunction PlugInTicketSale(address payable origin_sale, uint price, uint _sale_limit) public returns(address payable plugin_sale) {\n    uint cena = calculateRate(price);\n    plugin_sale = address(new TicketSalePluggable(cena,origin_sale, _sale_limit,treasure_fund));\n    //TicketSale721 ticket_sale = TicketSale721(origin_sale);\n    TicketSalePluggable plugin_sale_instance = TicketSalePluggable(plugin_sale);\n    uint256 event_id = plugin_sale_instance.event_id();\n    uint ticket_type = plugin_sale_instance.ticket_type();\n    emit PluggedSale(msg.sender,origin_sale,event_id);\n    emit PluggedSaleHuman(msg.sender, origin_sale, event_id, ticket_type);\n    return plugin_sale;\n}\n*/\n\n/*                      DEPRECATED\nfunction calculateRate (uint256 price) internal pure returns (uint256 rate_p) {\n    // rate = price * 1 eth\n    rate_p = price * (1 ether); // override for price determinition\n    return rate_p;\n}\n*/\n\nfunction getEventIdByJid(string memory JID) public view returns(uint256) {\n    return events_jids[JID];\n}\n\nfunction getMasterTemplateAddress() public view returns(address) {\n    return master_template;\n}\n\n\n/*\n// I know there is a brutal hardcoded cheat, but I need to work fast\nfunction GetCurrencyEnum (uint128 int_cur) public view returns (CurrencyERC20 enum_currency){\n    if (int_cur = 0) {\n        return enum_currency = CurrencyERC20.USDT;\n    }\n    if (int_cur = 1) {\n        return enum_currency = CurrencyERC20.USDC;\n    }\n    if (int_cur = 2) {\n        return enum_currency = CurrencyERC20.SNM;\n    }\n\n}\n*/\n\n}",
  "sourcePath": "/home/jack/ethProjects/UniversalNFTMarketplace/contracts/721/singleton/TicketFactory721.sol",
  "compiler": {
    "name": "solc",
    "version": "0.8.0+commit.c7dfd78e.Emscripten.clang"
  },
  "schemaVersion": "3.4.1",
  "updatedAt": "2021-06-24T19:06:18.369Z",
  "devdoc": {
    "kind": "dev",
    "methods": {},
    "version": 1
  },
  "userdoc": {
    "kind": "user",
    "methods": {},
    "version": 1
  }
}