{
  "contractName": "TicketSale721",
  "abi": [
    {
      "inputs": [
        {
          "internalType": "address payable",
          "name": "wallet",
          "type": "address"
        },
        {
          "internalType": "contract MSNFT",
          "name": "token",
          "type": "address"
        },
        {
          "internalType": "uint256",
          "name": "sale_limit",
          "type": "uint256"
        },
        {
          "internalType": "string",
          "name": "jid",
          "type": "string"
        },
        {
          "internalType": "address payable",
          "name": "_treasure_fund",
          "type": "address"
        },
        {
          "internalType": "uint256",
          "name": "timeToStart",
          "type": "uint256"
        },
        {
          "internalType": "uint256",
          "name": "sprice",
          "type": "uint256"
        },
        {
          "internalType": "enum TokenSale721.CurrencyERC20",
          "name": "_currency",
          "type": "uint8"
        }
      ],
      "stateMutability": "nonpayable",
      "type": "constructor"
    },
    {
      "anonymous": false,
      "inputs": [
        {
          "indexed": false,
          "internalType": "uint256",
          "name": "initial_value",
          "type": "uint256"
        },
        {
          "indexed": false,
          "internalType": "uint256",
          "name": "fees",
          "type": "uint256"
        },
        {
          "indexed": false,
          "internalType": "uint256",
          "name": "transfered_amount",
          "type": "uint256"
        }
      ],
      "name": "CalculatedFees",
      "type": "event"
    },
    {
      "anonymous": false,
      "inputs": [
        {
          "indexed": true,
          "internalType": "address",
          "name": "purchaser",
          "type": "address"
        },
        {
          "indexed": true,
          "internalType": "address",
          "name": "beneficiary",
          "type": "address"
        },
        {
          "indexed": false,
          "internalType": "uint256",
          "name": "value",
          "type": "uint256"
        },
        {
          "indexed": false,
          "internalType": "uint256",
          "name": "amount",
          "type": "uint256"
        }
      ],
      "name": "TokensPurchased",
      "type": "event"
    },
    {
      "inputs": [],
      "name": "_currency_token",
      "outputs": [
        {
          "internalType": "contract IERC20",
          "name": "",
          "type": "address"
        }
      ],
      "stateMutability": "view",
      "type": "function"
    },
    {
      "inputs": [],
      "name": "_event_id",
      "outputs": [
        {
          "internalType": "uint256",
          "name": "",
          "type": "uint256"
        }
      ],
      "stateMutability": "view",
      "type": "function"
    },
    {
      "inputs": [
        {
          "internalType": "enum TokenSale721.CurrencyERC20",
          "name": "",
          "type": "uint8"
        }
      ],
      "name": "_price",
      "outputs": [
        {
          "internalType": "uint256",
          "name": "",
          "type": "uint256"
        }
      ],
      "stateMutability": "view",
      "type": "function"
    },
    {
      "inputs": [],
      "name": "_sold_count",
      "outputs": [
        {
          "internalType": "uint256",
          "name": "",
          "type": "uint256"
        }
      ],
      "stateMutability": "view",
      "type": "function"
    },
    {
      "inputs": [],
      "name": "_ticket_type",
      "outputs": [
        {
          "internalType": "uint256",
          "name": "",
          "type": "uint256"
        }
      ],
      "stateMutability": "view",
      "type": "function"
    },
    {
      "inputs": [],
      "name": "_timeToStart",
      "outputs": [
        {
          "internalType": "uint256",
          "name": "",
          "type": "uint256"
        }
      ],
      "stateMutability": "view",
      "type": "function"
    },
    {
      "inputs": [],
      "name": "_token",
      "outputs": [
        {
          "internalType": "contract MSNFT",
          "name": "",
          "type": "address"
        }
      ],
      "stateMutability": "view",
      "type": "function"
    },
    {
      "inputs": [],
      "name": "_wallet",
      "outputs": [
        {
          "internalType": "address payable",
          "name": "",
          "type": "address"
        }
      ],
      "stateMutability": "view",
      "type": "function"
    },
    {
      "inputs": [
        {
          "internalType": "address",
          "name": "beneficiary",
          "type": "address"
        },
        {
          "internalType": "uint256",
          "name": "tokenAmountToBuy",
          "type": "uint256"
        },
        {
          "internalType": "enum TokenSale721.CurrencyERC20",
          "name": "currency",
          "type": "uint8"
        }
      ],
      "name": "buyTokens",
      "outputs": [],
      "stateMutability": "payable",
      "type": "function"
    },
    {
      "inputs": [],
      "name": "crDate",
      "outputs": [
        {
          "internalType": "uint256",
          "name": "",
          "type": "uint256"
        }
      ],
      "stateMutability": "view",
      "type": "function"
    },
    {
      "inputs": [],
      "name": "event_id",
      "outputs": [
        {
          "internalType": "uint256",
          "name": "",
          "type": "uint256"
        }
      ],
      "stateMutability": "view",
      "type": "function"
    },
    {
      "inputs": [
        {
          "internalType": "uint256",
          "name": "tokenAmountToBuy",
          "type": "uint256"
        },
        {
          "internalType": "enum TokenSale721.CurrencyERC20",
          "name": "currency",
          "type": "uint8"
        }
      ],
      "name": "getWeiAmount",
      "outputs": [
        {
          "internalType": "uint256",
          "name": "",
          "type": "uint256"
        }
      ],
      "stateMutability": "view",
      "type": "function"
    },
    {
      "inputs": [
        {
          "internalType": "enum TokenSale721.CurrencyERC20",
          "name": "currency",
          "type": "uint8"
        }
      ],
      "name": "get_currency",
      "outputs": [
        {
          "internalType": "contract IERC20",
          "name": "",
          "type": "address"
        }
      ],
      "stateMutability": "view",
      "type": "function"
    },
    {
      "inputs": [
        {
          "internalType": "enum TokenSale721.CurrencyERC20",
          "name": "currency",
          "type": "uint8"
        }
      ],
      "name": "get_price",
      "outputs": [
        {
          "internalType": "uint256",
          "name": "",
          "type": "uint256"
        }
      ],
      "stateMutability": "view",
      "type": "function"
    },
    {
      "inputs": [],
      "name": "lockedFunds",
      "outputs": [
        {
          "internalType": "uint256",
          "name": "",
          "type": "uint256"
        }
      ],
      "stateMutability": "view",
      "type": "function"
    },
    {
      "inputs": [],
      "name": "percent_fee",
      "outputs": [
        {
          "internalType": "uint256",
          "name": "",
          "type": "uint256"
        }
      ],
      "stateMutability": "view",
      "type": "function"
    },
    {
      "inputs": [],
      "name": "rate",
      "outputs": [
        {
          "internalType": "uint256",
          "name": "",
          "type": "uint256"
        }
      ],
      "stateMutability": "view",
      "type": "function"
    },
    {
      "inputs": [],
      "name": "sale_limit",
      "outputs": [
        {
          "internalType": "uint256",
          "name": "",
          "type": "uint256"
        }
      ],
      "stateMutability": "view",
      "type": "function"
    },
    {
      "inputs": [],
      "name": "sold_count",
      "outputs": [
        {
          "internalType": "uint256",
          "name": "",
          "type": "uint256"
        }
      ],
      "stateMutability": "view",
      "type": "function"
    },
    {
      "inputs": [],
      "name": "ticket_type",
      "outputs": [
        {
          "internalType": "uint256",
          "name": "",
          "type": "uint256"
        }
      ],
      "stateMutability": "view",
      "type": "function"
    },
    {
      "inputs": [],
      "name": "token",
      "outputs": [
        {
          "internalType": "contract MSNFT",
          "name": "",
          "type": "address"
        }
      ],
      "stateMutability": "view",
      "type": "function"
    },
    {
      "inputs": [],
      "name": "treasure_fund",
      "outputs": [
        {
          "internalType": "address payable",
          "name": "",
          "type": "address"
        }
      ],
      "stateMutability": "view",
      "type": "function"
    },
    {
      "inputs": [],
      "name": "wallet",
      "outputs": [
        {
          "internalType": "address payable",
          "name": "",
          "type": "address"
        }
      ],
      "stateMutability": "view",
      "type": "function"
    },
    {
      "inputs": [],
      "name": "weiRaised",
      "outputs": [
        {
          "internalType": "uint256",
          "name": "",
          "type": "uint256"
        }
      ],
      "stateMutability": "view",
      "type": "function"
    },
    {
      "inputs": [
        {
          "internalType": "enum TokenSale721.CurrencyERC20",
          "name": "currency",
          "type": "uint8"
        }
      ],
      "name": "withDrawFunds",
      "outputs": [],
      "stateMutability": "nonpayable",
      "type": "function"
    },
    {
      "inputs": [
        {
          "internalType": "address",
          "name": "buyer",
          "type": "address"
        },
        {
          "internalType": "uint256",
          "name": "amountToBuy",
          "type": "uint256"
        },
        {
          "internalType": "enum TokenSale721.CurrencyERC20",
          "name": "currency",
          "type": "uint8"
        }
      ],
      "name": "buyTicket",
      "outputs": [],
      "stateMutability": "payable",
      "type": "function"
    },
    {
      "inputs": [
        {
          "internalType": "address",
          "name": "visitor",
          "type": "address"
        },
        {
          "internalType": "uint256",
          "name": "token_id",
          "type": "uint256"
        }
      ],
      "name": "redeemTicket",
      "outputs": [],
      "stateMutability": "nonpayable",
      "type": "function"
    },
    {
      "inputs": [],
      "name": "getScannedTicketsCount",
      "outputs": [
        {
          "internalType": "uint256",
          "name": "",
          "type": "uint256"
        }
      ],
      "stateMutability": "view",
      "type": "function"
    }
  ],
  "bytecode": "0x6080604052600160045560006006556005600e5542600f553480156200002457600080fd5b5060405162002a9838038062002a9883398181016040528101906200004a91906200068d565b87878787878787876001600081905550600073ffffffffffffffffffffffffffffffffffffffff168873ffffffffffffffffffffffffffffffffffffffff161415620000cd576040517f08c379a0000000000000000000000000000000000000000000000000000000008152600401620000c4906200090d565b60405180910390fd5b600073ffffffffffffffffffffffffffffffffffffffff168773ffffffffffffffffffffffffffffffffffffffff16141562000140576040517f08c379a00000000000000000000000000000000000000000000000000000000081526004016200013790620008eb565b60405180910390fd5b600060028111156200017b577f4e487b7100000000000000000000000000000000000000000000000000000000600052602160045260246000fd5b816002811115620001b5577f4e487b7100000000000000000000000000000000000000000000000000000000600052602160045260246000fd5b148062000234575060016002811115620001f8577f4e487b7100000000000000000000000000000000000000000000000000000000600052602160045260246000fd5b81600281111562000232577f4e487b7100000000000000000000000000000000000000000000000000000000600052602160045260246000fd5b145b15620003545781600a600080600281111562000279577f4e487b7100000000000000000000000000000000000000000000000000000000600052602160045260246000fd5b6002811115620002b2577f4e487b7100000000000000000000000000000000000000000000000000000000600052602160045260246000fd5b81526020019081526020016000208190555081600a600080600281111562000303577f4e487b7100000000000000000000000000000000000000000000000000000000600052602160045260246000fd5b60028111156200033c577f4e487b7100000000000000000000000000000000000000000000000000000000600052602160045260246000fd5b815260200190815260200160002081905550620003df565b81600a600083600281111562000393577f4e487b7100000000000000000000000000000000000000000000000000000000600052602160045260246000fd5b6002811115620003cc577f4e487b7100000000000000000000000000000000000000000000000000000000600052602160045260246000fd5b8152602001908152602001600020819055505b87600760006101000a81548173ffffffffffffffffffffffffffffffffffffffff021916908373ffffffffffffffffffffffffffffffffffffffff16021790555083600860006101000a81548173ffffffffffffffffffffffffffffffffffffffff021916908373ffffffffffffffffffffffffffffffffffffffff16021790555086600160006101000a81548173ffffffffffffffffffffffffffffffffffffffff021916908373ffffffffffffffffffffffffffffffffffffffff16021790555085600581905550600160009054906101000a900473ffffffffffffffffffffffffffffffffffffffff1673ffffffffffffffffffffffffffffffffffffffff1663a201b238600760009054906101000a900473ffffffffffffffffffffffffffffffffffffffff16876040518363ffffffff167c010000000000000000000000000000000000000000000000000000000002815260040162000546929190620008b7565b602060405180830381600087803b1580156200056157600080fd5b505af115801562000576573d6000803e3d6000fd5b505050506040513d601f19601f820116820180604052508101906200059c919062000769565b600381905550826010819055505050505050505050505050505050505062000b29565b6000620005d6620005d08462000963565b6200092f565b905082815260208101848484011115620005ef57600080fd5b620005fc84828562000a54565b509392505050565b600081519050620006158162000aca565b92915050565b6000815190506200062c8162000ae4565b92915050565b600081519050620006438162000afe565b92915050565b600082601f8301126200065b57600080fd5b81516200066d848260208601620005bf565b91505092915050565b600081519050620006878162000b0f565b92915050565b600080600080600080600080610100898b031215620006ab57600080fd5b6000620006bb8b828c0162000604565b9850506020620006ce8b828c016200061b565b9750506040620006e18b828c0162000676565b965050606089015167ffffffffffffffff811115620006ff57600080fd5b6200070d8b828c0162000649565b9550506080620007208b828c0162000604565b94505060a0620007338b828c0162000676565b93505060c0620007468b828c0162000676565b92505060e0620007598b828c0162000632565b9150509295985092959890939650565b6000602082840312156200077c57600080fd5b60006200078c8482850162000676565b91505092915050565b620007a08162000a18565b82525050565b6000620007b38262000996565b620007bf8185620009a1565b9350620007d181856020860162000a54565b620007dc8162000ab9565b840191505092915050565b6000620007f6602483620009a1565b91507f43726f776473616c653a20746f6b656e20697320746865207a65726f2061646460008301527f72657373000000000000000000000000000000000000000000000000000000006020830152604082019050919050565b60006200085e602583620009a1565b91507f43726f776473616c653a2077616c6c657420697320746865207a65726f20616460008301527f64726573730000000000000000000000000000000000000000000000000000006020830152604082019050919050565b6000604082019050620008ce600083018562000795565b8181036020830152620008e28184620007a6565b90509392505050565b600060208201905081810360008301526200090681620007e7565b9050919050565b6000602082019050818103600083015262000928816200084f565b9050919050565b6000604051905081810181811067ffffffffffffffff8211171562000959576200095862000a8a565b5b8060405250919050565b600067ffffffffffffffff82111562000981576200098062000a8a565b5b601f19601f8301169050602081019050919050565b600081519050919050565b600082825260208201905092915050565b6000620009bf82620009ee565b9050919050565b6000620009d382620009ee565b9050919050565b6000620009e782620009b2565b9050919050565b600073ffffffffffffffffffffffffffffffffffffffff82169050919050565b6000819050919050565b600062000a258262000a2c565b9050919050565b600062000a398262000a40565b9050919050565b600062000a4d82620009ee565b9050919050565b60005b8381101562000a7457808201518184015260208101905062000a57565b8381111562000a84576000848401525b50505050565b7f4e487b7100000000000000000000000000000000000000000000000000000000600052604160045260246000fd5b6000601f19601f8301169050919050565b62000ad581620009c6565b811462000ae157600080fd5b50565b62000aef81620009da565b811462000afb57600080fd5b50565b6003811062000b0c57600080fd5b50565b62000b1a8162000a0e565b811462000b2657600080fd5b50565b611f5f8062000b396000396000f3fe6080604052600436106101d4576000357c01000000000000000000000000000000000000000000000000000000009004806391039dee11610109578063e678ce7b116100a7578063f9a4bb1e11610081578063f9a4bb1e14610607578063f9cfe26b14610632578063fbbdc4651461065d578063fc0c546a14610688576101d4565b8063e678ce7b14610595578063ecd0c0c3146105b1578063f00a93d3146105dc576101d4565b8063d887c411116100e3578063d887c411146104e6578063dac36d7b14610502578063e27920a81461053f578063e61d95941461056a576101d4565b806391039dee14610465578063a8253cac14610490578063b8afaa48146104bb576101d4565b80634f13dc7e116101765780636c1e81e3116101505780636c1e81e3146103a95780636ed08ea0146103d257806372a020e4146103fd578063868e180914610428576101d4565b80634f13dc7e14610328578063521eb27314610353578063610757e41461037e576101d4565b806323e6f340116101b257806323e6f3401461027c5780632c4e722e146102a75780633b13d188146102d25780634042b66f146102fd576101d4565b806304a75ec5146101d95780631cf6843b14610216578063218fdf4314610253575b600080fd5b3480156101e557600080fd5b5061020060048036038101906101fb9190611661565b6106b3565b60405161020d9190611ab6565b60405180910390f35b34801561022257600080fd5b5061023d600480360381019061023891906116b3565b610760565b60405161024a9190611bcc565b60405180910390f35b34801561025f57600080fd5b5061027a60048036038101906102759190611661565b610789565b005b34801561028857600080fd5b50610291610825565b60405161029e9190611bcc565b60405180910390f35b3480156102b357600080fd5b506102bc61082b565b6040516102c99190611bcc565b60405180910390f35b3480156102de57600080fd5b506102e7610835565b6040516102f49190611bcc565b60405180910390f35b34801561030957600080fd5b5061031261083b565b60405161031f9190611bcc565b60405180910390f35b34801561033457600080fd5b5061033d610845565b60405161034a9190611bcc565b60405180910390f35b34801561035f57600080fd5b5061036861084b565b6040516103759190611996565b60405180910390f35b34801561038a57600080fd5b50610393610875565b6040516103a09190611996565b60405180910390f35b3480156103b557600080fd5b506103d060048036038101906103cb91906115ad565b61089b565b005b3480156103de57600080fd5b506103e761094e565b6040516103f49190611bcc565b60405180910390f35b34801561040957600080fd5b50610412610954565b60405161041f9190611ab6565b60405180910390f35b34801561043457600080fd5b5061044f600480360381019061044a9190611661565b61097a565b60405161045c9190611bcc565b60405180910390f35b34801561047157600080fd5b5061047a610992565b6040516104879190611bcc565b60405180910390f35b34801561049c57600080fd5b506104a561099c565b6040516104b29190611bcc565b60405180910390f35b3480156104c757600080fd5b506104d06109b2565b6040516104dd9190611bcc565b60405180910390f35b61050060048036038101906104fb91906115e9565b6109b8565b005b34801561050e57600080fd5b5061052960048036038101906105249190611661565b6109c8565b6040516105369190611bcc565b60405180910390f35b34801561054b57600080fd5b50610554610a55565b6040516105619190611bcc565b60405180910390f35b34801561057657600080fd5b5061057f610a5b565b60405161058c9190611bcc565b60405180910390f35b6105af60048036038101906105aa91906115e9565b610a65565b005b3480156105bd57600080fd5b506105c6610ca7565b6040516105d39190611ad1565b60405180910390f35b3480156105e857600080fd5b506105f1610ccd565b6040516105fe9190611bcc565b60405180910390f35b34801561061357600080fd5b5061061c610cd7565b6040516106299190611996565b60405180910390f35b34801561063e57600080fd5b50610647610cfd565b6040516106549190611bcc565b60405180910390f35b34801561066957600080fd5b50610672610d03565b60405161067f9190611bcc565b60405180910390f35b34801561069457600080fd5b5061069d610d0d565b6040516106aa9190611ad1565b60405180910390f35b6000600b60008360028111156106f2577f4e487b7100000000000000000000000000000000000000000000000000000000600052602160045260246000fd5b600281111561072a577f4e487b7100000000000000000000000000000000000000000000000000000000600052602160045260246000fd5b815260200190815260200160002060009054906101000a900473ffffffffffffffffffffffffffffffffffffffff169050919050565b60008061076c836109c8565b90506000848261077c9190611cdf565b9050809250505092915050565b600760009054906101000a900473ffffffffffffffffffffffffffffffffffffffff1673ffffffffffffffffffffffffffffffffffffffff163373ffffffffffffffffffffffffffffffffffffffff1614610819576040517f08c379a000000000000000000000000000000000000000000000000000000000815260040161081090611aec565b60405180910390fd5b61082281610d37565b50565b60045481565b6000600954905090565b60105481565b6000600d54905090565b600f5481565b6000600760009054906101000a900473ffffffffffffffffffffffffffffffffffffffff16905090565b600760009054906101000a900473ffffffffffffffffffffffffffffffffffffffff1681565b60006108a5610d0d565b905060006108b1610992565b90508173ffffffffffffffffffffffffffffffffffffffff1663a27c282e8585846040518463ffffffff167c010000000000000000000000000000000000000000000000000000000002815260040161090c93929190611a3a565b600060405180830381600087803b15801561092657600080fd5b505af115801561093a573d6000803e3d6000fd5b505050506109486012610ffa565b50505050565b60035481565b600260009054906101000a900473ffffffffffffffffffffffffffffffffffffffff1681565b600a6020528060005260406000206000915090505481565b6000600354905090565b6000806109a96012611010565b90508091505090565b60115481565b6109c3838383610a65565b505050565b6000600a6000836002811115610a07577f4e487b7100000000000000000000000000000000000000000000000000000000600052602160045260246000fd5b6002811115610a3f577f4e487b7100000000000000000000000000000000000000000000000000000000600052602160045260246000fd5b8152602001908152602001600020549050919050565b600e5481565b6000600654905090565b60026000541415610aab576040517f08c379a0000000000000000000000000000000000000000000000000000000008152600401610aa290611b8c565b60405180910390fd5b600260008190555060008290506000610ac48284610760565b9050610ad28582848661101e565b610b6881600c6000866002811115610b13577f4e487b7100000000000000000000000000000000000000000000000000000000600052602160045260246000fd5b6002811115610b4b577f4e487b7100000000000000000000000000000000000000000000000000000000600052602160045260246000fd5b81526020019081526020016000205461123390919063ffffffff16565b600c6000856002811115610ba5577f4e487b7100000000000000000000000000000000000000000000000000000000600052602160045260246000fd5b6002811115610bdd577f4e487b7100000000000000000000000000000000000000000000000000000000600052602160045260246000fd5b815260200190815260200160002081905550610c048260065461123390919063ffffffff16565b600681905550610c1685838584611249565b8473ffffffffffffffffffffffffffffffffffffffff16610c35611351565b73ffffffffffffffffffffffffffffffffffffffff167f6faf93231a456e552dbc9961f58d9713ee4f2e69d15f1975b050ef0911053a7b8385604051610c7c929190611be7565b60405180910390a3610c8e8582611359565b610c98858261135d565b50506001600081905550505050565b600160009054906101000a900473ffffffffffffffffffffffffffffffffffffffff1681565b6000600554905090565b600860009054906101000a900473ffffffffffffffffffffffffffffffffffffffff1681565b60065481565b6000600454905090565b6000600160009054906101000a900473ffffffffffffffffffffffffffffffffffffffff16905090565b6000610d42826106b3565b905060008173ffffffffffffffffffffffffffffffffffffffff166370a08231306040518263ffffffff167c0100000000000000000000000000000000000000000000000000000000028152600401610d9b919061197b565b60206040518083038186803b158015610db357600080fd5b505afa158015610dc7573d6000803e3d6000fd5b505050506040513d601f19601f82011682018060405250810190610deb919061168a565b90506000606490506000610dff8383611361565b90508083610e0d9190611d39565b92508373ffffffffffffffffffffffffffffffffffffffff1663a9059cbb600760009054906101000a900473ffffffffffffffffffffffffffffffffffffffff16856040518363ffffffff167c0100000000000000000000000000000000000000000000000000000000028152600401610e889291906119b1565b602060405180830381600087803b158015610ea257600080fd5b505af1158015610eb6573d6000803e3d6000fd5b505050506040513d601f19601f82011682018060405250810190610eda9190611638565b508373ffffffffffffffffffffffffffffffffffffffff1663a9059cbb600860009054906101000a900473ffffffffffffffffffffffffffffffffffffffff16836040518363ffffffff167c0100000000000000000000000000000000000000000000000000000000028152600401610f549291906119b1565b602060405180830381600087803b158015610f6e57600080fd5b505af1158015610f82573d6000803e3d6000fd5b505050506040513d601f19601f82011682018060405250810190610fa69190611638565b5060008184610fb59190611c58565b90507f8f4705a6d8c5af200050d845b50d0f90f838a179c62b9365daa314992598fc1b818386604051610fea93929190611c10565b60405180910390a1505050505050565b6001816000016000828254019250508190555050565b600081600001549050919050565b600073ffffffffffffffffffffffffffffffffffffffff168473ffffffffffffffffffffffffffffffffffffffff16141561108e576040517f08c379a000000000000000000000000000000000000000000000000000000000815260040161108590611b4c565b60405180910390fd5b60008314156110d2576040517f08c379a00000000000000000000000000000000000000000000000000000000081526004016110c990611bac565b60405180910390fd5b60006006549050600083826110e79190611c58565b905060055481111561112e576040517f08c379a000000000000000000000000000000000000000000000000000000000815260040161112590611b2c565b60405180910390fd5b6000611139846106b3565b905060008173ffffffffffffffffffffffffffffffffffffffff1663dd62ed3e89306040518363ffffffff167c01000000000000000000000000000000000000000000000000000000000281526004016111949291906119da565b60206040518083038186803b1580156111ac57600080fd5b505afa1580156111c0573d6000803e3d6000fd5b505050506040513d601f19601f820116820180604052508101906111e4919061168a565b905086811015611229576040517f08c379a000000000000000000000000000000000000000000000000000000000815260040161122090611b6c565b60405180910390fd5b5050505050505050565b600081836112419190611c58565b905092915050565b6000611254836106b3565b90508073ffffffffffffffffffffffffffffffffffffffff166323b872dd8630856040518463ffffffff167c01000000000000000000000000000000000000000000000000000000000281526004016112af93929190611a03565b602060405180830381600087803b1580156112c957600080fd5b505af11580156112dd573d6000803e3d6000fd5b505050506040513d601f19601f820116820180604052508101906113019190611638565b611340576040517f08c379a000000000000000000000000000000000000000000000000000000000815260040161133790611b0c565b60405180910390fd5b61134a858561144b565b5050505050565b600033905090565b5050565b5050565b60008061136e8484611502565b9050600061137c8585611518565b9050600061138c600e5486611502565b9050600061139c600e5487611518565b905060006113b36113ad868561152e565b8861152e565b905060006113c1868461152e565b905060006113cf868661152e565b905060006113dd878661152e565b905060006113ec8b6002611502565b905060006113fa8383611233565b90506000611408828e611502565b905060006114168888611233565b905060006114248288611233565b905060006114328285611233565b9050809e50505050505050505050505050505092915050565b600160009054906101000a900473ffffffffffffffffffffffffffffffffffffffff1673ffffffffffffffffffffffffffffffffffffffff1663cd3a15f883836003546004546040518563ffffffff167c01000000000000000000000000000000000000000000000000000000000281526004016114cc9493929190611a71565b600060405180830381600087803b1580156114e657600080fd5b505af11580156114fa573d6000803e3d6000fd5b505050505050565b600081836115109190611cae565b905092915050565b600081836115269190611e45565b905092915050565b6000818361153c9190611cdf565b905092915050565b60008135905061155381611ed4565b92915050565b60008151905061156881611eeb565b92915050565b60008135905061157d81611f02565b92915050565b60008135905061159281611f12565b92915050565b6000815190506115a781611f12565b92915050565b600080604083850312156115c057600080fd5b60006115ce85828601611544565b92505060206115df85828601611583565b9150509250929050565b6000806000606084860312156115fe57600080fd5b600061160c86828701611544565b935050602061161d86828701611583565b925050604061162e8682870161156e565b9150509250925092565b60006020828403121561164a57600080fd5b600061165884828501611559565b91505092915050565b60006020828403121561167357600080fd5b60006116818482850161156e565b91505092915050565b60006020828403121561169c57600080fd5b60006116aa84828501611598565b91505092915050565b600080604083850312156116c657600080fd5b60006116d485828601611583565b92505060206116e58582860161156e565b9150509250929050565b6116f881611dc7565b82525050565b61170781611d7f565b82525050565b61171681611d6d565b82525050565b61172581611dd9565b82525050565b61173481611dfd565b82525050565b6000611747601983611c47565b91507f6f6e6c79206f7267616e61697a65722063616e20646f206974000000000000006000830152602082019050919050565b6000611787602c83611c47565b91507f7472616e736665722066726f6d20627579657220746f207468697320636f6e7460008301527f72616374206661696c65642000000000000000000000000000000000000000006020830152604082019050919050565b60006117ed602a83611c47565b91507f746f6b656e7320616d6f756e742073686f756c64206e6f74206578636565642060008301527f73616c655f6c696d6974000000000000000000000000000000000000000000006020830152604082019050919050565b6000611853602a83611c47565b91507f43726f776473616c653a2062656e656669636961727920697320746865207a6560008301527f726f2061646472657373000000000000000000000000000000000000000000006020830152604082019050919050565b60006118b9601383611c47565b91507f617070726f766564206e6f7420656e6f676874000000000000000000000000006000830152602082019050919050565b60006118f9601f83611c47565b91507f5265656e7472616e637947756172643a207265656e7472616e742063616c6c006000830152602082019050919050565b6000611939601983611c47565b91507f43726f776473616c653a20776569416d6f756e742069732030000000000000006000830152602082019050919050565b61197581611dbd565b82525050565b6000602082019050611990600083018461170d565b92915050565b60006020820190506119ab60008301846116fe565b92915050565b60006040820190506119c660008301856116ef565b6119d3602083018461196c565b9392505050565b60006040820190506119ef600083018561170d565b6119fc602083018461170d565b9392505050565b6000606082019050611a18600083018661170d565b611a25602083018561170d565b611a32604083018461196c565b949350505050565b6000606082019050611a4f600083018661170d565b611a5c602083018561196c565b611a69604083018461196c565b949350505050565b6000608082019050611a86600083018761170d565b611a93602083018661196c565b611aa0604083018561196c565b611aad606083018461196c565b95945050505050565b6000602082019050611acb600083018461171c565b92915050565b6000602082019050611ae6600083018461172b565b92915050565b60006020820190508181036000830152611b058161173a565b9050919050565b60006020820190508181036000830152611b258161177a565b9050919050565b60006020820190508181036000830152611b45816117e0565b9050919050565b60006020820190508181036000830152611b6581611846565b9050919050565b60006020820190508181036000830152611b85816118ac565b9050919050565b60006020820190508181036000830152611ba5816118ec565b9050919050565b60006020820190508181036000830152611bc58161192c565b9050919050565b6000602082019050611be1600083018461196c565b92915050565b6000604082019050611bfc600083018561196c565b611c09602083018461196c565b9392505050565b6000606082019050611c25600083018661196c565b611c32602083018561196c565b611c3f604083018461196c565b949350505050565b600082825260208201905092915050565b6000611c6382611dbd565b9150611c6e83611dbd565b9250827fffffffffffffffffffffffffffffffffffffffffffffffffffffffffffffffff03821115611ca357611ca2611e76565b5b828201905092915050565b6000611cb982611dbd565b9150611cc483611dbd565b925082611cd457611cd3611ea5565b5b828204905092915050565b6000611cea82611dbd565b9150611cf583611dbd565b9250817fffffffffffffffffffffffffffffffffffffffffffffffffffffffffffffffff0483118215151615611d2e57611d2d611e76565b5b828202905092915050565b6000611d4482611dbd565b9150611d4f83611dbd565b925082821015611d6257611d61611e76565b5b828203905092915050565b6000611d7882611d9d565b9050919050565b6000611d8a82611d9d565b9050919050565b60008115159050919050565b600073ffffffffffffffffffffffffffffffffffffffff82169050919050565b6000819050919050565b6000611dd282611e21565b9050919050565b6000611de482611deb565b9050919050565b6000611df682611d9d565b9050919050565b6000611e0882611e0f565b9050919050565b6000611e1a82611d9d565b9050919050565b6000611e2c82611e33565b9050919050565b6000611e3e82611d9d565b9050919050565b6000611e5082611dbd565b9150611e5b83611dbd565b925082611e6b57611e6a611ea5565b5b828206905092915050565b7f4e487b7100000000000000000000000000000000000000000000000000000000600052601160045260246000fd5b7f4e487b7100000000000000000000000000000000000000000000000000000000600052601260045260246000fd5b611edd81611d6d565b8114611ee857600080fd5b50565b611ef481611d91565b8114611eff57600080fd5b50565b60038110611f0f57600080fd5b50565b611f1b81611dbd565b8114611f2657600080fd5b5056fea2646970667358221220ec258f20984122792be086adfa1f2bd557eb65a2754c7785e18390fc1c251c3e64736f6c63430008000033",
  "immutableReferences": {},
  "source": "pragma solidity ^0.8.0;\n\nimport './TokenSale721.sol';\nimport './MSNFT.sol';\n\ncontract TicketSale721 is TokenSale721 {\n\nusing Counters for Counters.Counter;\n\nCounters.Counter scanned_tickets;\n\nconstructor(address payable wallet, MSNFT token, uint sale_limit, string memory jid, address payable _treasure_fund, uint timeToStart, uint256 sprice, CurrencyERC20 _currency) TokenSale721(wallet,token, sale_limit, jid, _treasure_fund, timeToStart, sprice, _currency)  {}\n\n\n/**\n*\n*@dev overload buy token function to give allowance to reedem tickets\n*\n*\n*/\nfunction buyTicket(address buyer, uint256 amountToBuy, CurrencyERC20 currency) public payable {\n    super.buyTokens(buyer, amountToBuy, currency);\n    //MSNFT ticket_token = super.token();\n   // super._token.approve(_wallet,tokens);\n\n    // chek this one more time\n    //ticket_token.setApprovalForEvent(buyer,);\n\n}\n\n// fallback\n/*\nfallback() external payable {\n        buyTicket(_msgSender());\n    }\n*/\n\n\n// deprecated\n/*\nfunction redeemTicket(address visitor, uint256 token_id) public {\n    MSNFT ticket_token = super.token();\n    uint256 event_id = super.event_id();\n    ticket_token.redeemTicket(visitor, token_id, event_id);\n}\n*/\n\nfunction redeemTicket(address visitor, uint256 token_id) public {\n    MSNFT ticket_token = super.token();\n    uint256 event_id = super.event_id();\n    ticket_token.redeemTicket(visitor, token_id, event_id);\n    scanned_tickets.increment();\n}\n\nfunction getScannedTicketsCount() public view  returns(uint)  {\n    uint st = scanned_tickets.current();\n    return st;\n}\n\n\n/*\nfunction refundTicket(uint256 token_id) public {\n    MSNFT ticket_token = super.token();\n    uint256 event_id = super.event_id();\n    address payable visitor = msg.sender;\n    if (now <= crDate - _timeToStart) {\n         require(ticket_token.refundTicket(msg.sender, token_id, event_id), \"can't refund ticket from MSNFT\");\n            uint256 rate = rate();\n//            uint256 amount = rate / (1 ether);\n            uint256 amount = rate;\n            uint fees = calculateFee(amount, 100);\n            amount = amount - fees;\n            super.refundToken(visitor, amount);\n\n        } else {\n            revert(\"event is already started\");\n        }\n\n}\n*/\n\n}\n",
  "sourcePath": "/home/jack/ethProjects/UniversalNFTMarketplace/contracts/721/singleton/TicketSale721.sol",
  "compiler": {
    "name": "solc",
    "version": "0.8.0+commit.c7dfd78e.Emscripten.clang"
  },
  "schemaVersion": "3.4.1",
  "updatedAt": "2021-06-21T14:45:38.303Z",
  "devdoc": {
    "kind": "dev",
    "methods": {
      "buyTicket(address,uint256,uint8)": {
        "details": "overload buy token function to give allowance to reedem tickets"
      },
      "buyTokens(address,uint256,uint8)": {
        "details": "low level token purchase ***DO NOT OVERRIDE*** This function has a non-reentrancy guard, so it shouldn't be called by another `nonReentrant` function.",
        "params": {
          "beneficiary": "Recipient of the token purchase function buyTokens(address beneficiary) public nonReentrant payable { uint256 weiAmount = msg.value; // calculate token amount to be created uint256 tokens = _getTokenAmount(weiAmount); _preValidatePurchase(beneficiary, weiAmount, tokens); // update state _weiRaised = _weiRaised.add(weiAmount); _sold_count = _sold_count.add(tokens); _processPurchase(beneficiary, tokens); emit TokensPurchased(_msgSender(), beneficiary, weiAmount, tokens); _updatePurchasingState(beneficiary, weiAmount); //   _forwardFunds(); _lockFunds(); _postValidatePurchase(beneficiary, weiAmount); }*"
        }
      },
      "rate()": {
        "returns": {
          "_0": "the number of token units a buyer gets per wei. // NOTE: As NFT should be always equal 1 (?)"
        }
      },
      "token()": {
        "returns": {
          "_0": "the token being sold."
        }
      },
      "wallet()": {
        "returns": {
          "_0": "the address where funds are collected."
        }
      },
      "weiRaised()": {
        "returns": {
          "_0": "the amount of wei raised."
        }
      }
    },
    "version": 1
  },
  "userdoc": {
    "events": {
      "TokensPurchased(address,address,uint256,uint256)": {
        "notice": "Event for token purchase logging"
      }
    },
    "kind": "user",
    "methods": {},
    "version": 1
  }
}