{
  "contractName": "TokenSale721",
  "abi": [
    {
      "inputs": [
        {
          "internalType": "address",
          "name": "i_wallet",
          "type": "address"
        },
        {
          "internalType": "contract MSNFT",
          "name": "i_token",
          "type": "address"
        },
        {
          "internalType": "uint256",
          "name": "i_sale_limit",
          "type": "uint256"
        },
        {
          "internalType": "address payable",
          "name": "_treasure_fund",
          "type": "address"
        },
        {
          "internalType": "uint256",
          "name": "sprice",
          "type": "uint256"
        },
        {
          "internalType": "enum TokenSale721.CurrencyERC20",
          "name": "_currency",
          "type": "uint8"
        },
        {
          "internalType": "uint256",
          "name": "c_master_id",
          "type": "uint256"
        }
      ],
      "stateMutability": "nonpayable",
      "type": "constructor"
    },
    {
      "anonymous": false,
      "inputs": [
        {
          "indexed": false,
          "internalType": "uint256",
          "name": "initial_value",
          "type": "uint256"
        },
        {
          "indexed": false,
          "internalType": "uint256",
          "name": "fees",
          "type": "uint256"
        },
        {
          "indexed": false,
          "internalType": "uint256",
          "name": "transfered_amount",
          "type": "uint256"
        }
      ],
      "name": "CalculatedFees",
      "type": "event"
    },
    {
      "anonymous": false,
      "inputs": [
        {
          "indexed": true,
          "internalType": "address",
          "name": "purchaser",
          "type": "address"
        },
        {
          "indexed": true,
          "internalType": "address",
          "name": "beneficiary",
          "type": "address"
        },
        {
          "indexed": false,
          "internalType": "uint256",
          "name": "value",
          "type": "uint256"
        },
        {
          "indexed": false,
          "internalType": "uint256",
          "name": "amount",
          "type": "uint256"
        }
      ],
      "name": "TokensPurchased",
      "type": "event"
    },
    {
      "inputs": [],
      "name": "_currency_token",
      "outputs": [
        {
          "internalType": "contract IERC20",
          "name": "",
          "type": "address"
        }
      ],
      "stateMutability": "view",
      "type": "function"
    },
    {
      "inputs": [],
      "name": "_master_id",
      "outputs": [
        {
          "internalType": "uint256",
          "name": "",
          "type": "uint256"
        }
      ],
      "stateMutability": "view",
      "type": "function"
    },
    {
      "inputs": [
        {
          "internalType": "enum TokenSale721.CurrencyERC20",
          "name": "",
          "type": "uint8"
        }
      ],
      "name": "_price",
      "outputs": [
        {
          "internalType": "uint256",
          "name": "",
          "type": "uint256"
        }
      ],
      "stateMutability": "view",
      "type": "function"
    },
    {
      "inputs": [],
      "name": "_sold_count",
      "outputs": [
        {
          "internalType": "uint256",
          "name": "",
          "type": "uint256"
        }
      ],
      "stateMutability": "view",
      "type": "function"
    },
    {
      "inputs": [],
      "name": "_timeToStart",
      "outputs": [
        {
          "internalType": "uint256",
          "name": "",
          "type": "uint256"
        }
      ],
      "stateMutability": "view",
      "type": "function"
    },
    {
      "inputs": [],
      "name": "_token",
      "outputs": [
        {
          "internalType": "contract MSNFT",
          "name": "",
          "type": "address"
        }
      ],
      "stateMutability": "view",
      "type": "function"
    },
    {
      "inputs": [],
      "name": "_wallet",
      "outputs": [
        {
          "internalType": "address",
          "name": "",
          "type": "address"
        }
      ],
      "stateMutability": "view",
      "type": "function"
    },
    {
      "inputs": [],
      "name": "crDate",
      "outputs": [
        {
          "internalType": "uint256",
          "name": "",
          "type": "uint256"
        }
      ],
      "stateMutability": "view",
      "type": "function"
    },
    {
      "inputs": [],
      "name": "lockedFunds",
      "outputs": [
        {
          "internalType": "uint256",
          "name": "",
          "type": "uint256"
        }
      ],
      "stateMutability": "view",
      "type": "function"
    },
    {
      "inputs": [],
      "name": "percent_fee",
      "outputs": [
        {
          "internalType": "uint256",
          "name": "",
          "type": "uint256"
        }
      ],
      "stateMutability": "view",
      "type": "function"
    },
    {
      "inputs": [],
      "name": "treasure_fund",
      "outputs": [
        {
          "internalType": "address payable",
          "name": "",
          "type": "address"
        }
      ],
      "stateMutability": "view",
      "type": "function"
    },
    {
      "inputs": [],
      "name": "token",
      "outputs": [
        {
          "internalType": "contract MSNFT",
          "name": "",
          "type": "address"
        }
      ],
      "stateMutability": "view",
      "type": "function"
    },
    {
      "inputs": [],
      "name": "wallet",
      "outputs": [
        {
          "internalType": "address",
          "name": "",
          "type": "address"
        }
      ],
      "stateMutability": "view",
      "type": "function"
    },
    {
      "inputs": [],
      "name": "rate",
      "outputs": [
        {
          "internalType": "uint256",
          "name": "",
          "type": "uint256"
        }
      ],
      "stateMutability": "view",
      "type": "function"
    },
    {
      "inputs": [],
      "name": "weiRaised",
      "outputs": [
        {
          "internalType": "uint256",
          "name": "",
          "type": "uint256"
        }
      ],
      "stateMutability": "view",
      "type": "function"
    },
    {
      "inputs": [],
      "name": "master_id",
      "outputs": [
        {
          "internalType": "uint256",
          "name": "",
          "type": "uint256"
        }
      ],
      "stateMutability": "view",
      "type": "function"
    },
    {
      "inputs": [],
      "name": "sale_limit",
      "outputs": [
        {
          "internalType": "uint256",
          "name": "",
          "type": "uint256"
        }
      ],
      "stateMutability": "view",
      "type": "function"
    },
    {
      "inputs": [],
      "name": "sold_count",
      "outputs": [
        {
          "internalType": "uint256",
          "name": "",
          "type": "uint256"
        }
      ],
      "stateMutability": "view",
      "type": "function"
    },
    {
      "inputs": [
        {
          "internalType": "enum TokenSale721.CurrencyERC20",
          "name": "currency",
          "type": "uint8"
        }
      ],
      "name": "get_price",
      "outputs": [
        {
          "internalType": "uint256",
          "name": "",
          "type": "uint256"
        }
      ],
      "stateMutability": "view",
      "type": "function"
    },
    {
      "inputs": [
        {
          "internalType": "enum TokenSale721.CurrencyERC20",
          "name": "currency",
          "type": "uint8"
        }
      ],
      "name": "get_currency",
      "outputs": [
        {
          "internalType": "contract IERC20",
          "name": "",
          "type": "address"
        }
      ],
      "stateMutability": "view",
      "type": "function"
    },
    {
      "inputs": [
        {
          "internalType": "uint256",
          "name": "amountToBuy",
          "type": "uint256"
        }
      ],
      "name": "check_sale_limit",
      "outputs": [
        {
          "internalType": "bool",
          "name": "",
          "type": "bool"
        }
      ],
      "stateMutability": "view",
      "type": "function"
    },
    {
      "inputs": [
        {
          "internalType": "address",
          "name": "beneficiary",
          "type": "address"
        },
        {
          "internalType": "uint256",
          "name": "tokenAmountToBuy",
          "type": "uint256"
        },
        {
          "internalType": "enum TokenSale721.CurrencyERC20",
          "name": "currency",
          "type": "uint8"
        }
      ],
      "name": "buyTokens",
      "outputs": [],
      "stateMutability": "payable",
      "type": "function"
    },
    {
      "inputs": [
        {
          "internalType": "uint256",
          "name": "tokenAmountToBuy",
          "type": "uint256"
        },
        {
          "internalType": "enum TokenSale721.CurrencyERC20",
          "name": "currency",
          "type": "uint8"
        }
      ],
      "name": "getWeiAmount",
      "outputs": [
        {
          "internalType": "uint256",
          "name": "",
          "type": "uint256"
        }
      ],
      "stateMutability": "view",
      "type": "function"
    },
    {
      "inputs": [
        {
          "internalType": "enum TokenSale721.CurrencyERC20",
          "name": "currency",
          "type": "uint8"
        }
      ],
      "name": "withDrawFunds",
      "outputs": [],
      "stateMutability": "nonpayable",
      "type": "function"
    }
  ],
  "bytecode": "0x608060405260006006556005600e5542600f553480156200001f57600080fd5b5060405162002afa38038062002afa833981810160405281019062000045919062000850565b6001600081905550600073ffffffffffffffffffffffffffffffffffffffff168773ffffffffffffffffffffffffffffffffffffffff161415620000c0576040517f08c379a0000000000000000000000000000000000000000000000000000000008152600401620000b79062000adc565b60405180910390fd5b600073ffffffffffffffffffffffffffffffffffffffff168673ffffffffffffffffffffffffffffffffffffffff16141562000133576040517f08c379a00000000000000000000000000000000000000000000000000000000081526004016200012a9062000a98565b60405180910390fd5b600060028111156200016e577f4e487b7100000000000000000000000000000000000000000000000000000000600052602160045260246000fd5b826002811115620001a8577f4e487b7100000000000000000000000000000000000000000000000000000000600052602160045260246000fd5b148062000227575060016002811115620001eb577f4e487b7100000000000000000000000000000000000000000000000000000000600052602160045260246000fd5b82600281111562000225577f4e487b7100000000000000000000000000000000000000000000000000000000600052602160045260246000fd5b145b15620003475782600a60008060028111156200026c577f4e487b7100000000000000000000000000000000000000000000000000000000600052602160045260246000fd5b6002811115620002a5577f4e487b7100000000000000000000000000000000000000000000000000000000600052602160045260246000fd5b81526020019081526020016000208190555082600a6000806002811115620002f6577f4e487b7100000000000000000000000000000000000000000000000000000000600052602160045260246000fd5b60028111156200032f577f4e487b7100000000000000000000000000000000000000000000000000000000600052602160045260246000fd5b815260200190815260200160002081905550620003d2565b82600a600084600281111562000386577f4e487b7100000000000000000000000000000000000000000000000000000000600052602160045260246000fd5b6002811115620003bf577f4e487b7100000000000000000000000000000000000000000000000000000000600052602160045260246000fd5b8152602001908152602001600020819055505b86600760006101000a81548173ffffffffffffffffffffffffffffffffffffffff021916908373ffffffffffffffffffffffffffffffffffffffff16021790555083600860006101000a81548173ffffffffffffffffffffffffffffffffffffffff021916908373ffffffffffffffffffffffffffffffffffffffff16021790555085600160006101000a81548173ffffffffffffffffffffffffffffffffffffffff021916908373ffffffffffffffffffffffffffffffffffffffff160217905550600160009054906101000a900473ffffffffffffffffffffffffffffffffffffffff1673ffffffffffffffffffffffffffffffffffffffff1663239e1d72826040518263ffffffff167c01000000000000000000000000000000000000000000000000000000000281526004016200050e919062000afe565b60206040518083038186803b1580156200052757600080fd5b505afa1580156200053c573d6000803e3d6000fd5b505050506040513d601f19601f82011682018060405250810190620005629190620008fd565b600460006101000a81548160ff02191690836002811115620005ad577f4e487b7100000000000000000000000000000000000000000000000000000000600052602160045260246000fd5b021790555060006002811115620005ed577f4e487b7100000000000000000000000000000000000000000000000000000000600052602160045260246000fd5b600460009054906101000a900460ff16600281111562000636577f4e487b7100000000000000000000000000000000000000000000000000000000600052602160045260246000fd5b141562000684576001851462000683576040517f08c379a00000000000000000000000000000000000000000000000000000000081526004016200067a9062000aba565b60405180910390fd5b5b600280811115620006be577f4e487b7100000000000000000000000000000000000000000000000000000000600052602160045260246000fd5b600460009054906101000a900460ff16600281111562000707577f4e487b7100000000000000000000000000000000000000000000000000000000600052602160045260246000fd5b1415620007175760006005819055505b6001600281111562000752577f4e487b7100000000000000000000000000000000000000000000000000000000600052602160045260246000fd5b600460009054906101000a900460ff1660028111156200079b577f4e487b7100000000000000000000000000000000000000000000000000000000600052602160045260246000fd5b1415620007aa57846005819055505b8060038190555060006010819055505050505050505062000c1c565b600081519050620007d78162000b92565b92915050565b600081519050620007ee8162000bac565b92915050565b600081519050620008058162000bc6565b92915050565b6000815190506200081c8162000be0565b92915050565b600081519050620008338162000bf1565b92915050565b6000815190506200084a8162000c02565b92915050565b600080600080600080600060e0888a0312156200086c57600080fd5b60006200087c8a828b01620007c6565b97505060206200088f8a828b01620007f4565b9650506040620008a28a828b0162000839565b9550506060620008b58a828b01620007dd565b9450506080620008c88a828b0162000839565b93505060a0620008db8a828b016200080b565b92505060c0620008ee8a828b0162000839565b91505092959891949750929550565b6000602082840312156200091057600080fd5b6000620009208482850162000822565b91505092915050565b60006200093860248362000b1b565b91507f43726f776473616c653a20746f6b656e20697320746865207a65726f2061646460008301527f72657373000000000000000000000000000000000000000000000000000000006020830152604082019050919050565b6000620009a0604f8362000b1b565b91507f546f6b656e73616c653a20417474656d707420746f20637265617465206e657760008301527f20546f6b656e73616c6520666f7220756e69717565204e46542077697468207760208301527f726f6e672073616c655f6c696d697400000000000000000000000000000000006040830152606082019050919050565b600062000a2e60258362000b1b565b91507f43726f776473616c653a2077616c6c657420697320746865207a65726f20616460008301527f64726573730000000000000000000000000000000000000000000000000000006020830152604082019050919050565b62000a928162000b88565b82525050565b6000602082019050818103600083015262000ab38162000929565b9050919050565b6000602082019050818103600083015262000ad58162000991565b9050919050565b6000602082019050818103600083015262000af78162000a1f565b9050919050565b600060208201905062000b15600083018462000a87565b92915050565b600082825260208201905092915050565b600062000b398262000b68565b9050919050565b600062000b4d8262000b68565b9050919050565b600062000b618262000b2c565b9050919050565b600073ffffffffffffffffffffffffffffffffffffffff82169050919050565b6000819050919050565b62000b9d8162000b2c565b811462000ba957600080fd5b50565b62000bb78162000b40565b811462000bc357600080fd5b50565b62000bd18162000b54565b811462000bdd57600080fd5b50565b6003811062000bee57600080fd5b50565b6003811062000bff57600080fd5b50565b62000c0d8162000b88565b811462000c1957600080fd5b50565b611ece8062000c2c6000396000f3fe608060405260043610610168576000357c010000000000000000000000000000000000000000000000000000000090048063868e1809116100d3578063e678ce7b1161008c578063e678ce7b146104cb578063ecd0c0c3146104e7578063f00a93d314610512578063f9a4bb1e1461053d578063f9cfe26b14610568578063fc0c546a1461059357610168565b8063868e1809146103a5578063b8afaa48146103e2578063cec9dca61461040d578063dac36d7b14610438578063e27920a814610475578063e61d9594146104a057610168565b80634f13dc7e116101255780634f13dc7e14610291578063521eb273146102bc578063610757e4146102e7578063628d6e931461031257806372a020e41461033d578063836930181461036857610168565b806304a75ec51461016d5780631cf6843b146101aa578063218fdf43146101e75780632c4e722e146102105780633b13d1881461023b5780634042b66f14610266575b600080fd5b34801561017957600080fd5b50610194600480360381019061018f91906114ed565b6105be565b6040516101a19190611a05565b60405180910390f35b3480156101b657600080fd5b506101d160048036038101906101cc9190611568565b61066b565b6040516101de9190611b3b565b60405180910390f35b3480156101f357600080fd5b5061020e600480360381019061020991906114ed565b610694565b005b34801561021c57600080fd5b50610225610730565b6040516102329190611b3b565b60405180910390f35b34801561024757600080fd5b5061025061073a565b60405161025d9190611b3b565b60405180910390f35b34801561027257600080fd5b5061027b610740565b6040516102889190611b3b565b60405180910390f35b34801561029d57600080fd5b506102a661074a565b6040516102b39190611b3b565b60405180910390f35b3480156102c857600080fd5b506102d1610750565b6040516102de91906118cb565b60405180910390f35b3480156102f357600080fd5b506102fc61077a565b60405161030991906118cb565b60405180910390f35b34801561031e57600080fd5b506103276107a0565b6040516103349190611b3b565b60405180910390f35b34801561034957600080fd5b506103526107aa565b60405161035f9190611a05565b60405180910390f35b34801561037457600080fd5b5061038f600480360381019061038a9190611516565b6107d0565b60405161039c91906119ea565b60405180910390f35b3480156103b157600080fd5b506103cc60048036038101906103c791906114ed565b610894565b6040516103d99190611b3b565b60405180910390f35b3480156103ee57600080fd5b506103f76108ac565b6040516104049190611b3b565b60405180910390f35b34801561041957600080fd5b506104226108b2565b60405161042f9190611b3b565b60405180910390f35b34801561044457600080fd5b5061045f600480360381019061045a91906114ed565b6108b8565b60405161046c9190611b3b565b60405180910390f35b34801561048157600080fd5b5061048a610945565b6040516104979190611b3b565b60405180910390f35b3480156104ac57600080fd5b506104b561094b565b6040516104c29190611b3b565b60405180910390f35b6104e560048036038101906104e09190611475565b610955565b005b3480156104f357600080fd5b506104fc610b97565b6040516105099190611a20565b60405180910390f35b34801561051e57600080fd5b50610527610bbd565b6040516105349190611b3b565b60405180910390f35b34801561054957600080fd5b50610552610bc7565b60405161055f91906118e6565b60405180910390f35b34801561057457600080fd5b5061057d610bed565b60405161058a9190611b3b565b60405180910390f35b34801561059f57600080fd5b506105a8610bf3565b6040516105b59190611a20565b60405180910390f35b6000600b60008360028111156105fd577f4e487b7100000000000000000000000000000000000000000000000000000000600052602160045260246000fd5b6002811115610635577f4e487b7100000000000000000000000000000000000000000000000000000000600052602160045260246000fd5b815260200190815260200160002060009054906101000a900473ffffffffffffffffffffffffffffffffffffffff169050919050565b600080610677836108b8565b9050600084826106879190611c4e565b9050809250505092915050565b600760009054906101000a900473ffffffffffffffffffffffffffffffffffffffff1673ffffffffffffffffffffffffffffffffffffffff163373ffffffffffffffffffffffffffffffffffffffff1614610724576040517f08c379a000000000000000000000000000000000000000000000000000000000815260040161071b90611a5b565b60405180910390fd5b61072d81610c1d565b50565b6000600954905090565b60105481565b6000600d54905090565b600f5481565b6000600760009054906101000a900473ffffffffffffffffffffffffffffffffffffffff16905090565b600760009054906101000a900473ffffffffffffffffffffffffffffffffffffffff1681565b6000600354905090565b600260009054906101000a900473ffffffffffffffffffffffffffffffffffffffff1681565b6000806107db610bbd565b905060008114156107f057600191505061088f565b6001811415610846576001831461083c576040517f08c379a000000000000000000000000000000000000000000000000000000000815260040161083390611a3b565b60405180910390fd5b600191505061088f565b80831115610889576040517f08c379a000000000000000000000000000000000000000000000000000000000815260040161088090611a3b565b60405180910390fd5b60019150505b919050565b600a6020528060005260406000206000915090505481565b60115481565b60035481565b6000600a60008360028111156108f7577f4e487b7100000000000000000000000000000000000000000000000000000000600052602160045260246000fd5b600281111561092f577f4e487b7100000000000000000000000000000000000000000000000000000000600052602160045260246000fd5b8152602001908152602001600020549050919050565b600e5481565b6000600654905090565b6002600054141561099b576040517f08c379a000000000000000000000000000000000000000000000000000000000815260040161099290611afb565b60405180910390fd5b6002600081905550600082905060006109b4828461066b565b90506109c285828486610ee0565b610a5881600c6000866002811115610a03577f4e487b7100000000000000000000000000000000000000000000000000000000600052602160045260246000fd5b6002811115610a3b577f4e487b7100000000000000000000000000000000000000000000000000000000600052602160045260246000fd5b8152602001908152602001600020546110ff90919063ffffffff16565b600c6000856002811115610a95577f4e487b7100000000000000000000000000000000000000000000000000000000600052602160045260246000fd5b6002811115610acd577f4e487b7100000000000000000000000000000000000000000000000000000000600052602160045260246000fd5b815260200190815260200160002081905550610af4826006546110ff90919063ffffffff16565b600681905550610b0685838584611115565b8473ffffffffffffffffffffffffffffffffffffffff16610b2561121d565b73ffffffffffffffffffffffffffffffffffffffff167f6faf93231a456e552dbc9961f58d9713ee4f2e69d15f1975b050ef0911053a7b8385604051610b6c929190611b56565b60405180910390a3610b7e8582611225565b610b888582611229565b50506001600081905550505050565b600160009054906101000a900473ffffffffffffffffffffffffffffffffffffffff1681565b6000600554905090565b600860009054906101000a900473ffffffffffffffffffffffffffffffffffffffff1681565b60065481565b6000600160009054906101000a900473ffffffffffffffffffffffffffffffffffffffff16905090565b6000610c28826105be565b905060008173ffffffffffffffffffffffffffffffffffffffff166370a08231306040518263ffffffff167c0100000000000000000000000000000000000000000000000000000000028152600401610c8191906118cb565b60206040518083038186803b158015610c9957600080fd5b505afa158015610cad573d6000803e3d6000fd5b505050506040513d601f19601f82011682018060405250810190610cd1919061153f565b90506000606490506000610ce5838361122d565b90508083610cf39190611ca8565b92508373ffffffffffffffffffffffffffffffffffffffff1663a9059cbb600760009054906101000a900473ffffffffffffffffffffffffffffffffffffffff16856040518363ffffffff167c0100000000000000000000000000000000000000000000000000000000028152600401610d6e92919061198a565b602060405180830381600087803b158015610d8857600080fd5b505af1158015610d9c573d6000803e3d6000fd5b505050506040513d601f19601f82011682018060405250810190610dc091906114c4565b508373ffffffffffffffffffffffffffffffffffffffff1663a9059cbb600860009054906101000a900473ffffffffffffffffffffffffffffffffffffffff16836040518363ffffffff167c0100000000000000000000000000000000000000000000000000000000028152600401610e3a929190611901565b602060405180830381600087803b158015610e5457600080fd5b505af1158015610e68573d6000803e3d6000fd5b505050506040513d601f19601f82011682018060405250810190610e8c91906114c4565b5060008184610e9b9190611bc7565b90507f8f4705a6d8c5af200050d845b50d0f90f838a179c62b9365daa314992598fc1b818386604051610ed093929190611b7f565b60405180910390a1505050505050565b600073ffffffffffffffffffffffffffffffffffffffff168473ffffffffffffffffffffffffffffffffffffffff161415610f50576040517f08c379a0000000000000000000000000000000000000000000000000000000008152600401610f4790611abb565b60405180910390fd5b6000831415610f94576040517f08c379a0000000000000000000000000000000000000000000000000000000008152600401610f8b90611b1b565b60405180910390fd5b6000600654905060008382610fa99190611bc7565b905060011515610fb8826107d0565b151514610ffa576040517f08c379a0000000000000000000000000000000000000000000000000000000008152600401610ff190611a9b565b60405180910390fd5b6000611005846105be565b905060008173ffffffffffffffffffffffffffffffffffffffff1663dd62ed3e89306040518363ffffffff167c010000000000000000000000000000000000000000000000000000000002815260040161106092919061192a565b60206040518083038186803b15801561107857600080fd5b505afa15801561108c573d6000803e3d6000fd5b505050506040513d601f19601f820116820180604052508101906110b0919061153f565b9050868110156110f5576040517f08c379a00000000000000000000000000000000000000000000000000000000081526004016110ec90611a7b565b60405180910390fd5b5050505050505050565b6000818361110d9190611bc7565b905092915050565b6000611120836105be565b90508073ffffffffffffffffffffffffffffffffffffffff166323b872dd8630856040518463ffffffff167c010000000000000000000000000000000000000000000000000000000002815260040161117b93929190611953565b602060405180830381600087803b15801561119557600080fd5b505af11580156111a9573d6000803e3d6000fd5b505050506040513d601f19601f820116820180604052508101906111cd91906114c4565b61120c576040517f08c379a000000000000000000000000000000000000000000000000000000000815260040161120390611adb565b60405180910390fd5b6112168585611317565b5050505050565b600033905090565b5050565b5050565b60008061123a84846113ca565b9050600061124885856113e0565b90506000611258600e54866113ca565b90506000611268600e54876113e0565b9050600061127f61127986856113f6565b886113f6565b9050600061128d86846113f6565b9050600061129b86866113f6565b905060006112a987866113f6565b905060006112b88b60026113ca565b905060006112c683836110ff565b905060006112d4828e6113ca565b905060006112e288886110ff565b905060006112f082886110ff565b905060006112fe82856110ff565b9050809e50505050505050505050505050505092915050565b600160009054906101000a900473ffffffffffffffffffffffffffffffffffffffff1673ffffffffffffffffffffffffffffffffffffffff1663f6b45c4683836003546040518463ffffffff167c0100000000000000000000000000000000000000000000000000000000028152600401611394939291906119b3565b600060405180830381600087803b1580156113ae57600080fd5b505af11580156113c2573d6000803e3d6000fd5b505050505050565b600081836113d89190611c1d565b905092915050565b600081836113ee9190611db4565b905092915050565b600081836114049190611c4e565b905092915050565b60008135905061141b81611e43565b92915050565b60008151905061143081611e5a565b92915050565b60008135905061144581611e71565b92915050565b60008135905061145a81611e81565b92915050565b60008151905061146f81611e81565b92915050565b60008060006060848603121561148a57600080fd5b60006114988682870161140c565b93505060206114a98682870161144b565b92505060406114ba86828701611436565b9150509250925092565b6000602082840312156114d657600080fd5b60006114e484828501611421565b91505092915050565b6000602082840312156114ff57600080fd5b600061150d84828501611436565b91505092915050565b60006020828403121561152857600080fd5b60006115368482850161144b565b91505092915050565b60006020828403121561155157600080fd5b600061155f84828501611460565b91505092915050565b6000806040838503121561157b57600080fd5b60006115898582860161144b565b925050602061159a85828601611436565b9150509250929050565b6115ad81611d36565b82525050565b6115bc81611cee565b82525050565b6115cb81611cdc565b82525050565b6115da81611d00565b82525050565b6115e981611d48565b82525050565b6115f881611d6c565b82525050565b600061160b601d83611bb6565b91507f546f6b656e53616c653a206578636565642073616c65206c696d6974210000006000830152602082019050919050565b600061164b601983611bb6565b91507f6f6e6c79206f7267616e61697a65722063616e20646f206974000000000000006000830152602082019050919050565b600061168b603683611bb6565b91507f546f6b656e73616c653a2045524332303a617070726f766564207370656e646960008301527f6e67206c696d6974206973206e6f7420656e6f676874000000000000000000006020830152604082019050919050565b60006116f1602a83611bb6565b91507f746f6b656e7320616d6f756e742073686f756c64206e6f74206578636565642060008301527f73616c655f6c696d6974000000000000000000000000000000000000000000006020830152604082019050919050565b6000611757602a83611bb6565b91507f43726f776473616c653a2062656e656669636961727920697320746865207a6560008301527f726f2061646472657373000000000000000000000000000000000000000000006020830152604082019050919050565b60006117bd604183611bb6565b91507f546f6b656e53616c653a2045524332303a207472616e7366657246726f6d206260008301527f7579657220746f206974656d73616c6520636f6e7472616374206661696c656460208301527f20000000000000000000000000000000000000000000000000000000000000006040830152606082019050919050565b6000611849601f83611bb6565b91507f5265656e7472616e637947756172643a207265656e7472616e742063616c6c006000830152602082019050919050565b6000611889601983611bb6565b91507f43726f776473616c653a20776569416d6f756e742069732030000000000000006000830152602082019050919050565b6118c581611d2c565b82525050565b60006020820190506118e060008301846115c2565b92915050565b60006020820190506118fb60008301846115b3565b92915050565b600060408201905061191660008301856115a4565b61192360208301846118bc565b9392505050565b600060408201905061193f60008301856115c2565b61194c60208301846115c2565b9392505050565b600060608201905061196860008301866115c2565b61197560208301856115c2565b61198260408301846118bc565b949350505050565b600060408201905061199f60008301856115c2565b6119ac60208301846118bc565b9392505050565b60006060820190506119c860008301866115c2565b6119d560208301856118bc565b6119e260408301846118bc565b949350505050565b60006020820190506119ff60008301846115d1565b92915050565b6000602082019050611a1a60008301846115e0565b92915050565b6000602082019050611a3560008301846115ef565b92915050565b60006020820190508181036000830152611a54816115fe565b9050919050565b60006020820190508181036000830152611a748161163e565b9050919050565b60006020820190508181036000830152611a948161167e565b9050919050565b60006020820190508181036000830152611ab4816116e4565b9050919050565b60006020820190508181036000830152611ad48161174a565b9050919050565b60006020820190508181036000830152611af4816117b0565b9050919050565b60006020820190508181036000830152611b148161183c565b9050919050565b60006020820190508181036000830152611b348161187c565b9050919050565b6000602082019050611b5060008301846118bc565b92915050565b6000604082019050611b6b60008301856118bc565b611b7860208301846118bc565b9392505050565b6000606082019050611b9460008301866118bc565b611ba160208301856118bc565b611bae60408301846118bc565b949350505050565b600082825260208201905092915050565b6000611bd282611d2c565b9150611bdd83611d2c565b9250827fffffffffffffffffffffffffffffffffffffffffffffffffffffffffffffffff03821115611c1257611c11611de5565b5b828201905092915050565b6000611c2882611d2c565b9150611c3383611d2c565b925082611c4357611c42611e14565b5b828204905092915050565b6000611c5982611d2c565b9150611c6483611d2c565b9250817fffffffffffffffffffffffffffffffffffffffffffffffffffffffffffffffff0483118215151615611c9d57611c9c611de5565b5b828202905092915050565b6000611cb382611d2c565b9150611cbe83611d2c565b925082821015611cd157611cd0611de5565b5b828203905092915050565b6000611ce782611d0c565b9050919050565b6000611cf982611d0c565b9050919050565b60008115159050919050565b600073ffffffffffffffffffffffffffffffffffffffff82169050919050565b6000819050919050565b6000611d4182611d90565b9050919050565b6000611d5382611d5a565b9050919050565b6000611d6582611d0c565b9050919050565b6000611d7782611d7e565b9050919050565b6000611d8982611d0c565b9050919050565b6000611d9b82611da2565b9050919050565b6000611dad82611d0c565b9050919050565b6000611dbf82611d2c565b9150611dca83611d2c565b925082611dda57611dd9611e14565b5b828206905092915050565b7f4e487b7100000000000000000000000000000000000000000000000000000000600052601160045260246000fd5b7f4e487b7100000000000000000000000000000000000000000000000000000000600052601260045260246000fd5b611e4c81611cdc565b8114611e5757600080fd5b50565b611e6381611d00565b8114611e6e57600080fd5b50565b60038110611e7e57600080fd5b50565b611e8a81611d2c565b8114611e9557600080fd5b5056fea26469706673582212208a07b528a35572cba8a1b917f23a84b2b0e957749b019533e8084f9d54cda56864736f6c63430008000033",
  "immutableReferences": {},
  "source": "pragma solidity ^0.8.0;\n//\"SPDX-License-Identifier: UNLICENSED\"\n\nimport './crowdsale/Crowdsale.sol';\nimport \"../../../node_modules/@openzeppelin/contracts/security/ReentrancyGuard.sol\";\nimport \"../../../node_modules/@openzeppelin/contracts/utils/math/SafeMath.sol\";\nimport \"../../../node_modules/@openzeppelin/contracts/utils/Context.sol\";\nimport \"../../../node_modules/@openzeppelin/contracts/token/ERC721/extensions/IERC721Enumerable.sol\";\nimport \"../../../node_modules/@openzeppelin/contracts/token/ERC20/IERC20.sol\";\nimport \"../../../node_modules/@openzeppelin/contracts/utils/Counters.sol\";\n\nimport './MSNFT.sol';\n\ncontract TokenSale721 is Context, ReentrancyGuard {\n\n\n    using SafeMath for uint256;\n    using SafeERC20 for IERC20;\n  //  using Counters for Counters.Counter;\n\n    // The token being sold\n    MSNFT public _token;\n\n    // Interface to currency token\n    IERC20 public _currency_token;\n\n    //master_id\n    uint256 public _master_id;\n\n    // ticket type\n    //uint public _ticket_type = 1;\n\n    // rarity type\n    MSNFT.RarityType _rarity_type;\n\n    // maximum amount of tickets to sale\n   // Counters.Counter public _current_limit;\n    uint _sale_limit;\n    // how much have been already sold\n    uint public _sold_count = 0;\n\n    // Address where funds are collected\n    address public _wallet;\n\n    // Address where we collect comission\n    address payable public treasure_fund;\n\n    // @todo : probably deprecated, cause it is NON-FUNGIBLE token , need to remove it\n    // How many token units a buyer gets per wei.\n    // NOTE : AS NFT SHOULD BE EQUAL 1\n    // The rate is the conversion between wei and the smallest and indivisible token unit.\n    // So, if you are using a rate of 1 with a ERC20Detailed token with 3 decimals called TOK\n    // 1 wei will give you 1 unit, or 0.001 TOK.\n    uint256 private _rate;\n\n    // @todo: Rework this as separate contract \n    // Supported erc20 currencies: .. to be extended\n    enum CurrencyERC20 {USDT, USDC, SNM } \n\n    // Map from currency to price\n    mapping (CurrencyERC20 => uint256) public _price;\n\n    // map currency contract addresses\n    // FIXME: rework this part to have separate contract with ability to modify currency list \n    mapping (CurrencyERC20 => IERC20) internal _currencys;\n\n    mapping (CurrencyERC20 => uint256) internal currency_balances;\n\n    // Amount of wei raised\n    uint256 private _weiRaised;\n\n    // service comission fee\n    uint public percent_fee = 5;\n\n    // Creation date\n    uint public crDate = block.timestamp;\n\n    // How much time before event start (in seconds)\n    // TODO -- delete this\n    uint public _timeToStart;\n\n    // Funds, that have been locked\n    uint256 public lockedFunds;\n\n    /**\n     * Event for token purchase logging\n     * @param purchaser who paid for the tokens\n     * @param beneficiary who got the tokens\n     * @param value weis paid for purchase\n     * @param amount amount of tokens purchased\n     */\n    event TokensPurchased(address indexed purchaser, address indexed beneficiary, uint256 value, uint256 amount);\n\n    event CalculatedFees(uint256 initial_value, uint256 fees, uint256 transfered_amount);\n\n\n    /**\n     *  rate Number of token units a buyer gets per wei\n     * @dev The rate is the conversion between wei and the smallest and indivisible\n     * token unit. So, if you are using a rate of 1 with a ERC20Detailed token\n     * with 3 decimals called TOK, 1 wei will give you 1 unit, or 0.001 TOK.\n     * @param i_wallet Address where collected funds will be forwarded to\n     * @param i_token Address of the token being sold\n     */\n     // TODO: price calculation (?)\n    constructor (address i_wallet, MSNFT i_token, uint i_sale_limit, address payable _treasure_fund, uint256 sprice, CurrencyERC20 _currency, uint256 c_master_id)  {\n     //   require(rate > 0, \"Crowdsale: rate is 0\");\n        require(i_wallet != address(0), \"Crowdsale: wallet is the zero address\");\n        require(address(i_token) != address(0), \"Crowdsale: token is the zero address\");\n\n     //   _rate = rate;\n\n        // Check if stable\n        if (_currency == CurrencyERC20.USDT || _currency == CurrencyERC20.USDC) {\n           // _price[_currency] = sprice;\n            _price[CurrencyERC20.USDT] = sprice;\n            _price[CurrencyERC20.USDT] = sprice;\n        } else {\n            _price[_currency] = sprice;\n        }\n\n        _wallet = i_wallet;\n        treasure_fund = _treasure_fund;\n        _token = i_token;\n        \n        // Get rarity type and check sale_limit\n        _rarity_type = _token.get_rarity(c_master_id);\n        if (_rarity_type == MSNFT.RarityType.Unique) {\n            require(i_sale_limit == 1, \"Tokensale: Attempt to create new Tokensale for unique NFT with wrong sale_limit\");\n        }\n        if (_rarity_type == MSNFT.RarityType.Common) {\n            _sale_limit = 0;\n        }\n        if (_rarity_type == MSNFT.RarityType.Rare) {\n            _sale_limit = i_sale_limit;\n        }\n\n\n        _master_id = c_master_id;\n\n        _timeToStart = 0;\n    }\n\n    // @todo used to buy tokens for ether (deprecated)\n    /**\n     * @dev fallback function ***DO NOT OVERRIDE***\n     * Note that other contracts will transfer funds with a base gas stipend\n     * of 2300, which is not enough to call buyTokens. Consider calling\n     * buyTokens directly when purchasing tokens from a contract.\n     \n    fallback() external payable {\n        buyTokens(_msgSender());\n    }\n    */\n\n    /**\n     * @return the token being sold.\n     */\n    function token() public view returns (MSNFT) {\n        return _token;\n    }\n\n    /**\n     * @return the address where funds are collected.\n     */\n    function wallet() public view returns (address) {\n        return _wallet;\n    }\n\n    // @todo remove as deprecated?\n    /**\n     * @return the number of token units a buyer gets per wei.\n        // NOTE: As NFT should be always equal 1 (?)\n     */\n    function rate() public view returns (uint256) {\n        return _rate;\n    }\n\n    /**\n     * @return the amount of wei raised.\n     */\n    function weiRaised() public view returns (uint256) {\n        return _weiRaised;\n    }\n\n    function master_id() public view returns (uint256) {\n        return _master_id;\n    }\n\n    function sale_limit() public view returns (uint) {\n        return _sale_limit;\n    }\n\n\n    function sold_count() public view returns (uint) {\n        return _sold_count;\n    }\n\n    function get_price(CurrencyERC20 currency) public view returns (uint256) {\n        return _price[currency];\n    }\n\n    function get_currency(CurrencyERC20 currency) public view returns (IERC20) {\n        return _currencys[currency];\n    }\n\n\n    function check_sale_limit(uint256 amountToBuy) public view returns (bool) {\n        uint sl = sale_limit();\n        if (sl == 0){\n            return true;\n        }\n        if (sl == 1) {\n            require(amountToBuy == 1,\"TokenSale: exceed sale limit!\");\n            return true;\n        } else {\n            require(amountToBuy <= sl,\"TokenSale: exceed sale limit!\");\n            return true;\n        }\n    }\n\n    // BUY TOKENS FOR ETHER/COIN (DEPRECATED)\n    /**\n     * @dev low level token purchase ***DO NOT OVERRIDE***\n     * This function has a non-reentrancy guard, so it shouldn't be called by\n     * another `nonReentrant` function.\n     * @param beneficiary Recipient of the token purchase\n     \n    function buyTokens(address beneficiary) public nonReentrant payable {\n        uint256 weiAmount = msg.value;\n\n        // calculate token amount to be created\n        uint256 tokens = _getTokenAmount(weiAmount);\n\n        _preValidatePurchase(beneficiary, weiAmount, tokens);\n\n        // update state\n        _weiRaised = _weiRaised.add(weiAmount);\n        _sold_count = _sold_count.add(tokens);\n\n        _processPurchase(beneficiary, tokens);\n        emit TokensPurchased(_msgSender(), beneficiary, weiAmount, tokens);\n\n        _updatePurchasingState(beneficiary, weiAmount);\n\n     //   _forwardFunds();\n         _lockFunds();\n        _postValidatePurchase(beneficiary, weiAmount);\n    }\n    **/\n\n     function buyTokens(address beneficiary,uint256 tokenAmountToBuy, CurrencyERC20 currency) public nonReentrant payable {\n        uint256 tokens = tokenAmountToBuy;\n\n        // How much is needed to pay\n        uint256 weiAmount = getWeiAmount(tokens,currency);\n\n        _preValidatePurchase(beneficiary, weiAmount, tokens, currency);\n\n        // update state\n        currency_balances[currency] = currency_balances[currency].add(weiAmount);\n       // If it is unlimited sale then _sale_limit should be always 0   \n        _sold_count = _sold_count.add(tokens);\n    \n        _processPurchase(beneficiary, tokens,currency, weiAmount);\n        emit TokensPurchased(_msgSender(), beneficiary, weiAmount, tokens);\n\n        _updatePurchasingState(beneficiary, weiAmount);\n\n     //   _forwardFunds();\n    //     _lockFunds();\n        _postValidatePurchase(beneficiary, weiAmount);\n    }\n\n\n\n    /**\n     * @dev Validation of an incoming purchase. Use require statements to revert state when conditions are not met.\n     * Use `super` in contracts that inherit from Crowdsale to extend their validations.\n     * Example from CappedCrowdsale.sol's _preValidatePurchase method:\n     *     super._preValidatePurchase(beneficiary, weiAmount);\n     *     require(weiRaised().add(weiAmount) <= cap);\n     * @param beneficiary Address performing the token purchase\n     * @param weiAmount Value in wei involved in the purchase\n     */\n    function _preValidatePurchase(address beneficiary, uint256 weiAmount, uint256 tokens, CurrencyERC20 currency) internal view {\n        require(beneficiary != address(0), \"Crowdsale: beneficiary is the zero address\");\n        require(weiAmount != 0, \"Crowdsale: weiAmount is 0\");\n        uint sc = _sold_count;\n        uint limit = sc + tokens;\n\n     // Check sale_limit (including rarity check)\n        require(check_sale_limit(limit) == true, \"tokens amount should not exceed sale_limit\");\n\n\n     // Check allowance of currency balance\n        IERC20 currency_token = get_currency(currency);\n        uint256 approved_balance = currency_token.allowance(beneficiary, address(this));\n        require(approved_balance >= weiAmount, \"Tokensale: ERC20:approved spending limit is not enoght\");\n\n\n        this; // silence state mutability warning without generating bytecode - see https://github.com/ethereum/solidity/issues/2691\n    }\n\n    /**\n     * @dev Validation of an executed purchase. Observe state and use revert statements to undo rollback when valid\n     * conditions are not met.\n     * @param beneficiary Address performing the token purchase\n     * @param weiAmount Value in wei involved in the purchase\n     */\n    function _postValidatePurchase(address beneficiary, uint256 weiAmount) internal view {\n        // solhint-disable-previous-line no-empty-blocks\n    }\n\n    /**\n     * @dev Source of tokens. Override this method to modify the way in which the crowdsale ultimately gets and sends\n     * its tokens.\n     * @param beneficiary Address performing the token purchase\n     * @param tokenAmount Number of tokens to be emitted\n     */\n    function _deliverTokens(address beneficiary, uint256 tokenAmount) internal {\n        _token.buyItem(beneficiary,tokenAmount, _master_id);\n    }\n\n    /**\n     * @dev Executed when a purchase has been validated and is ready to be executed. Doesn't necessarily emit/send\n     * tokens.\n     * @param beneficiary Address receiving the tokens\n     * @param tokenAmount Number of tokens to be purchased\n     */\n    function _processPurchase(address beneficiary, uint256 tokenAmount, CurrencyERC20 currency, uint256 weiAmount) internal {\n        IERC20 currency_token = get_currency(currency);\n        require(currency_token.transferFrom(beneficiary, address(this), weiAmount), \"TokenSale: ERC20: transferFrom buyer to itemsale contract failed \");\n        _deliverTokens(beneficiary, tokenAmount);\n    }\n\n    /**\n     * @dev Override for extensions that require an internal state to check for validity (current user contributions,\n     * etc.)\n     * @param beneficiary Address receiving the tokens\n     * @param weiAmount Value in wei involved in the purchase\n     */\n    function _updatePurchasingState(address beneficiary, uint256 weiAmount) internal {\n        // solhint-disable-previous-line no-empty-blocks\n    }\n\n    // @todo remove as deprecated\n    /**\n     * @dev Override to extend the way in which ether is converted to tokens.\n     * @param weiAmount Value in wei to be converted into tokens\n     * @return Number of tokens that can be purchased with the specified _weiAmount\n     * \n     *                  DEPRECATED\n     *  \n     */\n    function _getTokenAmount(uint256 weiAmount) internal view returns (uint256) {\n      \n        require(weiAmount >= _rate, \"wei amount should be bigger or equal of rate\");\n       // uint256 ta = SafeMath.mul(weiAmount, _rate);\n        uint256 ta = (weiAmount / (1 ether)) / (_rate / (1 ether));\n        return ta;\n       // return weiAmount.mul(_rate);\n        //FIXME: round result to int, check math\n    }\n\n    function getWeiAmount(uint256 tokenAmountToBuy, CurrencyERC20 currency) public view returns(uint256){\n        uint256 price = get_price(currency);\n        uint256 weiAmount = price * tokenAmountToBuy;\n        return weiAmount;\n    }\n\n    /**\n     * @dev Determines how ERC20 is stored/forwarded on purchases.\n     */\n    function _forwardFunds(CurrencyERC20 currency) internal {\n        IERC20 currency_token =  get_currency(currency);\n        uint256 amount = currency_token.balanceOf(address(this));\n        uint256 scale = 100;\n        uint256 fees = calculateFee(amount,scale);\n        amount = amount - fees;\n        currency_token.transfer(_wallet,amount);\n        currency_token.transfer(treasure_fund,fees);\n        uint256 r = amount + fees;\n        emit CalculatedFees(r,fees,amount);\n    }\n\n\n    // WithDraw locked funds to organiser\n    function withDrawFunds(CurrencyERC20 currency) public {\n        require(msg.sender == _wallet, \"only organaizer can do it\");\n      /*\n        if (block.timestamp >= crDate - _timeToStart) {\n            _wallet.transfer(lockedFunds);\n            lockedFunds = 0;\n        } else {\n            revert(\"event is not started yet, funds are locked\");\n        }\n        */\n        _forwardFunds(currency);\n    }\n\n    /*\n    *   EXAMPLE OF TAKING FEE (BASIC OPERATORS)\n    *\n    // calculate percent -- amount * percent / 100\n    function calculateFee(uint256 amount, uint256 scale) internal view returns (uint256) {\n        uint a = amount / scale;\n        uint b = amount % scale;\n        uint c = percent_fee / scale;\n        uint d = percent_fee % scale;\n\n        // Calculate fee with ROUND DOWN\n       // return a * c * scale + a * d + b * c + b * d / scale;\n\n       // calculate fee with ROUND UP\n     //   return a * c * scale + a * d + b * c + (b * d + scale - 1) / scale;\n\n     //calculate fee with CLOSESTS INTEGER\n        return a * c * scale + a * d + b * c + (b * d + scale / 2) / scale;\n\n    }\n    */\n\n\n    /*\n    *   Calculate fee (SafeMath)\n    */\n    function calculateFee(uint256 amount, uint256 scale) internal view returns (uint256) {\n        uint256 a = SafeMath.div(amount, scale);\n        uint256 b = SafeMath.mod(amount, scale);\n        uint256 c = SafeMath.div(percent_fee, scale);\n        uint256 d = SafeMath.mod(percent_fee, scale);\n\n        // Calculate fee with ROUND DOWN\n       // return a * c * scale + a * d + b * c + b * d / scale;\n\n       // calculate fee with ROUND UP\n     //   return a * c * scale + a * d + b * c + (b * d + scale - 1) / scale;\n\n     //calculate fee with CLOSESTS INTEGER\n       // return a * c * scale + a * d + b * c + (b * d + scale / 2) / scale;\n        uint256 m1 = SafeMath.mul(SafeMath.mul(a,c), scale);\n        uint256 m2 = SafeMath.mul(a,d);\n        uint256 m3 = SafeMath.mul(b,c);\n        uint m4 = SafeMath.mul(b,d);\n\n        uint256 d1 = SafeMath.div(scale,2);\n\n        uint256 a1 = SafeMath.add(m4,d1);\n        uint256 d2 = SafeMath.div(a1,scale);\n        uint256 a2 = SafeMath.add(m1,m2);\n        uint256 a3 = SafeMath.add(a2,m3);\n        uint256 a4 = SafeMath.add(a3,d2);\n        return a4;\n    }\n\n/*\n    function calculatePrice(uint256 price, CurrencyERC20 currency) public view returns(uint256) {\n        // Check if stable\n        if (currency == CurrencyERC20.USDT || currency == CurrencyERC20.USDC) {\n\n        }\n\n    }\n*/\n\n\n}",
  "sourcePath": "/home/jack/ethProjects/UniversalNFTMarketplace/contracts/721/singleton/TokenSale721.sol",
  "compiler": {
    "name": "solc",
    "version": "0.8.0+commit.c7dfd78e.Emscripten.clang"
  },
  "schemaVersion": "3.2.5",
  "updatedAt": "2021-08-14T09:18:43.133Z",
  "devdoc": {
    "events": {
      "TokensPurchased(address,address,uint256,uint256)": {
        "params": {
          "amount": "amount of tokens purchased",
          "beneficiary": "who got the tokens",
          "purchaser": "who paid for the tokens",
          "value": "weis paid for purchase"
        }
      }
    },
    "kind": "dev",
    "methods": {
      "buyTokens(address,uint256,uint8)": {
        "details": "low level token purchase ***DO NOT OVERRIDE*** This function has a non-reentrancy guard, so it shouldn't be called by another `nonReentrant` function.",
        "params": {
          "beneficiary": "Recipient of the token purchase function buyTokens(address beneficiary) public nonReentrant payable { uint256 weiAmount = msg.value; // calculate token amount to be created uint256 tokens = _getTokenAmount(weiAmount); _preValidatePurchase(beneficiary, weiAmount, tokens); // update state _weiRaised = _weiRaised.add(weiAmount); _sold_count = _sold_count.add(tokens); _processPurchase(beneficiary, tokens); emit TokensPurchased(_msgSender(), beneficiary, weiAmount, tokens); _updatePurchasingState(beneficiary, weiAmount); //   _forwardFunds(); _lockFunds(); _postValidatePurchase(beneficiary, weiAmount); }*"
        }
      },
      "constructor": {
        "details": "The rate is the conversion between wei and the smallest and indivisible token unit. So, if you are using a rate of 1 with a ERC20Detailed token with 3 decimals called TOK, 1 wei will give you 1 unit, or 0.001 TOK.",
        "params": {
          "i_token": "Address of the token being sold",
          "i_wallet": "Address where collected funds will be forwarded to"
        }
      },
      "rate()": {
        "returns": {
          "_0": "the number of token units a buyer gets per wei. // NOTE: As NFT should be always equal 1 (?)"
        }
      },
      "token()": {
        "returns": {
          "_0": "the token being sold."
        }
      },
      "wallet()": {
        "returns": {
          "_0": "the address where funds are collected."
        }
      },
      "weiRaised()": {
        "returns": {
          "_0": "the amount of wei raised."
        }
      }
    },
    "version": 1
  },
  "userdoc": {
    "events": {
      "TokensPurchased(address,address,uint256,uint256)": {
        "notice": "Event for token purchase logging"
      }
    },
    "kind": "user",
    "methods": {
      "constructor": {
        "notice": "rate Number of token units a buyer gets per wei"
      }
    },
    "version": 1
  }
}