{
  "contractName": "TokenSale721",
  "abi": [
    {
      "inputs": [
        {
          "internalType": "address",
          "name": "i_wallet",
          "type": "address"
        },
        {
          "internalType": "contract MSNFT",
          "name": "i_token",
          "type": "address"
        },
        {
          "internalType": "uint256",
          "name": "i_sale_limit",
          "type": "uint256"
        },
        {
          "internalType": "address payable",
          "name": "_treasure_fund",
          "type": "address"
        },
        {
          "internalType": "uint256",
          "name": "sprice",
          "type": "uint256"
        },
        {
          "internalType": "enum TokenSale721.CurrencyERC20",
          "name": "_currency",
          "type": "uint8"
        },
        {
          "internalType": "uint256",
          "name": "c_master_id",
          "type": "uint256"
        }
      ],
      "stateMutability": "nonpayable",
      "type": "constructor"
    },
    {
      "anonymous": false,
      "inputs": [
        {
          "indexed": false,
          "internalType": "uint256",
          "name": "initial_value",
          "type": "uint256"
        },
        {
          "indexed": false,
          "internalType": "uint256",
          "name": "fees",
          "type": "uint256"
        },
        {
          "indexed": false,
          "internalType": "uint256",
          "name": "transfered_amount",
          "type": "uint256"
        }
      ],
      "name": "CalculatedFees",
      "type": "event"
    },
    {
      "anonymous": false,
      "inputs": [
        {
          "indexed": true,
          "internalType": "address",
          "name": "purchaser",
          "type": "address"
        },
        {
          "indexed": true,
          "internalType": "address",
          "name": "beneficiary",
          "type": "address"
        },
        {
          "indexed": false,
          "internalType": "uint256",
          "name": "value",
          "type": "uint256"
        },
        {
          "indexed": false,
          "internalType": "uint256",
          "name": "amount",
          "type": "uint256"
        }
      ],
      "name": "TokensPurchased",
      "type": "event"
    },
    {
      "inputs": [],
      "name": "_currency_token",
      "outputs": [
        {
          "internalType": "contract IERC20",
          "name": "",
          "type": "address"
        }
      ],
      "stateMutability": "view",
      "type": "function"
    },
    {
      "inputs": [],
      "name": "_master_id",
      "outputs": [
        {
          "internalType": "uint256",
          "name": "",
          "type": "uint256"
        }
      ],
      "stateMutability": "view",
      "type": "function"
    },
    {
      "inputs": [
        {
          "internalType": "enum TokenSale721.CurrencyERC20",
          "name": "",
          "type": "uint8"
        }
      ],
      "name": "_price",
      "outputs": [
        {
          "internalType": "uint256",
          "name": "",
          "type": "uint256"
        }
      ],
      "stateMutability": "view",
      "type": "function"
    },
    {
      "inputs": [],
      "name": "_sold_count",
      "outputs": [
        {
          "internalType": "uint256",
          "name": "",
          "type": "uint256"
        }
      ],
      "stateMutability": "view",
      "type": "function"
    },
    {
      "inputs": [],
      "name": "_timeToStart",
      "outputs": [
        {
          "internalType": "uint256",
          "name": "",
          "type": "uint256"
        }
      ],
      "stateMutability": "view",
      "type": "function"
    },
    {
      "inputs": [],
      "name": "_token",
      "outputs": [
        {
          "internalType": "contract MSNFT",
          "name": "",
          "type": "address"
        }
      ],
      "stateMutability": "view",
      "type": "function"
    },
    {
      "inputs": [],
      "name": "_wallet",
      "outputs": [
        {
          "internalType": "address",
          "name": "",
          "type": "address"
        }
      ],
      "stateMutability": "view",
      "type": "function"
    },
    {
      "inputs": [],
      "name": "crDate",
      "outputs": [
        {
          "internalType": "uint256",
          "name": "",
          "type": "uint256"
        }
      ],
      "stateMutability": "view",
      "type": "function"
    },
    {
      "inputs": [],
      "name": "lockedFunds",
      "outputs": [
        {
          "internalType": "uint256",
          "name": "",
          "type": "uint256"
        }
      ],
      "stateMutability": "view",
      "type": "function"
    },
    {
      "inputs": [],
      "name": "percent_fee",
      "outputs": [
        {
          "internalType": "uint256",
          "name": "",
          "type": "uint256"
        }
      ],
      "stateMutability": "view",
      "type": "function"
    },
    {
      "inputs": [],
      "name": "treasure_fund",
      "outputs": [
        {
          "internalType": "address payable",
          "name": "",
          "type": "address"
        }
      ],
      "stateMutability": "view",
      "type": "function"
    },
    {
      "inputs": [],
      "name": "token",
      "outputs": [
        {
          "internalType": "contract MSNFT",
          "name": "",
          "type": "address"
        }
      ],
      "stateMutability": "view",
      "type": "function"
    },
    {
      "inputs": [],
      "name": "wallet",
      "outputs": [
        {
          "internalType": "address",
          "name": "",
          "type": "address"
        }
      ],
      "stateMutability": "view",
      "type": "function"
    },
    {
      "inputs": [],
      "name": "rate",
      "outputs": [
        {
          "internalType": "uint256",
          "name": "",
          "type": "uint256"
        }
      ],
      "stateMutability": "view",
      "type": "function"
    },
    {
      "inputs": [],
      "name": "weiRaised",
      "outputs": [
        {
          "internalType": "uint256",
          "name": "",
          "type": "uint256"
        }
      ],
      "stateMutability": "view",
      "type": "function"
    },
    {
      "inputs": [],
      "name": "master_id",
      "outputs": [
        {
          "internalType": "uint256",
          "name": "",
          "type": "uint256"
        }
      ],
      "stateMutability": "view",
      "type": "function"
    },
    {
      "inputs": [],
      "name": "sale_limit",
      "outputs": [
        {
          "internalType": "uint256",
          "name": "",
          "type": "uint256"
        }
      ],
      "stateMutability": "view",
      "type": "function"
    },
    {
      "inputs": [],
      "name": "sold_count",
      "outputs": [
        {
          "internalType": "uint256",
          "name": "",
          "type": "uint256"
        }
      ],
      "stateMutability": "view",
      "type": "function"
    },
    {
      "inputs": [
        {
          "internalType": "enum TokenSale721.CurrencyERC20",
          "name": "currency",
          "type": "uint8"
        }
      ],
      "name": "get_price",
      "outputs": [
        {
          "internalType": "uint256",
          "name": "",
          "type": "uint256"
        }
      ],
      "stateMutability": "view",
      "type": "function"
    },
    {
      "inputs": [
        {
          "internalType": "enum TokenSale721.CurrencyERC20",
          "name": "currency",
          "type": "uint8"
        }
      ],
      "name": "get_currency",
      "outputs": [
        {
          "internalType": "contract IERC20",
          "name": "",
          "type": "address"
        }
      ],
      "stateMutability": "view",
      "type": "function"
    },
    {
      "inputs": [
        {
          "internalType": "uint256",
          "name": "amountToBuy",
          "type": "uint256"
        }
      ],
      "name": "check_sale_limit",
      "outputs": [
        {
          "internalType": "bool",
          "name": "",
          "type": "bool"
        }
      ],
      "stateMutability": "view",
      "type": "function"
    },
    {
      "inputs": [
        {
          "internalType": "address",
          "name": "beneficiary",
          "type": "address"
        },
        {
          "internalType": "uint256",
          "name": "tokenAmountToBuy",
          "type": "uint256"
        },
        {
          "internalType": "enum TokenSale721.CurrencyERC20",
          "name": "currency",
          "type": "uint8"
        }
      ],
      "name": "buyTokens",
      "outputs": [],
      "stateMutability": "payable",
      "type": "function"
    },
    {
      "inputs": [
        {
          "internalType": "uint256",
          "name": "tokenAmountToBuy",
          "type": "uint256"
        },
        {
          "internalType": "enum TokenSale721.CurrencyERC20",
          "name": "currency",
          "type": "uint8"
        }
      ],
      "name": "getWeiAmount",
      "outputs": [
        {
          "internalType": "uint256",
          "name": "",
          "type": "uint256"
        }
      ],
      "stateMutability": "view",
      "type": "function"
    },
    {
      "inputs": [
        {
          "internalType": "enum TokenSale721.CurrencyERC20",
          "name": "currency",
          "type": "uint8"
        }
      ],
      "name": "withDrawFunds",
      "outputs": [],
      "stateMutability": "nonpayable",
      "type": "function"
    }
  ],
  "bytecode": "0x608060405260006006556005600e5542600f553480156200001f57600080fd5b506040516200194b3803806200194b83398101604081905262000042916200046a565b6001600055600160a060020a03871662000093576040517f08c379a00000000000000000000000000000000000000000000000000000000081526004016200008a90620005f6565b60405180910390fd5b600160a060020a038616620000d6576040517f08c379a00000000000000000000000000000000000000000000000000000000081526004016200008a9062000516565b600082600281111562000112577f4e487b7100000000000000000000000000000000000000000000000000000000600052602160045260246000fd5b1480620001585750600182600281111562000156577f4e487b7100000000000000000000000000000000000000000000000000000000600052602160045260246000fd5b145b15620001915760008052600a6020527f13da86008ba1c6922daee3e07db95305ef49ebced9f5467a0b8613fcc6b343e38390556200021b565b82600a6000846002811115620001d0577f4e487b7100000000000000000000000000000000000000000000000000000000600052602160045260246000fd5b600281111562000209577f4e487b7100000000000000000000000000000000000000000000000000000000600052602160045260246000fd5b81526020810191909152604001600020555b60078054600160a060020a03808a16600160a060020a0319928316179092556008805487841690831617905560018054898416921691909117908190556040517f239e1d7200000000000000000000000000000000000000000000000000000000815291169063239e1d72906200029790849060040162000653565b60206040518083038186803b158015620002b057600080fd5b505afa158015620002c5573d6000803e3d6000fd5b505050506040513d601f19601f82011682018060405250810190620002eb9190620004f0565b6004805460ff191660018360028111156200032f577f4e487b7100000000000000000000000000000000000000000000000000000000600052602160045260246000fd5b0217905550600060045460ff16600281111562000375577f4e487b7100000000000000000000000000000000000000000000000000000000600052602160045260246000fd5b1415620003b95784600114620003b9576040517f08c379a00000000000000000000000000000000000000000000000000000000081526004016200008a9062000573565b600260045460ff166002811115620003fa577f4e487b7100000000000000000000000000000000000000000000000000000000600052602160045260246000fd5b1415620004075760006005555b600160045460ff16600281111562000448577f4e487b7100000000000000000000000000000000000000000000000000000000600052602160045260246000fd5b1415620004555760058590555b60035550506000601055506200068392505050565b600080600080600080600060e0888a03121562000485578283fd5b875162000492816200065c565b6020890151909750620004a5816200065c565b604089015160608a01519197509550620004bf816200065c565b608089015160a08a01519195509350620004d98162000675565b8092505060c0880151905092959891949750929550565b60006020828403121562000502578081fd5b81516200050f8162000675565b9392505050565b60208082526024908201527f43726f776473616c653a20746f6b656e20697320746865207a65726f2061646460408201527f7265737300000000000000000000000000000000000000000000000000000000606082015260800190565b6020808252604f908201527f546f6b656e73616c653a20417474656d707420746f20637265617465206e657760408201527f20546f6b656e73616c6520666f7220756e69717565204e46542077697468207760608201527f726f6e672073616c655f6c696d69740000000000000000000000000000000000608082015260a00190565b60208082526025908201527f43726f776473616c653a2077616c6c657420697320746865207a65726f20616460408201527f6472657373000000000000000000000000000000000000000000000000000000606082015260800190565b90815260200190565b600160a060020a03811681146200067257600080fd5b50565b600381106200067257600080fd5b6112b880620006936000396000f3fe60806040526004361061014f5760003560e060020a90048063868e1809116100ba578063e678ce7b11610073578063e678ce7b14610342578063ecd0c0c314610355578063f00a93d31461036a578063f9a4bb1e1461037f578063f9cfe26b14610394578063fc0c546a146103a95761014f565b8063868e1809146102ae578063b8afaa48146102ce578063cec9dca6146102e3578063dac36d7b146102f8578063e27920a814610318578063e61d95941461032d5761014f565b80634f13dc7e1161010c5780634f13dc7e14610218578063521eb2731461022d578063610757e414610242578063628d6e931461025757806372a020e41461026c57806383693018146102815761014f565b806304a75ec5146101545780631cf6843b1461018a578063218fdf43146101b75780632c4e722e146101d95780633b13d188146101ee5780634042b66f14610203575b600080fd5b34801561016057600080fd5b5061017461016f366004610e2b565b6103be565b6040516101819190610ea0565b60405180910390f35b34801561019657600080fd5b506101aa6101a5366004610e75565b61042b565b60405161018191906111ad565b3480156101c357600080fd5b506101d76101d2366004610e2b565b61044e565b005b3480156101e557600080fd5b506101aa610490565b3480156101fa57600080fd5b506101aa610496565b34801561020f57600080fd5b506101aa61049c565b34801561022457600080fd5b506101aa6104a2565b34801561023957600080fd5b506101746104a8565b34801561024e57600080fd5b506101746104b7565b34801561026357600080fd5b506101aa6104c6565b34801561027857600080fd5b506101746104cc565b34801561028d57600080fd5b506102a161029c366004610e45565b6104db565b6040516101819190610f2c565b3480156102ba57600080fd5b506101aa6102c9366004610e2b565b610550565b3480156102da57600080fd5b506101aa610562565b3480156102ef57600080fd5b506101aa610568565b34801561030457600080fd5b506101aa610313366004610e2b565b61056e565b34801561032457600080fd5b506101aa6105cf565b34801561033957600080fd5b506101aa6105d5565b6101d7610350366004610dc3565b6105db565b34801561036157600080fd5b50610174610776565b34801561037657600080fd5b506101aa610785565b34801561038b57600080fd5b5061017461078b565b3480156103a057600080fd5b506101aa61079a565b3480156103b557600080fd5b506101746107a0565b6000600b60008360028111156103e75760e060020a634e487b7102600052602160045260246000fd5b60028111156104095760e060020a634e487b7102600052602160045260246000fd5b8152602081019190915260400160002054600160a060020a031690505b919050565b6000806104378361056e565b905060006104458583611206565b95945050505050565b600754600160a060020a031633146104845760405160e560020a62461bcd02815260040161047b90610f6e565b60405180910390fd5b61048d816107af565b50565b60095490565b60105481565b600d5490565b600f5481565b600754600160a060020a031690565b600754600160a060020a031681565b60035490565b600254600160a060020a031681565b6000806104e6610785565b9050806104f7576001915050610426565b806001141561052d57826001146105235760405160e560020a62461bcd02815260040161047b90610f37565b6001915050610426565b808311156105235760405160e560020a62461bcd02815260040161047b90610f37565b600a6020526000908152604090205481565b60115481565b60035481565b6000600a60008360028111156105975760e060020a634e487b7102600052602160045260246000fd5b60028111156105b95760e060020a634e487b7102600052602160045260246000fd5b8152602001908152602001600020549050919050565b600e5481565b60065490565b600260005414156106015760405160e560020a62461bcd02815260040161047b9061113f565b600260009081558290610614828461042b565b9050610622858284866109eb565b61068c81600c600086600281111561064d5760e060020a634e487b7102600052602160045260246000fd5b600281111561066f5760e060020a634e487b7102600052602160045260246000fd5b815260200190815260200160002054610b3190919063ffffffff16565b600c60008560028111156106b35760e060020a634e487b7102600052602160045260246000fd5b60028111156106d55760e060020a634e487b7102600052602160045260246000fd5b81526020810191909152604001600020556006546106f39083610b31565b60065561070285838584610b44565b84600160a060020a0316610714610c1d565b600160a060020a03167f6faf93231a456e552dbc9961f58d9713ee4f2e69d15f1975b050ef0911053a7b838560405161074e9291906111b6565b60405180910390a36107608582610c21565b61076a8582610c21565b50506001600055505050565b600154600160a060020a031681565b60055490565b600854600160a060020a031681565b60065481565b600154600160a060020a031690565b60006107ba826103be565b9050600081600160a060020a03166370a08231306040518263ffffffff1660e060020a0281526004016107ed9190610ea0565b60206040518083038186803b15801561080557600080fd5b505afa158015610819573d6000803e3d6000fd5b505050506040513d601f19601f8201168201806040525081019061083d9190610e5d565b90506064600061084d8383610c25565b90506108598184611225565b6007546040517fa9059cbb000000000000000000000000000000000000000000000000000000008152919450600160a060020a038087169263a9059cbb926108a79216908790600401610eb4565b602060405180830381600087803b1580156108c157600080fd5b505af11580156108d5573d6000803e3d6000fd5b505050506040513d601f19601f820116820180604052508101906108f99190610e0b565b506008546040517fa9059cbb000000000000000000000000000000000000000000000000000000008152600160a060020a038681169263a9059cbb9261094792909116908590600401610eb4565b602060405180830381600087803b15801561096157600080fd5b505af1158015610975573d6000803e3d6000fd5b505050506040513d601f19601f820116820180604052508101906109999190610e0b565b5060006109a682856111da565b90507f8f4705a6d8c5af200050d845b50d0f90f838a179c62b9365daa314992598fc1b8183866040516109db939291906111c4565b60405180910390a1505050505050565b600160a060020a038416610a145760405160e560020a62461bcd02815260040161047b9061105f565b82610a345760405160e560020a62461bcd02815260040161047b90611176565b6006546000610a4384836111da565b9050610a4e816104db565b1515600114610a725760405160e560020a62461bcd02815260040161047b90611002565b6000610a7d846103be565b9050600081600160a060020a031663dd62ed3e89306040518363ffffffff1660e060020a028152600401610ab2929190610ecd565b60206040518083038186803b158015610aca57600080fd5b505afa158015610ade573d6000803e3d6000fd5b505050506040513d601f19601f82011682018060405250810190610b029190610e5d565b905086811015610b275760405160e560020a62461bcd02815260040161047b90610fa5565b5050505050505050565b6000610b3d82846111da565b9392505050565b6000610b4f836103be565b6040517f23b872dd000000000000000000000000000000000000000000000000000000008152909150600160a060020a038216906323b872dd90610b9b90889030908790600401610ee7565b602060405180830381600087803b158015610bb557600080fd5b505af1158015610bc9573d6000803e3d6000fd5b505050506040513d601f19601f82011682018060405250810190610bed9190610e0b565b610c0c5760405160e560020a62461bcd02815260040161047b906110bc565b610c168585610d0c565b5050505050565b3390565b5050565b600080610c328484610d90565b90506000610c408585610d9c565b90506000610c50600e5486610d90565b90506000610c60600e5487610d9c565b90506000610c77610c718685610da8565b88610da8565b90506000610c858684610da8565b90506000610c938686610da8565b90506000610ca18786610da8565b90506000610cb08b6002610d90565b90506000610cbe8383610b31565b90506000610ccc828e610d90565b90506000610cda8888610b31565b90506000610ce88288610b31565b90506000610cf68285610b31565b9e50505050505050505050505050505092915050565b6001546003546040517ff6b45c46000000000000000000000000000000000000000000000000000000008152600160a060020a039092169163f6b45c4691610d5a9186918691600401610f0b565b600060405180830381600087803b158015610d7457600080fd5b505af1158015610d88573d6000803e3d6000fd5b505050505050565b6000610b3d82846111f2565b6000610b3d828461123c565b6000610b3d8284611206565b80356003811061042657600080fd5b600080600060608486031215610dd7578283fd5b8335600160a060020a0381168114610ded578384fd5b925060208401359150610e0260408501610db4565b90509250925092565b600060208284031215610e1c578081fd5b81518015158114610b3d578182fd5b600060208284031215610e3c578081fd5b610b3d82610db4565b600060208284031215610e56578081fd5b5035919050565b600060208284031215610e6e578081fd5b5051919050565b60008060408385031215610e87578182fd5b82359150610e9760208401610db4565b90509250929050565b600160a060020a0391909116815260200190565b600160a060020a03929092168252602082015260400190565b600160a060020a0392831681529116602082015260400190565b600160a060020a039384168152919092166020820152604081019190915260600190565b600160a060020a039390931683526020830191909152604082015260600190565b901515815260200190565b6020808252601d908201527f546f6b656e53616c653a206578636565642073616c65206c696d697421000000604082015260600190565b60208082526019908201527f6f6e6c79206f7267616e61697a65722063616e20646f20697400000000000000604082015260600190565b60208082526036908201527f546f6b656e73616c653a2045524332303a617070726f766564207370656e646960408201527f6e67206c696d6974206973206e6f7420656e6f67687400000000000000000000606082015260800190565b6020808252602a908201527f746f6b656e7320616d6f756e742073686f756c64206e6f74206578636565642060408201527f73616c655f6c696d697400000000000000000000000000000000000000000000606082015260800190565b6020808252602a908201527f43726f776473616c653a2062656e656669636961727920697320746865207a6560408201527f726f206164647265737300000000000000000000000000000000000000000000606082015260800190565b60208082526041908201527f546f6b656e53616c653a2045524332303a207472616e7366657246726f6d206260408201527f7579657220746f206974656d73616c6520636f6e7472616374206661696c656460608201527f2000000000000000000000000000000000000000000000000000000000000000608082015260a00190565b6020808252601f908201527f5265656e7472616e637947756172643a207265656e7472616e742063616c6c00604082015260600190565b60208082526019908201527f43726f776473616c653a20776569416d6f756e74206973203000000000000000604082015260600190565b90815260200190565b918252602082015260400190565b9283526020830191909152604082015260600190565b600082198211156111ed576111ed611250565b500190565b60008261120157611201611269565b500490565b600081600019048311821515161561122057611220611250565b500290565b60008282101561123757611237611250565b500390565b60008261124b5761124b611269565b500690565b60e060020a634e487b7102600052601160045260246000fd5b60e060020a634e487b7102600052601260045260246000fdfea26469706673582212206c2498b70bdf8c6a287e59ba1c2947dddf3db197135f01ffcc6b132d087dd07a64736f6c63430008000033",
  "immutableReferences": {},
  "source": "pragma solidity ^0.8.0;\n//\"SPDX-License-Identifier: UNLICENSED\"\n\nimport './crowdsale/Crowdsale.sol';\nimport \"../../../node_modules/@openzeppelin/contracts/security/ReentrancyGuard.sol\";\nimport \"../../../node_modules/@openzeppelin/contracts/utils/math/SafeMath.sol\";\nimport \"../../../node_modules/@openzeppelin/contracts/utils/Context.sol\";\nimport \"../../../node_modules/@openzeppelin/contracts/token/ERC721/extensions/IERC721Enumerable.sol\";\nimport \"../../../node_modules/@openzeppelin/contracts/token/ERC20/IERC20.sol\";\nimport \"../../../node_modules/@openzeppelin/contracts/utils/Counters.sol\";\n\nimport './MSNFT.sol';\n\ncontract TokenSale721 is Context, ReentrancyGuard {\n\n\n    using SafeMath for uint256;\n    using SafeERC20 for IERC20;\n  //  using Counters for Counters.Counter;\n\n    // The token being sold\n    MSNFT public _token;\n\n    // Interface to currency token\n    IERC20 public _currency_token;\n\n    //master_id\n    uint256 public _master_id;\n\n    // ticket type\n    //uint public _ticket_type = 1;\n\n    // rarity type\n    MSNFT.RarityType _rarity_type;\n\n    // maximum amount of tickets to sale\n   // Counters.Counter public _current_limit;\n    uint _sale_limit;\n    // how much have been already sold\n    uint public _sold_count = 0;\n\n    // Address where funds are collected\n    address public _wallet;\n\n    // Address where we collect comission\n    address payable public treasure_fund;\n\n    // @todo : probably deprecated, cause it is NON-FUNGIBLE token , need to remove it\n    // How many token units a buyer gets per wei.\n    // NOTE : AS NFT SHOULD BE EQUAL 1\n    // The rate is the conversion between wei and the smallest and indivisible token unit.\n    // So, if you are using a rate of 1 with a ERC20Detailed token with 3 decimals called TOK\n    // 1 wei will give you 1 unit, or 0.001 TOK.\n    uint256 private _rate;\n\n    // @todo: Rework this as separate contract \n    // Supported erc20 currencies: .. to be extended\n    enum CurrencyERC20 {USDT, USDC, SNM } \n\n    // Map from currency to price\n    mapping (CurrencyERC20 => uint256) public _price;\n\n    // map currency contract addresses\n    // FIXME: rework this part to have separate contract with ability to modify currency list \n    mapping (CurrencyERC20 => IERC20) internal _currencys;\n\n    mapping (CurrencyERC20 => uint256) internal currency_balances;\n\n    // Amount of wei raised\n    uint256 private _weiRaised;\n\n    // service comission fee\n    uint public percent_fee = 5;\n\n    // Creation date\n    uint public crDate = block.timestamp;\n\n    // How much time before event start (in seconds)\n    // TODO -- delete this\n    uint public _timeToStart;\n\n    // Funds, that have been locked\n    uint256 public lockedFunds;\n\n    /**\n     * Event for token purchase logging\n     * @param purchaser who paid for the tokens\n     * @param beneficiary who got the tokens\n     * @param value weis paid for purchase\n     * @param amount amount of tokens purchased\n     */\n    event TokensPurchased(address indexed purchaser, address indexed beneficiary, uint256 value, uint256 amount);\n\n    event CalculatedFees(uint256 initial_value, uint256 fees, uint256 transfered_amount);\n\n\n    /**\n     *  rate Number of token units a buyer gets per wei\n     * @dev The rate is the conversion between wei and the smallest and indivisible\n     * token unit. So, if you are using a rate of 1 with a ERC20Detailed token\n     * with 3 decimals called TOK, 1 wei will give you 1 unit, or 0.001 TOK.\n     * @param i_wallet Address where collected funds will be forwarded to\n     * @param i_token Address of the token being sold\n     */\n     // TODO: price calculation (?)\n    constructor (address i_wallet, MSNFT i_token, uint i_sale_limit, address payable _treasure_fund, uint256 sprice, CurrencyERC20 _currency, uint256 c_master_id)  {\n     //   require(rate > 0, \"Crowdsale: rate is 0\");\n        require(i_wallet != address(0), \"Crowdsale: wallet is the zero address\");\n        require(address(i_token) != address(0), \"Crowdsale: token is the zero address\");\n\n     //   _rate = rate;\n\n        // Check if stable\n        if (_currency == CurrencyERC20.USDT || _currency == CurrencyERC20.USDC) {\n           // _price[_currency] = sprice;\n            _price[CurrencyERC20.USDT] = sprice;\n            _price[CurrencyERC20.USDT] = sprice;\n        } else {\n            _price[_currency] = sprice;\n        }\n\n        _wallet = i_wallet;\n        treasure_fund = _treasure_fund;\n        _token = i_token;\n        \n        // Get rarity type and check sale_limit\n        _rarity_type = _token.get_rarity(c_master_id);\n        if (_rarity_type == MSNFT.RarityType.Unique) {\n            require(i_sale_limit == 1, \"Tokensale: Attempt to create new Tokensale for unique NFT with wrong sale_limit\");\n        }\n        if (_rarity_type == MSNFT.RarityType.Common) {\n            _sale_limit = 0;\n        }\n        if (_rarity_type == MSNFT.RarityType.Rare) {\n            _sale_limit = i_sale_limit;\n        }\n\n\n        _master_id = c_master_id;\n\n        _timeToStart = 0;\n    }\n\n    // @todo used to buy tokens for ether (deprecated)\n    /**\n     * @dev fallback function ***DO NOT OVERRIDE***\n     * Note that other contracts will transfer funds with a base gas stipend\n     * of 2300, which is not enough to call buyTokens. Consider calling\n     * buyTokens directly when purchasing tokens from a contract.\n     \n    fallback() external payable {\n        buyTokens(_msgSender());\n    }\n    */\n\n    /**\n     * @return the token being sold.\n     */\n    function token() public view returns (MSNFT) {\n        return _token;\n    }\n\n    /**\n     * @return the address where funds are collected.\n     */\n    function wallet() public view returns (address) {\n        return _wallet;\n    }\n\n    // @todo remove as deprecated?\n    /**\n     * @return the number of token units a buyer gets per wei.\n        // NOTE: As NFT should be always equal 1 (?)\n     */\n    function rate() public view returns (uint256) {\n        return _rate;\n    }\n\n    /**\n     * @return the amount of wei raised.\n     */\n    function weiRaised() public view returns (uint256) {\n        return _weiRaised;\n    }\n\n    function master_id() public view returns (uint256) {\n        return _master_id;\n    }\n\n    function sale_limit() public view returns (uint) {\n        return _sale_limit;\n    }\n\n\n    function sold_count() public view returns (uint) {\n        return _sold_count;\n    }\n\n    function get_price(CurrencyERC20 currency) public view returns (uint256) {\n        return _price[currency];\n    }\n\n    function get_currency(CurrencyERC20 currency) public view returns (IERC20) {\n        return _currencys[currency];\n    }\n\n\n    function check_sale_limit(uint256 amountToBuy) public view returns (bool) {\n        uint sl = sale_limit();\n        if (sl == 0){\n            return true;\n        }\n        if (sl == 1) {\n            require(amountToBuy == 1,\"TokenSale: exceed sale limit!\");\n            return true;\n        } else {\n            require(amountToBuy <= sl,\"TokenSale: exceed sale limit!\");\n            return true;\n        }\n    }\n\n    // BUY TOKENS FOR ETHER/COIN (DEPRECATED)\n    /**\n     * @dev low level token purchase ***DO NOT OVERRIDE***\n     * This function has a non-reentrancy guard, so it shouldn't be called by\n     * another `nonReentrant` function.\n     * @param beneficiary Recipient of the token purchase\n     \n    function buyTokens(address beneficiary) public nonReentrant payable {\n        uint256 weiAmount = msg.value;\n\n        // calculate token amount to be created\n        uint256 tokens = _getTokenAmount(weiAmount);\n\n        _preValidatePurchase(beneficiary, weiAmount, tokens);\n\n        // update state\n        _weiRaised = _weiRaised.add(weiAmount);\n        _sold_count = _sold_count.add(tokens);\n\n        _processPurchase(beneficiary, tokens);\n        emit TokensPurchased(_msgSender(), beneficiary, weiAmount, tokens);\n\n        _updatePurchasingState(beneficiary, weiAmount);\n\n     //   _forwardFunds();\n         _lockFunds();\n        _postValidatePurchase(beneficiary, weiAmount);\n    }\n    **/\n\n     function buyTokens(address beneficiary,uint256 tokenAmountToBuy, CurrencyERC20 currency) public nonReentrant payable {\n        uint256 tokens = tokenAmountToBuy;\n\n        // How much is needed to pay\n        uint256 weiAmount = getWeiAmount(tokens,currency);\n\n        _preValidatePurchase(beneficiary, weiAmount, tokens, currency);\n\n        // update state\n        currency_balances[currency] = currency_balances[currency].add(weiAmount);\n       // If it is unlimited sale then _sale_limit should be always 0   \n        _sold_count = _sold_count.add(tokens);\n    \n        _processPurchase(beneficiary, tokens,currency, weiAmount);\n        emit TokensPurchased(_msgSender(), beneficiary, weiAmount, tokens);\n\n        _updatePurchasingState(beneficiary, weiAmount);\n\n     //   _forwardFunds();\n    //     _lockFunds();\n        _postValidatePurchase(beneficiary, weiAmount);\n    }\n\n\n\n    /**\n     * @dev Validation of an incoming purchase. Use require statements to revert state when conditions are not met.\n     * Use `super` in contracts that inherit from Crowdsale to extend their validations.\n     * Example from CappedCrowdsale.sol's _preValidatePurchase method:\n     *     super._preValidatePurchase(beneficiary, weiAmount);\n     *     require(weiRaised().add(weiAmount) <= cap);\n     * @param beneficiary Address performing the token purchase\n     * @param weiAmount Value in wei involved in the purchase\n     */\n    function _preValidatePurchase(address beneficiary, uint256 weiAmount, uint256 tokens, CurrencyERC20 currency) internal view {\n        require(beneficiary != address(0), \"Crowdsale: beneficiary is the zero address\");\n        require(weiAmount != 0, \"Crowdsale: weiAmount is 0\");\n        uint sc = _sold_count;\n        uint limit = sc + tokens;\n\n     // Check sale_limit (including rarity check)\n        require(check_sale_limit(limit) == true, \"tokens amount should not exceed sale_limit\");\n\n\n     // Check allowance of currency balance\n        IERC20 currency_token = get_currency(currency);\n        uint256 approved_balance = currency_token.allowance(beneficiary, address(this));\n        require(approved_balance >= weiAmount, \"Tokensale: ERC20:approved spending limit is not enoght\");\n\n\n        this; // silence state mutability warning without generating bytecode - see https://github.com/ethereum/solidity/issues/2691\n    }\n\n    /**\n     * @dev Validation of an executed purchase. Observe state and use revert statements to undo rollback when valid\n     * conditions are not met.\n     * @param beneficiary Address performing the token purchase\n     * @param weiAmount Value in wei involved in the purchase\n     */\n    function _postValidatePurchase(address beneficiary, uint256 weiAmount) internal view {\n        // solhint-disable-previous-line no-empty-blocks\n    }\n\n    /**\n     * @dev Source of tokens. Override this method to modify the way in which the crowdsale ultimately gets and sends\n     * its tokens.\n     * @param beneficiary Address performing the token purchase\n     * @param tokenAmount Number of tokens to be emitted\n     */\n    function _deliverTokens(address beneficiary, uint256 tokenAmount) internal {\n        _token.buyItem(beneficiary,tokenAmount, _master_id);\n    }\n\n    /**\n     * @dev Executed when a purchase has been validated and is ready to be executed. Doesn't necessarily emit/send\n     * tokens.\n     * @param beneficiary Address receiving the tokens\n     * @param tokenAmount Number of tokens to be purchased\n     */\n    function _processPurchase(address beneficiary, uint256 tokenAmount, CurrencyERC20 currency, uint256 weiAmount) internal {\n        IERC20 currency_token = get_currency(currency);\n        require(currency_token.transferFrom(beneficiary, address(this), weiAmount), \"TokenSale: ERC20: transferFrom buyer to itemsale contract failed \");\n        _deliverTokens(beneficiary, tokenAmount);\n    }\n\n    /**\n     * @dev Override for extensions that require an internal state to check for validity (current user contributions,\n     * etc.)\n     * @param beneficiary Address receiving the tokens\n     * @param weiAmount Value in wei involved in the purchase\n     */\n    function _updatePurchasingState(address beneficiary, uint256 weiAmount) internal {\n        // solhint-disable-previous-line no-empty-blocks\n    }\n\n    // @todo remove as deprecated\n    /**\n     * @dev Override to extend the way in which ether is converted to tokens.\n     * @param weiAmount Value in wei to be converted into tokens\n     * @return Number of tokens that can be purchased with the specified _weiAmount\n     * \n     *                  DEPRECATED\n     *  \n     */\n    function _getTokenAmount(uint256 weiAmount) internal view returns (uint256) {\n      \n        require(weiAmount >= _rate, \"wei amount should be bigger or equal of rate\");\n       // uint256 ta = SafeMath.mul(weiAmount, _rate);\n        uint256 ta = (weiAmount / (1 ether)) / (_rate / (1 ether));\n        return ta;\n       // return weiAmount.mul(_rate);\n        //FIXME: round result to int, check math\n    }\n\n    function getWeiAmount(uint256 tokenAmountToBuy, CurrencyERC20 currency) public view returns(uint256){\n        uint256 price = get_price(currency);\n        uint256 weiAmount = price * tokenAmountToBuy;\n        return weiAmount;\n    }\n\n    /**\n     * @dev Determines how ERC20 is stored/forwarded on purchases.\n     */\n    function _forwardFunds(CurrencyERC20 currency) internal {\n        IERC20 currency_token =  get_currency(currency);\n        uint256 amount = currency_token.balanceOf(address(this));\n        uint256 scale = 100;\n        uint256 fees = calculateFee(amount,scale);\n        amount = amount - fees;\n        currency_token.transfer(_wallet,amount);\n        currency_token.transfer(treasure_fund,fees);\n        uint256 r = amount + fees;\n        emit CalculatedFees(r,fees,amount);\n    }\n\n\n    // WithDraw locked funds to organiser\n    function withDrawFunds(CurrencyERC20 currency) public {\n        require(msg.sender == _wallet, \"only organaizer can do it\");\n      /*\n        if (block.timestamp >= crDate - _timeToStart) {\n            _wallet.transfer(lockedFunds);\n            lockedFunds = 0;\n        } else {\n            revert(\"event is not started yet, funds are locked\");\n        }\n        */\n        _forwardFunds(currency);\n    }\n\n    /*\n    *   EXAMPLE OF TAKING FEE (BASIC OPERATORS)\n    *\n    // calculate percent -- amount * percent / 100\n    function calculateFee(uint256 amount, uint256 scale) internal view returns (uint256) {\n        uint a = amount / scale;\n        uint b = amount % scale;\n        uint c = percent_fee / scale;\n        uint d = percent_fee % scale;\n\n        // Calculate fee with ROUND DOWN\n       // return a * c * scale + a * d + b * c + b * d / scale;\n\n       // calculate fee with ROUND UP\n     //   return a * c * scale + a * d + b * c + (b * d + scale - 1) / scale;\n\n     //calculate fee with CLOSESTS INTEGER\n        return a * c * scale + a * d + b * c + (b * d + scale / 2) / scale;\n\n    }\n    */\n\n\n    /*\n    *   Calculate fee (SafeMath)\n    */\n    function calculateFee(uint256 amount, uint256 scale) internal view returns (uint256) {\n        uint256 a = SafeMath.div(amount, scale);\n        uint256 b = SafeMath.mod(amount, scale);\n        uint256 c = SafeMath.div(percent_fee, scale);\n        uint256 d = SafeMath.mod(percent_fee, scale);\n\n        // Calculate fee with ROUND DOWN\n       // return a * c * scale + a * d + b * c + b * d / scale;\n\n       // calculate fee with ROUND UP\n     //   return a * c * scale + a * d + b * c + (b * d + scale - 1) / scale;\n\n     //calculate fee with CLOSESTS INTEGER\n       // return a * c * scale + a * d + b * c + (b * d + scale / 2) / scale;\n        uint256 m1 = SafeMath.mul(SafeMath.mul(a,c), scale);\n        uint256 m2 = SafeMath.mul(a,d);\n        uint256 m3 = SafeMath.mul(b,c);\n        uint m4 = SafeMath.mul(b,d);\n\n        uint256 d1 = SafeMath.div(scale,2);\n\n        uint256 a1 = SafeMath.add(m4,d1);\n        uint256 d2 = SafeMath.div(a1,scale);\n        uint256 a2 = SafeMath.add(m1,m2);\n        uint256 a3 = SafeMath.add(a2,m3);\n        uint256 a4 = SafeMath.add(a3,d2);\n        return a4;\n    }\n\n\n\n\n}",
  "sourcePath": "/home/jack/ethProjects/UniversalNFTMarketplace/contracts/721/singleton/TokenSale721.sol",
  "compiler": {
    "name": "solc",
    "version": "0.8.0+commit.c7dfd78e.Emscripten.clang"
  },
  "schemaVersion": "3.2.5",
  "updatedAt": "2021-08-14T11:41:53.579Z",
  "devdoc": {
    "events": {
      "TokensPurchased(address,address,uint256,uint256)": {
        "params": {
          "amount": "amount of tokens purchased",
          "beneficiary": "who got the tokens",
          "purchaser": "who paid for the tokens",
          "value": "weis paid for purchase"
        }
      }
    },
    "kind": "dev",
    "methods": {
      "buyTokens(address,uint256,uint8)": {
        "details": "low level token purchase ***DO NOT OVERRIDE*** This function has a non-reentrancy guard, so it shouldn't be called by another `nonReentrant` function.",
        "params": {
          "beneficiary": "Recipient of the token purchase function buyTokens(address beneficiary) public nonReentrant payable { uint256 weiAmount = msg.value; // calculate token amount to be created uint256 tokens = _getTokenAmount(weiAmount); _preValidatePurchase(beneficiary, weiAmount, tokens); // update state _weiRaised = _weiRaised.add(weiAmount); _sold_count = _sold_count.add(tokens); _processPurchase(beneficiary, tokens); emit TokensPurchased(_msgSender(), beneficiary, weiAmount, tokens); _updatePurchasingState(beneficiary, weiAmount); //   _forwardFunds(); _lockFunds(); _postValidatePurchase(beneficiary, weiAmount); }*"
        }
      },
      "constructor": {
        "details": "The rate is the conversion between wei and the smallest and indivisible token unit. So, if you are using a rate of 1 with a ERC20Detailed token with 3 decimals called TOK, 1 wei will give you 1 unit, or 0.001 TOK.",
        "params": {
          "i_token": "Address of the token being sold",
          "i_wallet": "Address where collected funds will be forwarded to"
        }
      },
      "rate()": {
        "returns": {
          "_0": "the number of token units a buyer gets per wei. // NOTE: As NFT should be always equal 1 (?)"
        }
      },
      "token()": {
        "returns": {
          "_0": "the token being sold."
        }
      },
      "wallet()": {
        "returns": {
          "_0": "the address where funds are collected."
        }
      },
      "weiRaised()": {
        "returns": {
          "_0": "the amount of wei raised."
        }
      }
    },
    "version": 1
  },
  "userdoc": {
    "events": {
      "TokensPurchased(address,address,uint256,uint256)": {
        "notice": "Event for token purchase logging"
      }
    },
    "kind": "user",
    "methods": {
      "constructor": {
        "notice": "rate Number of token units a buyer gets per wei"
      }
    },
    "version": 1
  }
}