{
  "contractName": "TokenSale721",
  "abi": [
    {
      "inputs": [
        {
          "internalType": "address",
          "name": "i_wallet",
          "type": "address"
        },
        {
          "internalType": "contract MSNFT",
          "name": "i_token",
          "type": "address"
        },
        {
          "internalType": "uint256",
          "name": "i_sale_limit",
          "type": "uint256"
        },
        {
          "internalType": "address payable",
          "name": "_treasure_fund",
          "type": "address"
        },
        {
          "internalType": "uint256",
          "name": "sprice",
          "type": "uint256"
        },
        {
          "internalType": "enum TokenSale721.CurrencyERC20",
          "name": "_currency",
          "type": "uint8"
        },
        {
          "internalType": "uint256",
          "name": "c_master_id",
          "type": "uint256"
        }
      ],
      "stateMutability": "nonpayable",
      "type": "constructor"
    },
    {
      "anonymous": false,
      "inputs": [
        {
          "indexed": false,
          "internalType": "uint256",
          "name": "initial_value",
          "type": "uint256"
        },
        {
          "indexed": false,
          "internalType": "uint256",
          "name": "fees",
          "type": "uint256"
        },
        {
          "indexed": false,
          "internalType": "uint256",
          "name": "transfered_amount",
          "type": "uint256"
        }
      ],
      "name": "CalculatedFees",
      "type": "event"
    },
    {
      "anonymous": false,
      "inputs": [
        {
          "indexed": true,
          "internalType": "address",
          "name": "purchaser",
          "type": "address"
        },
        {
          "indexed": true,
          "internalType": "address",
          "name": "beneficiary",
          "type": "address"
        },
        {
          "indexed": false,
          "internalType": "uint256",
          "name": "value",
          "type": "uint256"
        },
        {
          "indexed": false,
          "internalType": "uint256",
          "name": "amount",
          "type": "uint256"
        }
      ],
      "name": "TokensPurchased",
      "type": "event"
    },
    {
      "inputs": [],
      "name": "_currency_token",
      "outputs": [
        {
          "internalType": "contract IERC20",
          "name": "",
          "type": "address"
        }
      ],
      "stateMutability": "view",
      "type": "function"
    },
    {
      "inputs": [],
      "name": "_master_id",
      "outputs": [
        {
          "internalType": "uint256",
          "name": "",
          "type": "uint256"
        }
      ],
      "stateMutability": "view",
      "type": "function"
    },
    {
      "inputs": [
        {
          "internalType": "enum TokenSale721.CurrencyERC20",
          "name": "",
          "type": "uint8"
        }
      ],
      "name": "_price",
      "outputs": [
        {
          "internalType": "uint256",
          "name": "",
          "type": "uint256"
        }
      ],
      "stateMutability": "view",
      "type": "function"
    },
    {
      "inputs": [],
      "name": "_sold_count",
      "outputs": [
        {
          "internalType": "uint256",
          "name": "",
          "type": "uint256"
        }
      ],
      "stateMutability": "view",
      "type": "function"
    },
    {
      "inputs": [],
      "name": "_timeToStart",
      "outputs": [
        {
          "internalType": "uint256",
          "name": "",
          "type": "uint256"
        }
      ],
      "stateMutability": "view",
      "type": "function"
    },
    {
      "inputs": [],
      "name": "_token",
      "outputs": [
        {
          "internalType": "contract MSNFT",
          "name": "",
          "type": "address"
        }
      ],
      "stateMutability": "view",
      "type": "function"
    },
    {
      "inputs": [],
      "name": "_wallet",
      "outputs": [
        {
          "internalType": "address",
          "name": "",
          "type": "address"
        }
      ],
      "stateMutability": "view",
      "type": "function"
    },
    {
      "inputs": [],
      "name": "crDate",
      "outputs": [
        {
          "internalType": "uint256",
          "name": "",
          "type": "uint256"
        }
      ],
      "stateMutability": "view",
      "type": "function"
    },
    {
      "inputs": [],
      "name": "lockedFunds",
      "outputs": [
        {
          "internalType": "uint256",
          "name": "",
          "type": "uint256"
        }
      ],
      "stateMutability": "view",
      "type": "function"
    },
    {
      "inputs": [],
      "name": "percent_fee",
      "outputs": [
        {
          "internalType": "uint256",
          "name": "",
          "type": "uint256"
        }
      ],
      "stateMutability": "view",
      "type": "function"
    },
    {
      "inputs": [],
      "name": "treasure_fund",
      "outputs": [
        {
          "internalType": "address payable",
          "name": "",
          "type": "address"
        }
      ],
      "stateMutability": "view",
      "type": "function"
    },
    {
      "inputs": [],
      "name": "token",
      "outputs": [
        {
          "internalType": "contract MSNFT",
          "name": "",
          "type": "address"
        }
      ],
      "stateMutability": "view",
      "type": "function"
    },
    {
      "inputs": [],
      "name": "wallet",
      "outputs": [
        {
          "internalType": "address",
          "name": "",
          "type": "address"
        }
      ],
      "stateMutability": "view",
      "type": "function"
    },
    {
      "inputs": [
        {
          "internalType": "enum TokenSale721.CurrencyERC20",
          "name": "_currency",
          "type": "uint8"
        }
      ],
      "name": "getBalances",
      "outputs": [
        {
          "internalType": "uint256",
          "name": "",
          "type": "uint256"
        }
      ],
      "stateMutability": "view",
      "type": "function"
    },
    {
      "inputs": [],
      "name": "master_id",
      "outputs": [
        {
          "internalType": "uint256",
          "name": "",
          "type": "uint256"
        }
      ],
      "stateMutability": "view",
      "type": "function"
    },
    {
      "inputs": [],
      "name": "sale_limit",
      "outputs": [
        {
          "internalType": "uint256",
          "name": "",
          "type": "uint256"
        }
      ],
      "stateMutability": "view",
      "type": "function"
    },
    {
      "inputs": [],
      "name": "sold_count",
      "outputs": [
        {
          "internalType": "uint256",
          "name": "",
          "type": "uint256"
        }
      ],
      "stateMutability": "view",
      "type": "function"
    },
    {
      "inputs": [
        {
          "internalType": "enum TokenSale721.CurrencyERC20",
          "name": "currency",
          "type": "uint8"
        }
      ],
      "name": "get_price",
      "outputs": [
        {
          "internalType": "uint256",
          "name": "",
          "type": "uint256"
        }
      ],
      "stateMutability": "view",
      "type": "function"
    },
    {
      "inputs": [
        {
          "internalType": "enum TokenSale721.CurrencyERC20",
          "name": "currency",
          "type": "uint8"
        }
      ],
      "name": "get_currency",
      "outputs": [
        {
          "internalType": "contract IERC20",
          "name": "",
          "type": "address"
        }
      ],
      "stateMutability": "view",
      "type": "function"
    },
    {
      "inputs": [
        {
          "internalType": "uint256",
          "name": "amountToBuy",
          "type": "uint256"
        }
      ],
      "name": "check_sale_limit",
      "outputs": [
        {
          "internalType": "bool",
          "name": "",
          "type": "bool"
        }
      ],
      "stateMutability": "view",
      "type": "function"
    },
    {
      "inputs": [
        {
          "internalType": "address",
          "name": "beneficiary",
          "type": "address"
        },
        {
          "internalType": "uint256",
          "name": "tokenAmountToBuy",
          "type": "uint256"
        },
        {
          "internalType": "enum TokenSale721.CurrencyERC20",
          "name": "currency",
          "type": "uint8"
        }
      ],
      "name": "buyTokens",
      "outputs": [],
      "stateMutability": "payable",
      "type": "function"
    },
    {
      "inputs": [
        {
          "internalType": "uint256",
          "name": "tokenAmountToBuy",
          "type": "uint256"
        },
        {
          "internalType": "enum TokenSale721.CurrencyERC20",
          "name": "currency",
          "type": "uint8"
        }
      ],
      "name": "getWeiAmount",
      "outputs": [
        {
          "internalType": "uint256",
          "name": "",
          "type": "uint256"
        }
      ],
      "stateMutability": "view",
      "type": "function"
    },
    {
      "inputs": [
        {
          "internalType": "enum TokenSale721.CurrencyERC20",
          "name": "currency",
          "type": "uint8"
        }
      ],
      "name": "withDrawFunds",
      "outputs": [],
      "stateMutability": "nonpayable",
      "type": "function"
    }
  ],
  "bytecode": "0x608060405260006006556005600c5542600d553480156200001f57600080fd5b50604051620018d3380380620018d383398101604081905262000042916200046d565b60016000556001600160a01b038716620000795760405162461bcd60e51b81526004016200007090620005d6565b60405180910390fd5b6001600160a01b038616620000a25760405162461bcd60e51b815260040162000070906200051d565b6002826004811115620000c557634e487b7160e01b600052602160045260246000fd5b1480620000f257506001826004811115620000f057634e487b7160e01b600052602160045260246000fd5b145b15620001995760096020527f6cde3cea4b3a3fb2488b2808bae7556f4a405e50f65e1794383bc026131b13c38390556001600052600080516020620018b38339815191528390556200014d670de0b6b3a76400008462000624565b6200015c90620f424062000645565b60096000805b60048111156200018257634e487b7160e01b600052602160045260246000fd5b8152602081019190915260400160002055620002b5565b6000826004811115620001bc57634e487b7160e01b600052602160045260246000fd5b14156200025d576000805260096020527fec8156718a8372b1db44bb411437d0870f3e3790d4a08526d024ce1b0b668f6b839055620001ff620f42408462000624565b6200021390670de0b6b3a764000062000645565b60016000526009602052600080516020620018b3833981519152556200023d620f42408462000624565b6200025190670de0b6b3a764000062000645565b60096000600262000162565b82600960008460048111156200028357634e487b7160e01b600052602160045260246000fd5b6004811115620002a357634e487b7160e01b600052602160045260246000fd5b81526020810191909152604001600020555b600780546001600160a01b03808a166001600160a01b0319928316179092556008805487841690831617905560018054898416921691909117908190556040516311cf0eb960e11b815291169063239e1d7290620003189084906004016200061b565b60206040518083038186803b1580156200033157600080fd5b505afa15801562000346573d6000803e3d6000fd5b505050506040513d601f19601f820116820180604052508101906200036c9190620004f5565b6004805460ff191660018360028111156200039757634e487b7160e01b600052602160045260246000fd5b0217905550600060045460ff166002811115620003c457634e487b7160e01b600052602160045260246000fd5b1415620003ee5784600114620003ee5760405162461bcd60e51b8152600401620000709062000561565b600260045460ff1660028111156200041657634e487b7160e01b600052602160045260246000fd5b1415620004235760006005555b600160045460ff1660028111156200044b57634e487b7160e01b600052602160045260246000fd5b1415620004585760058590555b60035550506000600e55506200068a92505050565b600080600080600080600060e0888a03121562000488578283fd5b8751620004958162000671565b6020890151909750620004a88162000671565b604089015160608a01519197509550620004c28162000671565b608089015160a08a0151919550935060058110620004de578283fd5b8092505060c0880151905092959891949750929550565b60006020828403121562000507578081fd5b81516003811062000516578182fd5b9392505050565b60208082526024908201527f43726f776473616c653a20746f6b656e20697320746865207a65726f206164646040820152637265737360e01b606082015260800190565b6020808252604f908201527f546f6b656e73616c653a20417474656d707420746f20637265617465206e657760408201527f20546f6b656e73616c6520666f7220756e69717565204e46542077697468207760608201526e1c9bdb99c81cd85b1957db1a5b5a5d608a1b608082015260a00190565b60208082526025908201527f43726f776473616c653a2077616c6c657420697320746865207a65726f206164604082015264647265737360d81b606082015260800190565b90815260200190565b6000826200064057634e487b7160e01b81526012600452602481fd5b500490565b60008160001904831182151516156200066c57634e487b7160e01b81526011600452602481fd5b500290565b6001600160a01b03811681146200068757600080fd5b50565b611219806200069a6000396000f3fe6080604052600436106101405760003560e01c8063868e1809116100b6578063e678ce7b1161006f578063e678ce7b14610329578063ecd0c0c31461033c578063f00a93d314610351578063f9a4bb1e14610366578063f9cfe26b1461037b578063fc0c546a1461039057610140565b8063868e180914610295578063b8afaa48146102b5578063cec9dca6146102ca578063dac36d7b146102df578063e27920a8146102ff578063e61d95941461031457610140565b80634f13dc7e116101085780634f13dc7e146101ff578063521eb27314610214578063610757e414610229578063628d6e931461023e57806372a020e414610253578063836930181461026857610140565b806304a75ec5146101455780631cf6843b1461017b578063218fdf43146101a857806329b02d7d146101ca5780633b13d188146101ea575b600080fd5b34801561015157600080fd5b50610165610160366004610d8f565b6103a5565b6040516101729190610e04565b60405180910390f35b34801561018757600080fd5b5061019b610196366004610dd9565b61040c565b6040516101729190611114565b3480156101b457600080fd5b506101c86101c3366004610d8f565b61042f565b005b3480156101d657600080fd5b5061019b6101e5366004610d8f565b61046e565b3480156101f657600080fd5b5061019b6104c9565b34801561020b57600080fd5b5061019b6104cf565b34801561022057600080fd5b506101656104d5565b34801561023557600080fd5b506101656104e4565b34801561024a57600080fd5b5061019b6104f3565b34801561025f57600080fd5b506101656104f9565b34801561027457600080fd5b50610288610283366004610da9565b610508565b6040516101729190610e90565b3480156102a157600080fd5b5061019b6102b0366004610d8f565b610577565b3480156102c157600080fd5b5061019b610589565b3480156102d657600080fd5b5061019b61058f565b3480156102eb57600080fd5b5061019b6102fa366004610d8f565b610595565b34801561030b57600080fd5b5061019b6105bb565b34801561032057600080fd5b5061019b6105c1565b6101c8610337366004610d27565b6105c7565b34801561034857600080fd5b50610165610753565b34801561035d57600080fd5b5061019b610762565b34801561037257600080fd5b50610165610768565b34801561038757600080fd5b5061019b610777565b34801561039c57600080fd5b5061016561077d565b6000600a60008360048111156103cb57634e487b7160e01b600052602160045260246000fd5b60048111156103ea57634e487b7160e01b600052602160045260246000fd5b81526020810191909152604001600020546001600160a01b031690505b919050565b60008061041883610595565b90506000610426858361116d565b95945050505050565b6007546001600160a01b031633146104625760405162461bcd60e51b815260040161045990610ed2565b60405180910390fd5b61046b8161078c565b50565b6000600b600083600481111561049457634e487b7160e01b600052602160045260246000fd5b60048111156104b357634e487b7160e01b600052602160045260246000fd5b8152602001908152602001600020549050919050565b600e5481565b600d5481565b6007546001600160a01b031690565b6007546001600160a01b031681565b60035490565b6002546001600160a01b031681565b600080610513610762565b905080610524576001915050610407565b8060011415610557578260011461054d5760405162461bcd60e51b815260040161045990610e9b565b6001915050610407565b8083111561054d5760405162461bcd60e51b815260040161045990610e9b565b60096020526000908152604090205481565b600f5481565b60035481565b60006009600083600481111561049457634e487b7160e01b600052602160045260246000fd5b600c5481565b60065490565b600260005414156105ea5760405162461bcd60e51b8152600401610459906110dd565b6002600090815582906105fd828461040c565b905061060b85828486610993565b61066f81600b600086600481111561063357634e487b7160e01b600052602160045260246000fd5b600481111561065257634e487b7160e01b600052602160045260246000fd5b815260200190815260200160002054610aca90919063ffffffff16565b600b600085600481111561069357634e487b7160e01b600052602160045260246000fd5b60048111156106b257634e487b7160e01b600052602160045260246000fd5b81526020810191909152604001600020556006546106d09083610aca565b6006556106df85838584610add565b846001600160a01b03166106f1610b9a565b6001600160a01b03167f6faf93231a456e552dbc9961f58d9713ee4f2e69d15f1975b050ef0911053a7b838560405161072b92919061111d565b60405180910390a361073d8582610b9e565b6107478582610b9e565b50506001600055505050565b6001546001600160a01b031681565b60055490565b6008546001600160a01b031681565b60065481565b6001546001600160a01b031690565b6000610797826103a5565b90506000816001600160a01b03166370a08231306040518263ffffffff1660e01b81526004016107c79190610e04565b60206040518083038186803b1580156107df57600080fd5b505afa1580156107f3573d6000803e3d6000fd5b505050506040513d601f19601f820116820180604052508101906108179190610dc1565b9050606460006108278383610ba2565b9050610833818461118c565b60075460405163a9059cbb60e01b81529194506001600160a01b038087169263a9059cbb926108689216908790600401610e18565b602060405180830381600087803b15801561088257600080fd5b505af1158015610896573d6000803e3d6000fd5b505050506040513d601f19601f820116820180604052508101906108ba9190610d6f565b5060085460405163a9059cbb60e01b81526001600160a01b038681169263a9059cbb926108ef92909116908590600401610e18565b602060405180830381600087803b15801561090957600080fd5b505af115801561091d573d6000803e3d6000fd5b505050506040513d601f19601f820116820180604052508101906109419190610d6f565b50600061094e8285611141565b90507f8f4705a6d8c5af200050d845b50d0f90f838a179c62b9365daa314992598fc1b8183866040516109839392919061112b565b60405180910390a1505050505050565b6001600160a01b0384166109b95760405162461bcd60e51b815260040161045990610fa9565b826109d65760405162461bcd60e51b815260040161045990610ff3565b60065460006109e58483611141565b90506109f081610508565b1515600114610a115760405162461bcd60e51b815260040161045990610f5f565b6000610a1c846103a5565b90506000816001600160a01b031663dd62ed3e89306040518363ffffffff1660e01b8152600401610a4e929190610e31565b60206040518083038186803b158015610a6657600080fd5b505afa158015610a7a573d6000803e3d6000fd5b505050506040513d601f19601f82011682018060405250810190610a9e9190610dc1565b905086811015610ac05760405162461bcd60e51b815260040161045990610f09565b5050505050505050565b6000610ad68284611141565b9392505050565b6000610ae8836103a5565b6040516323b872dd60e01b81529091506001600160a01b038216906323b872dd90610b1b90889030908790600401610e4b565b602060405180830381600087803b158015610b3557600080fd5b505af1158015610b49573d6000803e3d6000fd5b505050506040513d601f19601f82011682018060405250810190610b6d9190610d6f565b610b895760405162461bcd60e51b815260040161045990611076565b610b938585610c89565b5050505050565b3390565b5050565b600080610baf8484610cf4565b90506000610bbd8585610d00565b90506000610bcd600c5486610cf4565b90506000610bdd600c5487610d00565b90506000610bf4610bee8685610d0c565b88610d0c565b90506000610c028684610d0c565b90506000610c108686610d0c565b90506000610c1e8786610d0c565b90506000610c2d8b6002610cf4565b90506000610c3b8383610aca565b90506000610c49828e610cf4565b90506000610c578888610aca565b90506000610c658288610aca565b90506000610c738285610aca565b9e50505050505050505050505050505092915050565b600154600354604051637b5a2e2360e11b81526001600160a01b039092169163f6b45c4691610cbe9186918691600401610e6f565b600060405180830381600087803b158015610cd857600080fd5b505af1158015610cec573d6000803e3d6000fd5b505050505050565b6000610ad68284611159565b6000610ad682846111a3565b6000610ad6828461116d565b80356005811061040757600080fd5b600080600060608486031215610d3b578283fd5b83356001600160a01b0381168114610d51578384fd5b925060208401359150610d6660408501610d18565b90509250925092565b600060208284031215610d80578081fd5b81518015158114610ad6578182fd5b600060208284031215610da0578081fd5b610ad682610d18565b600060208284031215610dba578081fd5b5035919050565b600060208284031215610dd2578081fd5b5051919050565b60008060408385031215610deb578182fd5b82359150610dfb60208401610d18565b90509250929050565b6001600160a01b0391909116815260200190565b6001600160a01b03929092168252602082015260400190565b6001600160a01b0392831681529116602082015260400190565b6001600160a01b039384168152919092166020820152604081019190915260600190565b6001600160a01b039390931683526020830191909152604082015260600190565b901515815260200190565b6020808252601d908201527f546f6b656e53616c653a206578636565642073616c65206c696d697421000000604082015260600190565b60208082526019908201527f6f6e6c79206f7267616e61697a65722063616e20646f20697400000000000000604082015260600190565b60208082526036908201527f546f6b656e73616c653a2045524332303a617070726f766564207370656e64696040820152751b99c81b1a5b5a5d081a5cc81b9bdd08195b9bd9da1d60521b606082015260800190565b6020808252602a908201527f746f6b656e7320616d6f756e742073686f756c64206e6f7420657863656564206040820152691cd85b1957db1a5b5a5d60b21b606082015260800190565b6020808252602a908201527f43726f776473616c653a2062656e656669636961727920697320746865207a65604082015269726f206164647265737360b01b606082015260800190565b6020808252605c908201527f43726f776473616c653a205072652d76616c69646174653a20776569416d6f7560408201527f6e7420697320302c20636f6e736964657220796f7520686176652063686f6f7360608201527f652072696768742063757272656e637920746f20706179207769746800000000608082015260a00190565b60208082526041908201527f546f6b656e53616c653a2045524332303a207472616e7366657246726f6d206260408201527f7579657220746f206974656d73616c6520636f6e7472616374206661696c65646060820152600160fd1b608082015260a00190565b6020808252601f908201527f5265656e7472616e637947756172643a207265656e7472616e742063616c6c00604082015260600190565b90815260200190565b918252602082015260400190565b9283526020830191909152604082015260600190565b60008219821115611154576111546111b7565b500190565b600082611168576111686111cd565b500490565b6000816000190483118215151615611187576111876111b7565b500290565b60008282101561119e5761119e6111b7565b500390565b6000826111b2576111b26111cd565b500690565b634e487b7160e01b600052601160045260246000fd5b634e487b7160e01b600052601260045260246000fdfea2646970667358221220a0544649d9c3648a1a027bf77a2c8f2799fdbc6e5e074be863dbe95c7236b57c64736f6c6343000800003392e85d02570a8092d09a6e3a57665bc3815a2699a4074001bf1ccabf660f5a36",
  "immutableReferences": {},
  "source": "pragma solidity ^0.8.0;\n//\"SPDX-License-Identifier: UNLICENSED\"\n\nimport './crowdsale/Crowdsale.sol';\nimport \"../../../node_modules/@openzeppelin/contracts/security/ReentrancyGuard.sol\";\nimport \"../../../node_modules/@openzeppelin/contracts/utils/math/SafeMath.sol\";\nimport \"../../../node_modules/@openzeppelin/contracts/utils/Context.sol\";\nimport \"../../../node_modules/@openzeppelin/contracts/token/ERC721/extensions/IERC721Enumerable.sol\";\nimport \"../../../node_modules/@openzeppelin/contracts/token/ERC20/IERC20.sol\";\nimport \"../../../node_modules/@openzeppelin/contracts/utils/Counters.sol\";\n\nimport './MSNFT.sol';\n\ncontract TokenSale721 is Context, ReentrancyGuard {\n\n\n    using SafeMath for uint256;\n    using SafeERC20 for IERC20;\n  //  using Counters for Counters.Counter;\n\n    // The token being sold\n    MSNFT public _token;\n\n    // Interface to currency token\n    IERC20 public _currency_token;\n\n    //master_id\n    uint256 public _master_id;\n\n    // rarity type\n    MSNFT.RarityType _rarity_type;\n\n    // maximum amount of tickets to sale\n   // Counters.Counter public _current_limit;\n    uint _sale_limit;\n    // how much have been already sold\n    uint public _sold_count = 0;\n\n    // Address where funds are collected\n    address public _wallet;\n\n    // Address where we collect comission\n    address payable public treasure_fund;\n\n    // @todo: Rework this as separate contract \n    // Supported erc20 currencies: .. to be extended\n    enum CurrencyERC20 {USDT, USDC, DAI, SNM, WETH} \n\n    // Map from currency to price\n    mapping (CurrencyERC20 => uint256) public _price;\n\n    // map currency contract addresses\n    // FIXME: rework this part to have separate contract with ability to modify currency list \n    mapping (CurrencyERC20 => IERC20) internal _currencies;\n\n    mapping (CurrencyERC20 => uint256) internal currency_balances;\n\n    // service comission fee\n    uint public percent_fee = 5;\n\n    // Creation date\n    uint public crDate = block.timestamp;\n\n    // How much time before event start (in seconds)\n    // TODO -- delete this\n    uint public _timeToStart;\n\n    // Funds, that have been locked\n    uint256 public lockedFunds;\n\n    /**\n     * Event for token purchase logging\n     * @param purchaser who paid for the tokens\n     * @param beneficiary who got the tokens\n     * @param value weis paid for purchase\n     * @param amount amount of tokens purchased\n     */\n    event TokensPurchased(address indexed purchaser, address indexed beneficiary, uint256 value, uint256 amount);\n\n    event CalculatedFees(uint256 initial_value, uint256 fees, uint256 transfered_amount);\n\n\n    /**\n     *  rate Number of token units a buyer gets per wei\n     * @dev The rate is the conversion between wei and the smallest and indivisible\n     * token unit. So, if you are using a rate of 1 with a ERC20Detailed token\n     * with 3 decimals called TOK, 1 wei will give you 1 unit, or 0.001 TOK.\n     * @param i_wallet Address where collected funds will be forwarded to\n     * @param i_token Address of the token being sold\n     */\n     // TODO: price calculation (?)\n    constructor (address i_wallet, MSNFT i_token, uint i_sale_limit, address payable _treasure_fund, uint256 sprice, CurrencyERC20 _currency, uint256 c_master_id)  {\n        require(i_wallet != address(0), \"Crowdsale: wallet is the zero address\");\n        require(address(i_token) != address(0), \"Crowdsale: token is the zero address\");\n\n        // Check if stable\n        if (_currency == CurrencyERC20.DAI || _currency == CurrencyERC20.USDC) {\n           // _price[_currency] = sprice;\n            _price[CurrencyERC20.DAI] = sprice;\n            _price[CurrencyERC20.USDC] = sprice;\n            _price[CurrencyERC20.USDT] = sprice / 1 ether * 1e6;    // USDT have 6 decimals, not 18\n        } else if(_currency == CurrencyERC20.USDT) {\n            _price[CurrencyERC20.USDT] = sprice;\n            _price[CurrencyERC20.USDC] = sprice / 1e6 * 1 ether;\n            _price[CurrencyERC20.DAI] = sprice / 1e6 * 1 ether;\n        } \n        else {\n            _price[_currency] = sprice;\n        }\n\n        _wallet = i_wallet;\n        treasure_fund = _treasure_fund;\n        _token = i_token;\n        \n        // Get rarity type and check sale_limit\n        _rarity_type = _token.get_rarity(c_master_id);\n        if (_rarity_type == MSNFT.RarityType.Unique) {\n            require(i_sale_limit == 1, \"Tokensale: Attempt to create new Tokensale for unique NFT with wrong sale_limit\");\n        }\n        if (_rarity_type == MSNFT.RarityType.Common) {  \n            _sale_limit = 0;\n        }\n        if (_rarity_type == MSNFT.RarityType.Rare) {\n            _sale_limit = i_sale_limit;\n        }\n\n\n        _master_id = c_master_id;\n\n        _timeToStart = 0;\n    }\n\n    // @todo used to buy tokens for ether (deprecated)\n    /**\n     * @dev fallback function ***DO NOT OVERRIDE***\n     * Note that other contracts will transfer funds with a base gas stipend\n     * of 2300, which is not enough to call buyTokens. Consider calling\n     * buyTokens directly when purchasing tokens from a contract.\n     \n    fallback() external payable {\n        buyTokens(_msgSender());\n    }\n    */\n\n    /**\n     * @return the token being sold.\n     */\n    function token() public view returns (MSNFT) {\n        return _token;\n    }\n\n    /**\n     * @return the address where funds are collected.\n     */\n    function wallet() public view returns (address) {\n        return _wallet;\n    }\n\n    function getBalances(CurrencyERC20 _currency) public view returns (uint) {\n        return currency_balances[_currency];\n    }\n\n    function master_id() public view returns (uint256) {\n        return _master_id;\n    }\n\n    function sale_limit() public view returns (uint) {\n        return _sale_limit;\n    }\n\n\n    function sold_count() public view returns (uint) {\n        return _sold_count;\n    }\n\n    function get_price(CurrencyERC20 currency) public view returns (uint256) {\n        return _price[currency];\n    }\n\n    function get_currency(CurrencyERC20 currency) public view returns (IERC20) {\n        return _currencies[currency];\n    }\n\n\n    function check_sale_limit(uint256 amountToBuy) public view returns (bool) {\n        uint sl = sale_limit();\n        if (sl == 0){\n            return true;\n        }\n        if (sl == 1) {\n            require(amountToBuy == 1,\"TokenSale: exceed sale limit!\");\n            return true;\n        } else {\n            require(amountToBuy <= sl,\"TokenSale: exceed sale limit!\");\n            return true;\n        }\n    }\n\n    // BUY TOKENS FOR ETHER/COIN (DEPRECATED)\n    /**\n     * @dev low level token purchase ***DO NOT OVERRIDE***\n     * This function has a non-reentrancy guard, so it shouldn't be called by\n     * another `nonReentrant` function.\n     * @param beneficiary Recipient of the token purchase\n     \n    function buyTokens(address beneficiary) public nonReentrant payable {\n        uint256 weiAmount = msg.value;\n\n        // calculate token amount to be created\n        uint256 tokens = _getTokenAmount(weiAmount);\n\n        _preValidatePurchase(beneficiary, weiAmount, tokens);\n\n        // update state\n        _weiRaised = _weiRaised.add(weiAmount);\n        _sold_count = _sold_count.add(tokens);\n\n        _processPurchase(beneficiary, tokens);\n        emit TokensPurchased(_msgSender(), beneficiary, weiAmount, tokens);\n\n        _updatePurchasingState(beneficiary, weiAmount);\n\n     //   _forwardFunds();\n         _lockFunds();\n        _postValidatePurchase(beneficiary, weiAmount);\n    }\n    **/\n\n     function buyTokens(address beneficiary,uint256 tokenAmountToBuy, CurrencyERC20 currency) public nonReentrant payable {\n        uint256 tokens = tokenAmountToBuy;\n\n        // How much is needed to pay\n        uint256 weiAmount = getWeiAmount(tokens,currency);  // can be zero if wrong currency set-up to pay. in this case tx will fail under pre-validate purchase check\n\n        _preValidatePurchase(beneficiary, weiAmount, tokens, currency);\n\n        // update state\n        currency_balances[currency] = currency_balances[currency].add(weiAmount);\n       // If it is unlimited sale then _sale_limit should be always 0   \n        _sold_count = _sold_count.add(tokens);\n    \n        _processPurchase(beneficiary, tokens,currency, weiAmount);\n        emit TokensPurchased(_msgSender(), beneficiary, weiAmount, tokens);\n\n        _updatePurchasingState(beneficiary, weiAmount);\n\n     //   _forwardFunds();\n    //     _lockFunds();\n        _postValidatePurchase(beneficiary, weiAmount);\n    }\n\n\n\n    /**\n     * @dev Validation of an incoming purchase. Use require statements to revert state when conditions are not met.\n     * Use `super` in contracts that inherit from Crowdsale to extend their validations.\n     * Example from CappedCrowdsale.sol's _preValidatePurchase method:\n     *     super._preValidatePurchase(beneficiary, weiAmount);\n     *     require(weiRaised().add(weiAmount) <= cap);\n     * @param beneficiary Address performing the token purchase\n     * @param weiAmount Value in wei involved in the purchase\n     */\n    function _preValidatePurchase(address beneficiary, uint256 weiAmount, uint256 tokens, CurrencyERC20 currency) internal view {\n        require(beneficiary != address(0), \"Crowdsale: beneficiary is the zero address\");\n        require(weiAmount != 0, \"Crowdsale: Pre-validate: weiAmount is 0, consider you have choose right currency to pay with\");\n        uint sc = _sold_count;\n        uint limit = sc + tokens;\n\n     // Check sale_limit (including rarity check)\n        require(check_sale_limit(limit) == true, \"tokens amount should not exceed sale_limit\");\n\n\n     // Check allowance of currency balance\n        IERC20 currency_token = get_currency(currency);\n        uint256 approved_balance = currency_token.allowance(beneficiary, address(this));\n        require(approved_balance >= weiAmount, \"Tokensale: ERC20:approved spending limit is not enoght\");\n\n\n        this; // silence state mutability warning without generating bytecode - see https://github.com/ethereum/solidity/issues/2691\n    }\n\n    /**\n     * @dev Validation of an executed purchase. Observe state and use revert statements to undo rollback when valid\n     * conditions are not met.\n     * @param beneficiary Address performing the token purchase\n     * @param weiAmount Value in wei involved in the purchase\n     */\n    function _postValidatePurchase(address beneficiary, uint256 weiAmount) internal view {\n        // solhint-disable-previous-line no-empty-blocks\n    }\n\n    /**\n     * @dev Source of tokens. Override this method to modify the way in which the crowdsale ultimately gets and sends\n     * its tokens.\n     * @param beneficiary Address performing the token purchase\n     * @param tokenAmount Number of tokens to be emitted\n     */\n    function _deliverTokens(address beneficiary, uint256 tokenAmount) internal {\n        _token.buyItem(beneficiary,tokenAmount, _master_id);\n    }\n\n    /**\n     * @dev Executed when a purchase has been validated and is ready to be executed. Doesn't necessarily emit/send\n     * tokens.\n     * @param beneficiary Address receiving the tokens\n     * @param tokenAmount Number of tokens to be purchased\n     */\n    function _processPurchase(address beneficiary, uint256 tokenAmount, CurrencyERC20 currency, uint256 weiAmount) internal {\n        IERC20 currency_token = get_currency(currency);\n        require(currency_token.transferFrom(beneficiary, address(this), weiAmount), \"TokenSale: ERC20: transferFrom buyer to itemsale contract failed \");\n        _deliverTokens(beneficiary, tokenAmount);\n    }\n\n    /**\n     * @dev Override for extensions that require an internal state to check for validity (current user contributions,\n     * etc.)\n     * @param beneficiary Address receiving the tokens\n     * @param weiAmount Value in wei involved in the purchase\n     */\n    function _updatePurchasingState(address beneficiary, uint256 weiAmount) internal {\n        // solhint-disable-previous-line no-empty-blocks\n    }\n\n\n    /*\n    *   How much is needed to pay for this token amount to buy\n    */\n    function getWeiAmount(uint256 tokenAmountToBuy, CurrencyERC20 currency) public view returns(uint256){\n        uint256 price = get_price(currency);    // @todo: WARNING -- it can be 0 if buyer mismatch currency, but such transaction will fail at pre-validate purchase check!\n        uint256 weiAmount = price * tokenAmountToBuy; \n        return weiAmount;\n    }\n\n    /**\n     * @dev Determines how ERC20 is stored/forwarded on purchases.\n     */\n    function _forwardFunds(CurrencyERC20 currency) internal {\n        IERC20 currency_token =  get_currency(currency);\n        uint256 amount = currency_token.balanceOf(address(this));\n        uint256 scale = 100;\n        uint256 fees = calculateFee(amount,scale);\n        amount = amount - fees;\n        currency_token.transfer(_wallet,amount);\n        currency_token.transfer(treasure_fund,fees);\n        uint256 r = amount + fees;\n        emit CalculatedFees(r,fees,amount);\n    }\n\n\n    // WithDraw locked funds to organiser\n    function withDrawFunds(CurrencyERC20 currency) public {\n        require(msg.sender == _wallet, \"only organaizer can do it\");\n      /*\n        if (block.timestamp >= crDate - _timeToStart) {\n            _wallet.transfer(lockedFunds);\n            lockedFunds = 0;\n        } else {\n            revert(\"event is not started yet, funds are locked\");\n        }\n        */\n        _forwardFunds(currency);\n    }\n\n    /*\n    *   EXAMPLE OF TAKING FEE (BASIC OPERATORS)\n    *\n    // calculate percent -- amount * percent / 100\n    function calculateFee(uint256 amount, uint256 scale) internal view returns (uint256) {\n        uint a = amount / scale;\n        uint b = amount % scale;\n        uint c = percent_fee / scale;\n        uint d = percent_fee % scale;\n\n        // Calculate fee with ROUND DOWN\n       // return a * c * scale + a * d + b * c + b * d / scale;\n\n       // calculate fee with ROUND UP\n     //   return a * c * scale + a * d + b * c + (b * d + scale - 1) / scale;\n\n     //calculate fee with CLOSESTS INTEGER\n        return a * c * scale + a * d + b * c + (b * d + scale / 2) / scale;\n\n    }\n    */\n\n\n    /*\n    *   Calculate fee (SafeMath)\n    */\n    function calculateFee(uint256 amount, uint256 scale) internal view returns (uint256) {\n        uint256 a = SafeMath.div(amount, scale);\n        uint256 b = SafeMath.mod(amount, scale);\n        uint256 c = SafeMath.div(percent_fee, scale);\n        uint256 d = SafeMath.mod(percent_fee, scale);\n\n        // Calculate fee with ROUND DOWN\n       // return a * c * scale + a * d + b * c + b * d / scale;\n\n       // calculate fee with ROUND UP\n     //   return a * c * scale + a * d + b * c + (b * d + scale - 1) / scale;\n\n     //calculate fee with CLOSESTS INTEGER\n       // return a * c * scale + a * d + b * c + (b * d + scale / 2) / scale;\n        uint256 m1 = SafeMath.mul(SafeMath.mul(a,c), scale);\n        uint256 m2 = SafeMath.mul(a,d);\n        uint256 m3 = SafeMath.mul(b,c);\n        uint m4 = SafeMath.mul(b,d);\n\n        uint256 d1 = SafeMath.div(scale,2);\n\n        uint256 a1 = SafeMath.add(m4,d1);\n        uint256 d2 = SafeMath.div(a1,scale);\n        uint256 a2 = SafeMath.add(m1,m2);\n        uint256 a3 = SafeMath.add(a2,m3);\n        uint256 a4 = SafeMath.add(a3,d2);\n        return a4;\n    }\n\n\n\n\n}",
  "sourcePath": "/home/jack/ethProjects/UniversalNFTMarketplace/contracts/721/singleton/TokenSale721.sol",
  "compiler": {
    "name": "solc",
    "version": "0.8.0+commit.c7dfd78e.Emscripten.clang"
  },
  "schemaVersion": "3.2.5",
  "updatedAt": "2021-08-18T17:58:00.230Z",
  "devdoc": {
    "events": {
      "TokensPurchased(address,address,uint256,uint256)": {
        "params": {
          "amount": "amount of tokens purchased",
          "beneficiary": "who got the tokens",
          "purchaser": "who paid for the tokens",
          "value": "weis paid for purchase"
        }
      }
    },
    "kind": "dev",
    "methods": {
      "buyTokens(address,uint256,uint8)": {
        "details": "low level token purchase ***DO NOT OVERRIDE*** This function has a non-reentrancy guard, so it shouldn't be called by another `nonReentrant` function.",
        "params": {
          "beneficiary": "Recipient of the token purchase function buyTokens(address beneficiary) public nonReentrant payable { uint256 weiAmount = msg.value; // calculate token amount to be created uint256 tokens = _getTokenAmount(weiAmount); _preValidatePurchase(beneficiary, weiAmount, tokens); // update state _weiRaised = _weiRaised.add(weiAmount); _sold_count = _sold_count.add(tokens); _processPurchase(beneficiary, tokens); emit TokensPurchased(_msgSender(), beneficiary, weiAmount, tokens); _updatePurchasingState(beneficiary, weiAmount); //   _forwardFunds(); _lockFunds(); _postValidatePurchase(beneficiary, weiAmount); }*"
        }
      },
      "constructor": {
        "details": "The rate is the conversion between wei and the smallest and indivisible token unit. So, if you are using a rate of 1 with a ERC20Detailed token with 3 decimals called TOK, 1 wei will give you 1 unit, or 0.001 TOK.",
        "params": {
          "i_token": "Address of the token being sold",
          "i_wallet": "Address where collected funds will be forwarded to"
        }
      },
      "token()": {
        "returns": {
          "_0": "the token being sold."
        }
      },
      "wallet()": {
        "returns": {
          "_0": "the address where funds are collected."
        }
      }
    },
    "version": 1
  },
  "userdoc": {
    "events": {
      "TokensPurchased(address,address,uint256,uint256)": {
        "notice": "Event for token purchase logging"
      }
    },
    "kind": "user",
    "methods": {
      "constructor": {
        "notice": "rate Number of token units a buyer gets per wei"
      }
    },
    "version": 1
  }
}