{
  "contractName": "TokenSale721",
  "abi": [
    {
      "inputs": [
        {
          "internalType": "uint256",
          "name": "rate",
          "type": "uint256"
        },
        {
          "internalType": "address payable",
          "name": "wallet",
          "type": "address"
        },
        {
          "internalType": "contract MSNFT",
          "name": "token",
          "type": "address"
        },
        {
          "internalType": "uint256",
          "name": "sale_limit",
          "type": "uint256"
        },
        {
          "internalType": "string",
          "name": "jid",
          "type": "string"
        },
        {
          "internalType": "address payable",
          "name": "_treasure_fund",
          "type": "address"
        },
        {
          "internalType": "uint256",
          "name": "timeToStart",
          "type": "uint256"
        }
      ],
      "stateMutability": "nonpayable",
      "type": "constructor"
    },
    {
      "anonymous": false,
      "inputs": [
        {
          "indexed": false,
          "internalType": "uint256",
          "name": "initial_value",
          "type": "uint256"
        },
        {
          "indexed": false,
          "internalType": "uint256",
          "name": "fees",
          "type": "uint256"
        },
        {
          "indexed": false,
          "internalType": "uint256",
          "name": "transfered_amount",
          "type": "uint256"
        }
      ],
      "name": "CalculatedFees",
      "type": "event"
    },
    {
      "anonymous": false,
      "inputs": [
        {
          "indexed": true,
          "internalType": "address",
          "name": "purchaser",
          "type": "address"
        },
        {
          "indexed": true,
          "internalType": "address",
          "name": "beneficiary",
          "type": "address"
        },
        {
          "indexed": false,
          "internalType": "uint256",
          "name": "value",
          "type": "uint256"
        },
        {
          "indexed": false,
          "internalType": "uint256",
          "name": "amount",
          "type": "uint256"
        }
      ],
      "name": "TokensPurchased",
      "type": "event"
    },
    {
      "inputs": [],
      "name": "_currency_token",
      "outputs": [
        {
          "internalType": "contract IERC20",
          "name": "",
          "type": "address"
        }
      ],
      "stateMutability": "view",
      "type": "function"
    },
    {
      "inputs": [],
      "name": "_event_id",
      "outputs": [
        {
          "internalType": "uint256",
          "name": "",
          "type": "uint256"
        }
      ],
      "stateMutability": "view",
      "type": "function"
    },
    {
      "inputs": [
        {
          "internalType": "enum TokenSale721.CurrencyERC20",
          "name": "",
          "type": "uint8"
        }
      ],
      "name": "_price",
      "outputs": [
        {
          "internalType": "uint256",
          "name": "",
          "type": "uint256"
        }
      ],
      "stateMutability": "view",
      "type": "function"
    },
    {
      "inputs": [],
      "name": "_sold_count",
      "outputs": [
        {
          "internalType": "uint256",
          "name": "",
          "type": "uint256"
        }
      ],
      "stateMutability": "view",
      "type": "function"
    },
    {
      "inputs": [],
      "name": "_ticket_type",
      "outputs": [
        {
          "internalType": "uint256",
          "name": "",
          "type": "uint256"
        }
      ],
      "stateMutability": "view",
      "type": "function"
    },
    {
      "inputs": [],
      "name": "_timeToStart",
      "outputs": [
        {
          "internalType": "uint256",
          "name": "",
          "type": "uint256"
        }
      ],
      "stateMutability": "view",
      "type": "function"
    },
    {
      "inputs": [],
      "name": "_token",
      "outputs": [
        {
          "internalType": "contract MSNFT",
          "name": "",
          "type": "address"
        }
      ],
      "stateMutability": "view",
      "type": "function"
    },
    {
      "inputs": [],
      "name": "_wallet",
      "outputs": [
        {
          "internalType": "address payable",
          "name": "",
          "type": "address"
        }
      ],
      "stateMutability": "view",
      "type": "function"
    },
    {
      "inputs": [],
      "name": "crDate",
      "outputs": [
        {
          "internalType": "uint256",
          "name": "",
          "type": "uint256"
        }
      ],
      "stateMutability": "view",
      "type": "function"
    },
    {
      "inputs": [],
      "name": "lockedFunds",
      "outputs": [
        {
          "internalType": "uint256",
          "name": "",
          "type": "uint256"
        }
      ],
      "stateMutability": "view",
      "type": "function"
    },
    {
      "inputs": [],
      "name": "percent_fee",
      "outputs": [
        {
          "internalType": "uint256",
          "name": "",
          "type": "uint256"
        }
      ],
      "stateMutability": "view",
      "type": "function"
    },
    {
      "inputs": [],
      "name": "treasure_fund",
      "outputs": [
        {
          "internalType": "address payable",
          "name": "",
          "type": "address"
        }
      ],
      "stateMutability": "view",
      "type": "function"
    },
    {
      "inputs": [],
      "name": "token",
      "outputs": [
        {
          "internalType": "contract MSNFT",
          "name": "",
          "type": "address"
        }
      ],
      "stateMutability": "view",
      "type": "function"
    },
    {
      "inputs": [],
      "name": "wallet",
      "outputs": [
        {
          "internalType": "address payable",
          "name": "",
          "type": "address"
        }
      ],
      "stateMutability": "view",
      "type": "function"
    },
    {
      "inputs": [],
      "name": "rate",
      "outputs": [
        {
          "internalType": "uint256",
          "name": "",
          "type": "uint256"
        }
      ],
      "stateMutability": "view",
      "type": "function"
    },
    {
      "inputs": [],
      "name": "weiRaised",
      "outputs": [
        {
          "internalType": "uint256",
          "name": "",
          "type": "uint256"
        }
      ],
      "stateMutability": "view",
      "type": "function"
    },
    {
      "inputs": [],
      "name": "event_id",
      "outputs": [
        {
          "internalType": "uint256",
          "name": "",
          "type": "uint256"
        }
      ],
      "stateMutability": "view",
      "type": "function"
    },
    {
      "inputs": [],
      "name": "sale_limit",
      "outputs": [
        {
          "internalType": "uint256",
          "name": "",
          "type": "uint256"
        }
      ],
      "stateMutability": "view",
      "type": "function"
    },
    {
      "inputs": [],
      "name": "ticket_type",
      "outputs": [
        {
          "internalType": "uint256",
          "name": "",
          "type": "uint256"
        }
      ],
      "stateMutability": "view",
      "type": "function"
    },
    {
      "inputs": [],
      "name": "sold_count",
      "outputs": [
        {
          "internalType": "uint256",
          "name": "",
          "type": "uint256"
        }
      ],
      "stateMutability": "view",
      "type": "function"
    },
    {
      "inputs": [
        {
          "internalType": "enum TokenSale721.CurrencyERC20",
          "name": "currency",
          "type": "uint8"
        }
      ],
      "name": "get_price",
      "outputs": [
        {
          "internalType": "uint256",
          "name": "",
          "type": "uint256"
        }
      ],
      "stateMutability": "view",
      "type": "function"
    },
    {
      "inputs": [
        {
          "internalType": "enum TokenSale721.CurrencyERC20",
          "name": "currency",
          "type": "uint8"
        }
      ],
      "name": "get_currency",
      "outputs": [
        {
          "internalType": "contract IERC20",
          "name": "",
          "type": "address"
        }
      ],
      "stateMutability": "view",
      "type": "function"
    },
    {
      "inputs": [
        {
          "internalType": "address",
          "name": "beneficiary",
          "type": "address"
        },
        {
          "internalType": "uint256",
          "name": "tokenAmountToBuy",
          "type": "uint256"
        },
        {
          "internalType": "enum TokenSale721.CurrencyERC20",
          "name": "currency",
          "type": "uint8"
        }
      ],
      "name": "buyTokens",
      "outputs": [],
      "stateMutability": "payable",
      "type": "function"
    },
    {
      "inputs": [
        {
          "internalType": "uint256",
          "name": "tokenAmountToBuy",
          "type": "uint256"
        },
        {
          "internalType": "enum TokenSale721.CurrencyERC20",
          "name": "currency",
          "type": "uint8"
        }
      ],
      "name": "getWeiAmount",
      "outputs": [
        {
          "internalType": "uint256",
          "name": "",
          "type": "uint256"
        }
      ],
      "stateMutability": "view",
      "type": "function"
    },
    {
      "inputs": [
        {
          "internalType": "enum TokenSale721.CurrencyERC20",
          "name": "currency",
          "type": "uint8"
        }
      ],
      "name": "withDrawFunds",
      "outputs": [],
      "stateMutability": "nonpayable",
      "type": "function"
    }
  ],
  "bytecode": "0x6080604052600160045560006006556005600e5542600f553480156200002457600080fd5b506040516200262a3803806200262a83398181016040528101906200004a91906200043f565b60016000819055506000871162000098576040517f08c379a00000000000000000000000000000000000000000000000000000000081526004016200008f90620006bf565b60405180910390fd5b600073ffffffffffffffffffffffffffffffffffffffff168673ffffffffffffffffffffffffffffffffffffffff1614156200010b576040517f08c379a00000000000000000000000000000000000000000000000000000000081526004016200010290620006e1565b60405180910390fd5b600073ffffffffffffffffffffffffffffffffffffffff168573ffffffffffffffffffffffffffffffffffffffff1614156200017e576040517f08c379a000000000000000000000000000000000000000000000000000000000815260040162000175906200069d565b60405180910390fd5b8660098190555085600760006101000a81548173ffffffffffffffffffffffffffffffffffffffff021916908373ffffffffffffffffffffffffffffffffffffffff16021790555081600860006101000a81548173ffffffffffffffffffffffffffffffffffffffff021916908373ffffffffffffffffffffffffffffffffffffffff16021790555084600160006101000a81548173ffffffffffffffffffffffffffffffffffffffff021916908373ffffffffffffffffffffffffffffffffffffffff16021790555083600581905550600160009054906101000a900473ffffffffffffffffffffffffffffffffffffffff1673ffffffffffffffffffffffffffffffffffffffff1663a201b238600760009054906101000a900473ffffffffffffffffffffffffffffffffffffffff16856040518363ffffffff167c0100000000000000000000000000000000000000000000000000000000028152600401620002ec92919062000669565b602060405180830381600087803b1580156200030757600080fd5b505af11580156200031c573d6000803e3d6000fd5b505050506040513d601f19601f8201168201806040525081019062000342919062000413565b6003819055508060108190555050505050505050620008ec565b6000620003736200036d8462000737565b62000703565b9050828152602081018484840111156200038c57600080fd5b6200039984828562000828565b509392505050565b600081519050620003b2816200089e565b92915050565b600081519050620003c981620008b8565b92915050565b600082601f830112620003e157600080fd5b8151620003f38482602086016200035c565b91505092915050565b6000815190506200040d81620008d2565b92915050565b6000602082840312156200042657600080fd5b60006200043684828501620003fc565b91505092915050565b600080600080600080600060e0888a0312156200045b57600080fd5b60006200046b8a828b01620003fc565b97505060206200047e8a828b01620003a1565b9650506040620004918a828b01620003b8565b9550506060620004a48a828b01620003fc565b945050608088015167ffffffffffffffff811115620004c257600080fd5b620004d08a828b01620003cf565b93505060a0620004e38a828b01620003a1565b92505060c0620004f68a828b01620003fc565b91505092959891949750929550565b6200051081620007ec565b82525050565b600062000523826200076a565b6200052f818562000775565b93506200054181856020860162000828565b6200054c816200088d565b840191505092915050565b60006200056660248362000775565b91507f43726f776473616c653a20746f6b656e20697320746865207a65726f2061646460008301527f72657373000000000000000000000000000000000000000000000000000000006020830152604082019050919050565b6000620005ce60148362000775565b91507f43726f776473616c653a207261746520697320300000000000000000000000006000830152602082019050919050565b60006200061060258362000775565b91507f43726f776473616c653a2077616c6c657420697320746865207a65726f20616460008301527f64726573730000000000000000000000000000000000000000000000000000006020830152604082019050919050565b600060408201905062000680600083018562000505565b818103602083015262000694818462000516565b90509392505050565b60006020820190508181036000830152620006b88162000557565b9050919050565b60006020820190508181036000830152620006da81620005bf565b9050919050565b60006020820190508181036000830152620006fc8162000601565b9050919050565b6000604051905081810181811067ffffffffffffffff821117156200072d576200072c6200085e565b5b8060405250919050565b600067ffffffffffffffff8211156200075557620007546200085e565b5b601f19601f8301169050602081019050919050565b600081519050919050565b600082825260208201905092915050565b60006200079382620007c2565b9050919050565b6000620007a782620007c2565b9050919050565b6000620007bb8262000786565b9050919050565b600073ffffffffffffffffffffffffffffffffffffffff82169050919050565b6000819050919050565b6000620007f98262000800565b9050919050565b60006200080d8262000814565b9050919050565b60006200082182620007c2565b9050919050565b60005b83811015620008485780820151818401526020810190506200082b565b8381111562000858576000848401525b50505050565b7f4e487b7100000000000000000000000000000000000000000000000000000000600052604160045260246000fd5b6000601f19601f8301169050919050565b620008a9816200079a565b8114620008b557600080fd5b50565b620008c381620007ae565b8114620008cf57600080fd5b50565b620008dd81620007e2565b8114620008e957600080fd5b50565b611d2e80620008fc6000396000f3fe608060405260043610610183576000357c010000000000000000000000000000000000000000000000000000000090048063868e1809116100ee578063e678ce7b116100a7578063f9a4bb1e11610081578063f9a4bb1e14610546578063f9cfe26b14610571578063fbbdc4651461059c578063fc0c546a146105c757610183565b8063e678ce7b146104d4578063ecd0c0c3146104f0578063f00a93d31461051b57610183565b8063868e1809146103ae57806391039dee146103eb578063b8afaa4814610416578063dac36d7b14610441578063e27920a81461047e578063e61d9594146104a957610183565b80634042b66f116101405780634042b66f146102ac5780634f13dc7e146102d7578063521eb27314610302578063610757e41461032d5780636ed08ea01461035857806372a020e41461038357610183565b806304a75ec5146101885780631cf6843b146101c5578063218fdf431461020257806323e6f3401461022b5780632c4e722e146102565780633b13d18814610281575b600080fd5b34801561019457600080fd5b506101af60048036038101906101aa9190611467565b6105f2565b6040516101bc9190611885565b60405180910390f35b3480156101d157600080fd5b506101ec60048036038101906101e791906114b9565b61069f565b6040516101f9919061199b565b60405180910390f35b34801561020e57600080fd5b5061022960048036038101906102249190611467565b6106c8565b005b34801561023757600080fd5b50610240610764565b60405161024d919061199b565b60405180910390f35b34801561026257600080fd5b5061026b61076a565b604051610278919061199b565b60405180910390f35b34801561028d57600080fd5b50610296610774565b6040516102a3919061199b565b60405180910390f35b3480156102b857600080fd5b506102c161077a565b6040516102ce919061199b565b60405180910390f35b3480156102e357600080fd5b506102ec610784565b6040516102f9919061199b565b60405180910390f35b34801561030e57600080fd5b5061031761078a565b604051610324919061179c565b60405180910390f35b34801561033957600080fd5b506103426107b4565b60405161034f919061179c565b60405180910390f35b34801561036457600080fd5b5061036d6107da565b60405161037a919061199b565b60405180910390f35b34801561038f57600080fd5b506103986107e0565b6040516103a59190611885565b60405180910390f35b3480156103ba57600080fd5b506103d560048036038101906103d09190611467565b610806565b6040516103e2919061199b565b60405180910390f35b3480156103f757600080fd5b5061040061081e565b60405161040d919061199b565b60405180910390f35b34801561042257600080fd5b5061042b610828565b604051610438919061199b565b60405180910390f35b34801561044d57600080fd5b5061046860048036038101906104639190611467565b61082e565b604051610475919061199b565b60405180910390f35b34801561048a57600080fd5b506104936108bb565b6040516104a0919061199b565b60405180910390f35b3480156104b557600080fd5b506104be6108c1565b6040516104cb919061199b565b60405180910390f35b6104ee60048036038101906104e991906113ef565b6108cb565b005b3480156104fc57600080fd5b50610505610b0d565b60405161051291906118a0565b60405180910390f35b34801561052757600080fd5b50610530610b33565b60405161053d919061199b565b60405180910390f35b34801561055257600080fd5b5061055b610b3d565b604051610568919061179c565b60405180910390f35b34801561057d57600080fd5b50610586610b63565b604051610593919061199b565b60405180910390f35b3480156105a857600080fd5b506105b1610b69565b6040516105be919061199b565b60405180910390f35b3480156105d357600080fd5b506105dc610b73565b6040516105e991906118a0565b60405180910390f35b6000600b6000836002811115610631577f4e487b7100000000000000000000000000000000000000000000000000000000600052602160045260246000fd5b6002811115610669577f4e487b7100000000000000000000000000000000000000000000000000000000600052602160045260246000fd5b815260200190815260200160002060009054906101000a900473ffffffffffffffffffffffffffffffffffffffff169050919050565b6000806106ab8361082e565b9050600084826106bb9190611aae565b9050809250505092915050565b600760009054906101000a900473ffffffffffffffffffffffffffffffffffffffff1673ffffffffffffffffffffffffffffffffffffffff163373ffffffffffffffffffffffffffffffffffffffff1614610758576040517f08c379a000000000000000000000000000000000000000000000000000000000815260040161074f906118bb565b60405180910390fd5b61076181610b9d565b50565b60045481565b6000600954905090565b60105481565b6000600d54905090565b600f5481565b6000600760009054906101000a900473ffffffffffffffffffffffffffffffffffffffff16905090565b600760009054906101000a900473ffffffffffffffffffffffffffffffffffffffff1681565b60035481565b600260009054906101000a900473ffffffffffffffffffffffffffffffffffffffff1681565b600a6020528060005260406000206000915090505481565b6000600354905090565b60115481565b6000600a600083600281111561086d577f4e487b7100000000000000000000000000000000000000000000000000000000600052602160045260246000fd5b60028111156108a5577f4e487b7100000000000000000000000000000000000000000000000000000000600052602160045260246000fd5b8152602001908152602001600020549050919050565b600e5481565b6000600654905090565b60026000541415610911576040517f08c379a00000000000000000000000000000000000000000000000000000000081526004016109089061195b565b60405180910390fd5b60026000819055506000829050600061092a828461069f565b905061093885828486610e60565b6109ce81600c6000866002811115610979577f4e487b7100000000000000000000000000000000000000000000000000000000600052602160045260246000fd5b60028111156109b1577f4e487b7100000000000000000000000000000000000000000000000000000000600052602160045260246000fd5b81526020019081526020016000205461107590919063ffffffff16565b600c6000856002811115610a0b577f4e487b7100000000000000000000000000000000000000000000000000000000600052602160045260246000fd5b6002811115610a43577f4e487b7100000000000000000000000000000000000000000000000000000000600052602160045260246000fd5b815260200190815260200160002081905550610a6a8260065461107590919063ffffffff16565b600681905550610a7c8583858461108b565b8473ffffffffffffffffffffffffffffffffffffffff16610a9b611193565b73ffffffffffffffffffffffffffffffffffffffff167f6faf93231a456e552dbc9961f58d9713ee4f2e69d15f1975b050ef0911053a7b8385604051610ae29291906119b6565b60405180910390a3610af4858261119b565b610afe858261119f565b50506001600081905550505050565b600160009054906101000a900473ffffffffffffffffffffffffffffffffffffffff1681565b6000600554905090565b600860009054906101000a900473ffffffffffffffffffffffffffffffffffffffff1681565b60065481565b6000600454905090565b6000600160009054906101000a900473ffffffffffffffffffffffffffffffffffffffff16905090565b6000610ba8826105f2565b905060008173ffffffffffffffffffffffffffffffffffffffff166370a08231306040518263ffffffff167c0100000000000000000000000000000000000000000000000000000000028152600401610c019190611781565b60206040518083038186803b158015610c1957600080fd5b505afa158015610c2d573d6000803e3d6000fd5b505050506040513d601f19601f82011682018060405250810190610c519190611490565b90506000606490506000610c6583836111a3565b90508083610c739190611b08565b92508373ffffffffffffffffffffffffffffffffffffffff1663a9059cbb600760009054906101000a900473ffffffffffffffffffffffffffffffffffffffff16856040518363ffffffff167c0100000000000000000000000000000000000000000000000000000000028152600401610cee9291906117b7565b602060405180830381600087803b158015610d0857600080fd5b505af1158015610d1c573d6000803e3d6000fd5b505050506040513d601f19601f82011682018060405250810190610d40919061143e565b508373ffffffffffffffffffffffffffffffffffffffff1663a9059cbb600860009054906101000a900473ffffffffffffffffffffffffffffffffffffffff16836040518363ffffffff167c0100000000000000000000000000000000000000000000000000000000028152600401610dba9291906117b7565b602060405180830381600087803b158015610dd457600080fd5b505af1158015610de8573d6000803e3d6000fd5b505050506040513d601f19601f82011682018060405250810190610e0c919061143e565b5060008184610e1b9190611a27565b90507f8f4705a6d8c5af200050d845b50d0f90f838a179c62b9365daa314992598fc1b818386604051610e50939291906119df565b60405180910390a1505050505050565b600073ffffffffffffffffffffffffffffffffffffffff168473ffffffffffffffffffffffffffffffffffffffff161415610ed0576040517f08c379a0000000000000000000000000000000000000000000000000000000008152600401610ec79061191b565b60405180910390fd5b6000831415610f14576040517f08c379a0000000000000000000000000000000000000000000000000000000008152600401610f0b9061197b565b60405180910390fd5b6000600654905060008382610f299190611a27565b9050600554811115610f70576040517f08c379a0000000000000000000000000000000000000000000000000000000008152600401610f67906118fb565b60405180910390fd5b6000610f7b846105f2565b905060008173ffffffffffffffffffffffffffffffffffffffff1663dd62ed3e89306040518363ffffffff167c0100000000000000000000000000000000000000000000000000000000028152600401610fd69291906117e0565b60206040518083038186803b158015610fee57600080fd5b505afa158015611002573d6000803e3d6000fd5b505050506040513d601f19601f820116820180604052508101906110269190611490565b90508681101561106b576040517f08c379a00000000000000000000000000000000000000000000000000000000081526004016110629061193b565b60405180910390fd5b5050505050505050565b600081836110839190611a27565b905092915050565b6000611096836105f2565b90508073ffffffffffffffffffffffffffffffffffffffff166323b872dd8630856040518463ffffffff167c01000000000000000000000000000000000000000000000000000000000281526004016110f193929190611809565b602060405180830381600087803b15801561110b57600080fd5b505af115801561111f573d6000803e3d6000fd5b505050506040513d601f19601f82011682018060405250810190611143919061143e565b611182576040517f08c379a0000000000000000000000000000000000000000000000000000000008152600401611179906118db565b60405180910390fd5b61118c858561128d565b5050505050565b600033905090565b5050565b5050565b6000806111b08484611344565b905060006111be858561135a565b905060006111ce600e5486611344565b905060006111de600e548761135a565b905060006111f56111ef8685611370565b88611370565b905060006112038684611370565b905060006112118686611370565b9050600061121f8786611370565b9050600061122e8b6002611344565b9050600061123c8383611075565b9050600061124a828e611344565b905060006112588888611075565b905060006112668288611075565b905060006112748285611075565b9050809e50505050505050505050505050505092915050565b600160009054906101000a900473ffffffffffffffffffffffffffffffffffffffff1673ffffffffffffffffffffffffffffffffffffffff1663cd3a15f883836003546004546040518563ffffffff167c010000000000000000000000000000000000000000000000000000000002815260040161130e9493929190611840565b600060405180830381600087803b15801561132857600080fd5b505af115801561133c573d6000803e3d6000fd5b505050505050565b600081836113529190611a7d565b905092915050565b600081836113689190611c14565b905092915050565b6000818361137e9190611aae565b905092915050565b60008135905061139581611ca3565b92915050565b6000815190506113aa81611cba565b92915050565b6000813590506113bf81611cd1565b92915050565b6000813590506113d481611ce1565b92915050565b6000815190506113e981611ce1565b92915050565b60008060006060848603121561140457600080fd5b600061141286828701611386565b9350506020611423868287016113c5565b9250506040611434868287016113b0565b9150509250925092565b60006020828403121561145057600080fd5b600061145e8482850161139b565b91505092915050565b60006020828403121561147957600080fd5b6000611487848285016113b0565b91505092915050565b6000602082840312156114a257600080fd5b60006114b0848285016113da565b91505092915050565b600080604083850312156114cc57600080fd5b60006114da858286016113c5565b92505060206114eb858286016113b0565b9150509250929050565b6114fe81611b96565b82525050565b61150d81611b4e565b82525050565b61151c81611b3c565b82525050565b61152b81611ba8565b82525050565b61153a81611bcc565b82525050565b600061154d601983611a16565b91507f6f6e6c79206f7267616e61697a65722063616e20646f206974000000000000006000830152602082019050919050565b600061158d602c83611a16565b91507f7472616e736665722066726f6d20627579657220746f207468697320636f6e7460008301527f72616374206661696c65642000000000000000000000000000000000000000006020830152604082019050919050565b60006115f3602a83611a16565b91507f746f6b656e7320616d6f756e742073686f756c64206e6f74206578636565642060008301527f73616c655f6c696d6974000000000000000000000000000000000000000000006020830152604082019050919050565b6000611659602a83611a16565b91507f43726f776473616c653a2062656e656669636961727920697320746865207a6560008301527f726f2061646472657373000000000000000000000000000000000000000000006020830152604082019050919050565b60006116bf601383611a16565b91507f617070726f766564206e6f7420656e6f676874000000000000000000000000006000830152602082019050919050565b60006116ff601f83611a16565b91507f5265656e7472616e637947756172643a207265656e7472616e742063616c6c006000830152602082019050919050565b600061173f601983611a16565b91507f43726f776473616c653a20776569416d6f756e742069732030000000000000006000830152602082019050919050565b61177b81611b8c565b82525050565b60006020820190506117966000830184611513565b92915050565b60006020820190506117b16000830184611504565b92915050565b60006040820190506117cc60008301856114f5565b6117d96020830184611772565b9392505050565b60006040820190506117f56000830185611513565b6118026020830184611513565b9392505050565b600060608201905061181e6000830186611513565b61182b6020830185611513565b6118386040830184611772565b949350505050565b60006080820190506118556000830187611513565b6118626020830186611772565b61186f6040830185611772565b61187c6060830184611772565b95945050505050565b600060208201905061189a6000830184611522565b92915050565b60006020820190506118b56000830184611531565b92915050565b600060208201905081810360008301526118d481611540565b9050919050565b600060208201905081810360008301526118f481611580565b9050919050565b60006020820190508181036000830152611914816115e6565b9050919050565b600060208201905081810360008301526119348161164c565b9050919050565b60006020820190508181036000830152611954816116b2565b9050919050565b60006020820190508181036000830152611974816116f2565b9050919050565b6000602082019050818103600083015261199481611732565b9050919050565b60006020820190506119b06000830184611772565b92915050565b60006040820190506119cb6000830185611772565b6119d86020830184611772565b9392505050565b60006060820190506119f46000830186611772565b611a016020830185611772565b611a0e6040830184611772565b949350505050565b600082825260208201905092915050565b6000611a3282611b8c565b9150611a3d83611b8c565b9250827fffffffffffffffffffffffffffffffffffffffffffffffffffffffffffffffff03821115611a7257611a71611c45565b5b828201905092915050565b6000611a8882611b8c565b9150611a9383611b8c565b925082611aa357611aa2611c74565b5b828204905092915050565b6000611ab982611b8c565b9150611ac483611b8c565b9250817fffffffffffffffffffffffffffffffffffffffffffffffffffffffffffffffff0483118215151615611afd57611afc611c45565b5b828202905092915050565b6000611b1382611b8c565b9150611b1e83611b8c565b925082821015611b3157611b30611c45565b5b828203905092915050565b6000611b4782611b6c565b9050919050565b6000611b5982611b6c565b9050919050565b60008115159050919050565b600073ffffffffffffffffffffffffffffffffffffffff82169050919050565b6000819050919050565b6000611ba182611bf0565b9050919050565b6000611bb382611bba565b9050919050565b6000611bc582611b6c565b9050919050565b6000611bd782611bde565b9050919050565b6000611be982611b6c565b9050919050565b6000611bfb82611c02565b9050919050565b6000611c0d82611b6c565b9050919050565b6000611c1f82611b8c565b9150611c2a83611b8c565b925082611c3a57611c39611c74565b5b828206905092915050565b7f4e487b7100000000000000000000000000000000000000000000000000000000600052601160045260246000fd5b7f4e487b7100000000000000000000000000000000000000000000000000000000600052601260045260246000fd5b611cac81611b3c565b8114611cb757600080fd5b50565b611cc381611b60565b8114611cce57600080fd5b50565b60038110611cde57600080fd5b50565b611cea81611b8c565b8114611cf557600080fd5b5056fea2646970667358221220d4d06c647b92d8081c883587389779b1e62c1b2629ff295b836446b8e5e7828364736f6c63430008000033",
  "immutableReferences": {},
  "source": "pragma solidity ^0.8.0;\n\nimport './crowdsale/Crowdsale.sol';\nimport \"../../../node_modules/@openzeppelin/contracts/security/ReentrancyGuard.sol\";\nimport \"../../../node_modules/@openzeppelin/contracts/utils/math/SafeMath.sol\";\nimport \"../../../node_modules/@openzeppelin/contracts/utils/Context.sol\";\nimport \"../../../node_modules/@openzeppelin/contracts/token/ERC721/extensions/IERC721Enumerable.sol\";\nimport \"../../../node_modules/@openzeppelin/contracts/token/ERC20/IERC20.sol\";\nimport \"../../../node_modules/@openzeppelin/contracts/utils/Counters.sol\";\n\nimport './MSNFT.sol';\n\ncontract TokenSale721 is Context, ReentrancyGuard {\n\n\n    using SafeMath for uint256;\n    using SafeERC20 for IERC20;\n  //  using Counters for Counters.Counter;\n\n    // The token being sold\n    MSNFT public _token;\n\n    // Interface to currency token\n    IERC20 public _currency_token;\n\n    //event_id\n    uint256 public _event_id;\n\n    // ticket type\n    uint public _ticket_type = 1;\n\n    // maximum amount of tickets to sale\n   // Counters.Counter public _current_limit;\n    uint _sale_limit;\n    // how much have been already sold\n    uint public _sold_count = 0;\n\n    // Address where funds are collected\n    address payable public _wallet;\n\n    // Address where we collect comission\n    address payable public treasure_fund;\n\n    // How many token units a buyer gets per wei.\n    // NOTE : AS NFT SHOULD BE EQUAL 1\n    // The rate is the conversion between wei and the smallest and indivisible token unit.\n    // So, if you are using a rate of 1 with a ERC20Detailed token with 3 decimals called TOK\n    // 1 wei will give you 1 unit, or 0.001 TOK.\n    uint256 private _rate;\n\n   // uint256 private _price;\n\n    // Supported erc20 currencies: .. to be extended\n    enum CurrencyERC20 {USDT, USDC, SNM }\n\n    // Map from currency to price\n    mapping (CurrencyERC20 => uint256) public _price;\n\n    // map currency contract addresses\n    // FIXME: rework this part to have separate contract with ability to modify currency list \n    mapping (CurrencyERC20 => IERC20) internal _currencys;\n\n    mapping (CurrencyERC20 => uint256) internal currency_balances;\n\n    // Amount of wei raised\n    uint256 private _weiRaised;\n\n    // service comission fee\n    uint public percent_fee = 5;\n\n    // Creation date\n    uint public crDate = block.timestamp;\n\n    // How much time before event start (in seconds)\n    uint public _timeToStart;\n\n    // Funds, that have been locked\n    uint256 public lockedFunds;\n\n    /**\n     * Event for token purchase logging\n     * @param purchaser who paid for the tokens\n     * @param beneficiary who got the tokens\n     * @param value weis paid for purchase\n     * @param amount amount of tokens purchased\n     */\n    event TokensPurchased(address indexed purchaser, address indexed beneficiary, uint256 value, uint256 amount);\n\n    event CalculatedFees(uint256 initial_value, uint256 fees, uint256 transfered_amount);\n\n\n    /**\n     * @param rate Number of token units a buyer gets per wei\n     * @dev The rate is the conversion between wei and the smallest and indivisible\n     * token unit. So, if you are using a rate of 1 with a ERC20Detailed token\n     * with 3 decimals called TOK, 1 wei will give you 1 unit, or 0.001 TOK.\n     * @param wallet Address where collected funds will be forwarded to\n     * @param token Address of the token being sold\n     */\n    constructor (uint256 rate, address payable wallet, MSNFT token, uint sale_limit, string memory jid, address payable _treasure_fund,uint timeToStart)  {\n        require(rate > 0, \"Crowdsale: rate is 0\");\n        require(wallet != address(0), \"Crowdsale: wallet is the zero address\");\n        require(address(token) != address(0), \"Crowdsale: token is the zero address\");\n\n        _rate = rate;\n        _wallet = wallet;\n        treasure_fund = _treasure_fund;\n        _token = token;\n        _sale_limit = sale_limit;\n\n        _event_id = _token.reserveEventId(_wallet,jid);\n\n        _timeToStart = timeToStart;\n    }\n\n    /**\n     * @dev fallback function ***DO NOT OVERRIDE***\n     * Note that other contracts will transfer funds with a base gas stipend\n     * of 2300, which is not enough to call buyTokens. Consider calling\n     * buyTokens directly when purchasing tokens from a contract.\n     \n    fallback() external payable {\n        buyTokens(_msgSender());\n    }\n    */\n\n    /**\n     * @return the token being sold.\n     */\n    function token() public view returns (MSNFT) {\n        return _token;\n    }\n\n    /**\n     * @return the address where funds are collected.\n     */\n    function wallet() public view returns (address payable) {\n        return _wallet;\n    }\n\n    /**\n     * @return the number of token units a buyer gets per wei.\n        // NOTE: As NFT should be always equal 1 (?)\n     */\n    function rate() public view returns (uint256) {\n        return _rate;\n    }\n\n    /**\n     * @return the amount of wei raised.\n     */\n    function weiRaised() public view returns (uint256) {\n        return _weiRaised;\n    }\n\n    function event_id() public view returns (uint256) {\n        return _event_id;\n    }\n\n    function sale_limit() public view returns (uint) {\n        return _sale_limit;\n    }\n\n    function ticket_type() public view returns (uint) {\n        return _ticket_type;\n    }\n\n    function sold_count() public view returns (uint) {\n        return _sold_count;\n    }\n\n    function get_price(CurrencyERC20 currency) public view returns (uint256) {\n        return _price[currency];\n    }\n\n    function get_currency(CurrencyERC20 currency) public view returns (IERC20) {\n        return _currencys[currency];\n    }\n\n    // BUY TOKENS FOR ETHER/COIN (DEPRECATED)\n    /**\n     * @dev low level token purchase ***DO NOT OVERRIDE***\n     * This function has a non-reentrancy guard, so it shouldn't be called by\n     * another `nonReentrant` function.\n     * @param beneficiary Recipient of the token purchase\n     \n    function buyTokens(address beneficiary) public nonReentrant payable {\n        uint256 weiAmount = msg.value;\n\n        // calculate token amount to be created\n        uint256 tokens = _getTokenAmount(weiAmount);\n\n        _preValidatePurchase(beneficiary, weiAmount, tokens);\n\n        // update state\n        _weiRaised = _weiRaised.add(weiAmount);\n        _sold_count = _sold_count.add(tokens);\n\n        _processPurchase(beneficiary, tokens);\n        emit TokensPurchased(_msgSender(), beneficiary, weiAmount, tokens);\n\n        _updatePurchasingState(beneficiary, weiAmount);\n\n     //   _forwardFunds();\n         _lockFunds();\n        _postValidatePurchase(beneficiary, weiAmount);\n    }\n    **/\n\n     function buyTokens(address beneficiary,uint256 tokenAmountToBuy, CurrencyERC20 currency) public nonReentrant payable {\n        uint256 tokens = tokenAmountToBuy;\n\n\n        uint256 weiAmount = getWeiAmount(tokens,currency);\n\n        _preValidatePurchase(beneficiary, weiAmount, tokens, currency);\n\n        // update state\n        currency_balances[currency] = currency_balances[currency].add(weiAmount);\n        _sold_count = _sold_count.add(tokens);\n\n        _processPurchase(beneficiary, tokens,currency, weiAmount);\n        emit TokensPurchased(_msgSender(), beneficiary, weiAmount, tokens);\n\n        _updatePurchasingState(beneficiary, weiAmount);\n\n     //   _forwardFunds();\n    //     _lockFunds();\n        _postValidatePurchase(beneficiary, weiAmount);\n    }\n\n\n\n    /**\n     * @dev Validation of an incoming purchase. Use require statements to revert state when conditions are not met.\n     * Use `super` in contracts that inherit from Crowdsale to extend their validations.\n     * Example from CappedCrowdsale.sol's _preValidatePurchase method:\n     *     super._preValidatePurchase(beneficiary, weiAmount);\n     *     require(weiRaised().add(weiAmount) <= cap);\n     * @param beneficiary Address performing the token purchase\n     * @param weiAmount Value in wei involved in the purchase\n     */\n    function _preValidatePurchase(address beneficiary, uint256 weiAmount, uint256 tokens, CurrencyERC20 currency) internal view {\n        require(beneficiary != address(0), \"Crowdsale: beneficiary is the zero address\");\n        require(weiAmount != 0, \"Crowdsale: weiAmount is 0\");\n        uint sc = _sold_count;\n\n      \n\n        uint limit = sc + tokens;\n        require(limit <= _sale_limit, \"tokens amount should not exceed sale_limit\");\n\n     // Check allowance of currency balance\n        IERC20 currency_token = get_currency(currency);\n        uint256 approved_balance = currency_token.allowance(beneficiary, address(this));\n        require(approved_balance >= weiAmount, \"approved not enoght\");\n\n\n\n\n        this; // silence state mutability warning without generating bytecode - see https://github.com/ethereum/solidity/issues/2691\n    }\n\n    /**\n     * @dev Validation of an executed purchase. Observe state and use revert statements to undo rollback when valid\n     * conditions are not met.\n     * @param beneficiary Address performing the token purchase\n     * @param weiAmount Value in wei involved in the purchase\n     */\n    function _postValidatePurchase(address beneficiary, uint256 weiAmount) internal view {\n        // solhint-disable-previous-line no-empty-blocks\n    }\n\n    /**\n     * @dev Source of tokens. Override this method to modify the way in which the crowdsale ultimately gets and sends\n     * its tokens.\n     * @param beneficiary Address performing the token purchase\n     * @param tokenAmount Number of tokens to be emitted\n     */\n    function _deliverTokens(address beneficiary, uint256 tokenAmount) internal {\n        _token.buyTicket(beneficiary,tokenAmount, _event_id, _ticket_type);\n    }\n\n    /**\n     * @dev Executed when a purchase has been validated and is ready to be executed. Doesn't necessarily emit/send\n     * tokens.\n     * @param beneficiary Address receiving the tokens\n     * @param tokenAmount Number of tokens to be purchased\n     */\n    function _processPurchase(address beneficiary, uint256 tokenAmount, CurrencyERC20 currency, uint256 weiAmount) internal {\n        IERC20 currency_token = get_currency(currency);\n        require(currency_token.transferFrom(beneficiary, address(this), weiAmount), \"transfer from buyer to this contract failed \");\n        _deliverTokens(beneficiary, tokenAmount);\n    }\n\n    /**\n     * @dev Override for extensions that require an internal state to check for validity (current user contributions,\n     * etc.)\n     * @param beneficiary Address receiving the tokens\n     * @param weiAmount Value in wei involved in the purchase\n     */\n    function _updatePurchasingState(address beneficiary, uint256 weiAmount) internal {\n        // solhint-disable-previous-line no-empty-blocks\n    }\n\n    /**\n     * @dev Override to extend the way in which ether is converted to tokens.\n     * @param weiAmount Value in wei to be converted into tokens\n     * @return Number of tokens that can be purchased with the specified _weiAmount\n     */\n    function _getTokenAmount(uint256 weiAmount) internal view returns (uint256) {\n      //  require(condition, message);\n        require(weiAmount >= _rate, \"wei amount should be bigger or equal of rate\");\n       // uint256 ta = SafeMath.mul(weiAmount, _rate);\n        uint256 ta = (weiAmount / (1 ether)) / (_rate / (1 ether));\n        return ta;\n       // return weiAmount.mul(_rate);\n        //FIXME: round result to int, check math\n    }\n\n    function getWeiAmount(uint256 tokenAmountToBuy, CurrencyERC20 currency) public view returns(uint256){\n        uint256 price = get_price(currency);\n        uint256 weiAmount = price * tokenAmountToBuy;\n        return weiAmount;\n    }\n\n    /**\n     * @dev Determines how ERC20 is stored/forwarded on purchases.\n     */\n    function _forwardFunds(CurrencyERC20 currency) internal {\n        IERC20 currency_token =  get_currency(currency);\n        uint256 amount = currency_token.balanceOf(address(this));\n        uint256 scale = 100;\n        uint256 fees = calculateFee(amount,scale);\n        amount = amount - fees;\n        currency_token.transfer(_wallet,amount);\n        currency_token.transfer(treasure_fund,fees);\n        uint256 r = amount + fees;\n        emit CalculatedFees(r,fees,amount);\n    }\n\n/*\n    // Locking funds form sales to contract balance\n    function _lockFunds() internal payable {\n        uint256 amount = msg.value;\n        uint256 scale = 100;\n        uint256 fees = calculateFee(amount,scale);\n        amount = amount - fees;\n        treasure_fund.transfer(fees);\n        uint256 r = amount + fees;\n        emit CalculatedFees(r,fees,amount);\n        lockedFunds = lockedFunds + amount;\n\n    }\n    */\n\n    // WithDraw locked funds to organiser\n    function withDrawFunds(CurrencyERC20 currency) public {\n        require(msg.sender == _wallet, \"only organaizer can do it\");\n      /*\n        if (block.timestamp >= crDate - _timeToStart) {\n            _wallet.transfer(lockedFunds);\n            lockedFunds = 0;\n        } else {\n            revert(\"event is not started yet, funds are locked\");\n        }\n        */\n        _forwardFunds(currency);\n    }\n\n/*\n    function refundToken(address payable visitor, uint256 amount) internal {\n        visitor.transfer(amount);\n        lockedFunds = lockedFunds.sub(amount);\n    }\n*/\n    /*\n    *   EXAMPLE OF TAKING FEE (BASIC OPERATORS)\n    *\n    // calculate percent -- amount * percent / 100\n    function calculateFee(uint256 amount, uint256 scale) internal view returns (uint256) {\n        uint a = amount / scale;\n        uint b = amount % scale;\n        uint c = percent_fee / scale;\n        uint d = percent_fee % scale;\n\n        // Calculate fee with ROUND DOWN\n       // return a * c * scale + a * d + b * c + b * d / scale;\n\n       // calculate fee with ROUND UP\n     //   return a * c * scale + a * d + b * c + (b * d + scale - 1) / scale;\n\n     //calculate fee with CLOSESTS INTEGER\n        return a * c * scale + a * d + b * c + (b * d + scale / 2) / scale;\n\n    }\n    */\n\n\n    /*\n    *   Calculate fee (SafeMath)\n    */\n    function calculateFee(uint256 amount, uint256 scale) internal view returns (uint256) {\n        uint256 a = SafeMath.div(amount, scale);\n        uint256 b = SafeMath.mod(amount, scale);\n        uint256 c = SafeMath.div(percent_fee, scale);\n        uint256 d = SafeMath.mod(percent_fee, scale);\n\n        // Calculate fee with ROUND DOWN\n       // return a * c * scale + a * d + b * c + b * d / scale;\n\n       // calculate fee with ROUND UP\n     //   return a * c * scale + a * d + b * c + (b * d + scale - 1) / scale;\n\n     //calculate fee with CLOSESTS INTEGER\n       // return a * c * scale + a * d + b * c + (b * d + scale / 2) / scale;\n        uint256 m1 = SafeMath.mul(SafeMath.mul(a,c), scale);\n        uint256 m2 = SafeMath.mul(a,d);\n        uint256 m3 = SafeMath.mul(b,c);\n        uint m4 = SafeMath.mul(b,d);\n\n        uint256 d1 = SafeMath.div(scale,2);\n\n        uint256 a1 = SafeMath.add(m4,d1);\n        uint256 d2 = SafeMath.div(a1,scale);\n        uint256 a2 = SafeMath.add(m1,m2);\n        uint256 a3 = SafeMath.add(a2,m3);\n        uint256 a4 = SafeMath.add(a3,d2);\n        return a4;\n    }\n\n\n\n\n\n}",
  "sourcePath": "/home/jack/ethProjects/UniversalNFTMarketplace/contracts/721/singleton/TokenSale721.sol",
  "compiler": {
    "name": "solc",
    "version": "0.8.0+commit.c7dfd78e.Emscripten.clang"
  },
  "schemaVersion": "3.4.1",
  "updatedAt": "2021-06-20T19:06:23.763Z",
  "devdoc": {
    "events": {
      "TokensPurchased(address,address,uint256,uint256)": {
        "params": {
          "amount": "amount of tokens purchased",
          "beneficiary": "who got the tokens",
          "purchaser": "who paid for the tokens",
          "value": "weis paid for purchase"
        }
      }
    },
    "kind": "dev",
    "methods": {
      "buyTokens(address,uint256,uint8)": {
        "details": "low level token purchase ***DO NOT OVERRIDE*** This function has a non-reentrancy guard, so it shouldn't be called by another `nonReentrant` function.",
        "params": {
          "beneficiary": "Recipient of the token purchase function buyTokens(address beneficiary) public nonReentrant payable { uint256 weiAmount = msg.value; // calculate token amount to be created uint256 tokens = _getTokenAmount(weiAmount); _preValidatePurchase(beneficiary, weiAmount, tokens); // update state _weiRaised = _weiRaised.add(weiAmount); _sold_count = _sold_count.add(tokens); _processPurchase(beneficiary, tokens); emit TokensPurchased(_msgSender(), beneficiary, weiAmount, tokens); _updatePurchasingState(beneficiary, weiAmount); //   _forwardFunds(); _lockFunds(); _postValidatePurchase(beneficiary, weiAmount); }*"
        }
      },
      "constructor": {
        "details": "The rate is the conversion between wei and the smallest and indivisible token unit. So, if you are using a rate of 1 with a ERC20Detailed token with 3 decimals called TOK, 1 wei will give you 1 unit, or 0.001 TOK.",
        "params": {
          "rate": "Number of token units a buyer gets per wei",
          "token": "Address of the token being sold",
          "wallet": "Address where collected funds will be forwarded to"
        }
      },
      "rate()": {
        "returns": {
          "_0": "the number of token units a buyer gets per wei. // NOTE: As NFT should be always equal 1 (?)"
        }
      },
      "token()": {
        "returns": {
          "_0": "the token being sold."
        }
      },
      "wallet()": {
        "returns": {
          "_0": "the address where funds are collected."
        }
      },
      "weiRaised()": {
        "returns": {
          "_0": "the amount of wei raised."
        }
      }
    },
    "version": 1
  },
  "userdoc": {
    "events": {
      "TokensPurchased(address,address,uint256,uint256)": {
        "notice": "Event for token purchase logging"
      }
    },
    "kind": "user",
    "methods": {},
    "version": 1
  }
}